:020000040000FA
:10000000288EFF1F95020000C5020000C7020000F5
:10001000C9020000CB020000CD0200000000000079
:10002000000000000000000000000000CF020000FF
:10003000D102000000000000D3020000D502000041
:10004000191B0000291B0000391B0000491B000080
:10005000591B0000691B0000791B0000891B000070
:10006000991B0000A91B0000B91B0000C91B000060
:10007000D91B0000E91B0000F91B0000091C00004F
:10008000191C0000291C0000391C0000491C00003C
:10009000591C0000691C0000791C0000891C00002C
:1000A000991C0000A91C0000B91C0000C91C00001C
:1000B000D91C0000E91C0000F91C0000091D00000B
:1000C000191D0000291D0000391D0000491D0000F8
:1000D000591D0000691D0000791D0000891D0000E8
:1000E000991D0000A91D0000B91D0000C91D0000D8
:1000F000D91D0000E91D0000F91D0000091E0000C7
:10010000191E0000291E0000391E0000491E0000B3
:10011000591E0000691E0000791E0000891E0000A3
:10012000991E0000A91E0000B91E0000C91E000093
:10013000D91E0000E91E0000F91E0000091F000082
:10014000191F0000291F0000391F0000491F00006F
:10015000591F0000691F0000791F0000891F00005F
:10016000991F0000A91F0000B91F0000C91F00004F
:10017000D91F0000E91F0000F91F0000092000003E
:10018000192000002920000039200000492000002B
:10019000592000006920000079200000892000001B
:1001A00099200000A9200000B9200000C92000000B
:1001B000D9200000E9200000F920000009210000FA
:1001C00019210000292100003921000049210000E7
:1001D00059210000692100007921000089210000D7
:1001E00099210000A9210000B9210000C9210000C7
:1001F000D9210000E9210000F921000009220000B6
:1002000019220000292200003922000049220000A2
:100210005922000069220000792200008922000092
:1002200099220000A9220000B9220000C922000082
:10023000D9220000E9220000F92200000923000071
:10024000D7020000D7020000D7020000D70200004A
:10025000D7020000D7020000D7020000D70200003A
:10026000D7020000D7020000D7020000D70200002A
:10027000D7020000D7020000D7020000D70200001A
:10028000DFF80CD000F0D2FA004800475108000017
:10029000288EFF1F10484FF0770101600F484FF084
:1002A000770101600E484FF4885101600A484FF011
:1002B0007601016009484FF07601016009488047E6
:1002C00009480047FEE7FEE7FEE7FEE7FEE7FEE738
:1002D000FEE7FEE7FEE7FEE7040805400C080540E0
:1002E00000080540E92E0000810200002DE9F05FC2
:1002F0000546002092469B46884606468146402495
:100300001BE0284641464746224600F0EAF953469C
:100310005A46C01A914110D311461846224600F0A1
:10032000D1F92D1A67EB01084F4622460120002122
:1003300000F0C8F917EB00094E41201EA4F101049A
:10034000DFDC484631462A464346BDE8F09FF0B41C
:1003500080EA0102D40F4200B2EB410F02D2024602
:10036000084611464A0042D0C30DDDB2C1F3C75260
:10037000AD1A202D35DAC1F3160141F4000204B1A3
:100380005242C5F1200602FA06F12A411044B3EBAD
:10039000D05F23D0C4B1012DA0EBC35009DCF0BC69
:1003A0004FF0004202EAC352DBB200F5000000F059
:1003B000B1B9400000F1807000EBC350A0F1807033
:1003C00040EAD170490009E0490841EAC071A0EB58
:1003D000C35000F50000400800EBC350F0BC00F033
:1003E00090B96142012202EB4101001BF6E7F0BC2B
:1003F000704781F00041AAE780F00040A7E770470E
:10040000BFFFDFFFFFFEFFFFFFFFFFFFFFFFFFFF5D
:10041000FFFFFFFFFFFFFFFFFFFFFFFFFFFFFFFFEC
:1004200080EA010210B502F00043400022D04A00E9
:100430001FD0010E01EB1261C0F35600C2F3560249
:1004400040F4000042F40002A0FB022000047F39C7
:10045000140400D0401C50EA124001D44000491E50
:10046000C2B20C0604EBD010401C4008802A02D017
:1004700003E0002010BD20F00100002900DA002078
:10048000184310BD30B480EA010202F0004530F09C
:10049000004221F0004013D090B1C30DD40DC2F33F
:1004A0001601C0F31600E41A41F4000140F4000202
:1004B0007D34914201D3641C00E04900002C02DA33
:1004C00030BC002070474FF400000023914201D35C
:1004D000891A034340084FEA4101F7D151B19142D3
:1004E00002D14FF0004105E002D24FF0010101E0DE
:1004F0006FF0010103EBC450284430BC00F001B997
:100500002DE9F04D81EA030404F0004B21F0004591
:1005100014464FF0000A23F0004150EA050220D0B3
:1005200054EA01021DD0C5F30A570246C5F313036E
:10053000C1F31300C1F30A5640F4801543F480134D
:10054000A7EB0608101BD64608F2FD3873EB050032
:1005500002D308F1010801E092185B41B8F1000FE5
:1005600003DA00200146BDE8F08D00204FF4801131
:10057000064684460EE0171B73EB050705D3121BD6
:1005800063EB050306434CEA010C49084FEA3000CF
:1005900092185B4150EA0107EDD152EA030012D0F4
:1005A00082EA040083EA0501084305D0101BAB4131
:1005B00006D20122002306E000224FF0004302E0B1
:1005C0006FF0010253101AEB06004CEB085110EBD0
:1005D0000A0041EB0B01BDE8F04D00F0C9B89623CD
:1005E0000022114600F096B80EB540F23341029158
:1005F0000021CDE900110A460B4600F0C8F803B00F
:1006000000BD0EB540F2334202920022CDE9002235
:10061000134600F0BCF803B000BD00F0004220F02B
:100620000040C10DC0F3160040F400007F2901DA3C
:1006300000207047962903DCC1F19601C84001E013
:1006400096398840002AF4D04042704701F00043B8
:1006500030B421F0004150EA010206D00A0DA2F5A3
:100660006072C1F31301002A02DC30BC0020704725
:10067000440F44EAC104C100E01830BC00EBC25092
:1006800000F03FB8002801DBC0F10040002901DB89
:10069000C1F100418142704730B50B460146002050
:1006A0002022012409E021FA02F59D4205D303FA34
:1006B00002F5491B04FA02F52844151EA2F10102B5
:1006C000F1DC30BD202A04DB203A00FA02F10020E0
:1006D00070479140C2F1200320FA03F31943904080
:1006E0007047202A04DB203A21FA02F000217047EB
:1006F00021FA02F3D040C2F120029140084319468A
:1007000070470029A8BF7047401C490008BF20F06F
:100710000100704710B4B0FA80FC00FA0CF050EA07
:10072000010404BF10BC704749B1CCF1200421FA88
:1007300004F411FA0CF118BF012121430843A3EB83
:100740000C01CB1D4FEA00614FEA102042BF002090
:1007500010BC704700EBC35010440029A4BF10BC6C
:100760007047401C490008BF20F0010010BC7047D2
:1007700010B5141E73F1000408DA401C41F10001A9
:1007800092185B411A4301D120F0010010BD2DE900
:10079000F04D92469B4611B1B1FA81F202E0B0FAF7
:1007A00080F220329046FFF78DFF04460F4640EA64
:1007B0000A0041EA0B0153465A46084313D011463A
:1007C00053EA010019D0C8F140025046FFF789FFF3
:1007D00005460E46504659464246FFF773FF08430A
:1007E00005D0012004E020463946BDE8F08D002008
:1007F000054346EAE0762C4337430A986305E40A4A
:10080000A0EB08000022FD0A44EA47540A3002D552
:1008100000200146E9E7010510196941DDE90845B5
:1008200000196941BDE8F04DA2E70000064C074DF4
:1008300006E0E06840F0010394E8070098471034B0
:10084000AC42F6D3FFF720FD703B0000903B000068
:1008500010B502F0E3FA03F0E9F8002010BD000043
:1008600010B58AB005A801F0EDF8002415E01A4A89
:1008700002EB84025188184A12F8240005AA00F0FD
:100880001FFF154A02EB84025188134A12F8240014
:10089000082201F065F8601CC4B2032CE7D30121E3
:1008A000C80700F023FE012000F050FA684601F06E
:1008B00065FE002000904FF0106001904FF4801012
:1008C0000290C01003904FF4E0400490684601F09D
:1008D00055FD0AB010BD0000E03A000001460020BE
:1008E000054A12680A402AB10120034A12688A4365
:1008F000014B1A60704700002080FF1F10B500F008
:10090000A9F8FFF7ADFF002407E0074901EB041148
:10091000486800F03DFD601CC4B2042CF5D30120F2
:1009200001F0FAFC10BD0000EC3A000010B50848D8
:10093000006840F400600649086000BF0221012001
:1009400000F0C2FF0028F9D0022000F021FD10BD08
:100950002080FF1F10B500BF1048006800F007009E
:1009600004460F49486800F02FFD012814D100BF4C
:100970000B4A5188107800F0A7FF38B90120A04039
:1009800008490968084307490860F1E704494868CD
:1009900000F0FEFC00BF00BF10BD0000080C0540C9
:1009A000EC3A00002080FF1F10B500BF104800681F
:1009B00000F0070004460F49486900F005FD0128D2
:1009C00014D100BF0B4A518A107C00F07DFF38B96A
:1009D0001020A04008490968084307490860F1E76A
:1009E0000449486900F0D4FC00BF00BF10BD0000FE
:1009F000080C0540EC3A00002080FF1F10B500BF36
:100A00001148006800F0070004461049486A00F0E9
:100A1000DBFC012816D100BF0C4A518C92F8200053
:100A200000F052FF40B94FF48070A04008490968B7
:100A3000084307490860EFE70449486A00F0A8FC4A
:100A400000BF00BF10BD0000080C0540EC3A0000DC
:100A50002080FF1F30B58BB001A800F0F3FF4FF4EA
:100A60008050ADF812004020ADF80E0000240CE0DC
:100A7000374A02EB04125188354A02EB041210780F
:100A800001AA00F01DFE601CC4B2042CF0D308A81B
:100A900000F022FD00200A90002408E02C4901EB20
:100AA0000411486808A900F0ADFC601CC4B2042C15
:100AB000F4D3002447E0264800EB04100089ADF889
:100AC0001800234800EB04104089ADF81A002048B4
:100AD00000EB0410C068079006A800F0C3FFBDF942
:100AE0001A00002807DB00F01F0201219140194A7B
:100AF000430942F8231000BFBDF91A000F21002856
:100B000004DB0A07130E144A135406E00A07150EF5
:100B1000124A00F00F031B1FD55400BFBDF91A0085
:100B200000280DDB00BF00BF00F01F020121914033
:100B30004209920002F1E022C2F8001100BF00BF9A
:100B400000BF601CC4B2042CB5D30BB030BD000094
:100B5000EC3A000080E200E000E400E018ED00E084
:100B6000F0B58DB007460D466FF00206002D36D069
:100B700024224021042000F0F3FE0121C80600F0E9
:100B80000BFD01A802F034FE4FF400400890002253
:100B900001A9144802F022FD00241DE0214611485D
:100BA00002F0C8FC0CAA29460E4802F02DFC0646AD
:100BB0007EB90D480C99FFF765FD0AD80B490C98D2
:100BC000FFF760FD05D801220821064802F05AFB14
:100BD00004E04FF0FF36641C032CDFD900BF304621
:100BE0000DB0F0BD00140240CDCCCCBCCDCCCC3C83
:100BF00008B50021009102E00099491C009100997C
:100C00008142F9D308BD000010B5044600BF24B1ED
:100C100044F06900692800D104E040F2BB5106A00D
:100C200000F04EFB00BF13480078204008B10120BF
:100C300010BD0020FCE700002E2E2F2E2E2F2E2E72
:100C40002F2E2E2F2E2E2F2E2E2F64726976657248
:100C5000732F686333325F6C6C5F647269766572A0
:100C60002F7372632F686333325F6C6C5F636C6BDE
:100C70002E6300003C40054070B50446002500BFCF
:100C80000CB1012C00D104E040F23F311EA000F075
:100C900017FB00BF00BF2B48008800F0010000B127
:100CA00004E04FF4507118A000F00AFB00BFF4B943
:100CB0002548007800F0070010B96FF0050520E026
:100CC0002148DA300068C0F3C01058B11E48001D3A
:100CD000007810B96FF0050513E001201A491031B2
:100CE00008700EE0012018491031087009E000205A
:100CF0001549103108704FF48051012000F07CF844
:100D00000546284670BD00002E2E2F2E2E2F2E2E8B
:100D10002F2E2E2F2E2E2F2E2E2F64726976657277
:100D2000732F686333325F6C6C5F647269766572CF
:100D30002F7372632F686333325F6C6C5F636C6B0D
:100D40002E630000FE4305402640054070B5044672
:100D5000002500BF0CB1012C00D104E040F20231AB
:100D600014A000F0ADFA00BF00BF2148008800F0D9
:100D7000010000B104E040F203310EA000F0A0FA3F
:100D800000BF6CB91B48007800F00700022802D1B0
:100D90006FF005050BE0012015492931087006E0C8
:100DA00000201349293108704815FFF721FF284614
:100DB00070BD00002E2E2F2E2E2F2E2E2F2E2E2FDA
:100DC0002E2E2F2E2E2F647269766572732F686314
:100DD00033325F6C6C5F6472697665722F73726315
:100DE0002F686333325F6C6C5F636C6B2E63000043
:100DF000FE43054026400540F8B505460C46002058
:100E000000906FF0070609E02846FFF7FDFE012875
:100E100001D1002605E00098401C00900098A042F7
:100E2000F2D900BF3046F8BD70B50446002500BFBA
:100E30000CB1012C00D104E040F2874114A000F075
:100E40003FFA00BF00BF2148008800F0010000B158
:100E500004E04FF491610EA000F032FA00BF6CB9CB
:100E60001B48007800F00700042802D16FF0050548
:100E70000BE0012015492231087006E000201349DB
:100E8000223108704815FFF7B3FE284670BD0000F8
:100E90002E2E2F2E2E2F2E2E2F2E2E2F2E2E2F2E6D
:100EA0002E2F647269766572732F686333325F6CBC
:100EB0006C5F6472697665722F7372632F68633337
:100EC000325F6C6C5F636C6B2E630000FE43054009
:100ED0002640054070B50446002500BF0CB1012C2A
:100EE00000D104E040F2CB311EA000F0E9F900BFD0
:100EF00000BF2B48008800F0010000B104E04FF46F
:100F0000737118A000F0DCF900BFFCB92548007827
:100F100000F00700032802D16FF0050520E021480A
:100F2000DA300068C0F3C01058B91E48001D0078C0
:100F300010B96FF0050513E001201A490C31087053
:100F40000EE0012017490C31087009E00020154916
:100F50000C3108704FF480510820FFF74DFF054613
:100F6000284670BD2E2E2F2E2E2F2E2E2F2E2E2FBA
:100F70002E2E2F2E2E2F647269766572732F686362
:100F800033325F6C6C5F6472697665722F73726363
:100F90002F686333325F6C6C5F636C6B2E63000091
:100FA000FE430540264005402DE9FC4704460F4618
:100FB00090469946DDE90AA54FF0FF361048844275
:100FC00008D01048844205D00F48844202D00F4810
:100FD000844208D14B46424639462046CDE900A519
:100FE00000F016F806463EB14B46424639462046CA
:100FF000009500F0CFF806463046BDE8FC870000BB
:1010000000D0014000D40140001002400014024012
:101010002DE9FF4F8BB082466FF00200079000BFB2
:101020004848824508D04848824505D0474882450F
:1010300002D04748824500D104E04FF4167145A024
:1010400000F03EF900BF0C9CDDF834900E980028AB
:1010500073D01898002870D0002C6ED0B9F1000F12
:101060006BD04FEA8900B4FBF0F0451E002D64D030
:10107000FF2D62D800206A1C404104234FF0000C71
:10108000A2FB031B00FB03B002FB0C02A1FB0973D4
:1010900002FB093201FB0C284FF480700021A7FBF2
:1010A00000B308FB003007FB010C22460B465846F4
:1010B0006146FFF71BF98021461A7F2E3DD80E9816
:1010C0000560189806601998A8B34A004FF0000C04
:1010D0003B46A3FB020B08FB02B107FB0C180746BB
:1010E00000208022B11840EB00030022A1FB040C79
:1010F00003FB04C301FB0231CDE908013846414638
:10110000FFF77FFACDE90201DDE90801FFF779FA7F
:10111000CDE90001DDE90223FFF7F2F9CDE9040191
:10112000FFF794FA83464FF07E51FFF762F90A9079
:1011300019990A9808600020079007980FB0BDE839
:10114000F08F000000D0014000D4014000100240A8
:10115000001402402E2E2F2E2E2F2E2E2F2E2E2F0D
:101160002E2E2F2E2E2F647269766572732F686370
:1011700033325F6C6C5F6472697665722F73726371
:101180002F686333325F6C6C5F75736172742E63AA
:10119000000000002DE9FF4F89B006469A466FF027
:1011A0000200079000BF3248864208D0314886428C
:1011B00005D03148864202D03048864200D104E052
:1011C00040F295112EA000F07BF800BFDDF82890CA
:1011D0000B9DBAF1000F47D0B9F1000F44D0002D9C
:1011E00042D009EB89004000A900B0FBF1F0401D9E
:1011F0000A21B0FBF1F0441EB4B3FF2C34D8CAF876
:101200000040169870B30020621C404104234FF048
:10121000000CA2FB031E00FB03E002FB0C02634672
:10122000A1FB057C02FB05C201FB032838464146B1
:10123000FFF7E7F9CDE902014846FFF7D5F9CDE917
:101240000001DDE90223FFF75BF9CDE90401FFF7B7
:10125000FDF94FF07E510690FFF7CBF883461699C3
:10126000C1F800B00020079007980DB0BDE8F08FDE
:1012700000D0014000D401400010024000140240A0
:101280002E2E2F2E2E2F2E2E2F2E2E2F2E2E2F2E79
:101290002E2F647269766572732F686333325F6CC8
:1012A0006C5F6472697665722F7372632F68633343
:1012B000325F6C6C5F75736172742E6300000000A6
:1012C00004460D462A46214602A002F0A9FA00BFB4
:1012D000FEE7000057726F6E6720706172616D6586
:1012E000746572732076616C75653A2066696C6509
:1012F000202573206F6E206C696E652025640D0AB1
:101300000000000038B50246002300250095D81ED5
:1013100000BF0D4D2D682C4600BF0C4D2D68294691
:1013200089B105E00D6805F08003009D6D1C0095F6
:10133000009DA54201D8002BF4D013B14A600020D3
:1013400001E06FF0070038BD1C80FF1F1880FF1FF1
:1013500008B50D49096AC1F302630C490968D9400F
:1013600042F210731944491EB1FBF3F206E00092F9
:1013700000BF00994B1E00930029FAD1011EA0F175
:101380000100F4D108BD0000004005400080FF1FAF
:1013900010B5044600BF3CB14FF6FF7020434FF636
:1013A000FF71884200D104E040F203210448FFF7B6
:1013B00087FF00BF0348806D20430249886510BD48
:1013C0002C3B00000010054010B5044600BF3CB1A6
:1013D0004FF6FF7020434FF6FF71884200D104E0C2
:1013E0004FF404710548FFF76BFF00BF0448406DE0
:1013F000204008B1012010BD0020FCE72C3B00007C
:10140000001005402DE9F04706460C464FF0000954
:1014100014B96FF0020958E000BF3EB14FF6FF70FB
:1014200030434FF6FF71884200D104E040F2D311FF
:101430002748FFF745FF00BF00BF206810B12068B4
:10144000802800D104E04FF4EA712148FFF738FF0B
:1014500000BF00BF606840B16068102805D06068B8
:10146000202802D06068302800D104E040F2D51175
:101470001748FFF725FF00BF00BFA068032807D06B
:10148000A068012804D0A06810B1A068022800D18B
:1014900004E04FF4EB710E48FFF712FF00BF002588
:1014A00011E00120A840304058B1D4E900010843C0
:1014B000A16840EA01070748042101FB0508C8F8B4
:1014C0000070681CC5B2102DEBD34846BDE8F0870C
:1014D0002C3B0000101005400146002009B9C01E39
:1014E00003E000220A604A608A60704770B50446D3
:1014F0000D4600BF2CB1174820431649884200D141
:1015000003E0712114A0FFF7DBFE00BF00BF0DB1A7
:10151000012D00D103E072210FA0FFF7D1FE00BF23
:1015200000BF1C48006900F0010000B103E0732116
:1015300009A0FFF7C5FE00BF012D05D115480068C1
:10154000A0431449086004E0124800682043114990
:10155000086070BD11C5F38F2E2E2F2E2E2F2E2E2C
:101560002F2E2E2F2E2E2F2E2E2F6472697665721F
:10157000732F686333325F6C6C5F64726976657277
:101580002F7372632F686333325F6C6C5F666367BF
:101590002E6300000080044070B504460D4600BF75
:1015A0002CB1114820431049884200D103E0842126
:1015B0000EA0FFF785FE00BF00BF0DB1012D00D1C9
:1015C00003E0852109A0FFF77BFE00BF012D05D1B7
:1015D00015484068A0431449486004E01248406838
:1015E00020431149486070BD79FD0F0F2E2E2F2E1C
:1015F0002E2F2E2E2F2E2E2F2E2E2F2E2E2F64728C
:1016000069766572732F686333325F6C6C5F6472E6
:10161000697665722F7372632F686333325F6C6C07
:101620005F6663672E6300000080044070B5044667
:101630000D4600BF3CB141F20310204341F20311BB
:10164000884200D103E0A8210DA0FFF739FE00BFBA
:1016500000BF0DB1012D00D103E0A92108A0FFF7C3
:101660002FFE00BF012D05D11448C068A0431349C7
:10167000C86004E01148C06820431049C86070BDCC
:101680002E2E2F2E2E2F2E2E2F2E2E2F2E2E2F2E75
:101690002E2F647269766572732F686333325F6CC4
:1016A0006C5F6472697665722F7372632F6863333F
:1016B000325F6C6C5F6663672E63000000800440DD
:1016C0002DE9F05F05460F4614464FF0000B14B9A4
:1016D0006FF0020BD5E000BF6B48008800F00100FE
:1016E00000B103E0FF2169A0FFF7EAFD00BF00BFE2
:1016F0004DB1012D07D0022D05D0032D03D0042DAF
:1017000001D0052D00D104E04FF480715FA0FFF7F8
:10171000D7FD00BF00BF17B1B8B200B104E040F27E
:1017200001115AA0FFF7CCFD00BF00BF208810B107
:101730002088012800D104E04FF4817153A0FFF705
:10174000BFFD00BF00BF608810B16088022800D1D3
:1017500004E040F203114DA0FFF7B2FD00BF00BF4F
:10176000A08810B1A088042800D104E04FF4827151
:1017700046A0FFF7A5FD00BF00BFE08828B1E088C4
:10178000102802D0E088202800D104E040F20511A2
:101790003EA0FFF795FD00BF00BF208918B120894A
:1017A000B0F5804F00D104E04FF4837137A0FFF70C
:1017B00087FD00BF00BF608910B16089402800D15B
:1017C00004E040F2071131A0FFF77AFD00BF00BF2F
:1017D000A08918B1A089B0F5007F00D104E04FF4D2
:1017E00084712AA0FFF76CFD00BF00BFE08918B12B
:1017F000E089B0F5805F00D104E040F2091123A038
:10180000FFF75EFD00BF00BF208A18B1208AB0F547
:10181000004F00D104E04FF485711CA0FFF750FD8C
:1018200000BF00262BE00120B040384028B32088BC
:1018300061880843A1880843E18808436189084317
:10184000A1890843E1890843218940EA010A45F258
:101850007728208A40EA0A0A48F400480A48001D0E
:1018600000EB851000EB8609B9F8000020EA0800BB
:101870000AEA08010843A9F80000701CC6B2102E3D
:10188000D1D35846BDE8F09FFC3B05402E2E2F2EAD
:101890002E2F2E2E2F2E2E2F2E2E2F2E2E2F6472E9
:1018A00069766572732F686333325F6C6C5F647244
:1018B000697665722F7372632F686333325F6C6C65
:1018C0005F6770696F2E630070B504460D4600BFF8
:1018D0004CB1012C07D0022C05D0032C03D0042CD2
:1018E00001D0052C00D104E040F2F1110CA0FFF76B
:1018F000E7FC00BF00BF15B1A8B200B104E04FF48F
:10190000F97107A0FFF7DCFC00BF144901EB0410DC
:10191000B0F80008284008B1012070BD0020FCE7A5
:101920002E2E2F2E2E2F2E2E2F2E2E2F2E2E2F2ED2
:101930002E2F647269766572732F686333325F6C21
:101940006C5F6472697665722F7372632F6863339C
:10195000325F6C6C5F6770696F2E6300003005400A
:101960002DE9F04104460F46164600BF4CB1012C4C
:1019700007D0022C05D0032C03D0042C01D0052C59
:1019800000D104E040F277111EA0FFF799FC00BFE0
:1019900000BF17B1B8B200B104E04FF4BC7119A098
:1019A000FFF78EFC00BF00BF0F2E03D9202E02D3FD
:1019B0003B2E00D804E040F2791112A0FFF780FC22
:1019C00000BF00BF1E48008800F0010000B104E025
:1019D0004FF4BD710BA0FFF773FC00BF00250DE0B5
:1019E0000120A840384038B11548801D00EB841014
:1019F00000EB8508A8F80060681CC5B2102DEFD375
:101A0000BDE8F0812E2E2F2E2E2F2E2E2F2E2E2F94
:101A10002E2E2F2E2E2F647269766572732F6863B7
:101A200033325F6C6C5F6472697665722F737263B8
:101A30002F686333325F6C6C5F6770696F2E630071
:101A4000FC3B05400146002009B9C01E09E0002208
:101A50000A804A80CA800A820A814A818A81CA81B0
:101A60008A80704770B5044600260CB9F61E4BE01C
:101A700000BF2088B0F5007F00DA03E0C3212348CF
:101A8000FFF71EFC00BF2088400900EB400020212A
:101A900001EB4000B4F9021088420AD820884009BE
:101AA00000EB4000252101EB4000B4F90210884210
:101AB00006D2B4F90200202802D36FF0020623E018
:101AC00060881349042212FB00152868C0F308003F
:101AD00040F2FF11884208D120882860B4F9021032
:101AE0000C4A606842F821000EE020882968C1F3A2
:101AF0000801884206D1B4F90210064A606842F82B
:101B0000210001E06FF00106304670BD2C3B000063
:101B10005C1005402880FF1F10B502490868804707
:101B200010BD00002880FF1F10B50249486880479B
:101B300010BD00002880FF1F10B50249886880474B
:101B400010BD00002880FF1F10B50249C8688047FB
:101B500010BD00002880FF1F10B5024908698047AA
:101B600010BD00002880FF1F10B50249486980475A
:101B700010BD00002880FF1F10B50249886980470A
:101B800010BD00002880FF1F10B50249C8698047BA
:101B900010BD00002880FF1F10B50249086A804769
:101BA00010BD00002880FF1F10B50249486A804719
:101BB00010BD00002880FF1F10B50249886A8047C9
:101BC00010BD00002880FF1F10B50249C86A804779
:101BD00010BD00002880FF1F10B50249086B804728
:101BE00010BD00002880FF1F10B50249486B8047D8
:101BF00010BD00002880FF1F10B50249886B804788
:101C000010BD00002880FF1F10B50249C86B804737
:101C100010BD00002880FF1F10B50249086C8047E6
:101C200010BD00002880FF1F10B50249486C804796
:101C300010BD00002880FF1F10B50249886C804746
:101C400010BD00002880FF1F10B50249C86C8047F6
:101C500010BD00002880FF1F10B50249086D8047A5
:101C600010BD00002880FF1F10B50249486D804755
:101C700010BD00002880FF1F10B50249886D804705
:101C800010BD00002880FF1F10B50249C86D8047B5
:101C900010BD00002880FF1F10B50249086E804764
:101CA00010BD00002880FF1F10B50249486E804714
:101CB00010BD00002880FF1F10B50249886E8047C4
:101CC00010BD00002880FF1F10B50249C86E804774
:101CD00010BD00002880FF1F10B50249086F804723
:101CE00010BD00002880FF1F10B50249486F8047D3
:101CF00010BD00002880FF1F10B50249886F804783
:101D000010BD00002880FF1F10B50249C86F804732
:101D100010BD00002880FF1F10B50249D1F88000D7
:101D2000804710BD2880FF1F10B50249D1F88400FC
:101D3000804710BD2880FF1F10B50249D1F88800E8
:101D4000804710BD2880FF1F10B50249D1F88C00D4
:101D5000804710BD2880FF1F10B50249D1F89000C0
:101D6000804710BD2880FF1F10B50249D1F89400AC
:101D7000804710BD2880FF1F10B50249D1F8980098
:101D8000804710BD2880FF1F10B50249D1F89C0084
:101D9000804710BD2880FF1F10B50249D1F8A00070
:101DA000804710BD2880FF1F10B50249D1F8A4005C
:101DB000804710BD2880FF1F10B50249D1F8A80048
:101DC000804710BD2880FF1F10B50249D1F8AC0034
:101DD000804710BD2880FF1F10B50249D1F8B00020
:101DE000804710BD2880FF1F10B50249D1F8B4000C
:101DF000804710BD2880FF1F10B50249D1F8B800F8
:101E0000804710BD2880FF1F10B50249D1F8BC00E3
:101E1000804710BD2880FF1F10B50249D1F8C000CF
:101E2000804710BD2880FF1F10B50249D1F8C400BB
:101E3000804710BD2880FF1F10B50249D1F8C800A7
:101E4000804710BD2880FF1F10B50249D1F8CC0093
:101E5000804710BD2880FF1F10B50249D1F8D0007F
:101E6000804710BD2880FF1F10B50249D1F8D4006B
:101E7000804710BD2880FF1F10B50249D1F8D80057
:101E8000804710BD2880FF1F10B50249D1F8DC0043
:101E9000804710BD2880FF1F10B50249D1F8E0002F
:101EA000804710BD2880FF1F10B50249D1F8E4001B
:101EB000804710BD2880FF1F10B50249D1F8E80007
:101EC000804710BD2880FF1F10B50249D1F8EC00F3
:101ED000804710BD2880FF1F10B50249D1F8F000DF
:101EE000804710BD2880FF1F10B50249D1F8F400CB
:101EF000804710BD2880FF1F10B50249D1F8F800B7
:101F0000804710BD2880FF1F10B50249D1F8FC00A2
:101F1000804710BD2880FF1F10B50249D1F800018D
:101F2000804710BD2880FF1F10B50249D1F8040179
:101F3000804710BD2880FF1F10B50249D1F8080165
:101F4000804710BD2880FF1F10B50249D1F80C0151
:101F5000804710BD2880FF1F10B50249D1F810013D
:101F6000804710BD2880FF1F10B50249D1F8140129
:101F7000804710BD2880FF1F10B50249D1F8180115
:101F8000804710BD2880FF1F10B50249D1F81C0101
:101F9000804710BD2880FF1F10B50249D1F82001ED
:101FA000804710BD2880FF1F10B50249D1F82401D9
:101FB000804710BD2880FF1F10B50249D1F82801C5
:101FC000804710BD2880FF1F10B50249D1F82C01B1
:101FD000804710BD2880FF1F10B50249D1F830019D
:101FE000804710BD2880FF1F10B50249D1F8340189
:101FF000804710BD2880FF1F10B50249D1F8380175
:10200000804710BD2880FF1F10B50249D1F83C0160
:10201000804710BD2880FF1F10B50249D1F840014C
:10202000804710BD2880FF1F10B50249D1F8440138
:10203000804710BD2880FF1F10B50249D1F8480124
:10204000804710BD2880FF1F10B50249D1F84C0110
:10205000804710BD2880FF1F10B50249D1F85001FC
:10206000804710BD2880FF1F10B50249D1F85401E8
:10207000804710BD2880FF1F10B50249D1F85801D4
:10208000804710BD2880FF1F10B50249D1F85C01C0
:10209000804710BD2880FF1F10B50249D1F86001AC
:1020A000804710BD2880FF1F10B50249D1F8640198
:1020B000804710BD2880FF1F10B50249D1F8680184
:1020C000804710BD2880FF1F10B50249D1F86C0170
:1020D000804710BD2880FF1F10B50249D1F870015C
:1020E000804710BD2880FF1F10B50249D1F8740148
:1020F000804710BD2880FF1F10B50249D1F8780134
:10210000804710BD2880FF1F10B50249D1F87C011F
:10211000804710BD2880FF1F10B50249D1F880010B
:10212000804710BD2880FF1F10B50249D1F88401F7
:10213000804710BD2880FF1F10B50249D1F88801E3
:10214000804710BD2880FF1F10B50249D1F88C01CF
:10215000804710BD2880FF1F10B50249D1F89001BB
:10216000804710BD2880FF1F10B50249D1F89401A7
:10217000804710BD2880FF1F10B50249D1F8980193
:10218000804710BD2880FF1F10B50249D1F89C017F
:10219000804710BD2880FF1F10B50249D1F8A0016B
:1021A000804710BD2880FF1F10B50249D1F8A40157
:1021B000804710BD2880FF1F10B50249D1F8A80143
:1021C000804710BD2880FF1F10B50249D1F8AC012F
:1021D000804710BD2880FF1F10B50249D1F8B0011B
:1021E000804710BD2880FF1F10B50249D1F8B40107
:1021F000804710BD2880FF1F10B50249D1F8B801F3
:10220000804710BD2880FF1F10B50249D1F8BC01DE
:10221000804710BD2880FF1F10B50249D1F8C001CA
:10222000804710BD2880FF1F10B50249D1F8C401B6
:10223000804710BD2880FF1F10B50249D1F8C801A2
:10224000804710BD2880FF1F10B50249D1F8CC018E
:10225000804710BD2880FF1F10B50249D1F8D0017A
:10226000804710BD2880FF1F10B50249D1F8D40166
:10227000804710BD2880FF1F10B50249D1F8D80152
:10228000804710BD2880FF1F10B50249D1F8DC013E
:10229000804710BD2880FF1F10B50249D1F8E0012A
:1022A000804710BD2880FF1F10B50249D1F8E40116
:1022B000804710BD2880FF1F10B50249D1F8E80102
:1022C000804710BD2880FF1F10B50249D1F8EC01EE
:1022D000804710BD2880FF1F10B50249D1F8F001DA
:1022E000804710BD2880FF1F10B50249D1F8F401C6
:1022F000804710BD2880FF1F10B50249D1F8F801B2
:10230000804710BD2880FF1F10B50249D1F8FC019D
:10231000804710BD2880FF1F10B5044600BF0CB1D8
:10232000012C00D103E0962103A0FEF7C9FF00BFF6
:102330001148046010BD00002E2E2F2E2E2F2E2EA1
:102340002F2E2E2F2E2E2F2E2E2F64726976657231
:10235000732F686333325F6C6C5F64726976657289
:102360002F7372632F686333325F6C6C5F6B6579B8
:102370007363616E2E630000040C054070B5044663
:1023800000250CB9ED1ED5E000BF2068D8B120684B
:10239000B0F1005F17D02068B0F1804F13D02068F3
:1023A000B0F1C04F0FD02068B0F1004F0BD02068C3
:1023B000B0F1204F07D02068B0F1404F03D0206823
:1023C000B0F1604F00D103E0C5215BA0FEF778FFBC
:1023D00000BF00BF6068B0F1007F57D06068B0F107
:1023E000407F53D06068B0F1806F4FD06068B0F12B
:1023F000A06F4BD06068B0F1C06F47D06068B0F19B
:10240000E06F43D06068B0F1006F3FD06068B0F11A
:10241000106F3BD06068B0F1206F37D06068B0F1CA
:10242000306F33D06068B0F1406F2FD06068B0F18A
:10243000506F2BD06068B0F1606F27D06068B0F14A
:10244000706F23D06068B0F1805F1FD06068B0F11A
:10245000885F1BD06068B0F1905F17D06068B0F102
:10246000985F13D06068B0F1A05F0FD06068B0F1E2
:10247000A85F0BD06068B0F1B05F07D06068B0F1C2
:10248000B85F03D06068B0F1C05F00D103E0C6213F
:1024900029A0FEF715FF00BF00BFA06838B1A068F3
:1024A000B0F5801F03D0A068B0F5001F00D103E095
:1024B000C72121A0FEF704FF00BF00BFE068B0F510
:1024C000803F17D0E068B0F5003F13D0E068B0F56A
:1024D000403F0FD0E068B0F5802F0BD0E068B0F53A
:1024E000A02F07D0E068B0F5C02F03D0E068B0F5AA
:1024F000E02F00D103E0C8210FA0FEF7E1FE00BFEE
:1025000000BF206930B14FF6FF712069084388424F
:1025100000D103E0C92108A0FEF7D2FE00BFD4E934
:1025200000010843A1680843E168084321690843A2
:1025300011490860284670BD2E2E2F2E2E2F2E2ECC
:102540002F2E2E2F2E2E2F2E2E2F6472697665722F
:10255000732F686333325F6C6C5F64726976657287
:102560002F7372632F686333325F6C6C5F6B6579B6
:102570007363616E2E630000000C0540014600206D
:1025800009B9C01E0BE000220A604FF000724A60D9
:1025900000228A604FF48032CA6001220A617047CB
:1025A00010B5044604F0010048B100BF40F223100A
:1025B0001A49086043F21020086000BF00BF04F011
:1025C000020028B100BF16481649086100BF00BFCD
:1025D00004F0040030B100BF4AF2015012490880F3
:1025E00000BF00BF04F0100018B14AF2085000F01C
:1025F00029FA04F0400018B14AF2035000F022FA20
:1026000004F0800040B100BF772008490860074906
:102610000831086000BF00BF10BD00000004014089
:102620000100A5A500800440FC3B054004080540CE
:102630002DE9F04104460D4616466FF00207002EC4
:1026400024D029462046B0470746A7B900BF114805
:10265000046000BF0DB9002108E00F49096AC1F309
:1026600002620E490968D140B1FBF5F108460C49F8
:10267000086000BF0AE04FF0FF3700BF07B904E071
:1026800040F2511107A0FEF71BFE00BF3846BDE81F
:10269000F08100001880FF1F004005400080FF1FF0
:1026A0001C80FF1F2E2E2F2E2E2F2E2E2F2E2E2F44
:1026B0002E2E2F2E2E2F647269766572732F68630B
:1026C00033325F6C6C5F6472697665722F7372630C
:1026D0002F686333325F6C6C5F7574696C697479F1
:1026E0002E63000010B500F0DDF8002004490880DA
:1026F000891C0880891C0880891C088010BD000086
:1027000000A4044070B504466FF00205002C25D0EB
:1027100000BF2088022801D0208800B903E0822170
:102720000FA0FEF7CDFD00BF00BF608810B160882C
:10273000082800D103E0832109A0FEF7C1FD00BFF6
:1027400000F0B0F8208861880843144908801449D3
:10275000606808601349A06808600025284670BDBD
:102760002E2E2F2E2E2F2E2E2F2E2E2F2E2E2F2E84
:102770002E2F647269766572732F686333325F6CD3
:102780006C5F6472697665722F7372632F6863334E
:10279000325F6C6C5F6F74732E63000000A40440A2
:1027A0000880FF1F0C80FF1F2DE9F04F85B0054604
:1027B0000E4614469846DDF838A0CDF808A06FF014
:1027C0000209002D66D0002E64D0002C62D0B8F132
:1027D000000F5FD06FF0070900BF01202F4908608C
:1027E00000BF05E02D48006810B94FF0000904E073
:1027F0000298411E02910028F4D100BF00F052F867
:10280000B9F1000F46D12648008828802448801C52
:10281000008830802888FDF7E2FE04903088FDF7BC
:10282000DEFE03901E48801E008800F00200022891
:1028300008D11B48001D008820802088FDF7CFFEAE
:10284000074603E0012020804FF07E5700210498C6
:10285000FDF718FF1ED000210398FDF713FF19D0D4
:1028600000213846FDF70EFF14D04FF07E5003993B
:10287000FDF708FE01904FF07E500499FDF702FE2F
:1028800000900199FDF7B5FD83463946FDF7C8FD77
:10289000C8F80000484605B0BDE8F08F00809442BB
:1028A00002A404400020014908607047008094425F
:1028B00001466FF0020039B102220A8000224A600C
:1028C0008A6008224A80002070470EB56846FFF7EC
:1028D000EFFF0220ADF800000121C002FEF7A6FEC6
:1028E0006846FFF70FFF0120FEF7C6F90120FEF74B
:1028F0009BFA0120FEF72AFA0EBD00002DE9F043F5
:1029000085B004460026214622A000F089FF00255C
:102910002AE06420FEF71CFD42F2107001AB02AA0F
:1029200003A9009004A8FFF73FFFB8B92049019818
:10293000FDF776FD8046FDF770FE07460090BDF876
:102940000830BDF80C20BDF810101AA000F068FF88
:1029500030460199FDF7FBFC064604E021A000F09B
:102960005FFF00BFFEE76D1C0A2DD2D31049304631
:10297000FDF756FD81462149FDF784FD8046FDF7B0
:102980004CFE07463A4621461DA000F049FF05B01F
:10299000BDE8F0832D2D2D3E20436C6F636B2073BB
:1029A0006F757263652069732025732E0D0A000010
:1029B00000247449445231203D2025752C20445276
:1029C00032203D2025752C20454352203D20257581
:1029D0002C2041203D2025642F31303030303030E4
:1029E0000D0A00004F5453206661756C74202D2D24
:1029F0002074696D656F75742E0D0A00000020410A
:102A000025733A2041203D2025642F31303030306D
:102A100030300D0A000000000EB56846FFF748FF91
:102A20000020ADF8000001210803FEF7FFFD684615
:102A3000FFF768FE0120FEF74DFA0120FEF786F948
:102A40000EBD0000034909880143034AA2F8FE13A2
:102A500070470000FE430540004005402DE9FC475B
:102A600004460F4690469946DDE90AA54FF0FF3629
:102A70001048844208D01048844205D00F48844250
:102A800002D00F48844208D14B4642463946204680
:102A9000CDE900A500F016F806463EB14B46424689
:102AA00039462046009500F0F9F806463046BDE864
:102AB000FC87000000D0014000D40140001002401B
:102AC000001402402DE9FF4F8FB081465E4B0FCBC3
:102AD00008AC0FC46FF00200079000BF5B4881454F
:102AE00008D05B48814505D05A48814502D05A48F4
:102AF000814500D104E040F29F2158A0FEF7E0FBA1
:102B000000BF109DDDF844A0129800287ED01C98CC
:102B10000028FBD0002DF9D0BAF1000FF6D0D9F87B
:102B2000140000F4600400BF5CB1B4F5001F08D0CD
:102B3000B4F5800F05D0B4F5C00F02D0B4F5400F46
:102B400000D104E040F2A62144A0FEF7B9FB00BF8B
:102B5000600D08A931F810400AFB04F04000B5FBF5
:102B6000F0F0A0F1010BBBF1FF0F69D80220A0FB30
:102B7000043200204FF0010C1BEB0C0C4041A3FB76
:102B80000C1E02FB0CE203FB00220020A1FB0A73D7
:102B900002FB0A3201FB00284FF480710022A7FBE0
:102BA000010308FB013107FB02112A460023CDE98E
:102BB0000401FDF79BFB8021461A7F2E40D8129816
:102BC000C0F800B01C9806601D98B8B349004FF0DB
:102BD000000C3A46A2FB010E08FB01E107FB0C18B2
:102BE000074600208022B21840EB00030021A2FB20
:102BF000050C03FB05C302FB0131CDE90C0138468E
:102C00004146FDF7FEFCCDE9020100E018E0DDE9F8
:102C10000C01FDF7F6FCCDE90001DDE90223FDF72B
:102C20006FFCCDE90401FDF711FD4FF07E510690D8
:102C3000FDF7DFFB0E901D990E98086000200790AD
:102C4000079813B0BDE8F08FC03A000000D00140F3
:102C500000D4014000100240001402402E2E2F2EFE
:102C60002E2F2E2E2F2E2E2F2E2E2F2E2E2F647205
:102C700069766572732F686333325F6C6C5F647260
:102C8000697665722F7372632F686333325F6C6C81
:102C90005F75736172742E63000000002DE9FF4FB1
:102CA0008DB005469B46484B0FCB09AC0FC46FF067
:102CB0000200079000BF4548854208D0444885423D
:102CC00005D04448854202D04348854200D104E003
:102CD0004FF4E77141A0FEF7F3FA00BFDDF838A02A
:102CE0000F9EBBF1000F6BD0BAF1000F68D0002E21
:102CF00066D0686900F4600400BF5CB1B4F5001FE1
:102D000008D0B4F5800F05D0B4F5C00F02D0B4F5EB
:102D1000400F00D104E040F2D91130A0FEF7D0FA04
:102D200000BF600D09A931F810400AEB8A0041008C
:102D300006FB04F04000B1FBF0F0401D0A21B0FB9F
:102D4000F1F0A0F10109B9F1FF0F39D8CBF80090EB
:102D50001A9898B30220A0FB041200204FF0010C37
:102D600019EB0C0C40EB0003A1FB0C0E02FB0CE278
:102D700001FB032200210346A3FB067C02FB06C2E3
:102D800000FB012838464146FDF73BFCCDE9020136
:102D90005046FDF729FCCDE90001DDE90223FDF7EE
:102DA000AFFBCDE90401FDF751FC4FF07E510690D9
:102DB000FDF71FFB08901A990898086000200790FB
:102DC000079811B0BDE8F08FB03A000000D0014084
:102DD00000D4014000100240001402402E2E2F2E7D
:102DE0002E2F2E2E2F2E2E2F2E2E2F2E2E2F647284
:102DF00069766572732F686333325F6C6C5F6472DF
:102E0000697665722F7372632F686333325F6C6CFF
:102E10005F75736172742E630000000070B52B4DF6
:102E20002D6805F001051DB1294D2A4E356002E0DF
:102E3000294D284E3560294D2D7805F007000628CC
:102E400040D2DFE800F003080C11151A214D2D685F
:102E5000234E356037E0234D214E356033E04FF48B
:102E600000451F4E35602EE01E4D1D4E35602AE098
:102E70004FF400451A4E356025E0184DDA352D68BF
:102E8000C5F30822154D263DD5F800512B0F134DE3
:102E9000DA352D6805F01F04104D263DD5F8005198
:102EA00005F080050DB90F4901E00A4D2968651C40
:102EB000B1FBF5F5561C75435E1CB5FBF6F5084EE7
:102EC000356000E000BF00BF70BD00008406014017
:102ED0000024F4000480FF1F002D3101264005402E
:102EE0000080FF1F00127A0000B5FFF797FF002057
:102EF0000149086000BD000008ED00E02DE9FC4735
:102F000004460F4690469946DDE90AA54FF0FF3684
:102F10001048844208D01048844205D00F488442AB
:102F200002D00F48844208D14B46424639462046DB
:102F3000CDE900A500F016F806463EB14B464246E4
:102F400039462046009500F0EBF806463046BDE8CD
:102F5000FC87000000D0014000D401400010024076
:102F6000001402402DE9FF4F8BB006466FF00200BF
:102F7000079000BF5648864208D05648864205D082
:102F80005548864202D05548864200D104E040F2BE
:102F90000F2153A0FEF794F900BF0C9CDDF834908C
:102FA0000E9800287ED018980028FBD0002C79D0ED
:102FB000B9F1000F76D0F06800F4004008B10120AC
:102FC00000E0002083464FEAC900CBF102014843EC
:102FD000B4FBF0F0A0F1010ABAF1FF0F73D80021A1
:102FE000DBF1020261EB010008238C46A2FB031E09
:102FF00000FB03E002FB0C0300204FF0010C1AEB76
:103000000C0C4041A1FB0C2E03FB0CE301FB003137
:103010000020A2FB097301FB093102FB00184FF4E9
:103020008071A7FB012308FB013107FB0010CDE9EC
:10303000042022460023DDE90401FDF757F9802131
:10304000451A7F2D3FD80E98C0F800A0189805604B
:10305000199840B3490000203A46A2FB01CE08FB74
:1030600001E107FB001867468022AA1840EB000325
:103070000021A2FB040C03FB04C302FB0131CDE9D8
:10308000080138464146FDF7BCFACDE90201DDE909
:103090000801FDF7B6FACDE90001DDE90223FDF7ED
:1030A0002FFA01E00FE00CE0CDE90401FDF7CEFAC4
:1030B0004FF07E510690FDF79CF90A9019990A98F5
:1030C00008600020079007980FB0BDE8F08F00005F
:1030D00000D0014000D40140001002400014024022
:1030E0002E2E2F2E2E2F2E2E2F2E2E2F2E2E2F2EFB
:1030F0002E2F647269766572732F686333325F6C4A
:103100006C5F6472697665722F7372632F686333C4
:10311000325F6C6C5F75736172742E630000000027
:103120002DE9FF4F89B004469B466FF002000790DF
:1031300000BF4048844208D03F48844205D03F4801
:10314000844202D03E48844200D104E040F25B1148
:103150003CA0FEF7B5F800BFDDF828900B9DBBF151
:10316000000F63D0B9F1000F60D0002D5ED0E06891
:1031700000F4004008B1012000E000208246E80091
:10318000CAF10201484309EB89014900B1FBF0F0A3
:10319000401D0A21B0FBF1F0461EFF2E46D8CBF8A9
:1031A00000601698F0B3002108460B46DAF1020CD5
:1031B00060EB030008230022ACFB031E00FB03E0CE
:1031C0000CFB020200204FF0010C16EB0C0C4041EE
:1031D0000B46A3FB0C1E02FB0CE203FB00220023A8
:1031E000A1FB057C02FB05C201FB032838464146D2
:1031F000FDF707FACDE902014846FDF7F5F9CDE9FB
:103200000001DDE90223FDF77BF9CDE90401FDF7BB
:103210001DFA4FF07E510690FDF7EBF808901699D5
:10322000089800E000E008600020079007980DB0C3
:10323000BDE8F08F00D0014000D4014000100240F2
:10324000001402402E2E2F2E2E2F2E2E2F2E2E2FFC
:103250002E2E2F2E2E2F647269766572732F68635F
:1032600033325F6C6C5F6472697665722F73726360
:103270002F686333325F6C6C5F75736172742E6399
:10328000000000002DE9F04104460D46164600BF3F
:103290001B48844208D01B48844205D01A48844207
:1032A00002D01A48844200D104E04FF4966118A07D
:1032B000FEF706F800BF00BF0EB1012E00D104E0FA
:1032C00040F2B14112A0FDF7FBFF00BF00BF25B1E6
:1032D00045F0EF00EF2800D104E040F2B2410CA02D
:1032E000FDF7EEFF00BFAFB247B1012E03D1E0689A
:1032F0003843E06002E0E068B843E060BDE8F08198
:1033000000D0014000D401400010024000140240EF
:103310002E2E2F2E2E2F2E2E2F2E2E2F2E2E2F2EC8
:103320002E2F647269766572732F686333325F6C17
:103330006C5F6472697665722F7372632F68633392
:10334000325F6C6C5F75736172742E6300000000F5
:103350000449096AC1F302120349096821FA02F01B
:1033600070470000004005400080FF1F2DE9F0413C
:10337000044600BF1048844208D01048844205D05B
:103380000F48844202D00F48844200D104E04FF439
:1033900051710DA0FDF794FF00BFFFF7D9FF07465D
:1033A000A0698007410F012000FA01F5B7FBF5F68F
:1033B0003046BDE8F081000000D0014000D401405B
:1033C00000100240001402402E2E2F2E2E2F2E2EE3
:1033D0002F2E2E2F2E2E2F2E2E2F64726976657291
:1033E000732F686333325F6C6C5F647269766572E9
:1033F0002F7372632F686333325F6C6C5F75736118
:1034000072742E63000000002DE9FF4704460F464A
:103410001646002003904FF6FF70029000BF07B1E0
:1034200004E040F242612FA0FDF74AFF00BF00BF59
:103430003C48844208D03C48844205D03B48844202
:1034400002D03B48844200D104E040F2436125A011
:10345000FDF736FF00BF2046FFF788FF8146E06892
:1034600000F08078B8F1000F1BD1606900F02008EF
:10347000B8F1000F0AD102A803AB3A464946CDE99C
:1034800000062046FFF73AFD054614E002A803AB0C
:103490003A464946CDE900062046FFF7DFFA0546E1
:1034A00009E002A803AB3A464946CDE900062046AA
:1034B000FDF77AFD054685B90399A06861F30F20F1
:1034C000A06002987F2808D8E06840F00050E060D3
:1034D0000299A06861F30600A060284604B0BDE828
:1034E000F08700002E2E2F2E2E2F2E2E2F2E2E2F39
:1034F0002E2E2F2E2E2F647269766572732F6863BD
:1035000033325F6C6C5F6472697665722F737263BD
:103510002F686333325F6C6C5F75736172742E63F6
:103520000000000000D0014000D401400010024023
:103530000014024070B504460D4600BF1348844293
:1035400008D01348844205D01248844202D0124861
:10355000844200D104E040F2835110A0FDF7B0FE98
:1035600000BF00BF2DB1012D03D0022D01D0032DCE
:1035700000D104E040F2845108A0FDF7A1FE00BF95
:10358000A06965F30100A06170BD000000D001409A
:1035900000D4014000100240001402402E2E2F2EB5
:1035A0002E2F2E2E2F2E2E2F2E2E2F2E2E2F6472BC
:1035B00069766572732F686333325F6C6C5F647217
:1035C000697665722F7372632F686333325F6C6C38
:1035D0005F75736172742E63000000002DE9F0477F
:1035E00005460C4690466FF0020A002C73D000BFCF
:1035F0006B48854208D06B48854205D06A488542B1
:1036000002D06A48854200D104E040F2274168A018
:10361000FDF756FE00BF00BF2068B0F5805F01D007
:10362000206800B904E04FF4856161A0FDF748FE11
:1036300000BF00BFA068B0F5006F01D0A06800B95E
:1036400004E040F229415AA0FDF73AFE00BF00BF56
:10365000A069B0F5C06F05D0A069B0F5806F01D04A
:10366000A06900B904E040F22A4151A0FDF728FE0C
:1036700000BF00BF206918B12069B0F5805F00D19C
:1036800004E040F22B414AA0FDF71AFE00BF00BF44
:10369000606918B16069B0F5005F00D104E040F2E4
:1036A0002C4143A0FDF70CFE00BF00BFE069B0F560
:1036B000004F01D0E06900B904E040F22D413CA088
:1036C000FDF7FEFD00BF00BF206AB0F1805F01D0B2
:1036D000206A08B905E060E040F22E4134A0FDF711
:1036E000EFFD00BF00BF606A18B1606AB0F1004F23
:1036F00000D104E040F22F412DA0FDF7E1FD00BF15
:1037000000BFA06AB0F5007F03D0A06AB0F5807F4B
:1037100000D104E04FF4866125A0FDF7D1FD00BF84
:103720002169A0690843216A0843E1690843616A85
:1037300040EA0106A16820680843616940EA010780
:10374000A06AB0F5007F02D14FF4007000E00020C5
:103750008146EE602F61C5F814902068D8B900BF8B
:10376000606840B16068012805D06068022802D016
:103770006068032800D104E040F23E410CA0FDF750
:103780009FFD00BF6068A86142462846E168FFF7D8
:103790003BFE824601E04FF0000A5046BDE8F0874C
:1037A00000D0014000D4014000100240001402404B
:1037B0002E2E2F2E2E2F2E2E2F2E2E2F2E2E2F2E24
:1037C0002E2F647269766572732F686333325F6C73
:1037D0006C5F6472697665722F7372632F686333EE
:1037E000325F6C6C5F75736172742E630000000051
:1037F00001466FF0020089B100220A604A608A60C7
:103800004FF41652CA6000220A614A618A61CA6195
:103810000A62C2074A62D20D8A6200207047000025
:103820000FB4054B10B503A9044A029800F016F82E
:1038300010BC5DF814FB0000153A00002480FF1F47
:1038400002E008C8121F08C1002AFAD17047002000
:1038500001E001C1121F002AFBD170472DE9FF4F83
:103860008BB09A460F460546002606E025280BD069
:1038700052460D9990476D1C761C28780028F5D18A
:103880000FB03046BDE8F08F0024A0460122604909
:1038900000E0044315F8013F203B02FA03F0084220
:1038A000F7D128782E2817D115F8010F44F0040419
:1038B0002A280ED06FF02F022878A0F130010929B4
:1038C0000AD808EB880102EB410100EB01086D1CEE
:1038D000F2E757F8048B6D1C287869283ED006DC87
:1038E0000028CDD063280BD0642804D136E073289B
:1038F00010D075284BD052460D999047761C85E024
:1039000017F8040B8DF8000000208DF80100E9463F
:10391000012003E057F8049B4FF0FF3061074FF0A0
:10392000000401D40AE0641C44450DDA8442FADB49
:1039300019F804100029F6D106E0641C8442FCDB6F
:1039400019F804100029F8D1264404E019F8010BF5
:1039500052460D999047641EF8D257E001CF4FF0C0
:103960000A0B002802DA40422D2102E0210504D58D
:103970002B218DF82410012103E0E10705D020213F
:10398000F7E70DF1200908910CE00021F9E701CFDC
:103990004FF00A0BF9E75946FCF77EFE01F13002C1
:1039A00009F8012D0028F6D1ADEB090000F1200B3C
:1039B000600701D44FF00108D84502DDA8EB0B00E9
:1039C00000E000208046002406E009A85246005D81
:1039D0000D999047641C761C08988442F5DB04E03E
:1039E000302052460D999047761CB8F10001A8F19D
:1039F0000108F5DC05E019F8010B52460D999047D6
:103A0000761CBBF10001ABF1010BF4DC6D1C34E75B
:103A10000928010070B504460D46E0B2FDF772FCBE
:103A200008B9204670BD4FF0FF30FBE74620FEF797
:103A3000B7FD104A4FF496410F48FEF7F9FDFCF729
:103A40005DFF00BF0DA0FFF7EBFE00BF0120FCF7FC
:103A500045FF0028FAD0FEF745FEFEF736FF0EA020
:103A6000FEF74CFFFEF73EFEFEF7D6FF0DA0FEF779
:103A700045FFE7E7610B0000001402402D2D2D3EAD
:103A8000205072657373204B3120746F2073746102
:103A900072742E0D0A0000004852432031364D4802
:103AA0007A0000005854414C20384D487A000000FC
:103AB000200040005D008000BA0000017401000297
:103AC000200040005D008000BA0000017401000287
:103AD0000300080003001000030020000300400062
:103AE0000000100000002000000040000300001053
:103AF000001000000C001D0055090000030000200C
:103B0000002000000D001E00A90900000300004075
:103B1000004000000E001F00FD090000010002002F
:103B200002000000010019002D0900002E2E2F2E8A
:103B30002E2F2E2E2F2E2E2F2E2E2F2E2E2F647226
:103B400069766572732F686333325F6C6C5F647281
:103B5000697665722F7372632F686333325F6C6CA2
:103B60005F696E74657272757074732E6300000005
:103B7000903B00000080FF1F28000000403800003C
:103B8000B83B00002880FF1F000E00004E380000E8
:103B90000000000000000000000000000000000025
:103BA0000000000000000000000000000000000015
:083BB00000000000000000000D
:040000050000028174
:00000001FF
