:020000040000FA
:10000000208EFF1F95020000C5020000C7020000FD
:10001000C9020000CB020000CD0200000000000079
:10002000000000000000000000000000CF020000FF
:10003000D102000000000000D3020000D502000041
:10004000851E0000951E0000A51E0000B51E0000C4
:10005000C51E0000D51E0000E51E0000F51E0000B4
:10006000051F0000151F0000251F0000351F0000A0
:10007000451F0000551F0000651F0000751F000090
:10008000851F0000951F0000A51F0000B51F000080
:10009000C51F0000D51F0000E51F0000F51F000070
:1000A000052000001520000025200000352000005C
:1000B000452000005520000065200000752000004C
:1000C0008520000095200000A5200000B52000003C
:1000D000C5200000D5200000E5200000F52000002C
:1000E0000521000015210000252100003521000018
:1000F0004521000055210000652100007521000008
:100100008521000095210000A5210000B5210000F7
:10011000C5210000D5210000E5210000F5210000E7
:1001200005220000152200002522000035220000D3
:1001300045220000552200006522000075220000C3
:100140008522000095220000A5220000B5220000B3
:10015000C5220000D5220000E5220000F5220000A3
:10016000052300001523000025230000352300008F
:10017000452300005523000065230000752300007F
:100180008523000095230000A5230000B52300006F
:10019000C5230000D5230000E5230000F52300005F
:1001A000052400001524000025240000352400004B
:1001B000452400005524000065240000752400003B
:1001C0008524000095240000A5240000B52400002B
:1001D000C5240000D5240000E5240000F52400001B
:1001E0000525000015250000252500003525000007
:1001F00045250000552500006525000075250000F7
:100200008525000095250000A5250000B5250000E6
:10021000C5250000D5250000E5250000F5250000D6
:1002200005260000152600002526000035260000C2
:1002300045260000552600006526000075260000B2
:10024000D7020000D7020000D7020000D70200004A
:10025000D7020000D7020000D7020000D70200003A
:10026000D7020000D7020000D7020000D70200002A
:10027000D7020000D7020000D7020000D70200001A
:10028000DFF80CD000F02EFA004800470907000004
:10029000208EFF1F10484FF0770101600F484FF08C
:1002A000770101600E484FF4885101600A484FF011
:1002B0007601016009484FF07601016009488047E6
:1002C00009480047FEE7FEE7FEE7FEE7FEE7FEE738
:1002D000FEE7FEE7FEE7FEE7040805400C080540E0
:1002E00000080540F9380000810200002DE9F05FA8
:1002F0000546002092469B46884606468146402495
:100300001BE0284641464746224600F046F9534640
:100310005A46C01A914110D311461846224600F0A1
:100320002DF92D1A67EB01084F46224601200021C6
:1003300000F024F917EB00094E41201EA4F101043E
:10034000DFDC484631462A464346BDE8F09FF0B41C
:1003500080EA0102D40F4200B2EB410F02D2024602
:10036000084611464A0042D0C30DDDB2C1F3C75260
:10037000AD1A202D35DAC1F3160141F4000204B1A3
:100380005242C5F1200602FA06F12A411044B3EBAD
:10039000D05F23D0C4B1012DA0EBC35009DCF0BC69
:1003A0004FF0004202EAC352DBB200F5000000F059
:1003B0000DB9400000F1807000EBC350A0F18070D7
:1003C00040EAD170490009E0490841EAC071A0EB58
:1003D000C35000F50000400800EBC350F0BC00F033
:1003E000ECB86142012202EB4101001BF6E7F0BCD0
:1003F000704781F00041AAE780F00040A7E770470E
:10040000BFFFDFFFFFFEFFFFFFFFFFFFFFFFFFFF5D
:10041000FFFFFFFFFFFFFFFFFFFFFFFFFFFFFFFFEC
:100420002DE9F04D81EA030404F0004B21F0004572
:1004300014464FF0000A23F0004150EA050220D094
:1004400054EA01021DD0C5F30A570246C5F313034F
:10045000C1F31300C1F30A5640F4801543F480132E
:10046000A7EB0608101BD64608F2FD3873EB050013
:1004700002D308F1010801E092185B41B8F1000FC6
:1004800003DA00200146BDE8F08D00204FF4801112
:10049000064684460EE0171B73EB050705D3121BB7
:1004A00063EB050306434CEA010C49084FEA3000B0
:1004B00092185B4150EA0107EDD152EA030012D0D5
:1004C00082EA040083EA0501084305D0101BAB4112
:1004D00006D20122002306E000224FF0004302E092
:1004E0006FF0010253101AEB06004CEB085110EBB1
:1004F0000A0041EB0B01BDE8F04D00F095B80EB5D8
:1005000040F2334102910021CDE900110A460B4629
:1005100000F099F803B000BD0EB540F233420292EC
:100520000022CDE90022134600F08DF803B000BD93
:1005300001F0004330B421F0004150EA010206D03E
:100540000A0DA2F56072C1F31301002A02DC30BC6F
:1005500000207047440F44EAC104C100E01830BCD9
:1005600000EBC25000F029B8002801DBC0F10040C8
:10057000002901DBC1F1004181427047202A04DBE0
:10058000203A00FA02F1002070479140C2F12003A6
:1005900020FA03F3194390407047202A04DB203AE5
:1005A00021FA02F00021704721FA02F3D040C2F193
:1005B000200291400843194670470029A8BF7047A0
:1005C000401C490008BF20F00100704710B4B0FA89
:1005D00080FC00FA0CF050EA010404BF10BC704724
:1005E00049B1CCF1200421FA04F411FA0CF118BF3E
:1005F000012121430843A3EB0C01CB1D4FEA00610D
:100600004FEA102042BF002010BC704700EBC350DF
:1006100010440029A4BF10BC7047401C490008BF0B
:1006200020F0010010BC704710B5141E73F10004D7
:1006300008DA401C41F1000192185B411A4301D1D4
:1006400020F0010010BD2DE9F04D92469B4611B1FE
:10065000B1FA81F202E0B0FA80F220329046FFF760
:100660008DFF04460F4640EA0A0041EA0B0153465B
:100670005A46084313D0114653EA010019D0C8F175
:1006800040025046FFF789FF05460E465046594640
:100690004246FFF773FF084305D0012004E02046DF
:1006A0003946BDE8F08D0020054346EAE0762C434C
:1006B00037430A986305E40AA0EB08000022FD0A0C
:1006C00044EA47540A3002D500200146E9E7010513
:1006D00010196941DDE9084500196941BDE8F04D8F
:1006E000A2E70000064C074D06E0E06840F0010379
:1006F00094E8070098471034AC42F6D3FFF7C4FDE6
:10070000344600005446000010B503F08FF803F0A3
:1007100003FF002010BD00001FB502A800F038FD47
:10072000684600F0CDFB2B492B4800F0F2FB00207F
:100730008DF80A0030208DF8090000208DF808009F
:1007400005208DF80C0002A800F078FC0020019034
:10075000019820F01F0001903121019861F31020D1
:100760000190019820F0704000F1805001900198B4
:1007700020F0706000F180700190019820F470000A
:1007800000F58010019000208DF80000019820F005
:1007900080000190684600F039FA00BF202000F088
:1007A0003BF90128FAD100221146042002F06EFB29
:1007B000012211460B2002F069FB502000F0ECFEF4
:1007C0004FF4404001F05CFA02F004FB052000F019
:1007D000AAFB1FBD102211007777770710B50848D4
:1007E000006840F400600649086000BF0221012053
:1007F00001F088F90028F9D0022000F031FF10BD87
:100800001880FF1F10B500BF1048006800F00700F7
:1008100004460F49486800F03FFF012814D100BF8B
:100820000B4A5188107801F06DF938B90120A040C9
:1008300008490968084307490860F1E7044948681E
:1008400000F00EFF00BF00BF10BD0000080C054007
:10085000B04500001880FF1F10B500BF10480068A9
:1008600000F0070004460F49486900F015FF012811
:1008700014D100BF0B4A518A107C01F043F938B9FA
:100880001020A04008490968084307490860F1E7BB
:100890000449486900F0E4FE00BF00BF10BD00003D
:1008A000080C0540B04500001880FF1F10B500BFC0
:1008B0001148006800F0070004461049486A00F03B
:1008C000EBFE012816D100BF0C4A518C92F8200093
:1008D00001F018F940B94FF48070A0400849096848
:1008E000084307490860EFE70449486A00F0B8FE8A
:1008F00000BF00BF10BD0000080C0540B04500005F
:100900001880FF1F10B586B001A801F007FA022079
:10091000ADF8060000240BE0074A02EB8402518880
:10092000054A12F8240001AA00F0E8FF601CC4B2D6
:10093000042CF1D306B010BD9445000070B50546F7
:1009400000240FE045FA04F000F0010040B1074A2E
:1009500002EB84025188054A12F8240001F0EEF9F6
:10096000601CC4B2042CEDD370BD0000944500009F
:10097000F0B58DB007460D466FF00206002D36D05B
:1009800024224021042001F009F90121C80600F0C9
:100990006BFF01A803F034FC4FF4004008900022E4
:1009A00001A9144803F022FB00241DE02146114850
:1009B00003F0C8FA0CAA29460E4803F02DFA0646A1
:1009C0007EB90D480C99FFF7CFFD0AD80B490C985A
:1009D000FFF7CAFD05D801220821064803F05AF99D
:1009E00004E04FF0FF36641C032CDFD900BF304613
:1009F0000DB0F0BD00140240CDCCCCBCCDCCCC3C75
:100A000008B50021009102E00099491C009100996D
:100A10008142F9D308BD000010B5044600BF24B1DF
:100A200044F06900692800D104E040F2BB5106A0FF
:100A300000F04AFD00BF13480078204008B10120B3
:100A400010BD0020FCE700002E2E2F2E2E2F2E2E64
:100A50002F2E2E2F2E2E2F2E2E2F6472697665723A
:100A6000732F686333325F6C6C5F64726976657292
:100A70002F7372632F686333325F6C6C5F636C6BD0
:100A80002E6300003C40054070B50446002500BFC1
:100A90000CB1012C00D104E040F2023114A000F0AE
:100AA00013FD00BF00BF2148008800F0010000B125
:100AB00004E040F203310EA000F006FD00BF6CB967
:100AC0001B48007800F00700022802D16FF00505EE
:100AD0000BE0012015492931087006E00020134978
:100AE000293108704815FFF78BFF284670BD0000BC
:100AF0002E2E2F2E2E2F2E2E2F2E2E2F2E2E2F2E11
:100B00002E2F647269766572732F686333325F6C5F
:100B10006C5F6472697665722F7372632F686333DA
:100B2000325F6C6C5F636C6B2E630000FE430540AC
:100B30002640054070B50446002500BF0CB1012CCD
:100B400000D104E040F20E511FA000F0BDFC00BF38
:100B500000BF2C48008800F0010000B104E040F222
:100B60000F5119A000F0B0FC00BF64B9264800780E
:100B700000F00700052801D1C54322E001202249E9
:100B8000091D08701DE02048DA300068C0F3C0106D
:100B900030B94FF48051082000F0CDF9054605E04A
:100BA0004FF48051012000F0C6F905464DB90020F0
:100BB0001549091D08704FF48051202000F0BBF941
:100BC0000546284670BD00002E2E2F2E2E2F2E2ECD
:100BD0002F2E2E2F2E2E2F2E2E2F647269766572B9
:100BE000732F686333325F6C6C5F64726976657211
:100BF0002F7372632F686333325F6C6C5F636C6B4F
:100C00002E630000FE430540264005402DE9F041DB
:100C1000044614B96FF002061FE100BF2079C0F34B
:100C2000C01018B12079C0F3C01000B104E040F248
:100C3000DF418BA000F048FC00BF00BF207900F02E
:100C40001F00401C182805D8207900F01F00401C08
:100C500000B104E04FF49C6181A000F035FC00BFBE
:100C600000BF6068C0F30820401CB0F5F07F06D8D4
:100C70006068C0F30820401C142800D304E040F250
:100C8000E14177A000F020FC00BF00BF01216068B7
:100C900001EB1070102805D8606801EB1070022875
:100CA00000D304E040F2E2416DA000F00DFC00BF73
:100CB0002079C0F3C01008B9784901E0784801688C
:100CC000207900F01F00401CB1FBF0F76068C0F312
:100CD0000820401C00FB07F500BF7248874203D87C
:100CE0007148874200D304E04FF49D615CA000F09E
:100CF000EBFB00BF00BF6D48854203D84010854222
:100D000000D304E040F2E94155A000F0DDFB00BF54
:100D100000BF0121606801EB1070B5FBF0F0644981
:100D2000884209D80121606801EB1070B5FBF0F032
:100D30006049884200D304E040F2EA4148A000F054
:100D4000C3FB00BF00BF6068C0F30360401C1028F5
:100D500006D86068C0F30360401C022800D304E09A
:100D600040F2EB413EA000F0AFFB00BF00BF606867
:100D7000C0F30350401C102806D86068C0F303502D
:100D8000401C022800D304E040F2EC4134A000F003
:100D90009BFB00BF00BF6068C0F30350401CB5FB65
:100DA000F0F04349884209D86068C0F30350401C02
:100DB000B5FBF0F00911884200D304E040F2ED41A8
:100DC00027A000F081FB00BF00BF6068C0F3036094
:100DD000401CB5FBF0F03649884209D86068C0F382
:100DE0000360401CB5FBF0F00911884200D304E019
:100DF00040F2EE411AA000F067FB00BF00BF207870
:100E0000012801D0207800B904E040F2EF4114A09D
:100E100000F05AFB00BF00BF2748008800F0010027
:100E200000B104E04FF49E610DA000F04DFB00BF47
:100E30002079C1092148006861F3C7101F49086083
:100E400060680860207820B90120FFF773FE06462D
:100E500003E00020FFF76EFE06463046BDE8F08155
:100E60002E2E2F2E2E2F2E2E2F2E2E2F2E2E2F2E9D
:100E70002E2F647269766572732F686333325F6CEC
:100E80006C5F6472697665722F7372632F68633367
:100E9000325F6C6C5F636C6B2E63000000127A0033
:100EA0000480FF1F40787D0140420F0000389C1CE9
:100EB000001C4E0EC0E1E400FE4305400041054029
:100EC0000146002009B9C01E22E000224A604A689B
:100ED00022F080024A604A6822F01F024A6013230F
:100EE0004A6863F310224A604A6822F0704202F1B5
:100EF00080524A604A6822F0706202F180724A6051
:100F00004A6822F4700202F580124A6001220A70D7
:100F1000704770B504460D462946204602F032F867
:100F200002F084FC70BD10B50446204602F0EEF9D4
:100F300002F07CFC10BDF8B505460C460020009080
:100F40006FF0070609E02846FFF766FD012801D18A
:100F5000002605E00098401C00900098A042F2D9BD
:100F600000BF3046F8BD000070B50446002500BF44
:100F70000CB1012C00D104E040F2CB311EA000F0F6
:100F8000A3FA00BF00BF2B48008800F0010000B1A9
:100F900004E04FF4737118A000F096FA00BFFCB99A
:100FA0002548007800F00700032802D16FF00505FE
:100FB00020E02148DA300068C0F3C01058B91E485C
:100FC000001D007810B96FF0050513E001201A49E3
:100FD0000C3108700EE0012017490C31087009E04F
:100FE000002015490C3108704FF480510820FFF79C
:100FF000A2FF0546284670BD2E2E2F2E2E2F2E2EF8
:101000002F2E2E2F2E2E2F2E2E2F64726976657284
:10101000732F686333325F6C6C5F647269766572DC
:101020002F7372632F686333325F6C6C5F636C6B1A
:101030002E630000FE4305402640054070B504467F
:1010400014B96FF002057FE000BF2078012801D0BD
:10105000207800B904E040F2A9313CA000F034FA55
:1010600000BF00BF607840B16078102805D060787C
:10107000202802D06078302800D104E040F2AA3164
:1010800032A000F021FA00BF00BFA07810B1A07814
:10109000402800D104E040F2AB312CA000F014FA5B
:1010A00000BF00BFE078802801D0E07800B904E0FC
:1010B0004FF46B7125A000F007FA00BF00BF207944
:1010C000012817D02079022814D02079032811D0C4
:1010D000207904280ED0207905280BD02079062805
:1010E00008D02079072805D02079082802D0207957
:1010F000092800D104E040F2AD3114A000F0E4F979
:1011000000BF00BF2048008800F0010000B104E0EB
:1011100040F2AE310DA000F0D7F900BF20791B4995
:101120000870E07861780843A178084316491231C5
:101130000870207820B90120FFF716FF054603E06C
:101140000020FFF711FF0546284670BD2E2E2F2EDA
:101150002E2F2E2E2F2E2E2F2E2E2F2E2E2F647230
:1011600069766572732F686333325F6C6C5F64728B
:10117000697665722F7372632F686333325F6C6CAC
:101180005F636C6B2E630000FE430540A240054088
:101190000146002009B9C01E08E001220A700022A1
:1011A0008A704A708022CA7005220A717047000056
:1011B0002DE9FC4704460F4690469946DDE90AA50D
:1011C0004FF0FF361048844208D01048844205D0C2
:1011D0000F48844202D00F48844208D14B46424611
:1011E00039462046CDE900A500F016F806463EB186
:1011F0004B46424639462046009500F0CFF8064659
:101200003046BDE8FC87000000D0014000D401401A
:1012100000100240001402402DE9FF4F8BB08246BF
:101220006FF00200079000BF4848824508D0484848
:10123000824505D04748824502D04748824500D1C3
:1012400004E04FF4167145A000F03EF900BF0C9C7D
:10125000DDF834900E98002873D01898002870D0CC
:10126000002C6ED0B9F1000F6BD04FEA8900B4FBAF
:10127000F0F0451E002D64D0FF2D62D800206A1CBE
:10128000404104234FF0000CA2FB031B00FB03B002
:1012900002FB0C02A1FB097302FB093201FB0C28C3
:1012A0004FF480700021A7FB00B308FB003007FB60
:1012B000010C22460B4658466146FFF717F880217D
:1012C000461A7F2E3DD80E9805601898066019982A
:1012D000A8B34A004FF0000C3B46A3FB020B08FBEF
:1012E00002B107FB0C18074600208022B11840EB22
:1012F00000030022A1FB040C03FB04C301FB023129
:10130000CDE9080138464146FFF706F9CDE902016B
:10131000DDE90801FFF700F9CDE90001DDE902236D
:10132000FFF77EF8CDE90401FFF702F983464FF09D
:101330007E51FFF75EF80A9019990A98086000201C
:10134000079007980FB0BDE8F08F000000D0014073
:1013500000D4014000100240001402402E2E2F2E17
:101360002E2F2E2E2F2E2E2F2E2E2F2E2E2F64721E
:1013700069766572732F686333325F6C6C5F647279
:10138000697665722F7372632F686333325F6C6C9A
:101390005F75736172742E63000000002DE9FF4FCA
:1013A00089B006469A466FF00200079000BF3248A7
:1013B000864208D03148864205D03148864202D064
:1013C0003048864200D104E040F295112EA000F092
:1013D0007BF800BFDDF828900B9DBAF1000F47D0D5
:1013E000B9F1000F44D0002D42D009EB8900400034
:1013F000A900B0FBF1F0401D0A21B0FBF1F0441E42
:10140000B4B3FF2C34D8CAF80040169870B300204B
:10141000621C404104234FF0000CA2FB031E00FBA2
:1014200003E002FB0C026346A1FB057C02FB05C244
:1014300001FB032838464146FFF76EF8CDE902016B
:101440004846FFF75CF8CDE90001DDE90223FEF72D
:10145000E7FFCDE90401FFF76BF84FF07E510690EE
:10146000FEF7C7FF83461699C1F800B00020079029
:1014700007980DB0BDE8F08F00D0014000D40140C6
:1014800000100240001402402E2E2F2E2E2F2E2E42
:101490002F2E2E2F2E2E2F2E2E2F647269766572F0
:1014A000732F686333325F6C6C5F64726976657248
:1014B0002F7372632F686333325F6C6C5F75736177
:1014C00072742E630000000004460D462A46214631
:1014D00002A002F0ADFE00BFFEE7000057726F6E83
:1014E0006720706172616D65746572732076616CDE
:1014F00075653A2066696C65202573206F6E206CD7
:10150000696E652025640D0A0000000038B50246AA
:10151000002300250095D81E00BF0D4D2D682C46D8
:1015200000BF0C4D2D68294689B105E00D6805F016
:101530008003009D6D1C0095009DA54201D8002BE5
:10154000F4D013B14A60002001E06FF0070038BD0D
:101550001480FF1F1080FF1F08B50C49096AC1F3F2
:1015600002630B490968D9400A4B1944491EB1FB73
:10157000F3F206E0009200BF00994B1E0093002991
:10158000FAD1011EA0F10100F4D108BD00400540D0
:101590000080FF1F8096980070B50446002500BFAC
:1015A0001D480068012800D104E040F207111BA08B
:1015B000FFF78AFF00BF00BFF02C00D804E04FF413
:1015C000847116A0FFF780FF00BF13480830006841
:1015D00020F0F00004F0F00108430F4908310860E2
:1015E00010E06D1C1C48006AC0F302611B480068D3
:1015F000C84044F62061B0FBF1F0A84202D26FF07F
:10160000070070BD04480830006800F0F000A042F8
:10161000E7D10020F5E70000000401402E2E2F2E18
:101620002E2F2E2E2F2E2E2F2E2E2F2E2E2F64725B
:1016300069766572732F686333325F6C6C5F6472B6
:10164000697665722F7372632F686333325F6C6CD7
:101650005F65666D2E630000004005400080FF1F3F
:1016600010B5044600BF3CB14FF6FF7020434FF663
:10167000FF71884200D104E040F203210448FFF7E3
:1016800023FF00BF0348806D20430249886510BDD9
:10169000F04500000010054010B5044600BF3CB105
:1016A0004FF6FF7020434FF6FF71884200D104E0EF
:1016B0004FF404710548FFF707FF00BF0448406D71
:1016C000204008B1012010BD0020FCE7F0450000DB
:1016D000001005402DE9F04706460C464FF0000982
:1016E00014B96FF0020958E000BF3EB14FF6FF7029
:1016F00030434FF6FF71884200D104E040F2D3112D
:101700002748FFF7E1FE00BF00BF206810B1206846
:10171000802800D104E04FF4EA712148FFF7D4FE9D
:1017200000BF00BF606840B16068102805D06068E5
:10173000202802D06068302800D104E040F2D511A2
:101740001748FFF7C1FE00BF00BFA068032807D0FD
:10175000A068012804D0A06810B1A068022800D1B8
:1017600004E04FF4EB710E48FFF7AEFE00BF00251A
:1017700011E00120A840304058B1D4E900010843ED
:10178000A16840EA01070748042101FB0508C8F8E1
:101790000070681CC5B2102DEBD34846BDE8F08739
:1017A000F0450000101005400146002009B9C01E98
:1017B00003E000220A604A608A60704770B5044600
:1017C0000D4600BF2CB1174820431649884200D16E
:1017D00003E0712114A0FFF777FE00BF00BF0DB139
:1017E000012D00D103E072210FA0FFF76DFE00BFB5
:1017F00000BF1C48006900F0010000B103E0732144
:1018000009A0FFF761FE00BF012D05D11548006852
:10181000A0431449086004E01248006820431149BD
:10182000086070BD11C5F38F2E2E2F2E2E2F2E2E59
:101830002F2E2E2F2E2E2F2E2E2F6472697665724C
:10184000732F686333325F6C6C5F647269766572A4
:101850002F7372632F686333325F6C6C5F666367EC
:101860002E6300000080044070B504460D4600BFA2
:101870002CB1114820431049884200D103E0842153
:101880000EA0FFF721FE00BF00BF0DB1012D00D15A
:1018900003E0852109A0FFF717FE00BF012D05D148
:1018A00015484068A0431449486004E01248406865
:1018B00020431149486070BD79FD0F0F2E2E2F2E49
:1018C0002E2F2E2E2F2E2E2F2E2E2F2E2E2F6472B9
:1018D00069766572732F686333325F6C6C5F647214
:1018E000697665722F7372632F686333325F6C6C35
:1018F0005F6663672E630000008004402DE9F05F9F
:1019000005460F4614464FF0000B14B96FF0020B5A
:10191000D5E000BF6B48008800F0010000B103E093
:10192000FF2169A0FFF7D0FD00BF00BF4DB1012D21
:1019300007D0022D05D0032D03D0042D01D0052D95
:1019400000D104E04FF480715FA0FFF7BDFD00BF40
:1019500000BF17B1B8B200B104E040F201115AA0C3
:10196000FFF7B2FD00BF00BF208810B1208801281A
:1019700000D104E04FF4817153A0FFF7A5FD00BF33
:1019800000BF608810B16088022800D104E040F2F6
:1019900003114DA0FFF798FD00BF00BFA08810B154
:1019A000A088042800D104E04FF4827146A0FFF71C
:1019B0008BFD00BF00BFE08828B1E088102802D06E
:1019C000E088202800D104E040F205113EA0FFF796
:1019D0007BFD00BF00BF208918B12089B0F5804F82
:1019E00000D104E04FF4837137A0FFF76DFD00BF15
:1019F00000BF608910B16089402800D104E040F246
:101A0000071131A0FFF760FD00BF00BFA08918B12A
:101A1000A089B0F5007F00D104E04FF484712AA0C2
:101A2000FFF752FD00BF00BFE08918B1E089B0F5B3
:101A3000805F00D104E040F2091123A0FFF744FDCC
:101A400000BF00BF208A18B1208AB0F5004F00D136
:101A500004E04FF485711CA0FFF736FD00BF00269F
:101A60002BE00120B040384028B32088618808432B
:101A7000A1880843E188084361890843A189084394
:101A8000E1890843218940EA010A45F27728208A42
:101A900040EA0A0A48F400480A48001D00EB851095
:101AA00000EB8609B9F8000020EA08000AEA0801FC
:101AB0000843A9F80000701CC6B2102ED1D35846B6
:101AC000BDE8F09FFC3B05402E2E2F2E2E2F2E2EF4
:101AD0002F2E2E2F2E2E2F2E2E2F647269766572AA
:101AE000732F686333325F6C6C5F64726976657202
:101AF0002F7372632F686333325F6C6C5F6770693A
:101B00006F2E630070B504460D4600BF4CB1012C2A
:101B100007D0022C05D0032C03D0042C01D0052CB7
:101B200000D104E040F2F1110CA0FFF7CDFC00BFA2
:101B300000BF15B1A8B200B104E04FF4F97107A0DD
:101B4000FFF7C2FC00BF144901EB0410B0F8000815
:101B5000284008B1012070BD0020FCE72E2E2F2E5A
:101B60002E2F2E2E2F2E2E2F2E2E2F2E2E2F647216
:101B700069766572732F686333325F6C6C5F647271
:101B8000697665722F7372632F686333325F6C6C92
:101B90005F6770696F2E6300003005402DE9F041EA
:101BA00004460F46164600BF4CB1012C07D0022C4C
:101BB00005D0032C03D0042C01D0052C00D104E067
:101BC00040F277111EA0FFF77FFC00BF00BF17B1E6
:101BD000B8B200B104E04FF4BC7119A0FFF774FC77
:101BE00000BF00BF0F2E03D9202E02D33B2E00D8FA
:101BF00004E040F2791112A0FFF766FC00BF00BFBD
:101C00001E48008800F0010000B104E04FF4BD71EF
:101C10000BA0FFF759FC00BF00250DE00120A840F4
:101C2000384038B11548801D00EB841000EB850862
:101C3000A8F80060681CC5B2102DEFD3BDE8F08194
:101C40002E2E2F2E2E2F2E2E2F2E2E2F2E2E2F2EAF
:101C50002E2F647269766572732F686333325F6CFE
:101C60006C5F6472697665722F7372632F68633379
:101C7000325F6C6C5F6770696F2E6300FC3B0540E0
:101C800010B5044600BF44B1B4F5804F05D0B4F59B
:101C9000004F02D0B4F5404F00D104E040F2CD1126
:101CA0000EA0FFF711FC00BF00BF1B48008800F02A
:101CB000010000B104E04FF4E77108A0FFF704FC55
:101CC00000BF1548001F0088C0F30D0004F4404118
:101CD00008431149091F088010BD00002E2E2F2E29
:101CE0002E2F2E2E2F2E2E2F2E2E2F2E2E2F647295
:101CF00069766572732F686333325F6C6C5F6472F0
:101D0000697665722F7372632F686333325F6C6C10
:101D10005F6770696F2E6300FC3B05400146002041
:101D200009B9C01E09E000220A804A80CA800A82DE
:101D30000A814A818A81CA818A80704770B50446C7
:101D40000D4600BF4CB1012C07D0022C05D0032C4E
:101D500003D0042C01D0052C00D104E04FF41871FD
:101D60000BA0FFF7B1FB00BF00BF15B1A8B200B1D7
:101D700004E040F2612106A0FFF7A6FB00BF134874
:101D8000102101FB040630882843308070BD00001C
:101D90002E2E2F2E2E2F2E2E2F2E2E2F2E2E2F2E5E
:101DA0002E2F647269766572732F686333325F6CAD
:101DB0006C5F6472697665722F7372632F68633328
:101DC000325F6C6C5F6770696F2E63000C38054082
:101DD00070B5044600260CB9F61E4BE000BF208803
:101DE000B0F5007F00DA03E0C3212348FFF76CFB66
:101DF00000BF2088400900EB4000202101EB40009B
:101E0000B4F9021088420AD82088400900EB40004B
:101E1000252101EB4000B4F90210884206D2B4F942
:101E20000200202802D36FF0020623E060881349E5
:101E3000042212FB00152868C0F3080040F2FF11CD
:101E4000884208D120882860B4F902100C4A6068E2
:101E500042F821000EE020882968C1F30801884279
:101E600006D1B4F90210064A606842F8210001E088
:101E70006FF00106304670BDF04500005C10054073
:101E80002080FF1F10B502490868804710BD000080
:101E90002080FF1F10B502494868804710BD000030
:101EA0002080FF1F10B502498868804710BD0000E0
:101EB0002080FF1F10B50249C868804710BD000090
:101EC0002080FF1F10B502490869804710BD00003F
:101ED0002080FF1F10B502494869804710BD0000EF
:101EE0002080FF1F10B502498869804710BD00009F
:101EF0002080FF1F10B50249C869804710BD00004F
:101F00002080FF1F10B50249086A804710BD0000FD
:101F10002080FF1F10B50249486A804710BD0000AD
:101F20002080FF1F10B50249886A804710BD00005D
:101F30002080FF1F10B50249C86A804710BD00000D
:101F40002080FF1F10B50249086B804710BD0000BC
:101F50002080FF1F10B50249486B804710BD00006C
:101F60002080FF1F10B50249886B804710BD00001C
:101F70002080FF1F10B50249C86B804710BD0000CC
:101F80002080FF1F10B50249086C804710BD00007B
:101F90002080FF1F10B50249486C804710BD00002B
:101FA0002080FF1F10B50249886C804710BD0000DB
:101FB0002080FF1F10B50249C86C804710BD00008B
:101FC0002080FF1F10B50249086D804710BD00003A
:101FD0002080FF1F10B50249486D804710BD0000EA
:101FE0002080FF1F10B50249886D804710BD00009A
:101FF0002080FF1F10B50249C86D804710BD00004A
:102000002080FF1F10B50249086E804710BD0000F8
:102010002080FF1F10B50249486E804710BD0000A8
:102020002080FF1F10B50249886E804710BD000058
:102030002080FF1F10B50249C86E804710BD000008
:102040002080FF1F10B50249086F804710BD0000B7
:102050002080FF1F10B50249486F804710BD000067
:102060002080FF1F10B50249886F804710BD000017
:102070002080FF1F10B50249C86F804710BD0000C7
:102080002080FF1F10B50249D1F88000804710BDA5
:102090002080FF1F10B50249D1F88400804710BD91
:1020A0002080FF1F10B50249D1F88800804710BD7D
:1020B0002080FF1F10B50249D1F88C00804710BD69
:1020C0002080FF1F10B50249D1F89000804710BD55
:1020D0002080FF1F10B50249D1F89400804710BD41
:1020E0002080FF1F10B50249D1F89800804710BD2D
:1020F0002080FF1F10B50249D1F89C00804710BD19
:102100002080FF1F10B50249D1F8A000804710BD04
:102110002080FF1F10B50249D1F8A400804710BDF0
:102120002080FF1F10B50249D1F8A800804710BDDC
:102130002080FF1F10B50249D1F8AC00804710BDC8
:102140002080FF1F10B50249D1F8B000804710BDB4
:102150002080FF1F10B50249D1F8B400804710BDA0
:102160002080FF1F10B50249D1F8B800804710BD8C
:102170002080FF1F10B50249D1F8BC00804710BD78
:102180002080FF1F10B50249D1F8C000804710BD64
:102190002080FF1F10B50249D1F8C400804710BD50
:1021A0002080FF1F10B50249D1F8C800804710BD3C
:1021B0002080FF1F10B50249D1F8CC00804710BD28
:1021C0002080FF1F10B50249D1F8D000804710BD14
:1021D0002080FF1F10B50249D1F8D400804710BD00
:1021E0002080FF1F10B50249D1F8D800804710BDEC
:1021F0002080FF1F10B50249D1F8DC00804710BDD8
:102200002080FF1F10B50249D1F8E000804710BDC3
:102210002080FF1F10B50249D1F8E400804710BDAF
:102220002080FF1F10B50249D1F8E800804710BD9B
:102230002080FF1F10B50249D1F8EC00804710BD87
:102240002080FF1F10B50249D1F8F000804710BD73
:102250002080FF1F10B50249D1F8F400804710BD5F
:102260002080FF1F10B50249D1F8F800804710BD4B
:102270002080FF1F10B50249D1F8FC00804710BD37
:102280002080FF1F10B50249D1F80001804710BD22
:102290002080FF1F10B50249D1F80401804710BD0E
:1022A0002080FF1F10B50249D1F80801804710BDFA
:1022B0002080FF1F10B50249D1F80C01804710BDE6
:1022C0002080FF1F10B50249D1F81001804710BDD2
:1022D0002080FF1F10B50249D1F81401804710BDBE
:1022E0002080FF1F10B50249D1F81801804710BDAA
:1022F0002080FF1F10B50249D1F81C01804710BD96
:102300002080FF1F10B50249D1F82001804710BD81
:102310002080FF1F10B50249D1F82401804710BD6D
:102320002080FF1F10B50249D1F82801804710BD59
:102330002080FF1F10B50249D1F82C01804710BD45
:102340002080FF1F10B50249D1F83001804710BD31
:102350002080FF1F10B50249D1F83401804710BD1D
:102360002080FF1F10B50249D1F83801804710BD09
:102370002080FF1F10B50249D1F83C01804710BDF5
:102380002080FF1F10B50249D1F84001804710BDE1
:102390002080FF1F10B50249D1F84401804710BDCD
:1023A0002080FF1F10B50249D1F84801804710BDB9
:1023B0002080FF1F10B50249D1F84C01804710BDA5
:1023C0002080FF1F10B50249D1F85001804710BD91
:1023D0002080FF1F10B50249D1F85401804710BD7D
:1023E0002080FF1F10B50249D1F85801804710BD69
:1023F0002080FF1F10B50249D1F85C01804710BD55
:102400002080FF1F10B50249D1F86001804710BD40
:102410002080FF1F10B50249D1F86401804710BD2C
:102420002080FF1F10B50249D1F86801804710BD18
:102430002080FF1F10B50249D1F86C01804710BD04
:102440002080FF1F10B50249D1F87001804710BDF0
:102450002080FF1F10B50249D1F87401804710BDDC
:102460002080FF1F10B50249D1F87801804710BDC8
:102470002080FF1F10B50249D1F87C01804710BDB4
:102480002080FF1F10B50249D1F88001804710BDA0
:102490002080FF1F10B50249D1F88401804710BD8C
:1024A0002080FF1F10B50249D1F88801804710BD78
:1024B0002080FF1F10B50249D1F88C01804710BD64
:1024C0002080FF1F10B50249D1F89001804710BD50
:1024D0002080FF1F10B50249D1F89401804710BD3C
:1024E0002080FF1F10B50249D1F89801804710BD28
:1024F0002080FF1F10B50249D1F89C01804710BD14
:102500002080FF1F10B50249D1F8A001804710BDFF
:102510002080FF1F10B50249D1F8A401804710BDEB
:102520002080FF1F10B50249D1F8A801804710BDD7
:102530002080FF1F10B50249D1F8AC01804710BDC3
:102540002080FF1F10B50249D1F8B001804710BDAF
:102550002080FF1F10B50249D1F8B401804710BD9B
:102560002080FF1F10B50249D1F8B801804710BD87
:102570002080FF1F10B50249D1F8BC01804710BD73
:102580002080FF1F10B50249D1F8C001804710BD5F
:102590002080FF1F10B50249D1F8C401804710BD4B
:1025A0002080FF1F10B50249D1F8C801804710BD37
:1025B0002080FF1F10B50249D1F8CC01804710BD23
:1025C0002080FF1F10B50249D1F8D001804710BD0F
:1025D0002080FF1F10B50249D1F8D401804710BDFB
:1025E0002080FF1F10B50249D1F8D801804710BDE7
:1025F0002080FF1F10B50249D1F8DC01804710BDD3
:102600002080FF1F10B50249D1F8E001804710BDBE
:102610002080FF1F10B50249D1F8E401804710BDAA
:102620002080FF1F10B50249D1F8E801804710BD96
:102630002080FF1F10B50249D1F8EC01804710BD82
:102640002080FF1F10B50249D1F8F001804710BD6E
:102650002080FF1F10B50249D1F8F401804710BD5A
:102660002080FF1F10B50249D1F8F801804710BD46
:102670002080FF1F10B50249D1F8FC01804710BD32
:102680002080FF1F00B58BB006A8FFF747FB01A80D
:1026900000F0A8FA4020ADF8220006AA1021002080
:1026A000FFF72CF9082210210020FFF777FA06AA7D
:1026B00020210020FFF722F9082220210020FFF727
:1026C0006DFA06AA40210020FFF718F908224021E0
:1026D0000020FFF763FA0121C807FFF76FF8012018
:1026E000FEF7D2F9002001904FF0106002904FF4F5
:1026F00080100390C01004904FF4E040059001A8B2
:1027000000F034F80BB000BD10B5044600BF0CB1AA
:10271000012C00D103E0962103A0FEF7D5FE00BFF7
:102720001148046010BD00002E2E2F2E2E2F2E2EAD
:102730002F2E2E2F2E2E2F2E2E2F6472697665723D
:10274000732F686333325F6C6C5F64726976657295
:102750002F7372632F686333325F6C6C5F6B6579C4
:102760007363616E2E630000040C054070B504466F
:1027700000250CB9ED1ED5E000BF2068D8B1206857
:10278000B0F1005F17D02068B0F1804F13D02068FF
:10279000B0F1C04F0FD02068B0F1004F0BD02068CF
:1027A000B0F1204F07D02068B0F1404F03D020682F
:1027B000B0F1604F00D103E0C5215BA0FEF784FEBD
:1027C00000BF00BF6068B0F1007F57D06068B0F113
:1027D000407F53D06068B0F1806F4FD06068B0F137
:1027E000A06F4BD06068B0F1C06F47D06068B0F1A7
:1027F000E06F43D06068B0F1006F3FD06068B0F127
:10280000106F3BD06068B0F1206F37D06068B0F1D6
:10281000306F33D06068B0F1406F2FD06068B0F196
:10282000506F2BD06068B0F1606F27D06068B0F156
:10283000706F23D06068B0F1805F1FD06068B0F126
:10284000885F1BD06068B0F1905F17D06068B0F10E
:10285000985F13D06068B0F1A05F0FD06068B0F1EE
:10286000A85F0BD06068B0F1B05F07D06068B0F1CE
:10287000B85F03D06068B0F1C05F00D103E0C6214B
:1028800029A0FEF721FE00BF00BFA06838B1A068F4
:10289000B0F5801F03D0A068B0F5001F00D103E0A1
:1028A000C72121A0FEF710FE00BF00BFE068B0F511
:1028B000803F17D0E068B0F5003F13D0E068B0F576
:1028C000403F0FD0E068B0F5802F0BD0E068B0F546
:1028D000A02F07D0E068B0F5C02F03D0E068B0F5B6
:1028E000E02F00D103E0C8210FA0FEF7EDFD00BFEF
:1028F00000BF206930B14FF6FF712069084388425C
:1029000000D103E0C92108A0FEF7DEFD00BFD4E935
:1029100000010843A1680843E168084321690843AE
:1029200011490860284670BD2E2E2F2E2E2F2E2ED8
:102930002F2E2E2F2E2E2F2E2E2F6472697665723B
:10294000732F686333325F6C6C5F64726976657293
:102950002F7372632F686333325F6C6C5F6B6579C2
:102960007363616E2E630000000C054000B58BB0F0
:1029700001A8FFF7D3F94FF48050ADF812004020C2
:10298000ADF80E0001AA81010320FEF7B7FF08A8E9
:10299000FEF70AFF00200A9008A94FF48050FEF7C6
:1029A00099FE0C20ADF818002320ADF81A00084855
:1029B000079006A8FFF70CFA232001F049FC0F212D
:1029C000232001F065FC232001F050FC0BB000BD7A
:1029D000D529000010B54FF48050FEF75DFE0128A8
:1029E00017D1FDF7ABFF00BF0A48006800F00700F1
:1029F0000446214608A001F01BFC00BF4FF48051A3
:102A00000320FFF77FF80028F8D04FF48050FEF73E
:102A100027FE10BD080C05404B657920726F7720AA
:102A2000302C20636F6C20256C64206973207072D9
:102A300065737365642E0D0A0000000000B58BB04D
:102A400001A8FFF76BF94FF48050ADF81200402059
:102A5000ADF80E0001AAC1010320FEF74FFF08A840
:102A6000FEF7A2FE00200A9008A94FF40050FEF7DE
:102A700031FE0D20ADF818002420ADF81A000848EA
:102A8000079006A8FFF7A4F9242001F0E1FB0F212D
:102A9000242001F0FDFB242001F0E8FB0BB000BD79
:102AA000A52A000010B54FF40050FEF7F5FD0128EF
:102AB00018D10220FDF742FF00BF0B48006800F06C
:102AC00007000446214609A001F0B2FB00BF4FF405
:102AD00000510320FFF716F80028F8D04FF40050FB
:102AE000FEF7BEFD10BD0000080C05404B657920C7
:102AF000726F7720312C20636F6C20256C64206905
:102B00007320707265737365642E0D0A00000000F7
:102B100000B58BB001A8FFF701F94FF48050ADF874
:102B200012004020ADF80E0001AA01020320FEF7BA
:102B3000E5FE08A8FEF738FE00200A9008A94FF429
:102B40008040FEF7C7FD0E20ADF818002520ADF837
:102B50001A000848079006A8FFF73AF9252001F067
:102B600077FB0F21252001F093FB252001F07EFB50
:102B70000BB000BD792B000010B54FF48040FEF77C
:102B80008BFD012818D10420FDF7D8FE00BF0B48AB
:102B9000006800F007000446214609A001F048FB48
:102BA00000BF4FF480410320FEF7ACFF0028F8D0AF
:102BB0004FF48040FEF754FD10BD0000080C0540A6
:102BC0004B657920726F7720322C20636F6C202543
:102BD0006C6420697320707265737365642E0D0ACE
:102BE000000000000146002009B9C01E0BE00022D1
:102BF0000A604FF000724A6000228A604FF480320F
:102C0000CA6001220A61704710B5044604F0010051
:102C100048B100BF40F223101A49086043F2102067
:102C2000086000BF00BF04F0020028B100BF1648D2
:102C30001649086100BF00BF04F0040030B100BFB6
:102C40004AF201501249088000BF00BF04F0100092
:102C500018B14AF2085000F00DF904F0400018B124
:102C60004AF2035000F006F904F0800040B100BFC2
:102C700077200849086007490831086000BF00BF95
:102C800010BD0000000401400100A5A50080044023
:102C9000FC3B05400408054010B5044604F0010063
:102CA00028B100BF00201949086000BF00BF04F030
:102CB000020028B100BF16481649086100BF00BFD6
:102CC00004F0040030B100BF4FF4254012490880E1
:102CD00000BF00BF04F0100018B14AF2085000F025
:102CE000BBF804F0400018B14AF2035000F0B4F809
:102CF00004F0800040B100BF762008490860074911
:102D00000831086000BF00BF10BD00000004014092
:102D10000000A5A500800440FC3B054004080540D8
:102D20002DE9F04104460D4616466FF00207002ECD
:102D300024D029462046B0470746A7B900BF11480E
:102D4000046000BF0DB9002108E00F49096AC1F312
:102D500002620E490968D140B1FBF5F108460C4901
:102D6000086000BF0AE04FF0FF3700BF07B904E07A
:102D700040F2511107A0FEF7A7FB00BF3846BDE89F
:102D8000F08100001080FF1F004005400080FF1F01
:102D90001480FF1F2E2E2F2E2E2F2E2E2F2E2E2F55
:102DA0002E2E2F2E2E2F647269766572732F686314
:102DB00033325F6C6C5F6472697665722F73726315
:102DC0002F686333325F6C6C5F7574696C697479FA
:102DD0002E63000010B500BF0F48008800F002000D
:102DE000022800D104E040F23F410CA0FEF76CFB4A
:102DF00000BF0948001D007800F0C00040F00F003F
:102E00000549091D087010200349113108701E2062
:102E1000FEF7A2FB002010BDFE4305402E2E2F2EF4
:102E20002E2F2E2E2F2E2E2F2E2E2F2E2E2F647243
:102E300069766572732F686333325F6C6C5F64729E
:102E4000697665722F7372632F686333325F6C6CBF
:102E50005F7077632E63000004490988814341F461
:102E60002541034AA2F8FE1370470000FE430540C7
:102E700000400540034909880143034AA2F8FE13B4
:102E800070470000FE430540004005402DE9F04733
:102E900004460F4690464FF0000900BF24B144F0AD
:102EA0000F000F2800D103E0AA2126A0FEF70CFB9B
:102EB00000BF00BF072F00D803E0AB2121A0FEF721
:102EC00003FB00BF00BFB8F1070F00D803E0AC213F
:102ED0001CA0FEF7F9FA00BF00BF29480068772858
:102EE00000D103E0AD2117A0FEF7EEFA00BF24E009
:102EF00004F00100E0B14FEAC960050E281DC6B21A
:102F000007FA05F008FA06F108430721A94007224D
:102F1000B240114308400721A9400722B2401143A3
:102F2000174A121F12688A4310431549091F086087
:102F3000640809F1010000F0FF09002CD8D1BDE8B8
:102F4000F08700002E2E2F2E2E2F2E2E2F2E2E2FDE
:102F50002E2E2F2E2E2F647269766572732F686362
:102F600033325F6C6C5F6472697665722F73726363
:102F70002F686333325F6C6C5F7372616D2E630018
:102F8000040805402DE9FF4105460C460026CA48C5
:102F900000680390C84840680290C7488068019064
:102FA000C548C068009000BF04F0E060E8B104F0DC
:102FB000E060B0F1807F18D004F0E060B0F1007FF5
:102FC00013D004F0E060B0F1407F0ED004F0E06078
:102FD000B0F1806F09D004F0E060B0F1A06F04D0D0
:102FE00004F0E060B0F1C06F00D104E040F2C6210F
:102FF000B2A0FEF769FA00BF00BF04F07000B8B1DC
:1030000004F07000102813D004F0700020280FD0B6
:1030100004F0700030280BD004F07000402807D076
:1030200004F07000502803D004F07000602800D134
:1030300004E040F2C721A1A0FEF746FA00BF00BF9E
:1030400004F4E020E8B104F4E020B0F5803F18D0AB
:1030500004F4E020B0F5003F13D004F4E020B0F514
:10306000403F0ED004F4E020B0F5802F09D004F4E6
:10307000E020B0F5A02F04D004F4E020B0F5C02F7C
:1030800000D104E04FF432718CA0FEF71DFA00BFAE
:1030900000BF04F4E000E8B104F4E000B0F5801FE4
:1030A00018D004F4E000B0F5001F13D004F4E000E1
:1030B000B0F5401F0ED004F4E000B0F5800F09D049
:1030C00004F4E000B0F5A00F04D004F4E000B0F583
:1030D000C00F00D104E040F2CA2178A0FEF7F4F955
:1030E00000BF00BF04F00700B8B104F007000128DA
:1030F00013D004F0070002280FD004F007000328C3
:103100000BD004F00700042807D004F007000528BE
:1031100003D004F00700062800D104E040F2CB21E0
:1031200066A0FEF7D1F900BF00BF04F4E060E8B18B
:1031300004F4E060B0F5807F18D004F4E060B0F5EE
:10314000007F13D004F4E060B0F5407F0ED004F4AB
:10315000E060B0F5806F09D004F4E060B0F5A06FD6
:1031600004D004F4E060B0F5C06F00D104E04FF487
:10317000337152A0FEF7A8F900BF00BF04F4E0408D
:10318000E8B104F4E040B0F5805F18D004F4E0400A
:10319000B0F5005F13D004F4E040B0F5405F0ED00E
:1031A00004F4E040B0F5804F09D004F4E040B0F5FD
:1031B000A04F04D004F4E040B0F5C04F00D104E0CB
:1031C00040F2CD213DA0FEF77FF900BF00BF4A4885
:1031D000284000B104E040F2CF2138A0FEF774F996
:1031E00000BF00BF4548008800F0010000B104E0C6
:1031F0004FF4347131A0FEF767F900BF4048007802
:1032000000F00700052823D1012600BF2A480069E5
:1032100000F0010000B104E040F2D72127A0FEF742
:1032200053F900BF374824490860C01248608860DD
:10323000C86033482638006AC0F30261324800682B
:10324000C8404CF25031B0FBF1F73846FDF7D8FBDF
:103250002B482638006AA84304EA05010843284998
:10326000263908620846006AC0F3026126480068F1
:10327000C8404CF25031B0FBF1F73846FDF7C0FBC7
:10328000012E17D10C4903980860029848600198F4
:1032900088600098C8601A482638006AC0F3026146
:1032A00019480068C8404CF25031B0FBF1F738467D
:1032B000FDF7A6FBBDE8FF81008004402E2E2F2ED7
:1032C0002E2F2E2E2F2E2E2F2E2E2F2E2E2F64729F
:1032D00069766572732F686333325F6C6C5F6472FA
:1032E000697665722F7372632F686333325F6C6C1B
:1032F0005F636C6B2E63000077777707FE430540B2
:10330000264005400EFAFFFF0080FF1F7FB50446F0
:1033100000254248006803904048406802903F48BA
:10332000806801903D48C068009000BF4CB1012CFE
:1033300007D0022C05D0032C03D0042C01D0052C7F
:1033400000D104E040F2572135A0FEF7BDF800BFE0
:1033500000BF4248008800F0010000B104E04FF4D3
:1033600016712FA0FEF7B0F800BF3D48007800F0BE
:103370000700052801D0052C23D1012500BF2748CF
:10338000006900F0010000B104E04FF4187124A0BE
:10339000FEF79AF800BF334820490860C012486021
:1033A0008860C8602E482638006AC0F302612E4843
:1033B0000068C8404CF25031B0FBF1F63046FDF7E2
:1033C0001FFB2748047026482638006AC0F30261B4
:1033D00025480068C8404CF25031B0FBF1F6304649
:1033E000FDF70EFB012D17D10C49039808600298D8
:1033F0004860019888600098C86019482638006ABB
:10340000C0F3026118480068C8404CF25031B0FB6C
:10341000F1F63046FDF7F4FA7FBD0000008004406D
:103420002E2E2F2E2E2F2E2E2F2E2E2F2E2E2F2EB7
:103430002E2F647269766572732F686333325F6C06
:103440006C5F6472697665722F7372632F68633381
:10345000325F6C6C5F636C6B2E630000FE43054053
:10346000264005400EFAFFFF0080FF1F2DE9FC47B4
:1034700004460F4690469946DDE90AA54FF0FF360F
:103480001048844208D01048844205D00F48844236
:1034900002D00F48844208D14B4642463946204666
:1034A000CDE900A500F016F806463EB14B4642466F
:1034B00039462046009500F0F9F806463046BDE84A
:1034C000FC87000000D0014000D401400010024001
:1034D000001402402DE9FF4F8FB081465E4B0FCBA9
:1034E00008AC0FC46FF00200079000BF5B48814535
:1034F00008D05B48814505D05A48814502D05A48DA
:10350000814500D104E040F29F2158A0FDF7DCFF87
:1035100000BF109DDDF844A0129800287ED01C98B2
:103520000028FBD0002DF9D0BAF1000FF6D0D9F861
:10353000140000F4600400BF5CB1B4F5001F08D0B3
:10354000B4F5800F05D0B4F5C00F02D0B4F5400F2C
:1035500000D104E040F2A62144A0FDF7B5FF00BF72
:10356000600D08A931F810400AFB04F04000B5FBDB
:10357000F0F0A0F1010BBBF1FF0F69D80220A0FB16
:10358000043200204FF0010C1BEB0C0C4041A3FB5C
:103590000C1E02FB0CE203FB00220020A1FB0A73BD
:1035A00002FB0A3201FB00284FF480710022A7FBC6
:1035B000010308FB013107FB02112A460023CDE974
:1035C0000401FCF793FE8021461A7F2E40D8129802
:1035D000C0F800B01C9806601D98B8B349004FF0C1
:1035E000000C3A46A2FB010E08FB01E107FB0C1898
:1035F000074600208022B21840EB00030021A2FB06
:10360000050C03FB05C302FB0131CDE90C01384673
:103610004146FCF781FFCDE9020100E018E0DDE959
:103620000C01FCF779FFCDE90001DDE90223FCF78D
:10363000F7FECDE90401FCF77BFF4FF07E510690C9
:10364000FCF7D7FE0E901D990E9808600020079099
:10365000079813B0BDE8F08F8445000000D001400A
:1036600000D4014000100240001402402E2E2F2EE4
:103670002E2F2E2E2F2E2E2F2E2E2F2E2E2F6472EB
:1036800069766572732F686333325F6C6C5F647246
:10369000697665722F7372632F686333325F6C6C67
:1036A0005F75736172742E63000000002DE9FF4F97
:1036B0008DB005469B46484B0FCB09AC0FC46FF04D
:1036C0000200079000BF4548854208D04448854223
:1036D00005D04448854202D04348854200D104E0E9
:1036E0004FF4E77141A0FDF7EFFE00BFDDF838A011
:1036F0000F9EBBF1000F6BD0BAF1000F68D0002E07
:1037000066D0686900F4600400BF5CB1B4F5001FC6
:1037100008D0B4F5800F05D0B4F5C00F02D0B4F5D1
:10372000400F00D104E040F2D91130A0FDF7CCFEEB
:1037300000BF600D09A931F810400AEB8A00410072
:1037400006FB04F04000B1FBF0F0401D0A21B0FB85
:10375000F1F0A0F10109B9F1FF0F39D8CBF80090D1
:103760001A9898B30220A0FB041200204FF0010C1D
:1037700019EB0C0C40EB0003A1FB0C0E02FB0CE25E
:1037800001FB032200210346A3FB067C02FB06C2C9
:1037900000FB012838464146FCF7BEFECDE9020198
:1037A0005046FCF7ACFECDE90001DDE90223FCF751
:1037B00037FECDE90401FCF7BBFE4FF07E510690C9
:1037C000FCF717FE08901A990898086000200790E7
:1037D000079811B0BDE8F08F7445000000D001409B
:1037E00000D4014000100240001402402E2E2F2E63
:1037F0002E2F2E2E2F2E2E2F2E2E2F2E2E2F64726A
:1038000069766572732F686333325F6C6C5F6472C4
:10381000697665722F7372632F686333325F6C6CE5
:103820005F75736172742E630000000070B52B4DDC
:103830002D6805F001051DB1294D2A4E356002E0C5
:10384000294D284E3560294D2D7805F007000628B2
:1038500040D2DFE800F003080C11151A214D2D6845
:10386000234E356037E0234D214E356033E04FF471
:1038700000451F4E35602EE01E4D1D4E35602AE07E
:103880004FF400451A4E356025E0184DDA352D68A5
:10389000C5F30822154D263DD5F800512B0F134DC9
:1038A000DA352D6805F01F04104D263DD5F800517E
:1038B00005F080050DB90F4901E00A4D2968651C26
:1038C000B1FBF5F5561C75435E1CB5FBF6F5084ECD
:1038D000356000E000BF00BF70BD000084060140FD
:1038E0000024F4000480FF1F002D31012640054014
:1038F0000080FF1F00127A0000B5FFF797FF00203D
:103900000149086000BD000008ED00E02DE9FC471A
:1039100004460F4690469946DDE90AA54FF0FF366A
:103920001048844208D01048844205D00F48844291
:1039300002D00F48844208D14B46424639462046C1
:10394000CDE900A500F016F806463EB14B464246CA
:1039500039462046009500F0EBF806463046BDE8B3
:10396000FC87000000D0014000D40140001002405C
:10397000001402402DE9FF4F8BB006466FF00200A5
:10398000079000BF5648864208D05648864205D068
:103990005548864202D05548864200D104E040F2A4
:1039A0000F2153A0FDF790FD00BF0C9CDDF8349073
:1039B0000E9800287ED018980028FBD0002C79D0D3
:1039C000B9F1000F76D0F06800F4004008B1012092
:1039D00000E0002083464FEAC900CBF102014843D2
:1039E000B4FBF0F0A0F1010ABAF1FF0F73D8002187
:1039F000DBF1020261EB010008238C46A2FB031EEF
:103A000000FB03E002FB0C0300204FF0010C1AEB5B
:103A10000C0C4041A1FB0C2E03FB0CE301FB00311D
:103A20000020A2FB097301FB093102FB00184FF4CF
:103A30008071A7FB012308FB013107FB0010CDE9D2
:103A4000042022460023DDE90401FCF74FFC80211D
:103A5000451A7F2D3FD80E98C0F800A01898056031
:103A6000199840B3490000203A46A2FB01CE08FB5A
:103A700001E107FB001867468022AA1840EB00030B
:103A80000021A2FB040C03FB04C302FB0131CDE9BE
:103A9000080138464146FCF73FFDCDE90201DDE96A
:103AA0000801FCF739FDCDE90001DDE90223FCF74F
:103AB000B7FC01E00FE00CE0CDE90401FCF738FDB4
:103AC0004FF07E510690FCF794FC0A9019990A98E1
:103AD00008600020079007980FB0BDE8F08F000045
:103AE00000D0014000D40140001002400014024008
:103AF0002E2E2F2E2E2F2E2E2F2E2E2F2E2E2F2EE1
:103B00002E2F647269766572732F686333325F6C2F
:103B10006C5F6472697665722F7372632F686333AA
:103B2000325F6C6C5F75736172742E63000000000D
:103B30002DE9FF4F89B004469B466FF002000790C5
:103B400000BF4048844208D03F48844205D03F48E7
:103B5000844202D03E48844200D104E040F25B112E
:103B60003CA0FDF7B1FC00BFDDF828900B9DBBF138
:103B7000000F63D0B9F1000F60D0002D5ED0E06877
:103B800000F4004008B1012000E000208246E80077
:103B9000CAF10201484309EB89014900B1FBF0F089
:103BA000401D0A21B0FBF1F0461EFF2E46D8CBF88F
:103BB00000601698F0B3002108460B46DAF1020CBB
:103BC00060EB030008230022ACFB031E00FB03E0B4
:103BD0000CFB020200204FF0010C16EB0C0C4041D4
:103BE0000B46A3FB0C1E02FB0CE203FB002200238E
:103BF000A1FB057C02FB05C201FB032838464146B8
:103C0000FCF78AFCCDE902014846FCF778FCCDE9D7
:103C10000001DDE90223FCF703FCCDE90401FCF718
:103C200087FC4FF07E510690FCF7E3FB0890169955
:103C3000089800E000E008600020079007980DB0A9
:103C4000BDE8F08F00D0014000D4014000100240D8
:103C5000001402402E2E2F2E2E2F2E2E2F2E2E2FE2
:103C60002E2E2F2E2E2F647269766572732F686345
:103C700033325F6C6C5F6472697665722F73726346
:103C80002F686333325F6C6C5F75736172742E637F
:103C9000000000002DE9F04104460D46164600BF25
:103CA0001B48844208D01B48844205D01A488442ED
:103CB00002D01A48844200D104E04FF4966118A063
:103CC000FDF702FC00BF00BF0EB1012E00D104E0E1
:103CD00040F2B14112A0FDF7F7FB00BF00BF25B1D4
:103CE00045F0EF00EF2800D104E040F2B2410CA013
:103CF000FDF7EAFB00BFAFB247B1012E03D1E06888
:103D00003843E06002E0E068B843E060BDE8F0817D
:103D100000D0014000D401400010024000140240D5
:103D20002E2E2F2E2E2F2E2E2F2E2E2F2E2E2F2EAE
:103D30002E2F647269766572732F686333325F6CFD
:103D40006C5F6472697665722F7372632F68633378
:103D5000325F6C6C5F75736172742E6300000000DB
:103D60000449096AC1F302120349096821FA02F001
:103D700070470000004005400080FF1F2DE9F04122
:103D8000044600BF1048844208D01048844205D041
:103D90000F48844202D00F48844200D104E04FF41F
:103DA00051710DA0FDF790FB00BFFFF7D9FF07464B
:103DB000A0698007410F012000FA01F5B7FBF5F675
:103DC0003046BDE8F081000000D0014000D4014041
:103DD00000100240001402402E2E2F2E2E2F2E2EC9
:103DE0002F2E2E2F2E2E2F2E2E2F64726976657277
:103DF000732F686333325F6C6C5F647269766572CF
:103E00002F7372632F686333325F6C6C5F757361FD
:103E100072742E63000000002DE9FF4704460F4630
:103E20001646002003904FF6FF70029000BF07B1C6
:103E300004E040F242612FA0FDF746FB00BF00BF47
:103E40003C48844208D03C48844205D03B488442E8
:103E500002D03B48844200D104E040F2436125A0F7
:103E6000FDF732FB00BF2046FFF788FF8146E06880
:103E700000F08078B8F1000F1BD1606900F02008D5
:103E8000B8F1000F0AD102A803AB3A464946CDE982
:103E900000062046FFF73AFD054614E002A803ABF2
:103EA0003A464946CDE900062046FFF7DFFA0546C7
:103EB00009E002A803AB3A464946CDE90006204690
:103EC000FDF776F9054685B90399A06861F30F20DF
:103ED000A06002987F2808D8E06840F00050E060B9
:103EE0000299A06861F30600A060284604B0BDE80E
:103EF000F08700002E2E2F2E2E2F2E2E2F2E2E2F1F
:103F00002E2E2F2E2E2F647269766572732F6863A2
:103F100033325F6C6C5F6472697665722F737263A3
:103F20002F686333325F6C6C5F75736172742E63DC
:103F30000000000000D0014000D401400010024009
:103F40000014024070B504460D4600BF1348844279
:103F500008D01348844205D01248844202D0124847
:103F6000844200D104E040F2835110A0FDF7ACFA86
:103F700000BF00BF2DB1012D03D0022D01D0032DB4
:103F800000D104E040F2845108A0FDF79DFA00BF83
:103F9000A06965F30100A06170BD000000D0014080
:103FA00000D4014000100240001402402E2E2F2E9B
:103FB0002E2F2E2E2F2E2E2F2E2E2F2E2E2F6472A2
:103FC00069766572732F686333325F6C6C5F6472FD
:103FD000697665722F7372632F686333325F6C6C1E
:103FE0005F75736172742E63000000002DE9F04765
:103FF00005460C4690466FF0020A002C73D000BFB5
:104000006B48854208D06B48854205D06A48854296
:1040100002D06A48854200D104E040F2274168A0FE
:10402000FDF752FA00BF00BF2068B0F5805F01D0F5
:10403000206800B904E04FF4856161A0FDF744FAFF
:1040400000BF00BFA068B0F5006F01D0A06800B944
:1040500004E040F229415AA0FDF736FA00BF00BF44
:10406000A069B0F5C06F05D0A069B0F5806F01D030
:10407000A06900B904E040F22A4151A0FDF724FAFA
:1040800000BF00BF206918B12069B0F5805F00D182
:1040900004E040F22B414AA0FDF716FA00BF00BF32
:1040A000606918B16069B0F5005F00D104E040F2CA
:1040B0002C4143A0FDF708FA00BF00BFE069B0F54E
:1040C000004F01D0E06900B904E040F22D413CA06E
:1040D000FDF7FAF900BF00BF206AB0F1805F01D0A0
:1040E000206A08B905E060E040F22E4134A0FDF7F7
:1040F000EBF900BF00BF606A18B1606AB0F1004F11
:1041000000D104E040F22F412DA0FDF7DDF900BF02
:1041100000BFA06AB0F5007F03D0A06AB0F5807F31
:1041200000D104E04FF4866125A0FDF7CDF900BF72
:104130002169A0690843216A0843E1690843616A6B
:1041400040EA0106A16820680843616940EA010766
:10415000A06AB0F5007F02D14FF4007000E00020AB
:104160008146EE602F61C5F814902068D8B900BF71
:10417000606840B16068012805D06068022802D0FC
:104180006068032800D104E040F23E410CA0FDF736
:104190009BF900BF6068A86142462846E168FFF7C6
:1041A0003BFE824601E04FF0000A5046BDE8F08732
:1041B00000D0014000D40140001002400014024031
:1041C0002E2E2F2E2E2F2E2E2F2E2E2F2E2E2F2E0A
:1041D0002E2F647269766572732F686333325F6C59
:1041E0006C5F6472697665722F7372632F686333D4
:1041F000325F6C6C5F75736172742E630000000037
:1042000001466FF0020089B100220A604A608A60AC
:104210004FF41652CA6000220A614A618A61CA617B
:104220000A62C2074A62D20D8A620020704700000B
:104230000FB4054B10B503A9044A029800F04AF8E0
:1042400010BC5DF814FB0000014500001C80FF1F3E
:10425000002807DB00F01F0201219140024A4309B8
:1042600042F823107047000080E200E000280DDBD8
:1042700000BF00BF00F01F020121914042099200DF
:1042800002F1E022C2F8001100BF00BF7047000039
:1042900010B5002804DB0A07130E054A135406E084
:1042A0000A07140E034A00F00F031B1FD45410BD5D
:1042B00000E400E018ED00E002E008C8121F08C1A9
:1042C000002AFAD17047002001E001C1121F002A24
:1042D000FBD170472DE9FF4F8BB09A460F4604463D
:1042E000002606E025280BD052460D999047641C05
:1042F000761C20780028F5D10FB03046BDE8F08F4D
:104300000025A94601227D4900E0054314F8013F3C
:10431000203B02FA03F00842F7D120782E2817D16B
:1043200014F8010F45F004052A280ED06FF02F0273
:104330002078A0F1300109290AD809EB890102EBA4
:10434000410100EB0109641CF2E757F8049B641C6F
:1043500020786C280DD004DC4C2812D06A2811D1AA
:1043600004E074280DD07A280CD10AE045F4001539
:1043700007E0617845F48015814202D1641C05F59F
:104380008015641C207869283ED006DC0028B3D054
:1043900063280BD0642804D136E0732810D0752828
:1043A0005CD052460D999047761CA5E017F8040B97
:1043B0008DF8000000208DF80100E846012003E0A0
:1043C00057F8048B4FF0FF3069074FF0000501D418
:1043D0000AE06D1C4D450DDA8542FADB18F8051030
:1043E0000029F6D106E06D1C8542FCDB18F80510AB
:1043F0000029F8D12E4404E018F8010B52460D991B
:1044000090476D1EF8D277E000200A90C5F3025065
:104410004FF00A0B02280CD001CFC117021E71F118
:1044200000020CDA0023D0EB030063EB01012D2224
:1044300008E0FF1D27F00707F7E80201EEE72A056D
:1044400004D52B228DF82420012203E0EA070FD0A7
:104450002022F7E70DF12008089218E000200A90CA
:10446000C5F302504FF00A0B022803D001CF002100
:104470000022EFE7FF1D27F00707F7E80201F7E743
:104480005A460A9BFBF732FF303208F8012D50EAFA
:104490000102F5D1ADEB080000F1200B680701D453
:1044A0004FF00109D94502DDA9EB0B0000E0002027
:1044B0008146002506E009A85246405D0D999047C7
:1044C0006D1C761C08988542F5DB04E030205246CE
:1044D0000D999047761CB9F10001A9F10109F5DCAD
:1044E00005E018F8010B52460D999047761CBBF178
:1044F0000001ABF1010BF4DC641CFAE609280100B1
:1045000070B504460D46E0B2FDF700F808B9204644
:1045100070BD4FF0FF30FBE7C720FEF775FBFCF7DF
:10452000FBF8FCF7EFF9114A4FF4E1311048FEF7C0
:10453000F7FBFEF71BFAFEF781FAFEF7E9FAFEF742
:10454000A1F84FF48050FDF78BF84FF40050FDF7C1
:1045500087F84FF48040FDF783F80120FEF7D4F888
:10456000C720FEF799FB00BFFEE7000071090000BD
:1045700000140240200040005D008000BA000001ED
:1045800074010002200040005D008000BA000001BC
:104590007401000203000800030010000300200063
:1045A0000300400000001000000020000000400058
:1045B00003000010001000000C001D0005080000A2
:1045C00003000020002000000D001E00590800001C
:1045D00003000040004000000E001F00AD08000076
:1045E000010002000200000001001900DD070000C8
:1045F0002E2E2F2E2E2F2E2E2F2E2E2F2E2E2F2ED6
:104600002E2F647269766572732F686333325F6C24
:104610006C5F6472697665722F7372632F6863339F
:10462000325F6C6C5F696E74657272757074732E34
:1046300063000000544600000080FF1F20000000BF
:10464000B8420000744600002080FF1F000E0000EA
:10465000C642000000000000000000000000000052
:10466000000000000000000000000000000000004A
:044670000000000046
:040000050000028174
:00000001FF
