:020000040000FA
:100000002090FF1F95020000C5020000C7020000FB
:10001000C9020000CB020000CD0200000000000079
:10002000000000000000000000000000CF020000FF
:10003000D102000000000000D3020000D502000041
:10004000BD270000CD270000DD270000ED270000C0
:10005000FD2700000D2800001D2800002D280000AD
:100060003D2800004D2800005D2800006D2800009C
:100070007D2800008D2800009D280000AD2800008C
:10008000BD280000CD280000DD280000ED2800007C
:10009000FD2800000D2900001D2900002D29000069
:1000A0003D2900004D2900005D2900006D29000058
:1000B0007D2900008D2900009D290000AD29000048
:1000C000BD290000CD290000DD290000ED29000038
:1000D000FD2900000D2A00001D2A00002D2A000025
:1000E0003D2A00004D2A00005D2A00006D2A000014
:1000F0007D2A00008D2A00009D2A0000AD2A000004
:10010000BD2A0000CD2A0000DD2A0000ED2A0000F3
:10011000FD2A00000D2B00001D2B00002D2B0000E0
:100120003D2B00004D2B00005D2B00006D2B0000CF
:100130007D2B00008D2B00009D2B0000AD2B0000BF
:10014000BD2B0000CD2B0000DD2B0000ED2B0000AF
:10015000FD2B00000D2C00001D2C00002D2C00009C
:100160003D2C00004D2C00005D2C00006D2C00008B
:100170007D2C00008D2C00009D2C0000AD2C00007B
:10018000BD2C0000CD2C0000DD2C0000ED2C00006B
:10019000FD2C00000D2D00001D2D00002D2D000058
:1001A0003D2D00004D2D00005D2D00006D2D000047
:1001B0007D2D00008D2D00009D2D0000AD2D000037
:1001C000BD2D0000CD2D0000DD2D0000ED2D000027
:1001D000FD2D00000D2E00001D2E00002D2E000014
:1001E0003D2E00004D2E00005D2E00006D2E000003
:1001F0007D2E00008D2E00009D2E0000AD2E0000F3
:10020000BD2E0000CD2E0000DD2E0000ED2E0000E2
:10021000FD2E00000D2F00001D2F00002D2F0000CF
:100220003D2F00004D2F00005D2F00006D2F0000BE
:100230007D2F00008D2F00009D2F0000AD2F0000AE
:10024000D7020000D7020000D7020000D70200004A
:10025000D7020000D7020000D7020000D70200003A
:10026000D7020000D7020000D7020000D70200002A
:10027000D7020000D7020000D7020000D70200001A
:10028000DFF80CD000F088F900480047F3030000C5
:100290002090FF1F10484FF0770101600F484FF08A
:1002A000770101600E484FF4885101600A484FF011
:1002B0007601016009484FF07601016009488047E6
:1002C00009480047FEE7FEE7FEE7FEE7FEE7FEE738
:1002D000FEE7FEE7FEE7FEE7040805400C080540E0
:1002E000000805402D3C000081020000D2B201E070
:1002F00000F8012B491EFBD270470022F6E710B52B
:1003000013460A4604461946FFF7F0FF204610BD83
:10031000F0B480EA0102D40F4200B2EB410F02D2E6
:100320000246084611464A0042D0C30DDDB2C1F371
:10033000C752AD1A202D35DAC1F3160141F400027F
:1003400004B15242C5F1200602FA06F12A411044D6
:10035000B3EBD05F23D0C4B1012DA0EBC35009DCB7
:10036000F0BC4FF0004202EAC352DBB200F50000DD
:1003700000F0E3B8400000F1807000EBC350A0F142
:10038000807040EAD170490009E0490841EAC07133
:10039000A0EBC35000F50000400800EBC350F0BCD8
:1003A00000F0C2B86142012202EB4101001BF6E7F6
:1003B000F0BC704781F00041AAE780F00040A7E759
:1003C00096230022114600F0B8B820F00040C10D7D
:1003D000C0F3160040F400007F2901DA00207047C6
:1003E000962903DCC1F19601C840704796398840D0
:1003F000704710B503F0B4FB03F066FC002010BD9D
:10040000BFFFDFFFFFFEFFFFFFFFFFFFFFFFFFFF5D
:10041000FFFFFFFFFFFFFFFFFFFFFFFFFFFFFFFFEC
:1004200080EA010210B502F00043400022D04A00E9
:100430001FD0010E01EB1261C0F35600C2F3560249
:1004400040F4000042F40002A0FB022000047F39C7
:10045000140400D0401C50EA124001D44000491E50
:10046000C2B20C0604EBD010401C4008802A02D017
:1004700003E0002010BD20F00100002900DA002078
:10048000184310BD30B480EA010202F0004530F09C
:10049000004221F0004013D090B1C30DD40DC2F33F
:1004A0001601C0F31600E41A41F4000140F4000202
:1004B0007D34914201D3641C00E04900002C02DA33
:1004C00030BC002070474FF400000023914201D35C
:1004D000891A034340084FEA4101F7D151B19142D3
:1004E00002D14FF0004105E002D24FF0010101E0DE
:1004F0006FF0010103EBC450284430BC00F014B885
:10050000002801DBC0F10040002901DBC1F10041FE
:1005100081427047002801DBC0F10040002901DB67
:10052000C1F10041884270470029A8BF7047401CB4
:10053000490008BF20F00100704710B4B0FA80FCF9
:1005400000FA0CF050EA010404BF10BC704749B136
:10055000CCF1200421FA04F411FA0CF118BF0121A6
:1005600021430843A3EB0C01CB1D4FEA00614FEA86
:10057000102042BF002010BC704700EBC350104455
:100580000029A4BF10BC7047401C490008BF20F0E0
:10059000010010BC70470000064C074D06E0E06803
:1005A00040F0010394E8070098471034AC42F6D3BA
:1005B000FFF76AFE843E0000A43E00001FB502A8BB
:1005C00000F004FE684600F099FC2B492B4800F02F
:1005D000BEFC00208DF80A0030208DF809000020B4
:1005E0008DF8080005208DF80C0002A800F044FDED
:1005F00000200190019820F01F0001903121019806
:1006000061F310200190019820F0704000F18050BB
:100610000190019820F0706000F1807001900198C5
:1006200020F4700000F58010019000208DF800008B
:10063000019820F080000190684600F005FB00BFA3
:10064000202000F007FA0128FAD1002211460420E8
:1006500002F096FF012211460B2002F091FF50207C
:1006600000F006FE4FF4404001F076F902F02CFF56
:10067000052000F076FC1FBD102211007777770768
:1006800010B58AB005A801F0B5F9002415E01A4AA2
:1006900002EB84025188184A12F8240005AA00F0DF
:1006A00099FF154A02EB84025188134A12F824007C
:1006B000082201F0DFF8601CC4B2032CE7D301214B
:1006C000C80700F0E7FE012000F0FCF9684602F0E0
:1006D000A7FD002000904FF0106001904FF48010B3
:1006E0000290C01003904FF4E0400490684602F07E
:1006F00097FC0AB010BD0000F43D00000146002048
:10070000054A12680A402AB10120034A12688A4346
:10071000014B1A60704700000880FF1F10B500F001
:10072000A9F8FFF7ADFF002407E0074901EB04112A
:10073000486800F001FE601CC4B2042CF5D301200F
:1007400002F03CFC10BD0000003E000010B508485F
:10075000006840F400600649086000BF02210120E3
:1007600001F03CF80028F9D0022000F0E5FD10BDB2
:100770000880FF1F10B500BF1048006800F0070098
:1007800004460F49486800F0F3FD012814D100BF6A
:100790000B4A5188107801F021F838B90120A040A7
:1007A00008490968084307490860F1E704494868AF
:1007B00000F0C2FD00BF00BF10BD0000080C0540E6
:1007C000003E00000880FF1F10B500BF1048006801
:1007D00000F0070004460F49486900F0C9FD0128F0
:1007E00014D100BF0B4A518A107C00F0F7FF38B9D2
:1007F0001020A04008490968084307490860F1E74C
:100800000449486900F098FD00BF00BF10BD00001A
:10081000080C0540003E00000880FF1F10B500BF17
:100820001148006800F0070004461049486A00F0CB
:100830009FFD012816D100BF0C4A518C92F8200070
:1008400000F0CCFF40B94FF48070A040084909681F
:10085000084307490860EFE70449486A00F06CFD67
:1008600000BF00BF10BD0000080C0540003E0000A6
:100870000880FF1F30B58BB001A801F0BBF84FF422
:100880008050ADF812004020ADF80E0000240CE0BE
:10089000374A02EB04125188354A02EB04121078F1
:1008A00001AA00F097FE601CC4B2042CF0D308A883
:1008B00000F0E6FD00200A90002408E02C4901EB3E
:1008C0000411486808A900F071FD601CC4B2042C32
:1008D000F4D3002447E0264800EB04100089ADF86B
:1008E0001800234800EB04104089ADF81A00204896
:1008F00000EB0410C068079006A801F005FFBDF9E1
:100900001A00002807DB00F01F0201219140194A5C
:10091000430942F8231000BFBDF91A000F21002837
:1009200004DB0A07130E144A135406E00A07150ED7
:10093000124A00F00F031B1FD55400BFBDF91A0067
:1009400000280DDB00BF00BF00F01F020121914015
:100950004209920002F1E022C2F8001100BF00BF7C
:1009600000BF601CC4B2042CB5D30BB030BD000076
:10097000003E000080E200E000E400E018ED00E04E
:1009800010B586B001A801F035F80220ADF80600D8
:1009900000240BE0074A02EB84025188054A12F852
:1009A000240001AA00F016FE601CC4B2042CF1D38E
:1009B00006B010BDE43D000070B5054600240FE010
:1009C00045FA04F000F0010040B1074A02EB84024E
:1009D0005188054A12F8240001F01CF8601CC4B2CA
:1009E000042CEDD370BD0000E43D00000146084A30
:1009F000D268074B5B689A4201D300BFFEE7044A06
:100A0000D268885C024AD268521C014BDA60704797
:100A10000C82FF1F084AD268074B5B689A4201D3D9
:100A200000BFFEE7044AD2688154034AD268521CD0
:100A3000014BDA60704700000C82FF1F08B50021EF
:100A4000009102E00099491C009100998142F9D37C
:100A500008BD000010B5044600BF24B144F0690091
:100A6000692800D104E040F2BB5106A000F0BDFBB4
:100A700000BF13480078204008B1012010BD0020BD
:100A8000FCE700002E2E2F2E2E2F2E2E2F2E2E2F57
:100A90002E2E2F2E2E2F647269766572732F686347
:100AA00033325F6C6C5F6472697665722F73726348
:100AB0002F686333325F6C6C5F636C6B2E63000076
:100AC0003C40054070B50446002500BF0CB1012C28
:100AD00000D104E040F2023114A000F086FB00BF18
:100AE00000BF2148008800F0010000B104E040F29E
:100AF00003310EA000F079FB00BF6CB91B480078F1
:100B000000F00700022802D16FF005050BE001207C
:100B100015492931087006E0002013492931087071
:100B20004815FFF78BFF284670BD00002E2E2F2E94
:100B30002E2F2E2E2F2E2E2F2E2E2F2E2E2F647256
:100B400069766572732F686333325F6C6C5F6472B1
:100B5000697665722F7372632F686333325F6C6CD2
:100B60005F636C6B2E630000FE430540264005402A
:100B700070B50446002500BF0CB1012C00D104E083
:100B800040F20E511FA000F030FB00BF00BF2C4808
:100B9000008800F0010000B104E040F20F5119A0FC
:100BA00000F023FB00BF64B92648007800F007007E
:100BB000052801D1C54322E001202249091D087002
:100BC0001DE02048DA300068C0F3C01030B94FF49F
:100BD0008051082000F0CDF9054605E04FF4805122
:100BE000012000F0C6F905464DB900201549091D40
:100BF00008704FF48051202000F0BBF905462846CC
:100C000070BD00002E2E2F2E2E2F2E2E2F2E2E2F8B
:100C10002E2E2F2E2E2F647269766572732F6863C5
:100C200033325F6C6C5F6472697665722F737263C6
:100C30002F686333325F6C6C5F636C6B2E630000F4
:100C4000FE430540264005402DE9F041044614B915
:100C50006FF002061FE100BF2079C0F3C01018B189
:100C60002079C0F3C01000B104E040F2DF418BA056
:100C700000F0BBFA00BF00BF207900F01F00401C4D
:100C8000182805D8207900F01F00401C00B104E0AE
:100C90004FF49C6181A000F0A8FA00BF00BF60681B
:100CA000C0F30820401CB0F5F07F06D86068C0F3A0
:100CB0000820401C142800D304E040F2E14177A052
:100CC00000F093FA00BF00BF0121606801EB1070D3
:100CD000102805D8606801EB1070022800D304E0EA
:100CE00040F2E2416DA000F080FA00BF2079C0F32D
:100CF000C01008B9784901E078480168207900F00F
:100D00001F00401CB1FBF0F76068C0F30820401CD6
:100D100000FB07F500BF7248874203D8714887423D
:100D200000D304E04FF49D615CA000F05EFA00BFC8
:100D300000BF6D48854203D84010854200D304E0CF
:100D400040F2E94155A000F050FA00BF00BF012178
:100D5000606801EB1070B5FBF0F06449884209D877
:100D60000121606801EB1070B5FBF0F0604988422A
:100D700000D304E040F2EA4148A000F036FA00BF98
:100D800000BF6068C0F30360401C102806D860688C
:100D9000C0F30360401C022800D304E040F2EB41A2
:100DA0003EA000F022FA00BF00BF6068C0F303500D
:100DB000401C102806D86068C0F30350401C02286D
:100DC00000D304E040F2EC4134A000F00EFA00BF82
:100DD00000BF6068C0F30350401CB5FBF0F043490E
:100DE000884209D86068C0F30350401CB5FBF0F09E
:100DF0000911884200D304E040F2ED4127A000F041
:100E0000F4F900BF00BF6068C0F30360401CB5FB8D
:100E1000F0F03649884209D86068C0F30360401C8E
:100E2000B5FBF0F00911884200D304E040F2EE4136
:100E30001AA000F0DAF900BF00BF2078012801D025
:100E4000207800B904E040F2EF4114A000F0CDF9A1
:100E500000BF00BF2748008800F0010000B104E097
:100E60004FF49E610DA000F0C0F900BF2079C109C8
:100E70002148006861F3C7101F4908606068086076
:100E8000207820B90120FFF773FE064603E000201A
:100E9000FFF76EFE06463046BDE8F0812E2E2F2E5F
:100EA0002E2F2E2E2F2E2E2F2E2E2F2E2E2F6472E3
:100EB00069766572732F686333325F6C6C5F64723E
:100EC000697665722F7372632F686333325F6C6C5F
:100ED0005F636C6B2E63000000127A000480FF1FBA
:100EE00040787D0140420F0000389C1C001C4E0ED3
:100EF000C0E1E400FE4305400041054001460020FA
:100F000009B9C01E22E000224A604A6822F080022D
:100F10004A604A6822F01F024A6013234A6863F35A
:100F200010224A604A6822F0704202F180524A6000
:100F30004A6822F0706202F180724A604A6822F4C4
:100F4000700202F580124A6001220A70704770B583
:100F500004460D462946204602F08EFB02F000FEB4
:100F600070BD10B50446204602F04AFD02F0F8FDBF
:100F700010BDF8B505460C46002000906FF007063E
:100F800009E02846FFF766FD012801D1002605E0AB
:100F90000098401C00900098A042F2D900BF304653
:100FA000F8BD000070B50446002500BF0CB1012C4F
:100FB00000D104E040F2CB311EA000F016F900BFD2
:100FC00000BF2B48008800F0010000B104E04FF49E
:100FD000737118A000F009F900BFFCB9254800782A
:100FE00000F00700032802D16FF0050520E021483A
:100FF000DA300068C0F3C01058B91E48001D0078F0
:1010000010B96FF0050513E001201A490C31087082
:101010000EE0012017490C31087009E00020154945
:101020000C3108704FF480510820FFF7A2FF0546ED
:10103000284670BD2E2E2F2E2E2F2E2E2F2E2E2FE9
:101040002E2E2F2E2E2F647269766572732F686391
:1010500033325F6C6C5F6472697665722F73726392
:101060002F686333325F6C6C5F636C6B2E630000C0
:10107000FE4305402640054070B5044614B96FF0A4
:1010800002057FE000BF2078012801D0207800B958
:1010900004E040F2A9313CA000F0A7F800BF00BF77
:1010A000607840B16078102805D06078202802D0A0
:1010B0006078302800D104E040F2AA3132A000F07C
:1010C00094F800BF00BFA07810B1A078402800D1EC
:1010D00004E040F2AB312CA000F087F800BF00BF65
:1010E000E078802801D0E07800B904E04FF46B711B
:1010F00025A000F07AF800BF00BF2079012817D0A2
:101100002079022814D02079032811D020790428CE
:101110000ED0207905280BD02079062808D0207918
:10112000072805D02079082802D02079092800D185
:1011300004E040F2AD3114A000F057F800BF00BF4A
:101140002048008800F0010000B104E040F2AE3118
:101150000DA000F04AF800BF20791B490870E07824
:1011600061780843A1780843164912310870207845
:1011700020B90120FFF716FF054603E00020FFF726
:1011800011FF0546284670BD2E2E2F2E2E2F2E2EF7
:101190002F2E2E2F2E2E2F2E2E2F647269766572F3
:1011A000732F686333325F6C6C5F6472697665724B
:1011B0002F7372632F686333325F6C6C5F636C6B89
:1011C0002E630000FE430540A2400540014600207A
:1011D00009B9C01E08E001220A7000228A704A7014
:1011E0008022CA7005220A71704700BFFEE7000026
:1011F00008B50D49096AC1F302630C490968D94071
:1012000042F210731944491EB1FBF3F206E000925A
:1012100000BF00994B1E00930029FAD1011EA0F1D6
:101220000100F4D108BD0000004005400080FF1F10
:1012300008B50C49096AC1F302630B490968D94032
:101240000A4B1944491EB1FBF3F206E0009200BFBD
:1012500000994B1E00930029FAD1011EA0F1010054
:10126000F4D108BD004005400080FF1F8096980023
:1012700070B50446002500BF1D480068012800D154
:1012800004E040F207111BA0FFF7AFFF00BF00BF53
:10129000F02C00D804E04FF4847116A0FFF7A5FFEE
:1012A00000BF13480830006820F0F00004F0F0019F
:1012B00008430F490831086010E06D1C1C48006AA3
:1012C000C0F302611B480068C84044F62061B0FBCF
:1012D000F1F0A84202D26FF0070070BD0448083058
:1012E000006800F0F000A042E7D10020F5E7000020
:1012F000000401402E2E2F2E2E2F2E2E2F2E2E2F7D
:101300002E2E2F2E2E2F647269766572732F6863CE
:1013100033325F6C6C5F6472697665722F737263CF
:101320002F686333325F6C6C5F65666D2E630000FF
:10133000004005400080FF1F10B5044600BF3CB1CF
:101340004FF6FF7020434FF6FF71884200D104E052
:1013500040F203210448FFF748FF00BF0348806DB7
:1013600020430249886510BD403E00000010054042
:1013700010B5044600BF3CB14FF6FF7020434FF656
:10138000FF71884200D104E04FF404710548FFF773
:101390002CFF00BF0448406D204008B1012010BD63
:1013A0000020FCE7403E0000001005402DE9F0471A
:1013B00006460C464FF0000914B96FF0020958E0D8
:1013C00000BF3EB14FF6FF7030434FF6FF718842C9
:1013D00000D104E040F2D3112748FFF706FF00BF19
:1013E00000BF206810B12068802800D104E04FF4CD
:1013F000EA712148FFF7F9FE00BF00BF606840B105
:101400006068102805D06068202802D06068302805
:1014100000D104E040F2D5111748FFF7E6FE00BF07
:1014200000BFA068032807D0A068012804D0A068E6
:1014300010B1A068022800D104E04FF4EB710E480F
:10144000FFF7D3FE00BF002511E00120A840304087
:1014500058B1D4E900010843A16840EA01070748F0
:10146000042101FB0508C8F80070681CC5B2102DE6
:10147000EBD34846BDE8F087403E00001010054021
:101480000146002009B9C01E03E000220A604A603C
:101490008A60704770B504460D4600BF2CB11748EE
:1014A00020431649884200D103E0712114A0FFF7C0
:1014B0009CFE00BF00BF0DB1012D00D103E07221E1
:1014C0000FA0FFF792FE00BF00BF1C48006900F0AC
:1014D000010000B103E0732109A0FFF786FE00BF01
:1014E000012D05D115480068A0431449086004E0A7
:1014F0001248006820431149086070BD11C5F38F80
:101500002E2E2F2E2E2F2E2E2F2E2E2F2E2E2F2EF6
:101510002E2F647269766572732F686333325F6C45
:101520006C5F6472697665722F7372632F686333C0
:10153000325F6C6C5F6663672E630000008004405E
:1015400070B504460D4600BF2CB111482043104928
:10155000884200D103E084210EA0FFF746FE00BFC1
:1015600000BF0DB1012D00D103E0852109A0FFF7D7
:101570003CFE00BF012D05D115484068A043144929
:10158000486004E01248406820431149486070BD3B
:1015900079FD0F0F2E2E2F2E2E2F2E2E2F2E2E2F8B
:1015A0002E2E2F2E2E2F647269766572732F68632C
:1015B00033325F6C6C5F6472697665722F7372632D
:1015C0002F686333325F6C6C5F6663672E63000065
:1015D000008004402DE9F05F05460F4614464FF0A9
:1015E000000B14B96FF0020BD5E000BF6B48008808
:1015F00000F0010000B103E0FF2169A0FFF7F5FD55
:1016000000BF00BF4DB1012D07D0022D05D0032D25
:1016100003D0042D01D0052D00D104E04FF48071DA
:101620005FA0FFF7E2FD00BF00BF17B1B8B200B185
:1016300004E040F201115AA0FFF7D7FD00BF00BF40
:10164000208810B12088012800D104E04FF4817176
:1016500053A0FFF7CAFD00BF00BF608810B16088CB
:10166000022800D104E040F203114DA0FFF7BDFDB8
:1016700000BF00BFA08810B1A088042800D104E0FA
:101680004FF4827146A0FFF7B0FD00BF00BFE088B5
:1016900028B1E088102802D0E088202800D104E09A
:1016A00040F205113EA0FFF7A0FD00BF00BF20895A
:1016B00018B12089B0F5804F00D104E04FF4837158
:1016C00037A0FFF792FD00BF00BF608910B16089AD
:1016D000402800D104E040F2071131A0FFF785FD5A
:1016E00000BF00BFA08918B1A089B0F5007F00D16C
:1016F00004E04FF484712AA0FFF777FD00BF00BF1C
:10170000E08918B1E089B0F5805F00D104E040F2D3
:10171000091123A0FFF769FD00BF00BF208A18B19F
:10172000208AB0F5004F00D104E04FF485711CA071
:10173000FFF75BFD00BF00262BE00120B0403840E2
:1017400028B3208861880843A1880843E1880843BA
:1017500061890843A1890843E1890843218940EA56
:10176000010A45F27728208A40EA0A0A48F400482C
:101770000A48001D00EB851000EB8609B9F800004F
:1017800020EA08000AEA08010843A9F80000701CD2
:10179000C6B2102ED1D35846BDE8F09FFC3B0540A1
:1017A0002E2E2F2E2E2F2E2E2F2E2E2F2E2E2F2E54
:1017B0002E2F647269766572732F686333325F6CA3
:1017C0006C5F6472697665722F7372632F6863331E
:1017D000325F6C6C5F6770696F2E630070B5044692
:1017E0000D4600BF4CB1012C07D0022C05D0032CB4
:1017F00003D0042C01D0052C00D104E040F2F111FB
:101800000CA0FFF7F2FC00BF00BF15B1A8B200B1F9
:1018100004E04FF4F97107A0FFF7E7FC00BF14499B
:1018200001EB0410B0F80008284008B1012070BD99
:101830000020FCE72E2E2F2E2E2F2E2E2F2E2E2F79
:101840002E2E2F2E2E2F647269766572732F686389
:1018500033325F6C6C5F6472697665722F7372638A
:101860002F686333325F6C6C5F6770696F2E630043
:10187000003005402DE9F04104460F46164600BFF2
:101880004CB1012C07D0022C05D0032C03D0042C22
:1018900001D0052C00D104E040F277111EA0FFF723
:1018A000A4FC00BF00BF17B1B8B200B104E04FF410
:1018B000BC7119A0FFF799FC00BF00BF0F2E03D920
:1018C000202E02D33B2E00D804E040F2791112A062
:1018D000FFF78BFC00BF00BF1E48008800F001002E
:1018E00000B104E04FF4BD710BA0FFF77EFC00BF18
:1018F00000250DE00120A840384038B11548801D72
:1019000000EB841000EB8508A8F80060681CC5B2E5
:10191000102DEFD3BDE8F0812E2E2F2E2E2F2E2E40
:101920002F2E2E2F2E2E2F2E2E2F6472697665725B
:10193000732F686333325F6C6C5F647269766572B3
:101940002F7372632F686333325F6C6C5F677069EB
:101950006F2E6300FC3B054010B5044600BF44B148
:10196000B4F5804F05D0B4F5004F02D0B4F5404F28
:1019700000D104E040F2CD110EA0FFF736FC00BF0D
:1019800000BF1B48008800F0010000B104E04FF4E4
:10199000E77108A0FFF729FC00BF1548001F008869
:1019A000C0F30D0004F4404108431149091F0880A9
:1019B00010BD00002E2E2F2E2E2F2E2E2F2E2E2F2E
:1019C0002E2E2F2E2E2F647269766572732F686308
:1019D00033325F6C6C5F6472697665722F73726309
:1019E0002F686333325F6C6C5F6770696F2E6300C2
:1019F000FC3B05400146002009B9C01E09E0002259
:101A00000A804A80CA800A820A814A818A81CA8100
:101A10008A80704770B504460D4600BF4CB1012C5A
:101A200007D0022C05D0032C03D0042C01D0052CA8
:101A300000D104E04FF418710BA0FFF7D6FB00BFF4
:101A400000BF15B1A8B200B104E040F2612106A0C8
:101A5000FFF7CBFB00BF1348102101FB04063088C1
:101A60002843308070BD00002E2E2F2E2E2F2E2EBC
:101A70002F2E2E2F2E2E2F2E2E2F6472697665720A
:101A8000732F686333325F6C6C5F64726976657262
:101A90002F7372632F686333325F6C6C5F6770699A
:101AA0006F2E63000C38054070B504460D4600BF2C
:101AB0001148844205D01148844202D01048844223
:101AC00000D104E04FF431710EA0FFF78EFB00BF90
:101AD00000BF15B1B5F5806F00D104E040F2C5211B
:101AE00008A0FFF782FB00BF206820F4806005F4A7
:101AF00080610843206070BD00E0044000E40440C1
:101B000000E804402E2E2F2E2E2F2E2E2F2E2E2F7D
:101B10002E2E2F2E2E2F647269766572732F6863B6
:101B200033325F6C6C5F6472697665722F737263B7
:101B30002F686333325F6C6C5F6932632E63000021
:101B40002DE9F04F8DB005460C4616464FF0000AC1
:101B500000200A90022009900020059004B116B9D7
:101B60006FF0020AE3E000BF7648854205D0764870
:101B7000854202D07548854200D104E04FF484715B
:101B800073A0FFF732FB00BF00BF606820B17F4940
:101B90006068884200D804E040F209116CA0FFF7A9
:101BA00024FB00BF00BF2068072800D804E04FF4E2
:101BB000857167A0FFF719FB00BF7548006AC0F385
:101BC00002317448006820FA01F82178012000FAF7
:101BD00001F7A0680C9060680B90286B00F0100073
:101BE00020B1286B00F00300401C0A90206808B95F
:101BF00003200990002F7CD03846FEF7E1FB0490CB
:101C00000B98FEF7DDFB03904046FEF7D9FB0290F0
:101C10000399FEF737FC83460499FEF733FC8146AF
:101C20000C98FEF7CDFB04900A98FEF7C9FB4FF025
:101C300080410190FEF7F4FB02900998FEF7C0FB8B
:101C40004FF080410190FEF7EBFB83460299FEF7CF
:101C50005FFB03900499FEF75BFB079048460799EA
:101C6000FEF7A8FB06904846FEF7AFFB0390FEF791
:101C7000A7FB49460490FEF7A0FB83464FF07C513A
:101C8000FEF748FC0CD84846FEF79FFB0490FEF791
:101C900097FB83464FF07E51FEF73AFB814606E004
:101CA0004846FEF792FB8346FEF78AFB814648468C
:101CB0000799FEF725FC02D86FF0020A37E0364993
:101CC0000698FEF727FC02D26FF0020A2FE0484682
:101CD000FEF77BFBB8FBF0F0B0FBF7F0089008983C
:101CE000FEF76EFB04900898FEF76AFB03900B98D2
:101CF00000E01AE0FEF764FB02900399FEF75AFB3E
:101D000083460499FEF7BEFB05900698FEF75DFB3F
:101D10004008218840EA014B0698FEF756FBA0EBED
:101D200050004BEA0020E86201E06FF0020A26B1A1
:101D3000BAF1000F01D10598306050460DB0BDE8F2
:101D4000F08F000000E0044000E4044000E804409C
:101D50002E2E2F2E2E2F2E2E2F2E2E2F2E2E2F2E9E
:101D60002E2F647269766572732F686333325F6CED
:101D70006C5F6472697665722F7372632F68633368
:101D8000325F6C6C5F6932632E630000801A06005C
:101D9000004005400080FF1F0000784270B50446F7
:101DA0000D4600BF1348844205D01348844202D038
:101DB0001248844200D104E04FF4EC7110A0FFF708
:101DC00014FA00BF00BF0DB1012D00D104E040F2B4
:101DD000D9110BA0FFF709FA00BF012D04D1E0686B
:101DE00040F48060E06003E0E06820F48060E06040
:101DF00070BD000000E0044000E4044000E804403E
:101E00002E2E2F2E2E2F2E2E2F2E2E2F2E2E2F2EED
:101E10002E2F647269766572732F686333325F6C3C
:101E20006C5F6472697665722F7372632F686333B7
:101E3000325F6C6C5F6932632E63000070B50446DC
:101E40000D4600BF0F48844205D00F48844202D09F
:101E50000E48844200D104E040F271210CA0FFF74B
:101E6000C4F900BF00BF2DB1184828431749884264
:101E700000D104E040F2722105A0FFF7B6F900BFDF
:101E8000256270BD00E0044000E4044000E8044026
:101E90002E2E2F2E2E2F2E2E2F2E2E2F2E2E2F2E5D
:101EA0002E2F647269766572732F686333325F6CAC
:101EB0006C5F6472697665722F7372632F68633327
:101EC000325F6C6C5F6932632E630000DF52F0009A
:101ED00070B504460D4600BF0F48844205D00F4838
:101EE000844202D00E48844200D104E040F2B51191
:101EF0000CA0FFF77AF900BF00BF0DB1012D00D192
:101F000004E04FF4DB7107A0FFF76FF900BF206812
:101F100065F30000206070BD00E0044000E4044070
:101F200000E804402E2E2F2E2E2F2E2E2F2E2E2F59
:101F30002E2E2F2E2E2F647269766572732F686392
:101F400033325F6C6C5F6472697665722F73726393
:101F50002F686333325F6C6C5F6932632E630000FD
:101F600010B5044600BF0C48844205D00B4884429B
:101F700002D00B48844200D104E04FF4A77109A0BD
:101F8000FFF733F900BF206820F0010020602068CF
:101F900040F40040206010BD00E0044000E4044034
:101FA00000E804402E2E2F2E2E2F2E2E2F2E2E2FD9
:101FB0002E2E2F2E2E2F647269766572732F686312
:101FC00033325F6C6C5F6472697665722F73726313
:101FD0002F686333325F6C6C5F6932632E6300007D
:101FE00010B501212C4800F0D3F8012828D141F286
:101FF00001012948FFF722FF012241F21001264882
:1020000000F090F92548007848B9012208212248BB
:1020100000F088F90021062001F032FA10E01F4894
:102020004068012803D181021B48FFF73DFD0122D2
:102030004021194800F076F90121062001F020FA2C
:102040004FF48051144800F0A3F801280CD101038B
:102050001148FFF7F3FE002241F2C8010E4800F0DC
:1020600061F90D4800F058F810210B4800F090F885
:10207000012810D1002241F2D801074800F052F99E
:1020800010210548FFF7DAFE00210348FFF720FF83
:1020900001200249087410BD00E804400C82FF1FB3
:1020A00010B5044600BF0A48844205D0094884425E
:1020B00002D00948844200D103E0BF2107A0FFF706
:1020C00094F800BF206840F48070206010BD0000CC
:1020D00000E0044000E4044000E804402E2E2F2ECF
:1020E0002E2F2E2E2F2E2E2F2E2E2F2E2E2F647291
:1020F00069766572732F686333325F6C6C5F6472EC
:10210000697665722F7372632F686333325F6C6C0C
:102110005F6932632E63000010B5044600BF0A48B1
:10212000844205D00948844202D00948844200D143
:1021300003E0D92107A0FFF758F800BF206840F45A
:102140000070206010BD000000E0044000E4044086
:1021500000E804402E2E2F2E2E2F2E2E2F2E2E2F27
:102160002E2E2F2E2E2F647269766572732F686360
:1021700033325F6C6C5F6472697665722F73726361
:102180002F686333325F6C6C5F6932632E630000CB
:1021900070B504460D4600BF1248844205D012486F
:1021A000844202D01148844200D104E040F253211D
:1021B0000FA0FFF71AF800BF00BF2DB11B4828433E
:1021C0001A49884200D104E04FF4157108A0FFF7C6
:1021D0000CF800BFE069284008B1012070BD002064
:1021E000FCE7000000E0044000E4044000E8044094
:1021F0002E2E2F2E2E2F2E2E2F2E2E2F2E2E2F2EFA
:102200002E2F647269766572732F686333325F6C48
:102210006C5F6472697665722F7372632F686333C3
:10222000325F6C6C5F6932632E630000DF56F7002B
:102230002DE9F04104460D46174615B96FF0020628
:1022400047E000BF2448844205D02448844202D09D
:102250002348844200D104E04FF4BB7121A0FEF773
:10226000C4FF00BF00BF686820B12D49686888427C
:1022700000D804E040F277111AA0FEF7B6FF00BFC5
:1022800000BF2868072800D804E04FF4BC7115A0EF
:10229000FEF7ABFF00BF206820F00100206020683F
:1022A00040F400402060206840F0010020603A4681
:1022B00029462046FFF744FC0646206820F04000EF
:1022C0002060206820F400402060206820F0010099
:1022D00020603046BDE8F08100E0044000E40440A6
:1022E00000E804402E2E2F2E2E2F2E2E2F2E2E2F96
:1022F0002E2E2F2E2E2F647269766572732F6863CF
:1023000033325F6C6C5F6472697665722F737263CF
:102310002F686333325F6C6C5F6932632E63000039
:10232000801A060070B504460D46164600BF1948CF
:10233000844205D01848844202D01848844200D113
:1023400004E040F2922116A0FEF74FFF00BF00BF4D
:102350002DB1224828432149884200D104E040F2AF
:1023600093210FA0FEF741FF00BF00BF0EB1012E69
:1023700000D104E04FF4257109A0FEF736FF00BF3D
:10238000012E03D160682843606002E06068A843C2
:10239000606070BD00E0044000E4044000E80440D8
:1023A0002E2E2F2E2E2F2E2E2F2E2E2F2E2E2F2E48
:1023B0002E2F647269766572732F686333325F6C97
:1023C0006C5F6472697665722F7372632F68633312
:1023D000325F6C6C5F6932632E630000DF52F00085
:1023E00070B504460D4600260948007C01280BD133
:1023F000002007490874C86001200870084645603D
:10240000846001F049F801E06FF00506304670BDC8
:102410000C82FF1F70B504460D4600260948007C5B
:1024200001280AD1002007490874C86008700846CE
:102430004560846001F030F801E06FF00506304639
:1024400070BD00000C82FF1F10B5184840680228BC
:102450000AD31648C1684068801E814204D14FF4F7
:1024600080611348FFF720FB1048C1684068401E98
:10247000814210D1012210210D48FFF753FF0022A5
:1024800040210B48FFF74EFF0948FFF745FE0021AA
:102490000748FFF709FB064800F00CF8044603491B
:1024A00088682146FEF7B6FA10BD00000C82FF1FB7
:1024B00000E8044010B5044600BF0948844205D036
:1024C0000848844202D00848844200D104E040F227
:1024D000B52106A0FEF789FE00BF94F8280010BDC4
:1024E00000E0044000E4044000E804402E2E2F2EBB
:1024F0002E2F2E2E2F2E2E2F2E2E2F2E2E2F64727D
:1025000069766572732F686333325F6C6C5F6472D7
:10251000697665722F7372632F686333325F6C6CF8
:102520005F6932632E63000070B504460D4600BF3C
:102530000F48844205D00F48844202D00E4884429E
:1025400000D104E040F281210CA0FEF74EFE00BF56
:1025500000BF0DB1012D00D104E040F2822107A09F
:10256000FEF743FE00BF206865F3CF30206070BDEA
:1025700000E0044000E4044000E804402E2E2F2E2A
:102580002E2F2E2E2F2E2E2F2E2E2F2E2E2F6472EC
:1025900069766572732F686333325F6C6C5F647247
:1025A000697665722F7372632F686333325F6C6C68
:1025B0005F6932632E6300000146002009B9C01E26
:1025C00005E04CF250324A6000228A600A6070478F
:1025D00010B5002208211C48FFF7A4FE1B48C06864
:1025E00048BB4FF480211848FFF7D2FD01282AD1BB
:1025F00001031548FFF7CCFD70B901228021124874
:10260000FFF790FE11498868FEF7F0F9044621466D
:102610000D4800F03DF816E000224FF480510A48C2
:10262000FFF780FE012210210748FFF77BFE0648D6
:10263000FFF772FD07E0012210210348FFF772FE49
:102640000148FFF769FD10BD00E804400C82FF1F40
:1026500010B50D48C1684068401E814209D80A493A
:102660008868FEF7C3F904462146084800F010F8D0
:1026700009E0002280210548FFF754FE01220821CD
:102680000248FFF74FFE10BD0C82FF1F00E8044018
:1026900070B504460D4600BF0948844205D009487C
:1026A000844202D00848844200D104E040F2A721CD
:1026B00006A0FEF79AFD00BF84F8245070BD00000C
:1026C00000E0044000E4044000E804402E2E2F2ED9
:1026D0002E2F2E2E2F2E2E2F2E2E2F2E2E2F64729B
:1026E00069766572732F686333325F6C6C5F6472F6
:1026F000697665722F7372632F686333325F6C6C17
:102700005F6932632E63000070B5044600260CB981
:10271000F61E4BE000BF2088B0F5007F00DA03E032
:10272000C3212348FEF761FD00BF2088400900EB6C
:102730004000202101EB4000B4F9021088420AD881
:102740002088400900EB4000252101EB4000B4F94E
:102750000210884206D2B4F90200202802D36FF09A
:10276000020623E060881349042212FB0015286842
:10277000C0F3080040F2FF11884208D12088286089
:10278000B4F902100C4A606842F821000EE020887B
:102790002968C1F30801884206D1B4F90210064A3B
:1027A000606842F8210001E06FF00106304670BD1C
:1027B000403E00005C1005402082FF1F10B502491A
:1027C0000868804710BD00002082FF1F10B5024935
:1027D0004868804710BD00002082FF1F10B50249E5
:1027E0008868804710BD00002082FF1F10B5024995
:1027F000C868804710BD00002082FF1F10B5024945
:102800000869804710BD00002082FF1F10B50249F3
:102810004869804710BD00002082FF1F10B50249A3
:102820008869804710BD00002082FF1F10B5024953
:10283000C869804710BD00002082FF1F10B5024903
:10284000086A804710BD00002082FF1F10B50249B2
:10285000486A804710BD00002082FF1F10B5024962
:10286000886A804710BD00002082FF1F10B5024912
:10287000C86A804710BD00002082FF1F10B50249C2
:10288000086B804710BD00002082FF1F10B5024971
:10289000486B804710BD00002082FF1F10B5024921
:1028A000886B804710BD00002082FF1F10B50249D1
:1028B000C86B804710BD00002082FF1F10B5024981
:1028C000086C804710BD00002082FF1F10B5024930
:1028D000486C804710BD00002082FF1F10B50249E0
:1028E000886C804710BD00002082FF1F10B5024990
:1028F000C86C804710BD00002082FF1F10B5024940
:10290000086D804710BD00002082FF1F10B50249EE
:10291000486D804710BD00002082FF1F10B502499E
:10292000886D804710BD00002082FF1F10B502494E
:10293000C86D804710BD00002082FF1F10B50249FE
:10294000086E804710BD00002082FF1F10B50249AD
:10295000486E804710BD00002082FF1F10B502495D
:10296000886E804710BD00002082FF1F10B502490D
:10297000C86E804710BD00002082FF1F10B50249BD
:10298000086F804710BD00002082FF1F10B502496C
:10299000486F804710BD00002082FF1F10B502491C
:1029A000886F804710BD00002082FF1F10B50249CC
:1029B000C86F804710BD00002082FF1F10B502497C
:1029C000D1F88000804710BD2082FF1F10B502495A
:1029D000D1F88400804710BD2082FF1F10B5024946
:1029E000D1F88800804710BD2082FF1F10B5024932
:1029F000D1F88C00804710BD2082FF1F10B502491E
:102A0000D1F89000804710BD2082FF1F10B5024909
:102A1000D1F89400804710BD2082FF1F10B50249F5
:102A2000D1F89800804710BD2082FF1F10B50249E1
:102A3000D1F89C00804710BD2082FF1F10B50249CD
:102A4000D1F8A000804710BD2082FF1F10B50249B9
:102A5000D1F8A400804710BD2082FF1F10B50249A5
:102A6000D1F8A800804710BD2082FF1F10B5024991
:102A7000D1F8AC00804710BD2082FF1F10B502497D
:102A8000D1F8B000804710BD2082FF1F10B5024969
:102A9000D1F8B400804710BD2082FF1F10B5024955
:102AA000D1F8B800804710BD2082FF1F10B5024941
:102AB000D1F8BC00804710BD2082FF1F10B502492D
:102AC000D1F8C000804710BD2082FF1F10B5024919
:102AD000D1F8C400804710BD2082FF1F10B5024905
:102AE000D1F8C800804710BD2082FF1F10B50249F1
:102AF000D1F8CC00804710BD2082FF1F10B50249DD
:102B0000D1F8D000804710BD2082FF1F10B50249C8
:102B1000D1F8D400804710BD2082FF1F10B50249B4
:102B2000D1F8D800804710BD2082FF1F10B50249A0
:102B3000D1F8DC00804710BD2082FF1F10B502498C
:102B4000D1F8E000804710BD2082FF1F10B5024978
:102B5000D1F8E400804710BD2082FF1F10B5024964
:102B6000D1F8E800804710BD2082FF1F10B5024950
:102B7000D1F8EC00804710BD2082FF1F10B502493C
:102B8000D1F8F000804710BD2082FF1F10B5024928
:102B9000D1F8F400804710BD2082FF1F10B5024914
:102BA000D1F8F800804710BD2082FF1F10B5024900
:102BB000D1F8FC00804710BD2082FF1F10B50249EC
:102BC000D1F80001804710BD2082FF1F10B50249D7
:102BD000D1F80401804710BD2082FF1F10B50249C3
:102BE000D1F80801804710BD2082FF1F10B50249AF
:102BF000D1F80C01804710BD2082FF1F10B502499B
:102C0000D1F81001804710BD2082FF1F10B5024986
:102C1000D1F81401804710BD2082FF1F10B5024972
:102C2000D1F81801804710BD2082FF1F10B502495E
:102C3000D1F81C01804710BD2082FF1F10B502494A
:102C4000D1F82001804710BD2082FF1F10B5024936
:102C5000D1F82401804710BD2082FF1F10B5024922
:102C6000D1F82801804710BD2082FF1F10B502490E
:102C7000D1F82C01804710BD2082FF1F10B50249FA
:102C8000D1F83001804710BD2082FF1F10B50249E6
:102C9000D1F83401804710BD2082FF1F10B50249D2
:102CA000D1F83801804710BD2082FF1F10B50249BE
:102CB000D1F83C01804710BD2082FF1F10B50249AA
:102CC000D1F84001804710BD2082FF1F10B5024996
:102CD000D1F84401804710BD2082FF1F10B5024982
:102CE000D1F84801804710BD2082FF1F10B502496E
:102CF000D1F84C01804710BD2082FF1F10B502495A
:102D0000D1F85001804710BD2082FF1F10B5024945
:102D1000D1F85401804710BD2082FF1F10B5024931
:102D2000D1F85801804710BD2082FF1F10B502491D
:102D3000D1F85C01804710BD2082FF1F10B5024909
:102D4000D1F86001804710BD2082FF1F10B50249F5
:102D5000D1F86401804710BD2082FF1F10B50249E1
:102D6000D1F86801804710BD2082FF1F10B50249CD
:102D7000D1F86C01804710BD2082FF1F10B50249B9
:102D8000D1F87001804710BD2082FF1F10B50249A5
:102D9000D1F87401804710BD2082FF1F10B5024991
:102DA000D1F87801804710BD2082FF1F10B502497D
:102DB000D1F87C01804710BD2082FF1F10B5024969
:102DC000D1F88001804710BD2082FF1F10B5024955
:102DD000D1F88401804710BD2082FF1F10B5024941
:102DE000D1F88801804710BD2082FF1F10B502492D
:102DF000D1F88C01804710BD2082FF1F10B5024919
:102E0000D1F89001804710BD2082FF1F10B5024904
:102E1000D1F89401804710BD2082FF1F10B50249F0
:102E2000D1F89801804710BD2082FF1F10B50249DC
:102E3000D1F89C01804710BD2082FF1F10B50249C8
:102E4000D1F8A001804710BD2082FF1F10B50249B4
:102E5000D1F8A401804710BD2082FF1F10B50249A0
:102E6000D1F8A801804710BD2082FF1F10B502498C
:102E7000D1F8AC01804710BD2082FF1F10B5024978
:102E8000D1F8B001804710BD2082FF1F10B5024964
:102E9000D1F8B401804710BD2082FF1F10B5024950
:102EA000D1F8B801804710BD2082FF1F10B502493C
:102EB000D1F8BC01804710BD2082FF1F10B5024928
:102EC000D1F8C001804710BD2082FF1F10B5024914
:102ED000D1F8C401804710BD2082FF1F10B5024900
:102EE000D1F8C801804710BD2082FF1F10B50249EC
:102EF000D1F8CC01804710BD2082FF1F10B50249D8
:102F0000D1F8D001804710BD2082FF1F10B50249C3
:102F1000D1F8D401804710BD2082FF1F10B50249AF
:102F2000D1F8D801804710BD2082FF1F10B502499B
:102F3000D1F8DC01804710BD2082FF1F10B5024987
:102F4000D1F8E001804710BD2082FF1F10B5024973
:102F5000D1F8E401804710BD2082FF1F10B502495F
:102F6000D1F8E801804710BD2082FF1F10B502494B
:102F7000D1F8EC01804710BD2082FF1F10B5024937
:102F8000D1F8F001804710BD2082FF1F10B5024923
:102F9000D1F8F401804710BD2082FF1F10B502490F
:102FA000D1F8F801804710BD2082FF1F10B50249FB
:102FB000D1F8FC01804710BD2082FF1F10B50446E8
:102FC00000BF0CB1012C00D103E0962103A0FEF755
:102FD0000CF900BF1148046010BD00002E2E2F2EEA
:102FE0002E2F2E2E2F2E2E2F2E2E2F2E2E2F647282
:102FF00069766572732F686333325F6C6C5F6472DD
:10300000697665722F7372632F686333325F6C6CFD
:103010005F6B65797363616E2E630000040C05407D
:1030200070B5044600250CB9ED1ED5E000BF206840
:10303000D8B12068B0F1005F17D02068B0F1804FA0
:1030400013D02068B0F1C04F0FD02068B0F1004F0E
:103050000BD02068B0F1204F07D02068B0F1404F6E
:1030600003D02068B0F1604F00D103E0C5215BA020
:10307000FEF7BBF800BF00BF6068B0F1007F57D01B
:103080006068B0F1407F53D06068B0F1806F4FD07E
:103090006068B0F1A06F4BD06068B0F1C06F47D0EE
:1030A0006068B0F1E06F43D06068B0F1006F3FD06E
:1030B0006068B0F1106F3BD06068B0F1206F37D01E
:1030C0006068B0F1306F33D06068B0F1406F2FD0DE
:1030D0006068B0F1506F2BD06068B0F1606F27D09E
:1030E0006068B0F1706F23D06068B0F1805F1FD06E
:1030F0006068B0F1885F1BD06068B0F1905F17D056
:103100006068B0F1985F13D06068B0F1A05F0FD035
:103110006068B0F1A85F0BD06068B0F1B05F07D015
:103120006068B0F1B85F03D06068B0F1C05F00D1F3
:1031300003E0C62129A0FEF758F800BF00BFA06831
:1031400038B1A068B0F5801F03D0A068B0F5001FAB
:1031500000D103E0C72121A0FEF747F800BF00BF60
:10316000E068B0F5803F17D0E068B0F5003F13D0BD
:10317000E068B0F5403F0FD0E068B0F5802F0BD08D
:10318000E068B0F5A02F07D0E068B0F5C02F03D0FD
:10319000E068B0F5E02F00D103E0C8210FA0FEF7F2
:1031A00024F800BF00BF206930B14FF6FF712069DD
:1031B0000843884200D103E0C92108A0FEF715F8B2
:1031C00000BFD4E900010843A1680843E16808434F
:1031D0002169084311490860284670BD2E2E2F2E04
:1031E0002E2F2E2E2F2E2E2F2E2E2F2E2E2F647280
:1031F00069766572732F686333325F6C6C5F6472DB
:10320000697665722F7372632F686333325F6C6CFB
:103210005F6B65797363616E2E630000000C05407F
:103220000146002009B9C01E0BE000220A604FF0E1
:1032300000724A6000228A604FF48032CA60012224
:103240000A61704710B5044604F0010048B100BFA0
:1032500040F223101A49086043F21020086000BFB2
:1032600000BF04F0020028B100BF164816490861EB
:1032700000BF00BF04F0040030B100BF4AF20150AB
:103280001249088000BF00BF04F0100018B14AF2D4
:10329000085000F069F904F0400018B14AF20350F8
:1032A00000F062F904F0800040B100BF77200849C7
:1032B000086007490831086000BF00BF10BD00006A
:1032C000000401400100A5A500800440FC3B05402E
:1032D0000408054010B5044604F0010028B100BF01
:1032E00000201949086000BF00BF04F0020028B1A7
:1032F00000BF16481649086100BF00BF04F0040073
:1033000030B100BF4FF425401249088000BF00BF14
:1033100004F0100018B14AF2085000F017F904F058
:10332000400018B14AF2035000F010F904F0800098
:1033300040B100BF7620084908600749083108609D
:1033400000BF00BF10BD0000000401400000A5A5A3
:1033500000800440FC3B05400408054010B586B0E1
:103360004048FEF7FDFD01203F49087403A8FFF720
:1033700023F9012003903D480490032005906A46FC
:1033800003A93848FEF754FF0446002C67D10120FA
:10339000ADF8060040F2AF10ADF8040034480290DA
:1033A00001A8FFF7B1F9BDF9060000F049FCBDF92D
:1033B00006000F2100F064FCBDF9060000F04EFC91
:1033C0000220ADF806004FF4D670ADF8040029488D
:1033D000029001A8FFF798F9BDF9060000F030FC53
:1033E000BDF906000F2100F04BFCBDF9060000F00E
:1033F00035FC0420ADF806004FF4D770ADF804009A
:103400001D48029001A8FFF77FF9BDF9060000F002
:1034100017FCBDF906000F2100F032FCBDF90600D3
:1034200000F01CFC0320ADF8060040F2AD10ADF832
:1034300004001248029001A8FFF766F9BDF90600E2
:1034400000F0FEFBBDF906000F2100F019FCBDF9EC
:10345000060000F003FC01210248FEF79FFC204615
:1034600006B010BD00E804400C82FF1F801A060061
:10347000E11F000049240000D12500005126000072
:1034800070B504460D4645EA4400C1B20148FFF755
:10349000FFF870BD00E8044010B501210948FEF7AF
:1034A00017FD012211460748FEF73CFF01210548A0
:1034B000FFF73AF800210348FFF736F80148FEF716
:1034C000EFFD10BD00E8044010B500BF0F480088B4
:1034D00000F00200022800D104E040F23F410CA0BD
:1034E000FDF783FE00BF0948001D007800F0C00012
:1034F00040F00F000549091D0870102003491131E3
:1035000008701E20FDF794FE002010BDFE4305400C
:103510002E2E2F2E2E2F2E2E2F2E2E2F2E2E2F2EC6
:103520002E2F647269766572732F686333325F6C15
:103530006C5F6472697665722F7372632F68633390
:10354000325F6C6C5F7077632E63000004490988FA
:10355000814341F42541034AA2F8FE13704700005D
:10356000FE43054000400540034909880143034AE2
:10357000A2F8FE1370470000FE43054000400540DE
:103580002DE9F04704460F4690464FF0000900BF72
:1035900024B144F00F000F2800D103E0AA2126A097
:1035A000FDF723FE00BF00BF072F00D803E0AB21CB
:1035B00021A0FDF71AFE00BF00BFB8F1070F00D829
:1035C00003E0AC211CA0FDF710FE00BF00BF29489E
:1035D0000068772800D103E0AD2117A0FDF705FEB4
:1035E00000BF24E004F00100E0B14FEAC960050E1D
:1035F000281DC6B207FA05F008FA06F108430721AC
:10360000A9400722B240114308400721A9400722E0
:10361000B2401143174A121F12688A4310431549DA
:10362000091F0860640809F1010000F0FF09002C7F
:10363000D8D1BDE8F08700002E2E2F2E2E2F2E2E53
:103640002F2E2E2F2E2E2F2E2E2F6472697665721E
:10365000732F686333325F6C6C5F64726976657276
:103660002F7372632F686333325F6C6C5F737261A8
:103670006D2E6300040805402DE9FF4105460C4608
:103680000026CA4800680390C84840680290C748AE
:1036900080680190C548C068009000BF04F0E060F9
:1036A000E8B104F0E060B0F1807F18D004F0E06091
:1036B000B0F1007F13D004F0E060B0F1407F0ED095
:1036C00004F0E060B0F1806F09D004F0E060B0F188
:1036D000A06F04D004F0E060B0F1C06F00D104E04E
:1036E00040F2C621B2A0FDF780FD00BF00BF04F08C
:1036F0007000B8B104F07000102813D004F070000E
:1037000020280FD004F0700030280BD004F0700097
:10371000402807D004F07000502803D004F0700057
:10372000602800D104E040F2C721A1A0FDF75DFDB3
:1037300000BF00BF04F4E020E8B104F4E020B0F5DD
:10374000803F18D004F4E020B0F5003F13D004F41B
:10375000E020B0F5403F0ED004F4E020B0F5802F1B
:1037600009D004F4E020B0F5A02F04D004F4E02048
:10377000B0F5C02F00D104E04FF432718CA0FDF7FA
:1037800034FD00BF00BF04F4E000E8B104F4E00041
:10379000B0F5801F18D004F4E000B0F5001F13D07E
:1037A00004F4E000B0F5401F0ED004F4E000B0F5E2
:1037B000800F09D004F4E000B0F5A00F04D004F4A9
:1037C000E000B0F5C00F00D104E040F2CA2178A0BB
:1037D000FDF70BFD00BF00BF04F00700B8B104F017
:1037E0000700012813D004F0070002280FD004F0CE
:1037F000070003280BD004F00700042807D004F0CA
:103800000700052803D004F00700062800D104E0D3
:1038100040F2CB2166A0FDF7E8FC00BF00BF04F436
:10382000E060E8B104F4E060B0F5807F18D004F403
:10383000E060B0F5007F13D004F4E060B0F5407FA5
:103840000ED004F4E060B0F5806F09D004F4E060BD
:10385000B0F5A06F04D004F4E060B0F5C06F00D103
:1038600004E04FF4337152A0FDF7BFFC00BF00BF6E
:1038700004F4E040E8B104F4E040B0F5805F18D013
:1038800004F4E040B0F5005F13D004F4E040B0F57C
:10389000405F0ED004F4E040B0F5804F09D004F44E
:1038A000E040B0F5A04F04D004F4E040B0F5C04FC4
:1038B00000D104E040F2CD213DA0FDF796FC00BF11
:1038C00000BF4A48284000B104E040F2CF2138A0B0
:1038D000FDF78BFC00BF00BF4548008800F00100E9
:1038E00000B104E04FF4347131A0FDF77EFC00BF5D
:1038F0004048007800F00700052823D1012600BFCA
:103900002A48006900F0010000B104E040F2D7212C
:1039100027A0FDF76AFC00BF374824490860C012A1
:1039200048608860C86033482638006AC0F3026186
:1039300032480068C8404CF25031B0FBF1F73846CD
:10394000FDF77CF82B482638006AA84304EA0501F5
:1039500008432849263908620846006AC0F3026114
:1039600026480068C8404CF25031B0FBF1F73846A9
:10397000FDF764F8012E17D10C49039808600298EE
:103980004860019888600098C8601A482638006A24
:10399000C0F3026119480068C8404CF25031B0FBD6
:1039A000F1F73846FDF74AF8BDE8FF810080044092
:1039B0002E2E2F2E2E2F2E2E2F2E2E2F2E2E2F2E22
:1039C0002E2F647269766572732F686333325F6C71
:1039D0006C5F6472697665722F7372632F686333EC
:1039E000325F6C6C5F636C6B2E63000077777707D8
:1039F000FE430540264005400EFAFFFF0080FF1FF2
:103A00007FB504460025424800680390404840685E
:103A100002903F48806801903D48C068009000BF18
:103A20004CB1012C07D0022C05D0032C03D0042C60
:103A300001D0052C00D104E040F2572135A0FDF75C
:103A4000D4FB00BF00BF4248008800F0010000B175
:103A500004E04FF416712FA0FDF7C7FB00BF3D48EF
:103A6000007800F00700052801D0052C23D101259E
:103A700000BF2748006900F0010000B104E04FF4E6
:103A8000187124A0FDF7B1FB00BF3348204908603E
:103A9000C01248608860C8602E482638006AC0F3AB
:103AA00002612E480068C8404CF25031B0FBF1F67C
:103AB0003046FCF7C3FF2748047026482638006AC2
:103AC000C0F3026125480068C8404CF25031B0FB99
:103AD000F1F63046FCF7B2FF012D17D10C490398DF
:103AE000086002984860019888600098C86019488A
:103AF0002638006AC0F3026118480068C8404CF2DA
:103B00005031B0FBF1F63046FCF798FF7FBD000066
:103B1000008004402E2E2F2E2E2F2E2E2F2E2E2FB5
:103B20002E2E2F2E2E2F647269766572732F686386
:103B300033325F6C6C5F6472697665722F73726387
:103B40002F686333325F6C6C5F636C6B2E630000B5
:103B5000FE430540264005400EFAFFFF0080FF1F90
:103B600070B52B4D2D6805F001051DB1294D2A4E6C
:103B7000356002E0294D284E3560294D2D7805F03D
:103B80000700062840D2DFE800F003080C11151AE0
:103B9000214D2D68234E356037E0234D214E356091
:103BA00033E04FF400451F4E35602EE01E4D1D4E94
:103BB00035602AE04FF400451A4E356025E0184D77
:103BC000DA352D68C5F30822154D263DD5F800518C
:103BD0002B0F134DDA352D6805F01F04104D263DCF
:103BE000D5F8005105F080050DB90F4901E00A4DE7
:103BF0002968651CB1FBF5F5561C75435E1CB5FBC9
:103C0000F6F5084E356000E000BF00BF70BD000053
:103C1000840601400024F4000480FF1F002D3101C0
:103C2000264005400080FF1F00127A0000B5FFF714
:103C300097FF00200149086000BD000008ED00E08A
:103C4000002807DB00F01F0201219140024A4309CE
:103C500042F823107047000080E200E000280DDBEE
:103C600000BF00BF00F01F020121914042099200F5
:103C700002F1E022C2F8001100BF00BF704700004F
:103C800010B5002804DB0A07130E054A135406E09A
:103C90000A07140E034A00F00F031B1FD45410BD73
:103CA00000E400E018ED00E002E008C8121F08C1BF
:103CB000002AFAD170477047002001E001C1121FAD
:103CC000002AFBD170470000C720FFF7BBFAFCF7C2
:103CD00075FCFCF755FEFCF721FD002403E0601C99
:103CE0003D490855641CFF2CF9D94FF480713B48BD
:103CF000FCF703FB31224FF400410420FDF7BAFD2D
:103D0000302220210120FDF7B5FD01214020FDF7E3
:103D100017FCFFF723FB20B10120FCF74DFE00BF8D
:103D2000FEE78320FFF7D6FA00BF0220FCF7E6FC8F
:103D30000028FAD000BF4FF480712748FEF76AFBD5
:103D40000028F8D108E0B4F5802F04D10120FCF759
:103D500033FE00BFFEE7641C2148007C0028F2D03F
:103D60004FF4FA70FDF744FA00BF4FF480711B481E
:103D7000FEF736FB0028F8D1002408E0B4F5802FC8
:103D800004D10120FCF718FE00BFFEE7641C1448B4
:103D9000007C0028F2D0002412E00F48005D0F499B
:103DA000095D88420BD00120FCF706FE00BF012010
:103DB000FCF702FE4FF4FA70FDF71AFAF7E7641CFD
:103DC000FF2CEAD900BF0820FCF7F6FD4FF4FA708B
:103DD000FDF70EFAF7E700000C80FF1F0C81FF1FB4
:103DE0000C82FF1F030008000300100003002000E6
:103DF0000300400000001000000020000000400010
:103E000003000010001000000C001D0075070000EA
:103E100003000020002000000D001E00C907000064
:103E200003000040004000000E001F001D080000BD
:103E30000100020002000000010019004D0700000F
:103E40002E2E2F2E2E2F2E2E2F2E2E2F2E2E2F2E8D
:103E50002E2F647269766572732F686333325F6CDC
:103E60006C5F6472697665722F7372632F68633357
:103E7000325F6C6C5F696E74657272757074732EEC
:103E800063000000A43E00000080FF1F0C00000043
:103E9000A83C0000B03E00000C80FF1F1410000082
:103EA000B83C00000000000000000000000000001E
:040000050000028174
:00000001FF
