:020000040000FA
:100000000895FF1F95020000C5020000C70200000E
:10001000C9020000CB020000CD0200000000000079
:10002000000000000000000000000000CF020000FF
:10003000D102000000000000D3020000D502000041
:100040008D2100009D210000AD210000BD21000098
:10005000CD210000DD210000ED210000FD21000088
:100060000D2200001D2200002D2200003D22000074
:100070004D2200005D2200006D2200007D22000064
:100080008D2200009D220000AD220000BD22000054
:10009000CD220000DD220000ED220000FD22000044
:1000A0000D2300001D2300002D2300003D23000030
:1000B0004D2300005D2300006D2300007D23000020
:1000C0008D2300009D230000AD230000BD23000010
:1000D000CD230000DD230000ED230000FD23000000
:1000E0000D2400001D2400002D2400003D240000EC
:1000F0004D2400005D2400006D2400007D240000DC
:100100008D2400009D240000AD240000BD240000CB
:10011000CD240000DD240000ED240000FD240000BB
:100120000D2500001D2500002D2500003D250000A7
:100130004D2500005D2500006D2500007D25000097
:100140008D2500009D250000AD250000BD25000087
:10015000CD250000DD250000ED250000FD25000077
:100160000D2600001D2600002D2600003D26000063
:100170004D2600005D2600006D2600007D26000053
:100180008D2600009D260000AD260000BD26000043
:10019000CD260000DD260000ED260000FD26000033
:1001A0000D2700001D2700002D2700003D2700001F
:1001B0004D2700005D2700006D2700007D2700000F
:1001C0008D2700009D270000AD270000BD270000FF
:1001D000CD270000DD270000ED270000FD270000EF
:1001E0000D2800001D2800002D2800003D280000DB
:1001F0004D2800005D2800006D2800007D280000CB
:100200008D2800009D280000AD280000BD280000BA
:10021000CD280000DD280000ED280000FD280000AA
:100220000D2900001D2900002D2900003D29000096
:100230004D2900005D2900006D2900007D29000086
:10024000D7020000D7020000D7020000D70200004A
:10025000D7020000D7020000D7020000D70200003A
:10026000D7020000D7020000D7020000D70200002A
:10027000D7020000D7020000D7020000D70200001A
:10028000DFF80CD000F044FA004800478B0700006C
:100290000895FF1F10484FF0770101600F484FF09D
:1002A000770101600E484FF4885101600A484FF011
:1002B0007601016009484FF07601016009488047E6
:1002C00009480047FEE7FEE7FEE7FEE7FEE7FEE738
:1002D000FEE7FEE7FEE7FEE7040805400C080540E0
:1002E00000080540A1380000810200002DE9F05F00
:1002F0000546002092469B46884606468146402495
:100300001BE0284641464746224600F05CF953462A
:100310005A46C01A914110D311461846224600F0A1
:1003200043F92D1A67EB01084F46224601200021B0
:1003300000F03AF917EB00094E41201EA4F1010428
:10034000DFDC484631462A464346BDE8F09FF0B41C
:1003500080EA0102D40F4200B2EB410F02D2024602
:10036000084611464A0042D0C30DDDB2C1F3C75260
:10037000AD1A202D35DAC1F3160141F4000204B1A3
:100380005242C5F1200602FA06F12A411044B3EBAD
:10039000D05F23D0C4B1012DA0EBC35009DCF0BC69
:1003A0004FF0004202EAC352DBB200F5000000F059
:1003B00023B9400000F1807000EBC350A0F18070C1
:1003C00040EAD170490009E0490841EAC071A0EB58
:1003D000C35000F50000400800EBC350F0BC00F033
:1003E00002B96142012202EB4101001BF6E7F0BCB9
:1003F000704781F00041AAE780F00040A7E770470E
:10040000BFFFDFFFFFFEFFFFFFFFFFFFFFFFFFFF5D
:10041000FFFFFFFFFFFFFFFFFFFFFFFFFFFFFFFFEC
:100420002DE9F04D81EA030404F0004B21F0004572
:1004300014464FF0000A23F0004150EA050220D094
:1004400054EA01021DD0C5F30A570246C5F313034F
:10045000C1F31300C1F30A5640F4801543F480132E
:10046000A7EB0608101BD64608F2FD3873EB050013
:1004700002D308F1010801E092185B41B8F1000FC6
:1004800003DA00200146BDE8F08D00204FF4801112
:10049000064684460EE0171B73EB050705D3121BB7
:1004A00063EB050306434CEA010C49084FEA3000B0
:1004B00092185B4150EA0107EDD152EA030012D0D5
:1004C00082EA040083EA0501084305D0101BAB4112
:1004D00006D20122002306E000224FF0004302E092
:1004E0006FF0010253101AEB06004CEB085110EBB1
:1004F0000A0041EB0B01BDE8F04D00F0ABB80EB5C2
:1005000040F2334102910021CDE900110A460B4629
:1005100000F0AFF803B000BD0EB540F233420292D6
:100520000022CDE90022134600F0A3F803B000BD7D
:1005300001F0004330B421F0004150EA010206D03E
:100540000A0DA2F56072C1F31301002A02DC30BC6F
:1005500000207047440F44EAC104C100E01830BCD9
:1005600000EBC25000F03FB8002801DBC0F10040B2
:10057000002901DBC1F100418142704730B50B46D3
:10058000014600202022012409E021FA02F59D42C3
:1005900005D303FA02F5491B04FA02F52844151E97
:1005A000A2F10102F1DC30BD202A04DB203A00FA7E
:1005B00002F1002070479140C2F1200320FA03F3BA
:1005C000194390407047202A04DB203A21FA02F0B8
:1005D0000021704721FA02F3D040C2F1200291407D
:1005E0000843194670470029A8BF7047401C4900BE
:1005F00008BF20F00100704710B4B0FA80FC00FA88
:100600000CF050EA010404BF10BC704749B1CCF1B2
:10061000200421FA04F411FA0CF118BF012121433E
:100620000843A3EB0C01CB1D4FEA00614FEA1020F9
:1006300042BF002010BC704700EBC350104400299B
:10064000A4BF10BC7047401C490008BF20F0010047
:1006500010BC704710B5141E73F1000408DA401C7A
:1006600041F1000192185B411A4301D120F00100D1
:1006700010BD2DE9F04D92469B4611B1B1FA81F2C1
:1006800002E0B0FA80F220329046FFF78DFF044678
:100690000F4640EA0A0041EA0B0153465A46084316
:1006A00013D0114653EA010019D0C8F14002504658
:1006B000FFF789FF05460E46504659464246FFF76A
:1006C00073FF084305D0012004E020463946BDE809
:1006D000F08D0020054346EAE0762C4337430A9824
:1006E0006305E40AA0EB08000022FD0A44EA47542F
:1006F0000A3002D500200146E9E7010510196941D9
:10070000DDE9084500196941BDE8F04DA2E70000A8
:10071000064C074D06E0E06840F0010394E807004E
:1007200098471034AC42F6D3FFF7AEFDE46C0000FE
:10073000046D000070B58C1810F8015B15F007030C
:1007400001D110F8013B2A1106D110F8012B03E06A
:1007500010F8016B01F8016B5B1EF9D12B0705D472
:100760000023521E0DD401F8013BFAE710F8013BBB
:10077000CB1A921C03E013F8015B01F8015B521ED7
:10078000F9D5A142D8D3002070BD10B503F022F8EE
:1007900004F092F8002010BD1FB502A800F0EEFD95
:1007A000684600F091FB2B492B4800F05AFC0020D2
:1007B0008DF80A0030208DF8090000208DF808001F
:1007C00005208DF80C0002A800F02EFD00200190FD
:1007D000019820F01F0001903121019861F3102051
:1007E0000190019820F0704000F180500190019834
:1007F00020F0706000F180700190019820F470008A
:1008000000F58010019000208DF80000019820F084
:1008100080000190684600F0FDF900BF202000F044
:1008200055F90128FAD100221146042002F002FBFA
:10083000012211460B2002F0FDFA502000F0C2FF09
:100840004FF4404001F0EAFB02F0A6FA052000F068
:1008500012FC1FBD102211007777770710B50848EA
:10086000006840F400600649086000BF02210120D2
:1008700001F082FA0028F9D0022001F037F810BD0B
:100880006C80FF1F10B500BF1048006800F0070023
:1008900004460F49486801F045F8012814D100BF0B
:1008A0000B4A5188107801F067FA38B90120A0404E
:1008B00008490968084307490860F1E7044948689E
:1008C00001F014F800BF00BF10BD0000080C054087
:1008D000606C00006C80FF1F10B500BF10480068FE
:1008E00000F0070004460F49486901F01BF8012891
:1008F00014D100BF0B4A518A107C01F03DFA38B97F
:100900001020A04008490968084307490860F1E73A
:100910000449486900F0EAFF00BF00BF10BD0000B5
:10092000080C0540606C00006C80FF1F10B500BF14
:100930001148006800F0070004461049486A00F0BA
:10094000F1FF012816D100BF0C4A518C92F820000B
:1009500001F012FA40B94FF48070A04008490968CC
:10096000084307490860EFE70449486A00F0BEFF02
:1009700000BF00BF10BD0000080C0540606C000007
:100980006C80FF1F10B586B001A801F095FB022016
:10099000ADF8060000240BE0074A02EB8402518800
:1009A000054A12F8240001AA01F0E2F8601CC4B262
:1009B000042CF1D306B010BD446C000070B50546A0
:1009C00000240FE045FA04F000F0010040B1074AAE
:1009D00002EB84025188054A12F8240001F018FA4B
:1009E000601CC4B2042CEDD370BD0000446C000048
:1009F00070B5054600240FE045FA04F000F0010050
:100A000040B1074A02EB84025188054A12F82400DB
:100A100001F0BAFA601CC4B2042CEDD370BD000022
:100A2000446C0000F0B58DB007460D466FF002062D
:100A3000002D36D024224021042001F033FA012178
:100A4000C80601F001F801A803F0B0FD4FF4004022
:100A50000890002201A9144803F09EFC00241DE028
:100A60002146114803F044FC0CAA29460E4803F025
:100A7000A9FB06467EB90D480C99FFF775FD0AD80B
:100A80000B490C98FFF770FD05D801220821064894
:100A900003F0D6FA04E04FF0FF36641C032CDFD9D4
:100AA00000BF30460DB0F0BD00140240CDCCCCBC30
:100AB000CDCCCC3C08B50021009102E00099491C46
:100AC000009100998142F9D308BD000010B5044699
:100AD00000BF24B144F06900692800D104E040F26D
:100AE000BB5106A000F0E6FD00BF1348007820408F
:100AF00008B1012010BD0020FCE700002E2E2F2E93
:100B00002E2F2E2E2F2E2E2F2E2E2F2E2E2F647286
:100B100069766572732F686333325F6C6C5F6472E1
:100B2000697665722F7372632F686333325F6C6C02
:100B30005F636C6B2E6300003C40054070B504465B
:100B4000002500BF0CB1012C00D104E040F20E5191
:100B50001FA000F0AFFD00BF00BF2C48008800F0D0
:100B6000010000B104E040F20F5119A000F0A2FD15
:100B700000BF64B92648007800F00700052801D1BD
:100B8000C54322E001202249091D08701DE02048CC
:100B9000DA300068C0F3C01030B94FF4805108203B
:100BA00000F0C0FA054605E04FF48051012000F046
:100BB000B9FA05464DB900201549091D08704FF4D2
:100BC0008051202000F0AEFA0546284670BD000096
:100BD0002E2E2F2E2E2F2E2E2F2E2E2F2E2E2F2E30
:100BE0002E2F647269766572732F686333325F6C7F
:100BF0006C5F6472697665722F7372632F686333FA
:100C0000325F6C6C5F636C6B2E630000FE430540CB
:100C1000264005402DE9F041044614B96FF0020664
:100C20001FE100BF2079C0F3C01018B12079C0F3D4
:100C3000C01000B104E040F2DF418BA000F03AFDAB
:100C400000BF00BF207900F01F00401C182805D805
:100C5000207900F01F00401C00B104E04FF49C61BB
:100C600081A000F027FD00BF00BF6068C0F308202E
:100C7000401CB0F5F07F06D86068C0F30820401C27
:100C8000142800D304E040F2E14177A000F012FD07
:100C900000BF00BF0121606801EB1070102805D86B
:100CA000606801EB1070022800D304E040F2E241DA
:100CB0006DA000F0FFFC00BF2079C0F3C01008B9A0
:100CC000784901E078480168207900F01F00401C55
:100CD000B1FBF0F76068C0F30820401C00FB07F58B
:100CE00000BF7248874203D87148874200D304E0AE
:100CF0004FF49D615CA000F0DDFC00BF00BF6D48BB
:100D0000854203D84010854200D304E040F2E94117
:100D100055A000F0CFFC00BF00BF0121606801EBCF
:100D20001070B5FBF0F06449884209D80121606871
:100D300001EB1070B5FBF0F06049884200D304E08D
:100D400040F2EA4148A000F0B5FC00BF00BF606877
:100D5000C0F30360401C102806D86068C0F303602D
:100D6000401C022800D304E040F2EB413EA000F01A
:100D7000A1FC00BF00BF6068C0F30350401C1028F6
:100D800006D86068C0F30350401C022800D304E07A
:100D900040F2EC4134A000F08DFC00BF00BF606861
:100DA000C0F30350401CB5FBF0F04349884209D81A
:100DB0006068C0F30350401CB5FBF0F00911884295
:100DC00000D304E040F2ED4127A000F073FC00BF27
:100DD00000BF6068C0F30360401CB5FBF0F036490B
:100DE000884209D86068C0F30360401CB5FBF0F08E
:100DF0000911884200D304E040F2EE411AA000F04D
:100E000059FC00BF00BF2078012801D0207800B92C
:100E100004E040F2EF4114A000F04CFC00BF00BF22
:100E20002748008800F0010000B104E04FF49E6103
:100E30000DA000F03FFC00BF2079C10921480068E7
:100E400061F3C7101F49086060680860207820B906
:100E50000120FFF773FE064603E00020FFF76EFE59
:100E600006463046BDE8F0812E2E2F2E2E2F2E2E38
:100E70002F2E2E2F2E2E2F2E2E2F64726976657216
:100E8000732F686333325F6C6C5F6472697665726E
:100E90002F7372632F686333325F6C6C5F636C6BAC
:100EA0002E63000000127A000480FF1F40787D014D
:100EB00040420F0000389C1C001C4E0EC0E1E400B4
:100EC000FE430540004105400146002009B9C01E0F
:100ED00022E000224A604A6822F080024A604A68A2
:100EE00022F01F024A6013234A6863F310224A600B
:100EF0004A6822F0704202F180524A604A6822F049
:100F0000706202F180724A604A6822F4700202F54F
:100F100080124A6001220A707047000070B50446D2
:100F2000002500BF0CB1012C00D104E040F2735148
:100F30001AA000F0BFFB00BF00BF2748008800F0E8
:100F4000010000B104E040F2745114A000F0B2FBC3
:100F500000BF1CB90120214908701CE01F48D23095
:100F60000068C0F3C01030B94FF48051082000F081
:100F7000D9F8054605E04FF48051012000F0D2F881
:100F8000054645B90020154908704FF480514020AE
:100F900000F0C8F80546284670BD00002E2E2F2E02
:100FA0002E2F2E2E2F2E2E2F2E2E2F2E2E2F6472E2
:100FB00069766572732F686333325F6C6C5F64723D
:100FC000697665722F7372632F686333325F6C6C5E
:100FD0005F636C6B2E630000FE4305402E400540AE
:100FE00070B5044614B96FF0020510E0204601F018
:100FF000A3FD084960680860207820B90120FFF748
:101000008DFF054603E00020FFF788FF05462846D0
:1010100070BD0000044105400146002009B9C01E12
:101020001EE000224A6001220A704A6822F07042E3
:1010300002F180524A604A6822F0706202F18072C6
:101040004A604A6822F4700202F580124A60132353
:101050004A6863F310224A604A6822F01F024A601D
:10106000704770B504460D462946204601F05EFFE4
:1010700002F0B0FB70BD10B50446204602F01AF92C
:1010800002F0A8FB10BD000010B5044600BF202CE4
:101090000FD0302C0DD0402C0BD0802C09D0902CB0
:1010A00007D0A02C05D0B02C03D0C02C01D0D02C60
:1010B00000D104E040F26D6109A000F0FBFA00BF2E
:1010C00000BF1648008800F0010000B104E040F2C3
:1010D0006E6103A000F0EEFA00BF1148047010BD6D
:1010E0002E2E2F2E2E2F2E2E2F2E2E2F2E2E2F2E1B
:1010F0002E2F647269766572732F686333325F6C6A
:101100006C5F6472697665722F7372632F686333E4
:10111000325F6C6C5F636C6B2E630000FE430540B6
:1011200024400540F8B505460C46002000906FF0BD
:10113000070609E02846FFF7C9FC012801D100266F
:1011400005E00098401C00900098A042F2D900BF32
:101150003046F8BD70B50446002500BF0CB1012C27
:1011600000D104E040F2CB311EA000F0A3FA00BF92
:1011700000BF2B48008800F0010000B104E04FF4EC
:10118000737118A000F096FA00BFFCB925480078EA
:1011900000F00700032802D16FF0050520E0214888
:1011A000DA300068C0F3C01058B91E48001D00783E
:1011B00010B96FF0050513E001201A490C310870D1
:1011C0000EE0012017490C31087009E00020154994
:1011D0000C3108704FF480510820FFF7A3FF05463B
:1011E000284670BD2E2E2F2E2E2F2E2E2F2E2E2F38
:1011F0002E2E2F2E2E2F647269766572732F6863E0
:1012000033325F6C6C5F6472697665722F737263E0
:101210002F686333325F6C6C5F636C6B2E6300000E
:10122000FE4305402640054070B5044614B96FF0F2
:1012300002057FE000BF2078012801D0207800B9A6
:1012400004E040F2A9313CA000F034FA00BF00BF36
:10125000607840B16078102805D06078202802D0EE
:101260006078302800D104E040F2AA3132A000F0CA
:1012700021FA00BF00BFA07810B1A078402800D1AB
:1012800004E040F2AB312CA000F014FA00BF00BF24
:10129000E078802801D0E07800B904E04FF46B7169
:1012A00025A000F007FA00BF00BF2079012817D061
:1012B0002079022814D02079032811D0207904281D
:1012C0000ED0207905280BD02079062808D0207967
:1012D000072805D02079082802D02079092800D1D4
:1012E00004E040F2AD3114A000F0E4F900BF00BF0B
:1012F0002048008800F0010000B104E040F2AE3167
:101300000DA000F0D7F900BF20791B490870E078E4
:1013100061780843A1780843164912310870207893
:1013200020B90120FFF716FF054603E00020FFF774
:1013300011FF0546284670BD2E2E2F2E2E2F2E2E45
:101340002F2E2E2F2E2E2F2E2E2F64726976657241
:10135000732F686333325F6C6C5F64726976657299
:101360002F7372632F686333325F6C6C5F636C6BD7
:101370002E630000FE430540A240054001460020C8
:1013800009B9C01E08E001220A7000228A704A7062
:101390008022CA7005220A71704700002DE9FC47BF
:1013A00004460F4690469946DDE90AA54FF0FF3600
:1013B0001048844208D01048844205D00F48844227
:1013C00002D00F48844208D14B4642463946204657
:1013D000CDE900A500F016F806463EB14B46424660
:1013E00039462046009500F0CFF806463046BDE865
:1013F000FC87000000D0014000D4014000100240F2
:10140000001402402DE9FF4F8BB082466FF00200BE
:10141000079000BF4848824508D04848824505D01B
:101420004748824502D04748824500D104E04FF446
:10143000167145A000F03EF900BF0C9CDDF8349019
:101440000E98002873D01898002870D0002C6ED009
:10145000B9F1000F6BD04FEA8900B4FBF0F0451EE4
:10146000002D64D0FF2D62D800206A1C4041042367
:101470004FF0000CA2FB031B00FB03B002FB0C02AD
:10148000A1FB097302FB093201FB0C284FF48070A9
:101490000021A7FB00B308FB003007FB010C22462C
:1014A0000B4658466146FEF721FF8021461A7F2EE3
:1014B0003DD80E980560189806601998A8B34A00A0
:1014C0004FF0000C3B46A3FB020B08FB02B107FBED
:1014D0000C18074600208022B11840EB00030022C0
:1014E000A1FB040C03FB04C301FB0231CDE908019D
:1014F00038464146FFF710F8CDE90201DDE9080161
:10150000FFF70AF8CDE90001DDE90223FEF788FFC5
:10151000CDE90401FFF70CF883464FF07E51FEF74A
:1015200068FF0A9019990A980860002007900798A8
:101530000FB0BDE8F08F000000D0014000D40140A2
:1015400000100240001402402E2E2F2E2E2F2E2E81
:101550002F2E2E2F2E2E2F2E2E2F6472697665722F
:10156000732F686333325F6C6C5F64726976657287
:101570002F7372632F686333325F6C6C5F757361B6
:1015800072742E63000000002DE9FF4F89B00646FB
:101590009A466FF00200079000BF3248864208D09A
:1015A0003148864205D03148864202D030488642D2
:1015B00000D104E040F295112EA000F07BF800BFAE
:1015C000DDF828900B9DBAF1000F47D0B9F1000F5C
:1015D00044D0002D42D009EB89004000A900B0FBA7
:1015E000F1F0401D0A21B0FBF1F0441EB4B3FF2C12
:1015F00034D8CAF80040169870B30020621C4041ED
:1016000004234FF0000CA2FB031E00FB03E002FBCF
:101610000C026346A1FB057C02FB05C201FB03280B
:1016200038464146FEF778FFCDE902014846FEF70D
:1016300066FFCDE90001DDE90223FEF7F1FECDE909
:101640000401FEF775FF4FF07E510690FEF7D1FEC4
:1016500083461699C1F800B00020079007980DB096
:10166000BDE8F08F00D0014000D4014000100240DE
:10167000001402402E2E2F2E2E2F2E2E2F2E2E2FE8
:101680002E2E2F2E2E2F647269766572732F68634B
:1016900033325F6C6C5F6472697665722F7372634C
:1016A0002F686333325F6C6C5F75736172742E6385
:1016B0000000000004460D462A46214602A002F022
:1016C000C1FF00BFFEE7000057726F6E67207061B8
:1016D00072616D65746572732076616C75653A2010
:1016E00066696C65202573206F6E206C696E6520BD
:1016F00025640D0A0000000038B5024600230025CD
:101700000095D81E00BF0D4D2D682C4600BF0C4D16
:101710002D68294689B105E00D6805F08003009D1C
:101720006D1C0095009DA54201D8002BF4D013B18B
:101730004A60002001E06FF0070038BD6880FF1F9D
:101740006480FF1F08B50D49096AC1F302630C49A3
:101750000968D94042F210731944491EB1FBF3F2F3
:1017600006E0009200BF00994B1E00930029FAD1B9
:10177000011EA0F10100F4D108BD000000400540A9
:101780000080FF1F08B50C49096AC1F302630B49C9
:101790000968D9400A4B1944491EB1FBF3F206E02F
:1017A000009200BF00994B1E00930029FAD1011E40
:1017B000A0F10100F4D108BD004005400080FF1FEA
:1017C0008096980070B50446002500BF1D4800684B
:1017D000012800D104E040F207111BA0FFF76AFFC7
:1017E00000BF00BFF02C00D804E04FF4847116A0B5
:1017F000FFF760FF00BF13480830006820F0F000DA
:1018000004F0F00108430F490831086010E06D1C36
:101810001C48006AC0F302611B480068C84044F6D7
:101820002061B0FBF1F0A84202D26FF0070070BD5A
:1018300004480830006800F0F000A042E7D1002022
:10184000F5E70000000401402E2E2F2E2E2F2E2E05
:101850002F2E2E2F2E2E2F2E2E2F6472697665722C
:10186000732F686333325F6C6C5F64726976657284
:101870002F7372632F686333325F6C6C5F65666DC4
:101880002E630000004005400080FF1F10B50220BD
:1018900000F048F8012822D111480078E0B1114841
:1018A00090F8E000032817D105200F4908700221A5
:1018B000012000F061FA18B901200B49487002E0DC
:1018C0000020094948700223074A8321054803F094
:1018D0008EFD002002490870022000F007F810BDBC
:1018E0000880FF1F3C81FF1FC488FF1F10B50446FE
:1018F00000BF3CB14FF6FF7020434FF6FF718842A6
:1019000000D104E040F203210448FFF7D3FE00BFFA
:101910000348806D20430249886510BDA06C00001B
:101920000010054010B5044600BF3CB14FF6FF70F3
:1019300020434FF6FF71884200D104E04FF4047158
:101940000548FFF7B7FE00BF0448406D204008B1CE
:10195000012010BD0020FCE7A06C00000010054035
:101960002DE9F04706460C464FF0000914B96FF018
:10197000020958E000BF3EB14FF6FF7030434FF60A
:10198000FF71884200D104E040F2D3112748FFF7ED
:1019900091FE00BF00BF206810B12068802800D1F0
:1019A00004E04FF4EA712148FFF784FE00BF00BF56
:1019B000606840B16068102805D06068202802D0B7
:1019C0006068302800D104E040F2D5111748FFF7D5
:1019D00071FE00BF00BFA068032807D0A0680128DF
:1019E00004D0A06810B1A068022800D104E04FF430
:1019F000EB710E48FFF75EFE00BF002511E00120ED
:101A0000A840304058B1D4E900010843A16840EA39
:101A100001070748042101FB0508C8F80070681C8D
:101A2000C5B2102DEBD34846BDE8F087A06C00008E
:101A3000101005400146002009B9C01E03E0002235
:101A40000A604A608A60704770B504460D4600BF60
:101A50002CB1114820431049884200D103E0842171
:101A60000EA0FFF727FE00BF00BF0DB1012D00D172
:101A700003E0852109A0FFF71DFE00BF012D05D160
:101A800015484068A0431449486004E01248406883
:101A900020431149486070BD79FD0F0F2E2E2F2E67
:101AA0002E2F2E2E2F2E2E2F2E2E2F2E2E2F6472D7
:101AB00069766572732F686333325F6C6C5F647232
:101AC000697665722F7372632F686333325F6C6C53
:101AD0005F6663672E6300000080044070B50446B3
:101AE0000D4600BF2CB1114820431049884200D157
:101AF00003E096210EA0FFF7DDFD00BF00BF0DB192
:101B0000012D00D103E0972109A0FFF7D3FD00BF0D
:101B1000012D05D115488068A0431449886004E070
:101B20001248806820431149886070BDFF87070014
:101B30002E2E2F2E2E2F2E2E2F2E2E2F2E2E2F2EC0
:101B40002E2F647269766572732F686333325F6C0F
:101B50006C5F6472697665722F7372632F6863338A
:101B6000325F6C6C5F6663672E6300000080044028
:101B70002DE9F05F05460F4614464FF0000B14B9EF
:101B80006FF0020BD5E000BF6B48008800F0010049
:101B900000B103E0FF2169A0FFF78CFD00BF00BF8B
:101BA0004DB1012D07D0022D05D0032D03D0042DFA
:101BB00001D0052D00D104E04FF480715FA0FFF744
:101BC00079FD00BF00BF17B1B8B200B104E040F228
:101BD00001115AA0FFF76EFD00BF00BF208810B1B1
:101BE0002088012800D104E04FF4817153A0FFF751
:101BF00061FD00BF00BF608810B16088022800D17D
:101C000004E040F203114DA0FFF754FD00BF00BFF8
:101C1000A08810B1A088042800D104E04FF482719C
:101C200046A0FFF747FD00BF00BFE08828B1E0886D
:101C3000102802D0E088202800D104E040F20511ED
:101C40003EA0FFF737FD00BF00BF208918B12089F3
:101C5000B0F5804F00D104E04FF4837137A0FFF757
:101C600029FD00BF00BF608910B16089402800D104
:101C700004E040F2071131A0FFF71CFD00BF00BFD8
:101C8000A08918B1A089B0F5007F00D104E04FF41D
:101C900084712AA0FFF70EFD00BF00BFE08918B1D4
:101CA000E089B0F5805F00D104E040F2091123A083
:101CB000FFF700FD00BF00BF208A18B1208AB0F5F1
:101CC000004F00D104E04FF485711CA0FFF7F2FC37
:101CD00000BF00262BE00120B040384028B3208808
:101CE00061880843A1880843E18808436189084363
:101CF000A1890843E1890843218940EA010A45F2A4
:101D00007728208A40EA0A0A48F400480A48001D59
:101D100000EB851000EB8609B9F8000020EA080006
:101D20000AEA08010843A9F80000701CC6B2102E88
:101D3000D1D35846BDE8F09FFC3B05402E2E2F2EF8
:101D40002E2F2E2E2F2E2E2F2E2E2F2E2E2F647234
:101D500069766572732F686333325F6C6C5F64728F
:101D6000697665722F7372632F686333325F6C6CB0
:101D70005F6770696F2E630070B504460D4600BF43
:101D80004CB1012C07D0022C05D0032C03D0042C1D
:101D900001D0052C00D104E040F2F1110CA0FFF7B6
:101DA00089FC00BF00BF15B1A8B200B104E04FF438
:101DB000F97107A0FFF77EFC00BF144901EB041086
:101DC000B0F80008284008B1012070BD0020FCE7F1
:101DD0002E2E2F2E2E2F2E2E2F2E2E2F2E2E2F2E1E
:101DE0002E2F647269766572732F686333325F6C6D
:101DF0006C5F6472697665722F7372632F686333E8
:101E0000325F6C6C5F6770696F2E63000030054055
:101E100070B504460D4600BF4CB1012C07D0022C12
:101E200005D0032C03D0042C01D0052C00D104E0F4
:101E300040F23D210BA0FFF73DFC00BF00BF15B1F4
:101E4000A8B200B104E040F23E2106A0FFF732FC48
:101E500000BF1348102101FB04063088284330805E
:101E600070BD00002E2E2F2E2E2F2E2E2F2E2E2F19
:101E70002E2E2F2E2E2F647269766572732F686353
:101E800033325F6C6C5F6472697665722F73726354
:101E90002F686333325F6C6C5F6770696F2E63000D
:101EA0000A3805402DE9F04104460F46164600BFAA
:101EB0004CB1012C07D0022C05D0032C03D0042CEC
:101EC00001D0052C00D104E040F277111EA0FFF7ED
:101ED000F1FB00BF00BF17B1B8B200B104E04FF48E
:101EE000BC7119A0FFF7E6FB00BF00BF0F2E03D99E
:101EF000202E02D33B2E00D804E040F2791112A02C
:101F0000FFF7D8FB00BF00BF1E48008800F00100AB
:101F100000B104E04FF4BD710BA0FFF7CBFB00BF95
:101F200000250DE00120A840384038B11548801D3B
:101F300000EB841000EB8508A8F80060681CC5B2AF
:101F4000102DEFD3BDE8F0812E2E2F2E2E2F2E2E0A
:101F50002F2E2E2F2E2E2F2E2E2F64726976657225
:101F6000732F686333325F6C6C5F6472697665727D
:101F70002F7372632F686333325F6C6C5F677069B5
:101F80006F2E6300FC3B054070B504460D4600BF54
:101F90004CB1012C07D0022C05D0032C03D0042C0B
:101FA00001D0052C00D104E040F22B210BA0FFF75B
:101FB00081FB00BF00BF15B1A8B200B104E04FF42F
:101FC0000B7106A0FFF776FB00BF1348102101FB41
:101FD000040630882843308070BD00002E2E2F2E3E
:101FE0002E2F2E2E2F2E2E2F2E2E2F2E2E2F647292
:101FF00069766572732F686333325F6C6C5F6472ED
:10200000697665722F7372632F686333325F6C6C0D
:102010005F6770696F2E63000838054010B504468D
:1020200000BF44B1B4F5804F05D0B4F5004F02D0E5
:10203000B4F5404F00D104E040F2CD110EA0FFF7FF
:1020400039FB00BF00BF1B48008800F0010000B151
:1020500004E04FF4E77108A0FFF72CFB00BF154820
:10206000001F0088C0F30D0004F4404108431149EB
:10207000091F088010BD00002E2E2F2E2E2F2E2E71
:102080002F2E2E2F2E2E2F2E2E2F647269766572F4
:10209000732F686333325F6C6C5F6472697665724C
:1020A0002F7372632F686333325F6C6C5F67706984
:1020B0006F2E6300FC3B05400146002009B9C01E9D
:1020C00009E000220A804A80CA800A820A814A8185
:1020D0008A81CA818A80704770B5044600260CB98F
:1020E000F61E4BE000BF2088B0F5007F00DA03E069
:1020F000C3212348FFF7DEFA00BF2088400900EB28
:102100004000202101EB4000B4F9021088420AD8B7
:102110002088400900EB4000252101EB4000B4F984
:102120000210884206D2B4F90200202802D36FF0D0
:10213000020623E060881349042212FB0015286878
:10214000C0F3080040F2FF11884208D120882860BF
:10215000B4F902100C4A606842F821000EE02088B1
:102160002968C1F30801884206D1B4F90210064A71
:10217000606842F8210001E06FF00106304670BD52
:10218000A06C00005C1005408486FF1F10B502495A
:102190000868804710BD00008486FF1F10B5024903
:1021A0004868804710BD00008486FF1F10B50249B3
:1021B0008868804710BD00008486FF1F10B5024963
:1021C000C868804710BD00008486FF1F10B5024913
:1021D0000869804710BD00008486FF1F10B50249C2
:1021E0004869804710BD00008486FF1F10B5024972
:1021F0008869804710BD00008486FF1F10B5024922
:10220000C869804710BD00008486FF1F10B50249D1
:10221000086A804710BD00008486FF1F10B5024980
:10222000486A804710BD00008486FF1F10B5024930
:10223000886A804710BD00008486FF1F10B50249E0
:10224000C86A804710BD00008486FF1F10B5024990
:10225000086B804710BD00008486FF1F10B502493F
:10226000486B804710BD00008486FF1F10B50249EF
:10227000886B804710BD00008486FF1F10B502499F
:10228000C86B804710BD00008486FF1F10B502494F
:10229000086C804710BD00008486FF1F10B50249FE
:1022A000486C804710BD00008486FF1F10B50249AE
:1022B000886C804710BD00008486FF1F10B502495E
:1022C000C86C804710BD00008486FF1F10B502490E
:1022D000086D804710BD00008486FF1F10B50249BD
:1022E000486D804710BD00008486FF1F10B502496D
:1022F000886D804710BD00008486FF1F10B502491D
:10230000C86D804710BD00008486FF1F10B50249CC
:10231000086E804710BD00008486FF1F10B502497B
:10232000486E804710BD00008486FF1F10B502492B
:10233000886E804710BD00008486FF1F10B50249DB
:10234000C86E804710BD00008486FF1F10B502498B
:10235000086F804710BD00008486FF1F10B502493A
:10236000486F804710BD00008486FF1F10B50249EA
:10237000886F804710BD00008486FF1F10B502499A
:10238000C86F804710BD00008486FF1F10B502494A
:10239000D1F88000804710BD8486FF1F10B5024928
:1023A000D1F88400804710BD8486FF1F10B5024914
:1023B000D1F88800804710BD8486FF1F10B5024900
:1023C000D1F88C00804710BD8486FF1F10B50249EC
:1023D000D1F89000804710BD8486FF1F10B50249D8
:1023E000D1F89400804710BD8486FF1F10B50249C4
:1023F000D1F89800804710BD8486FF1F10B50249B0
:10240000D1F89C00804710BD8486FF1F10B502499B
:10241000D1F8A000804710BD8486FF1F10B5024987
:10242000D1F8A400804710BD8486FF1F10B5024973
:10243000D1F8A800804710BD8486FF1F10B502495F
:10244000D1F8AC00804710BD8486FF1F10B502494B
:10245000D1F8B000804710BD8486FF1F10B5024937
:10246000D1F8B400804710BD8486FF1F10B5024923
:10247000D1F8B800804710BD8486FF1F10B502490F
:10248000D1F8BC00804710BD8486FF1F10B50249FB
:10249000D1F8C000804710BD8486FF1F10B50249E7
:1024A000D1F8C400804710BD8486FF1F10B50249D3
:1024B000D1F8C800804710BD8486FF1F10B50249BF
:1024C000D1F8CC00804710BD8486FF1F10B50249AB
:1024D000D1F8D000804710BD8486FF1F10B5024997
:1024E000D1F8D400804710BD8486FF1F10B5024983
:1024F000D1F8D800804710BD8486FF1F10B502496F
:10250000D1F8DC00804710BD8486FF1F10B502495A
:10251000D1F8E000804710BD8486FF1F10B5024946
:10252000D1F8E400804710BD8486FF1F10B5024932
:10253000D1F8E800804710BD8486FF1F10B502491E
:10254000D1F8EC00804710BD8486FF1F10B502490A
:10255000D1F8F000804710BD8486FF1F10B50249F6
:10256000D1F8F400804710BD8486FF1F10B50249E2
:10257000D1F8F800804710BD8486FF1F10B50249CE
:10258000D1F8FC00804710BD8486FF1F10B50249BA
:10259000D1F80001804710BD8486FF1F10B50249A5
:1025A000D1F80401804710BD8486FF1F10B5024991
:1025B000D1F80801804710BD8486FF1F10B502497D
:1025C000D1F80C01804710BD8486FF1F10B5024969
:1025D000D1F81001804710BD8486FF1F10B5024955
:1025E000D1F81401804710BD8486FF1F10B5024941
:1025F000D1F81801804710BD8486FF1F10B502492D
:10260000D1F81C01804710BD8486FF1F10B5024918
:10261000D1F82001804710BD8486FF1F10B5024904
:10262000D1F82401804710BD8486FF1F10B50249F0
:10263000D1F82801804710BD8486FF1F10B50249DC
:10264000D1F82C01804710BD8486FF1F10B50249C8
:10265000D1F83001804710BD8486FF1F10B50249B4
:10266000D1F83401804710BD8486FF1F10B50249A0
:10267000D1F83801804710BD8486FF1F10B502498C
:10268000D1F83C01804710BD8486FF1F10B5024978
:10269000D1F84001804710BD8486FF1F10B5024964
:1026A000D1F84401804710BD8486FF1F10B5024950
:1026B000D1F84801804710BD8486FF1F10B502493C
:1026C000D1F84C01804710BD8486FF1F10B5024928
:1026D000D1F85001804710BD8486FF1F10B5024914
:1026E000D1F85401804710BD8486FF1F10B5024900
:1026F000D1F85801804710BD8486FF1F10B50249EC
:10270000D1F85C01804710BD8486FF1F10B50249D7
:10271000D1F86001804710BD8486FF1F10B50249C3
:10272000D1F86401804710BD8486FF1F10B50249AF
:10273000D1F86801804710BD8486FF1F10B502499B
:10274000D1F86C01804710BD8486FF1F10B5024987
:10275000D1F87001804710BD8486FF1F10B5024973
:10276000D1F87401804710BD8486FF1F10B502495F
:10277000D1F87801804710BD8486FF1F10B502494B
:10278000D1F87C01804710BD8486FF1F10B5024937
:10279000D1F88001804710BD8486FF1F10B5024923
:1027A000D1F88401804710BD8486FF1F10B502490F
:1027B000D1F88801804710BD8486FF1F10B50249FB
:1027C000D1F88C01804710BD8486FF1F10B50249E7
:1027D000D1F89001804710BD8486FF1F10B50249D3
:1027E000D1F89401804710BD8486FF1F10B50249BF
:1027F000D1F89801804710BD8486FF1F10B50249AB
:10280000D1F89C01804710BD8486FF1F10B5024996
:10281000D1F8A001804710BD8486FF1F10B5024982
:10282000D1F8A401804710BD8486FF1F10B502496E
:10283000D1F8A801804710BD8486FF1F10B502495A
:10284000D1F8AC01804710BD8486FF1F10B5024946
:10285000D1F8B001804710BD8486FF1F10B5024932
:10286000D1F8B401804710BD8486FF1F10B502491E
:10287000D1F8B801804710BD8486FF1F10B502490A
:10288000D1F8BC01804710BD8486FF1F10B50249F6
:10289000D1F8C001804710BD8486FF1F10B50249E2
:1028A000D1F8C401804710BD8486FF1F10B50249CE
:1028B000D1F8C801804710BD8486FF1F10B50249BA
:1028C000D1F8CC01804710BD8486FF1F10B50249A6
:1028D000D1F8D001804710BD8486FF1F10B5024992
:1028E000D1F8D401804710BD8486FF1F10B502497E
:1028F000D1F8D801804710BD8486FF1F10B502496A
:10290000D1F8DC01804710BD8486FF1F10B5024955
:10291000D1F8E001804710BD8486FF1F10B5024941
:10292000D1F8E401804710BD8486FF1F10B502492D
:10293000D1F8E801804710BD8486FF1F10B5024919
:10294000D1F8EC01804710BD8486FF1F10B5024905
:10295000D1F8F001804710BD8486FF1F10B50249F1
:10296000D1F8F401804710BD8486FF1F10B50249DD
:10297000D1F8F801804710BD8486FF1F10B50249C9
:10298000D1F8FC01804710BD8486FF1F00B58BB0D5
:1029900001A8FFF791FB4FF48050ADF812004020E2
:1029A000ADF80E0001AA02210120FFF7E1F808A806
:1029B000FFF740F800200A9008A90220FEF7D0FF98
:1029C0000120ADF818000320ADF81A000848079060
:1029D00006A8FFF781FB032001F044FE0F2103202E
:1029E00001F060FE032001F04BFE0BB000BD0000C3
:1029F0008D18000010B5044604F0010048B100BF76
:102A000040F223101A49086043F21020086000BF0A
:102A100000BF04F0020028B100BF16481649086143
:102A200000BF00BF04F0040030B100BF4AF2015003
:102A30001249088000BF00BF04F0100018B14AF22C
:102A4000085000F0EBF904F0400018B14AF20350CE
:102A500000F0E4F904F0800040B100BF772008499D
:102A6000086007490831086000BF00BF10BD0000C2
:102A7000000401400100A5A500800440FC3B054086
:102A8000040805402DE9F04104460D4616466FF056
:102A90000207002E24D029462046B0470746A7B992
:102AA00000BF1148046000BF0DB9002108E00F49C4
:102AB000096AC1F302620E490968D140B1FBF5F120
:102AC00008460C49086000BF0AE04FF0FF3700BF1E
:102AD00007B904E040F2511107A0FEF7EBFD00BF7B
:102AE0003846BDE8F08100006480FF1F00400540CB
:102AF0000080FF1F6880FF1F2E2E2F2E2E2F2E2EC0
:102B00002F2E2E2F2E2E2F2E2E2F64726976657269
:102B1000732F686333325F6C6C5F647269766572C1
:102B20002F7372632F686333325F6C6C5F757469E7
:102B30006C6974792E63000070B5044600BF20797B
:102B400000F01F00401C022806D3207900F01F006F
:102B5000401C182800D804E040F23A2176A0FEF785
:102B6000A9FD00BF00BF6068C0F30820401C142806
:102B700007D36068C0F30820401CB0F5F07F00D890
:102B800004E040F23B216CA0FEF794FD00BF00BFC3
:102B90006068C0F30350401C022806D36068C0F38D
:102BA0000350401C102800D804E04FF40F7162A0BD
:102BB000FEF780FD00BF00BF6068C0F30360401CEB
:102BC000022806D36068C0F30360401C102800D8B8
:102BD00004E040F23D2158A0FEF76CFD00BF00BFAD
:102BE0000121606801EB1070022805D3606801EBD9
:102BF0001070102800D804E040F23E214EA0FEF7ED
:102C000059FD00BF5B480068C0F3C01008B95A49BD
:102C100001E05A480168207900F01F00401CB1FB18
:102C2000F0F66068C0F30820401C00FB06F500BF0A
:102C30005348864203D35348864200D804E04FF4F9
:102C400011713DA0FEF736FD00BF00BF4E48854222
:102C500003D34000854200D804E040F2452136A06D
:102C6000FEF728FD00BF00BF6068C0F30350401CA2
:102C7000B5FBF0F04549884209D36068C0F30350C2
:102C8000401CB5FBF0F04249884200D804E040F215
:102C9000462129A0FEF70EFD00BF00BF6068C0F30B
:102CA0000360401CB5FBF0F03849884209D36068E6
:102CB000C0F30360401CB5FBF0F03549884200D8F2
:102CC00004E040F247211CA0FEF7F4FC00BF00BF67
:102CD0000121606801EB1070B5FBF0F02B498842D0
:102CE00009D30121606801EB1070B5FBF0F02849B1
:102CF000884200D804E04FF412710FA0FEF7DAFC0E
:102D000000BF00BF2078012801D0207800B904E07E
:102D100040F2492108A0FEF7CDFC00BF00BF1D48CE
:102D2000008800F0010000B104E040F24A2102A056
:102D3000FEF7C0FC00BF70BD2E2E2F2E2E2F2E2E84
:102D40002F2E2E2F2E2E2F2E2E2F64726976657227
:102D5000732F686333325F6C6C5F6472697665727F
:102D60002F7372632F686333325F6C6C5F636C6BBD
:102D70002E6300000041054000127A000480FF1F0E
:102D800040420F0040787D01001C4E0EC0E1E4007F
:102D900000C2EB0BFE43054010B500BF0F48008892
:102DA00000F00200022800D104E040F23F410CA0F4
:102DB000FEF780FC00BF0948001D007800F0C0004D
:102DC00040F00F000549091D08701020034911311A
:102DD00008701E20FEF7D6FC002010BDFE43054003
:102DE0002E2E2F2E2E2F2E2E2F2E2E2F2E2E2F2EFE
:102DF0002E2F647269766572732F686333325F6C4D
:102E00006C5F6472697665722F7372632F686333C7
:102E1000325F6C6C5F7077632E6300000349098832
:102E20000143034AA2F8FE1370470000FE43054029
:102E3000004005402DE9F04704460F4690464FF00C
:102E4000000900BF24B144F00F000F2800D103E0B7
:102E5000AA2126A0FEF72EFC00BF00BF072F00D836
:102E600003E0AB2121A0FEF725FC00BF00BFB8F1B5
:102E7000070F00D803E0AC211CA0FEF71BFC00BF2D
:102E800000BF29480068772800D103E0AD2117A0D2
:102E9000FEF710FC00BF24E004F00100E0B14FEAAF
:102EA000C960050E281DC6B207FA05F008FA06F13A
:102EB00008430721A9400722B240114308400721D7
:102EC000A9400722B2401143174A121F12688A43D1
:102ED00010431549091F0860640809F1010000F05A
:102EE000FF09002CD8D1BDE8F08700002E2E2F2E30
:102EF0002E2F2E2E2F2E2E2F2E2E2F2E2E2F647273
:102F000069766572732F686333325F6C6C5F6472CD
:102F1000697665722F7372632F686333325F6C6CEE
:102F20005F7372616D2E6300040805402DE9FF4157
:102F300005460C460026CA4800680390C848406809
:102F40000290C74880680190C548C068009000BFE3
:102F500004F0E060E8B104F0E060B0F1807F18D0E8
:102F600004F0E060B0F1007F13D004F0E060B0F155
:102F7000407F0ED004F0E060B0F1806F09D004F023
:102F8000E060B0F1A06F04D004F0E060B0F1C06F79
:102F900000D104E040F2C621B2A0FEF78BFB00BFD7
:102FA00000BF04F07000B8B104F07000102813D016
:102FB00004F0700020280FD004F0700030280BD0EF
:102FC00004F07000402807D004F07000502803D0AF
:102FD00004F07000602800D104E040F2C721A1A0F5
:102FE000FEF768FB00BF00BF04F4E020E8B104F482
:102FF000E020B0F5803F18D004F4E020B0F5003FA9
:1030000013D004F4E020B0F5403F0ED004F4E020EB
:10301000B0F5802F09D004F4E020B0F5A02F04D043
:1030200004F4E020B0F5C02F00D104E04FF4327179
:103030008CA0FEF73FFB00BF00BF04F4E000E8B146
:1030400004F4E000B0F5801F18D004F4E000B0F5FF
:10305000001F13D004F4E000B0F5401F0ED004F4BC
:10306000E000B0F5800F09D004F4E000B0F5A00F47
:1030700004D004F4E000B0F5C00F00D104E040F249
:10308000CA2178A0FEF716FB00BF00BF04F00700BE
:10309000B8B104F00700012813D004F0070002289B
:1030A0000FD004F0070003280BD004F00700042819
:1030B00007D004F00700052803D004F00700062815
:1030C00000D104E040F2CB2166A0FEF7F3FA00BF86
:1030D00000BF04F4E060E8B104F4E060B0F5807F84
:1030E00018D004F4E060B0F5007F13D004F4E06081
:1030F000B0F5407F0ED004F4E060B0F5806F09D0E9
:1031000004F4E060B0F5A06F04D004F4E060B0F522
:10311000C06F00D104E04FF4337152A0FEF7CAFA39
:1031200000BF00BF04F4E040E8B104F4E040B0F5B3
:10313000805F18D004F4E040B0F5005F13D004F4D1
:10314000E040B0F5405F0ED004F4E040B0F5804FB1
:1031500009D004F4E040B0F5A04F04D004F4E040FE
:10316000B0F5C04F00D104E040F2CD213DA0FEF704
:10317000A1FA00BF00BF4A48284000B104E040F275
:10318000CF2138A0FEF796FA00BF00BF454800885F
:1031900000F0010000B104E04FF4347131A0FEF7FB
:1031A00089FA00BF4048007800F00700052823D1C5
:1031B000012600BF2A48006900F0010000B104E0C8
:1031C00040F2D72127A0FEF775FA00BF37482449FF
:1031D0000860C01248608860C86033482638006ABA
:1031E000C0F3026132480068C8404CF25031B0FB75
:1031F000F1F73846FDF75EFC2B482638006AA843F5
:1032000004EA050108432849263908620846006A8D
:10321000C0F3026126480068C8404CF25031B0FB50
:10322000F1F73846FDF746FC012E17D10C490398FB
:10323000086002984860019888600098C8601A4841
:103240002638006AC0F3026119480068C8404CF291
:103250005031B0FBF1F73846FDF72CFCBDE8FF819B
:10326000008004402E2E2F2E2E2F2E2E2F2E2E2F6E
:103270002E2E2F2E2E2F647269766572732F68633F
:1032800033325F6C6C5F6472697665722F73726340
:103290002F686333325F6C6C5F636C6B2E6300006E
:1032A00077777707FE430540264005400EFAFFFF7B
:1032B0000080FF1F7FB50446002542480068039048
:1032C0004048406802903F48806801903D48C0688F
:1032D000009000BF4CB1012C07D0022C05D0032C6C
:1032E00003D0042C01D0052C00D104E040F257217A
:1032F00035A0FEF7DFF900BF00BF4248008800F0AC
:10330000010000B104E04FF416712FA0FEF7D2F9CE
:1033100000BF3D48007800F00700052801D0052CCB
:1033200023D1012500BF2748006900F0010000B14A
:1033300004E04FF4187124A0FEF7BCF900BF334835
:1033400020490860C01248608860C8602E4826384E
:10335000006AC0F302612E480068C8404CF2503148
:10336000B0FBF1F63046FDF7A5FB27480470264870
:103370002638006AC0F3026125480068C8404CF254
:103380005031B0FBF1F63046FDF794FB012D17D11B
:103390000C4903980860029848600198886000987A
:1033A000C86019482638006AC0F3026118480068EE
:1033B000C8404CF25031B0FBF1F63046FDF77AFBD5
:1033C0007FBD0000008004402E2E2F2E2E2F2E2E8B
:1033D0002F2E2E2F2E2E2F2E2E2F64726976657291
:1033E000732F686333325F6C6C5F647269766572E9
:1033F0002F7372632F686333325F6C6C5F636C6B27
:103400002E630000FE430540264005400EFAFFFFF4
:103410000080FF1F2DE9FC4704460F469046994661
:10342000DDE90AA54FF0FF361048844208D0104865
:10343000844205D00F48844202D00F48844208D10C
:103440004B46424639462046CDE900A500F016F825
:1034500006463EB14B46424639462046009500F0AE
:10346000F9F806463046BDE8FC87000000D0014070
:1034700000D4014000100240001402402DE9FF4F2B
:103480008FB081465E4B0FCB08AC0FC46FF00200CB
:10349000079000BF5B48814508D05B48814505D057
:1034A0005A48814502D05A48814500D104E040F293
:1034B0009F2158A0FEF7FEF800BF109DDDF844A044
:1034C000129800287ED01C980028FBD0002DF9D03F
:1034D000BAF1000FF6D0D9F8140000F4600400BF70
:1034E0005CB1B4F5001F08D0B4F5800F05D0B4F579
:1034F000C00F02D0B4F5400F00D104E040F2A62185
:1035000044A0FEF7D7F800BF600D08A931F81040BD
:103510000AFB04F04000B5FBF0F0A0F1010BBBF199
:10352000FF0F69D80220A0FB043200204FF0010CED
:103530001BEB0C0C4041A3FB0C1E02FB0CE203FB3B
:1035400000220020A1FB0A7302FB0A3201FB0028C3
:103550004FF480710022A7FB010308FB013107FB38
:1035600002112A460023CDE90401FCF7BFFE8021A9
:10357000461A7F2E40D81298C0F800B01C980660FA
:103580001D98B8B349004FF0000C3A46A2FB010E5B
:1035900008FB01E107FB0C18074600208022B21847
:1035A00040EB00030021A2FB050C03FB05C302FB5B
:1035B0000131CDE90C0138464146FCF7ADFFCDE9BC
:1035C000020100E018E0DDE90C01FCF7A5FFCDE900
:1035D0000001DDE90223FCF723FFCDE90401FCF73C
:1035E000A7FF4FF07E510690FCF703FF0E901D9948
:1035F0000E98086000200790079813B0BDE8F08F80
:10360000346C000000D0014000D4014000100240A2
:10361000001402402E2E2F2E2E2F2E2E2F2E2E2F28
:103620002E2E2F2E2E2F647269766572732F68638B
:1036300033325F6C6C5F6472697665722F7372638C
:103640002F686333325F6C6C5F75736172742E63C5
:10365000000000002DE9FF4F8DB005469B46484B0A
:103660000FCB09AC0FC46FF00200079000BF4548B4
:10367000854208D04448854205D04448854202D05E
:103680004348854200D104E04FF4E77141A0FEF7C2
:1036900011F800BFDDF838A00F9EBBF1000F6BD012
:1036A000BAF1000F68D0002E66D0686900F460049B
:1036B00000BF5CB1B4F5001F08D0B4F5800F05D091
:1036C000B4F5C00F02D0B4F5400F00D104E040F2D1
:1036D000D91130A0FDF7EEFF00BF600D09A931F848
:1036E00010400AEB8A00410006FB04F04000B1FBE9
:1036F000F0F0401D0A21B0FBF1F0A0F10109B9F191
:10370000FF0F39D8CBF800901A9898B30220A0FB8D
:10371000041200204FF0010C19EB0C0C40EB0003DD
:10372000A1FB0C0E02FB0CE201FB0322002103466D
:10373000A3FB067C02FB06C200FB0128384641467B
:10374000FCF7EAFECDE902015046FCF7D8FECDE9D0
:103750000001DDE90223FCF763FECDE90401FCF77B
:10376000E7FE4FF07E510690FCF743FE08901A9951
:103770000898086000200790079811B0BDE8F08F06
:10378000246C000000D0014000D401400010024031
:10379000001402402E2E2F2E2E2F2E2E2F2E2E2FA7
:1037A0002E2E2F2E2E2F647269766572732F68630A
:1037B00033325F6C6C5F6472697665722F7372630B
:1037C0002F686333325F6C6C5F75736172742E6344
:1037D0000000000070B52B4D2D6805F001051DB1EE
:1037E000294D2A4E356002E0294D284E3560294D7D
:1037F0002D7805F00700062840D2DFE800F0030826
:103800000C11151A214D2D68234E356037E0234DDC
:10381000214E356033E04FF400451F4E35602EE0F9
:103820001E4D1D4E35602AE04FF400451A4E35609E
:1038300025E0184DDA352D68C5F30822154D263DD3
:10384000D5F800512B0F134DDA352D6805F01F0404
:10385000104D263DD5F8005105F080050DB90F49F2
:1038600001E00A4D2968651CB1FBF5F5561C75434E
:103870005E1CB5FBF6F5084E356000E000BF00BFEA
:1038800070BD0000840601400024F4000480FF1F86
:10389000002D3101264005400080FF1F00127A00F4
:1038A00000B5FFF797FF00200149086000BD000048
:1038B00008ED00E010B50B48007868B10A4890F8B0
:1038C000E000032808D100231A468321064801F0AE
:1038D0008EFD0020034908700121044800F008F81B
:1038E00010BD00000880FF1F3C81FF1F0040024008
:1038F00070B504460D4600BF0F48844202D00F4801
:10390000844200D104E04FF417710DA0FDF7D2FE00
:1039100000BF00BF2DB145F00110B0F1011F00D173
:1039200004E040F25D2106A0FDF7C4FE00BF60691F
:10393000A843606170BD00000040024000440240A6
:103940002E2E2F2E2E2F2E2E2F2E2E2F2E2E2F2E92
:103950002E2F647269766572732F686333325F6CE1
:103960006C5F6472697665722F7372632F6863335C
:10397000325F6C6C5F746D72302E63002DE9F0471E
:1039800006460D4614464FF0000914B96FF00209BF
:103990007FE000BF4048864202D04048864200D1C6
:1039A00003E0BD213EA0FDF785FE00BF00BF0DB1C5
:1039B000012D00D103E0BE2139A0FDF77BFE00BF41
:1039C00000BF206858B12068B0F5007F07D020689C
:1039D000B0F5807F03D02068B0F5A06F00D103E080
:1039E000BF212FA0FDF766FE00BF00BF6068E8B1F1
:1039F000606810281AD06068202817D060683028C6
:103A000014D06068402811D0606850280ED06068DB
:103A100060280BD06068702808D06068802805D0C6
:103A20006068902802D06068A02800D103E0C0211F
:103A30001BA0FDF73FFE00BF00BFA06820B148F209
:103A40000201A068884200D103E0C12114A0FDF763
:103A500031FE00BF06EB85070020386006F1080044
:103A600000EB8508A089C8F8000030692A0148F2F7
:103A7000F27191408843D4E900121143A2681143C6
:103A80002A0191402B0148F2F2729A4011400843FA
:103A900030614846BDE8F0870040024000440240E3
:103AA0002E2E2F2E2E2F2E2E2F2E2E2F2E2E2F2E31
:103AB0002E2F647269766572732F686333325F6C80
:103AC0006C5F6472697665722F7372632F686333FB
:103AD000325F6C6C5F746D72302E630000B587B01E
:103AE00001210846FDF7FAFF03A800F0D7F84020AF
:103AF000049080000390002005904FF40060ADF822
:103B0000180003AA00211648FFF738FF0120FDF72F
:103B100019FE01220421124800F026F80120FDF7C9
:103B200011FE0E20ADF806004020ADF804000D484F
:103B3000029001A8FEF7D0FABDF9060000F092FD50
:103B4000BDF906000F2100F0ADFDBDF9060000F043
:103B500097FD0021024800F05DF807B000BD0000AD
:103B600000400240B538000070B504460D461646C8
:103B700000BF1748844202D01648844200D104E0B6
:103B800040F22B2114A0FDF795FD00BF00BF2DB121
:103B900045F00410B0F1041F00D104E04FF40B71A4
:103BA0000DA0FDF787FD00BF00BF0EB1012E00D1B3
:103BB00004E040F22D2108A0FDF77CFD00BF1EB1FE
:103BC00020692843206102E02069A843206170BD7C
:103BD00000400240004402402E2E2F2E2E2F2E2E6B
:103BE0002F2E2E2F2E2E2F2E2E2F64726976657279
:103BF000732F686333325F6C6C5F647269766572D1
:103C00002F7372632F686333325F6C6C5F746D72F5
:103C1000302E630070B504460D4600BF0E48844246
:103C200002D00E48844200D103E0F2210CA0FDF73F
:103C300041FD00BF00BF0DB1012D00D103E0F32114
:103C400007A0FDF737FD00BF20692A01012191403F
:103C50000843206170BD0000004002400044024063
:103C60002E2E2F2E2E2F2E2E2F2E2E2F2E2E2F2E6F
:103C70002E2F647269766572732F686333325F6CBE
:103C80006C5F6472697665722F7372632F68633339
:103C9000325F6C6C5F746D72302E630001460020E1
:103CA00009B9C01E06E000220A604A608A604FF629
:103CB000FF728A81704700002DE9FC4704460F46D9
:103CC00090469946DDE90AA54FF0FF361048844238
:103CD00008D01048844205D00F48844202D00F48D3
:103CE000844208D14B46424639462046CDE900A5DC
:103CF00000F016F806463EB14B464246394620468D
:103D0000009500F0EBF806463046BDE8FC87000061
:103D100000D0014000D401400010024000140240D5
:103D20002DE9FF4F8BB006466FF00200079000BFF1
:103D30005648864208D05648864205D055488642A5
:103D400002D05548864200D104E040F20F2153A032
:103D5000FDF7B0FC00BF0C9CDDF834900E980028F5
:103D60007ED018980028FBD0002C79D0B9F1000F34
:103D700076D0F06800F4004008B1012000E0002097
:103D800083464FEAC900CBF102014843B4FBF0F08F
:103D9000A0F1010ABAF1FF0F73D80021DBF1020292
:103DA00061EB010008238C46A2FB031E00FB03E02D
:103DB00002FB0C0300204FF0010C1AEB0C0C4041ED
:103DC000A1FB0C2E03FB0CE301FB00310020A2FB46
:103DD000097301FB093102FB00184FF48071A7FB46
:103DE000012308FB013107FB0010CDE90420224626
:103DF0000023DDE90401FCF779FA8021451A7F2DC3
:103E00003FD80E98C0F800A018980560199840B3E4
:103E1000490000203A46A2FB01CE08FB01E107FB66
:103E2000001867468022AA1840EB00030021A2FB7D
:103E3000040C03FB04C302FB0131CDE90801384641
:103E40004146FCF769FBCDE90201DDE90801FCF719
:103E500063FBCDE90001DDE90223FCF7E1FA01E0B3
:103E60000FE00CE0CDE90401FCF762FB4FF07E515E
:103E70000690FCF7BEFA0A9019990A98086000208B
:103E8000079007980FB0BDE8F08F000000D0014008
:103E900000D4014000100240001402402E2E2F2EAC
:103EA0002E2F2E2E2F2E2E2F2E2E2F2E2E2F6472B3
:103EB00069766572732F686333325F6C6C5F64720E
:103EC000697665722F7372632F686333325F6C6C2F
:103ED0005F75736172742E63000000002DE9FF4F5F
:103EE00089B004469B466FF00200079000BF40482F
:103EF000844208D03F48844205D03F48844202D0E3
:103F00003E48844200D104E040F25B113CA0FDF742
:103F1000D1FB00BFDDF828900B9DBBF1000F63D0F3
:103F2000B9F1000F60D0002D5ED0E06800F40040D1
:103F300008B1012000E000208246E800CAF1020139
:103F4000484309EB89014900B1FBF0F0401D0A210B
:103F5000B0FBF1F0461EFF2E46D8CBF80060169855
:103F6000F0B3002108460B46DAF1020C60EB0300C7
:103F700008230022ACFB031E00FB03E00CFB020243
:103F800000204FF0010C16EB0C0C40410B46A3FB3C
:103F90000C1E02FB0CE203FB00220023A1FB057CAC
:103FA00002FB05C201FB032838464146FCF7B4FA80
:103FB000CDE902014846FCF7A2FACDE90001DDE9AE
:103FC0000223FCF72DFACDE90401FCF7B1FA4FF01A
:103FD0007E510690FCF70DFA08901699089800E0BB
:103FE00000E008600020079007980DB0BDE8F08F52
:103FF00000D0014000D401400010024000140240F3
:104000002E2E2F2E2E2F2E2E2F2E2E2F2E2E2F2ECB
:104010002E2F647269766572732F686333325F6C1A
:104020006C5F6472697665722F7372632F68633395
:10403000325F6C6C5F75736172742E6300000000F8
:104040002DE9F04104460D46164600BF1B48844248
:1040500008D01B48844205D01A48844202D01A482E
:10406000844200D104E04FF4966118A0FDF722FBD2
:1040700000BF00BF0EB1012E00D104E040F2B141FB
:1040800012A0FDF717FB00BF00BF25B145F0EF0000
:10409000EF2800D104E040F2B2410CA0FDF70AFB8A
:1040A00000BFAFB247B1012E03D1E0683843E060F2
:1040B00002E0E068B843E060BDE8F08100D0014074
:1040C00000D4014000100240001402402E2E2F2E7A
:1040D0002E2F2E2E2F2E2E2F2E2E2F2E2E2F647281
:1040E00069766572732F686333325F6C6C5F6472DC
:1040F000697665722F7372632F686333325F6C6CFD
:104100005F75736172742E63000000000449096AD0
:10411000C1F302120349096821FA02F07047000056
:10412000004005400080FF1F2DE9F041044600BF1C
:104130001048844208D01048844205D00F48844279
:1041400002D00F48844200D104E04FF451710DA019
:10415000FDF7B0FA00BFFFF7D9FF0746A069800757
:10416000410F012000FA01F5B7FBF5F63046BDE836
:10417000F081000000D0014000D401400010024056
:10418000001402402E2E2F2E2E2F2E2E2F2E2E2FAD
:104190002E2E2F2E2E2F647269766572732F686310
:1041A00033325F6C6C5F6472697665722F73726311
:1041B0002F686333325F6C6C5F75736172742E634A
:1041C000000000002DE9FF4704460F461646002078
:1041D00003904FF6FF70029000BF07B104E040F279
:1041E00042612FA0FDF766FA00BF00BF3C48844241
:1041F00008D03C48844205D03B48844202D03B482A
:10420000844200D104E040F2436125A0FDF752FA58
:1042100000BF2046FFF788FF8146E06800F0807805
:10422000B8F1000F1BD1606900F02008B8F1000F51
:104230000AD102A803AB3A464946CDE9000620461A
:10424000FFF73AFD054614E002A803AB3A4649469B
:10425000CDE900062046FFF7DDF8054609E002A893
:1042600003AB3A464946CDE900062046FDF796F8ED
:10427000054685B90399A06861F30F20A0600298F4
:104280007F2808D8E06840F00050E0600299A068FC
:1042900061F30600A060284604B0BDE8F087000086
:1042A0002E2E2F2E2E2F2E2E2F2E2E2F2E2E2F2E29
:1042B0002E2F647269766572732F686333325F6C78
:1042C0006C5F6472697665722F7372632F686333F3
:1042D000325F6C6C5F75736172742E630000000056
:1042E00000D0014000D40140001002400014024000
:1042F00070B504460D4600BF1348844208D01348E9
:10430000844205D01248844202D01248844200D12F
:1043100004E040F2835110A0FDF7CCF900BF00BFCC
:104320002DB1012D03D0022D01D0032D00D104E0C9
:1043300040F2845108A0FDF7BDF900BFA06965F304
:104340000100A06170BD000000D0014000D4014018
:1043500000100240001402402E2E2F2E2E2F2E2E43
:104360002F2E2E2F2E2E2F2E2E2F647269766572F1
:10437000732F686333325F6C6C5F64726976657249
:104380002F7372632F686333325F6C6C5F75736178
:1043900072742E63000000002DE9F04705460C46BC
:1043A00090466FF0020A002C73D000BF6B48854224
:1043B00008D06B48854205D06A48854202D06A48D9
:1043C000854200D104E040F2274168A0FDF772F970
:1043D00000BF00BF2068B0F5805F01D0206800B941
:1043E00004E04FF4856161A0FDF764F900BF00BFF0
:1043F000A068B0F5006F01D0A06800B904E040F2F9
:1044000029415AA0FDF756F900BF00BFA069B0F5D9
:10441000C06F05D0A069B0F5806F01D0A06900B968
:1044200004E040F22A4151A0FDF744F900BF00BF6B
:10443000206918B12069B0F5805F00D104E040F236
:104440002B414AA0FDF736F900BF00BF606918B1E3
:104450006069B0F5005F00D104E040F22C4143A058
:10446000FDF728F900BF00BFE069B0F5004F01D0AB
:10447000E06900B904E040F22D413CA0FDF71AF9D3
:1044800000BF00BF206AB0F1805F01D0206A08B988
:1044900005E060E040F22E4134A0FDF70BF900BFCB
:1044A00000BF606A18B1606AB0F1004F00D104E04B
:1044B00040F22F412DA0FDF7FDF800BF00BFA06A1C
:1044C000B0F5007F03D0A06AB0F5807F00D104E092
:1044D0004FF4866125A0FDF7EDF800BF2169A069C2
:1044E0000843216A0843E1690843616A40EA01061A
:1044F000A16820680843616940EA0107A06AB0F535
:10450000007F02D14FF4007000E000208146EE6091
:104510002F61C5F814902068D8B900BF606840B119
:104520006068012805D06068022802D0606803280E
:1045300000D104E040F23E410CA0FDF7BBF800BF03
:104540006068A86142462846E168FFF73BFE824664
:1045500001E04FF0000A5046BDE8F08700D001406E
:1045600000D4014000100240001402402E2E2F2ED5
:104570002E2F2E2E2F2E2E2F2E2E2F2E2E2F6472DC
:1045800069766572732F686333325F6C6C5F647237
:10459000697665722F7372632F686333325F6C6C58
:1045A0005F75736172742E630000000001466FF046
:1045B000020089B100220A604A608A604FF41652F4
:1045C000CA6000220A614A618A61CA610A62C2073E
:1045D0004A62D20D8A6200207047000010B502487E
:1045E00001F054FC10BD00003C81FF1F1CB5684663
:1045F000FCF712FD00208DF800000190019820F0DA
:104600001F00401C01905321019861F3102001907C
:10461000019820F4700000F5C0000190019820F08E
:10462000706000F1C0600190019820F0704000F1CE
:10463000C04001906846FCF7D3FCB020FCF724FD95
:104640001CBD00000FB4054B10B503A9044A029825
:1046500000F04AF810BC5DF814FB0000A14800000F
:104660003881FF1F002807DB00F01F020121914065
:10467000024A430942F823107047000080E200E03C
:1046800000280DDB00BF00BF00F01F020121914098
:104690004209920002F1E022C2F8001100BF00BFFF
:1046A0007047000010B5002804DB0A07130E054A06
:1046B000135406E00A07140E034A00F00F031B1FF1
:1046C000D45410BD00E400E018ED00E002E008C89A
:1046D000121F08C1002AFAD17047002001E001C171
:1046E000121F002AFBD170472DE9FF4F8BB09A466D
:1046F0000F460546002606E025280BD052460D99A8
:1047000090476D1C761C28780028F5D10FB03046F4
:10471000BDE8F08F0024A0460122604900E0044378
:1047200015F8013F203B02FA03F00842F7D1287840
:104730002E2817D115F8010F44F004042A280ED0B2
:104740006FF02F022878A0F1300109290AD808EB70
:10475000880102EB410100EB01086D1CF2E757F8FC
:10476000048B6D1C287869283ED006DC0028CDD04B
:1047700063280BD0642804D136E0732810D0752844
:104780004BD052460D999047761C85E017F8040BE4
:104790008DF8000000208DF80100E946012003E0BB
:1047A00057F8049B4FF0FF3061074FF0000401D42D
:1047B0000AE0641C44450DDA8442FADB19F804105F
:1047C0000029F6D106E0641C8442FCDB19F80410D1
:1047D0000029F8D1264404E019F8010B52460D993E
:1047E0009047641EF8D257E001CF4FF00A0B002823
:1047F00002DA40422D2102E0210504D52B218DF85B
:104800002410012103E0E10705D02021F7E70DF195
:10481000200908910CE00021F9E701CF4FF00A0BC5
:10482000F9E75946FBF7AAFE01F1300209F8012D1C
:104830000028F6D1ADEB090000F1200B600701D490
:104840004FF00108D84502DDA8EB0B0000E0002086
:104850008046002406E009A85246005D0D99904765
:10486000641C761C08988442F5DB04E03020524634
:104870000D999047761CB8F10001A8F10108F5DC0C
:1048800005E019F8010B52460D999047761CBBF1D3
:104890000001ABF1010BF4DC6D1C34E709280100C9
:1048A00070B504460D46E0B2FCF726FF08B9204675
:1048B00070BD4FF0FF30FBE7034B044A0449054845
:1048C00000F0DEFB00BFFEE74080FF1FB480FF1F4B
:1048D0000C80FF1F3C81FF1F014680220B685A623B
:1048E00080204FF080120B689A6280300A68C2F80C
:1048F000040100BF0A68C2F8080100BF40F4800349
:104900000A68C2F80C3140300A68C2F8100100BFD2
:104910000A68C2F81401704700BFC268126861F3E8
:104920000A12C3681A6000BF7047000010B586B055
:104930000446C720FEF75EF8FBF72EFFFCF722F8CF
:10494000164A4FF4E1311648FEF79CF8FFF74EFE89
:10495000FEF71CF8FFF7C2F812A0FFF773FE01A8DC
:10496000FDF7AAFB4FF40040ADF8140001AA0111B5
:104970000020FDF7FDF801AA4FF480510020FDF75B
:10498000F7F80A224FF400710020FDF78BFA01219D
:104990000802FDF759F806B010BD0000250A000016
:1049A00000140240555342465320737461727420C0
:1049B00021210D0A000000001CB51E20ADF80200E8
:1049C00040F21310ADF80000094801906846FDF769
:1049D00083FBBDF90200FFF745FEBDF902000F2180
:1049E000FFF760FEBDF90200FFF74AFE1CBD0000A4
:1049F000DD45000030B502464C78012C05D10D781C
:104A000002F10C0454F8250004E00D7802F13C0496
:104A100054F82500034623F400138C78032C02D0AD
:104A20008C78022C01D143F08053036030BD70B507
:104A300004460D46E020005D022802D0032811D173
:104A400000E000BF688801280BD10021E220015559
:104A5000D4F8BC042946826820469047204600F0DE
:104A6000D4F803E0204600F0B5F800BF00BF70BDE9
:104A70007CB505460E46F011019006F07F000090CF
:104A80009DF8040040B19DF8000000EB800105F1A5
:104A9000E40000EBC10407E09DF8000000EB80019A
:104AA00005F5317000EBC1040020E0709DF80000B6
:104AB00020709DF8040010B10120607001E000201A
:104AC0006070214605F10800FFF794FF7CBD0000EF
:104AD0003EB50446002002900190009000BF0120E6
:104AE00002F01CF82068006901900098401C1849E9
:104AF0000090884201D901200290019800F0004006
:104B00000028ECD09DF8080000BB00200090019820
:104B100040F00100019001982168086100BF206801
:104B2000006901900A490098884200D90AE000987B
:104B3000401C0090012001F0F1FF019800F00100FD
:104B40000028ECD100BF032001F0E8FF3EBD0000CB
:104B5000A086010038B504460D4600959DF800007A
:104B600038B1D4F8C014486980470121E1200155CB
:104B70000BE0D4F8C01488698047D4F8BC044168BD
:104B8000204688470021E120015538BD70B5044614
:104B90000E461546C4F8D452C4F8D0520321DE2084
:104BA00001552B4632460021204601F032FB70BDF4
:104BB00070B504460E461546C4F8F450C4F8F050DB
:104BC0000221DE2001552B4632460021204600F00E
:104BD0000EFC70BD10B504468021204601F0C8FDD2
:104BE0000021204601F0C4FD204600F0C1FC10BDAC
:104BF00010B504460521DE200155002304F2A4422D
:104C00001946204601F005FB10BD10B504460421ED
:104C1000DE200155002304F2A4421946204600F08C
:104C2000E6FB10BD70B505460E46002E50D105F1CD
:104C3000E404DE20405D02283DD1D4E90210884220
:104C400011D9D4E90210401AE060A878012803D1F4
:104C5000A168606A0844606200212846E368626ACD
:104C600000F0C5FB27E0A1682069B0FBF1F201FB71
:104C7000120080B9A168206988420CD3D4E90401EC
:104C8000884208D200231A461946284600F0AFFB96
:104C9000002060610FE0D5F8BC04C06840B1E0209E
:104CA000405D032804D1D5F8BC04C1682846884774
:104CB0002846FFF79DFFE320405D012816D10C49EF
:104CC0000868E968486000BF0021E32041550DE015
:104CD000D5F8BC04C06948B1E020405D032805D187
:104CE000D5F8BC043146C2692846904770BD000023
:104CF0007080FF1F70B505460E46002E35D105F5B4
:104D00003174DE20405D03283DD1D4E90210884291
:104D100018D9D4E90210401AE060A878012803D11C
:104D2000A168606A08446062D4E90210884201D236
:104D3000E06800E0A06883B200212846626A01F0C2
:104D400068FA20E00020E060D5F8BC04006940B1BA
:104D5000E020405D032804D1D5F8BC040169284651
:104D600088472846FFF751FF0DE0D5F8BC04006ADC
:104D700048B1E020405D032805D1D5F8BC04314698
:104D8000026A2846904770BD10B504462246034982
:104D900003A000F017FF014810BD00000486FF1FAC
:104DA000435553544F4D5F48494420436F6E6669E5
:104DB00067000000F8B504460E46154600959DF8BC
:104DC0000000012809D1D4F8BC04016820468847B6
:104DD000D4F8C0148868804707E09DF8000020B927
:104DE000D4F8BC04416820468847F8BD014612202B
:104DF00008800148704700002880FF1F10B5044656
:104E000016480068012827D100201449086014487A
:104E10000078012802D0022816D10AE01048407814
:104E200018B90120FBF7CAFD02E00120FBF7E0FD05
:104E300011E00B48407818B90820FBF7BFFD02E0ED
:104E40000820FBF7D5FD06E00120FBF7B7FD0820A1
:104E5000FBF7B4FD00BF00BF10BD0000B080FF1F16
:104E60008488FF1F70B505460C468321284600F054
:104E7000A9FD032C02D101200149087070BD00007A
:104E80000880FF1F70B505460C46012C24D11C4834
:104E90000078012802D0022816D10AE0184840788C
:104EA00018B90120FBF78AFD02E00120FBF7A0FD05
:104EB00011E01348407818B90820FBF77FFD02E0A5
:104EC0000820FBF795FD06E00120FBF777FD0820A1
:104ED000FBF774FD00BF00BF0223094A01212846E9
:104EE00001F097F94FF440520121284600F059FA99
:104EF0000223034A8321284600F079FA70BD00009E
:104F00008488FF1F10B504468321204601F0EDFB85
:104F10000121204601F0E9FB10BD000001462920D7
:104F20000880014870470000EC80FF1F10B5044660
:104F3000032340228321204601F02CF80323402242
:104F40000121204601F026F84023064A012120468F
:104F500001F05FF94FF440520121204600F021FAA0
:104F600010BD00008488FF1F2DE9F04706460C465F
:104F70000027B846B946207800F0600098B3202892
:104F80006AD16078801E0A2825D2DFE800F0140973
:104F900024242424241A0F05A0783249086020E034
:104FA000012230493046FFF703FE1AE06088001204
:104FB0002D49086015E001222B493046FFF7F8FD26
:104FC0000FE0012029490860A5792A462849304682
:104FD000FFF7DCFD05E03046FFF7FCFD4FF002096E
:104FE00000BF00BF39E0FFE76078062804D00A2838
:104FF00025D00B282DD128E060882221B1EB202F6D
:1050000009D1E088212801DD212000E0E088074661
:10501000DFF860800DE060882121B1EB202F08D1FE
:10502000DFF85480E088092801D9092000E0E088F1
:1050300007463A4641463046FFF7BAFD0AE00122EC
:105040000E493046FFF7B4FD04E0A0780B49086034
:1050500000E000BF00BF00E000BF00BF4846BDE861
:10506000F0870000E480FF1FE880FF1FB080FF1F73
:105070008488FF1F1581FF1FFE80FF1FE080FF1F38
:105080002DE9F04104460D4616461F462046FFF71F
:105090004DFCC4F8BC64C4F8C074C4F8C4542046C1
:1050A00000F03AFED4F8C014086880470021DE20E2
:1050B0000155FFF781FCBDE8F081000010B5044602
:1050C0002246034903A000F07DFD014810BD000009
:1050D0000486FF1F435553544F4D5F4849442049B0
:1050E0006E7465726661636500000000014604200D
:1050F00008800148704700003A80FF1F10B5044641
:105100002246034903A000F05DFD014810BD0000E8
:105110000486FF1F56454E444F52000010B504460A
:105120002246034903A000F04DFD014810BD0000D8
:105130000486FF1F446576696365206F66204355CA
:1051400053544F4D5F4849440000000010B50446D9
:10515000D4F8C01408698047DF20015DE0200155C4
:105160000321015510BD10B5044600234022194605
:10517000204600F00FFF002340228021204600F04F
:1051800009FF0121E0200155D4F8C0144868804788
:1051900010BD000010B504462246034903A000F0EC
:1051A00011FD014810BD00000486FF1F3030303073
:1051B00030303030303530430000000010B5044648
:1051C000E020015DDF2001550421E0200155D4F8E5
:1051D000C014C868804710BD10B502A0FFF732FAAE
:1051E00010BD00003E3E55534220646576696365FC
:1051F00020636F6E6E656374732E0D0A00000000ED
:1052000010B502A0FFF71EFA10BD00003E3E48494F
:105210004420696E7465726661636520737461729F
:1052200074732E0D0A00000010B502A0FFF70AFAF1
:1052300010BD00003E3E55534220646576696365AB
:1052400020726573756D65732E0D0A0010B502A08E
:10525000FFF7F8F910BD00003E3E5553422064654B
:105260007669636520696E2073757370656E64205E
:105270007374617475732E0D0A00000010B502A0DE
:10528000FFF7E0F910BD00003E3E55534220646533
:105290007669636520646973636F6E6E65637465B8
:1052A000642E0D0A000000007047000010B503A036
:1052B000FFF7C8F908A0FFF7C5F910BD3E3E5553EA
:1052C0004220446576696365206861732072657366
:1052D000657465642E0D0A003E3E54686520696E53
:1052E00074657276616C207265706F727420697378
:1052F000203130306D730D0A0000000010B50246F9
:10530000002023E002F10C0353F820301B6803F067
:1053100000433BB14FF0904402F10C0353F82030AE
:105320001C6005E0002402F10C0353F820301C60DF
:10533000002402F10C0353F820301C61FF2402F119
:105340000C0353F820309C60431CD8B28842D9DB50
:10535000002023E002F13C0353F820301B6803F0E7
:1053600000433BB14FF0904402F13C0353F820302E
:105370001C6005E0002402F13C0353F820301C605F
:10538000002402F13C0353F820301C61FF2402F199
:105390003C0353F820309C60431CD8B28842D9DBD0
:1053A00010BD2DE9FC4104460D461746E811019059
:1053B00005F07F0000909DF8040040B19DF80000CA
:1053C00000EB800104F1E40000EBC10607E09DF86A
:1053D000000000EB800104F5317000EBC1063A4695
:1053E000314604F1080000F077FABDE8FC812DE9B0
:1053F000F84305460F461646984607F07F00009092
:105400009DF8000000EB800105F1E40000EBC10411
:10541000012060709DF8000020706662A661002087
:105420002062C4F81C809DF8000030B9AA7821469B
:1054300005F1080000F0C0F805E0AA78214605F162
:10544000080000F099F9BDE8F883000010B50A469D
:10545000002100230468A3616FF080430468636146
:1054600000BF04686361084B0468A36100BF0AB908
:1054700041F01001054B194341F0804103689B69DD
:105480000B430468A36110BD0008008008383C008D
:1054900070B504460D4600206168096821F4C051CA
:1054A0006268116000BF2879012806D16168096827
:1054B00021F003016268116005E06168096841F04C
:1054C00003016268116000BF687910B92046FFF7D8
:1054D00003FA00BF00206168086161684861401EEE
:1054E0006168886100206168C86100BF69782046F2
:1054F000FFF704FF00BF6068406820F002006168A9
:10550000486000BFA9782046FFF7A0FF70BD10B526
:10551000044604F1080000F00DF800BFA068C06860
:1055200040F47050A168C86000BF4FF40050A168FB
:10553000486110BD10B543689B6803F00601C3685D
:105540001A6819B1022901D0062902D16FF30A02A3
:1055500005E0042903D16FF30A0242F00302C36895
:105560001A6043685B6843F480734468636010BDED
:1055700010B504464021C4F8E012C4F8D012C4F8B3
:10558000D412A17804F2A44204F1080000F002F859
:1055900010BD000037B5074BC46B2361012908D14A
:1055A00002ACC56B6C61C46B226842F08022C46B94
:1055B00022603EBD400008602DE9F04116464F785C
:1055C000012F3FD1C7683C68CF6927B9002201236A
:1055D00042EAC3450CE0D1F808C0CF69674503D95A
:1055E0008F68CF618A6800E0CA69012342EAC34537
:1055F000C7683F6965F31C07D0F80CC0CCF8107081
:10560000012E09D191F8008000F10C0757F828709D
:10561000D1F818C0C7F814C044F00444C7683C600F
:10562000F6BBCF69E7B347687F6B91F800804FF016
:10563000010C0CFA08FC47EA0C07D0F804C0CCF8BF
:10564000347039E0C76B3C68CF6917B90022012379
:1056500009E0D1E902C7674501D2CF6800E08F6851
:10566000CF61CA69012342EAC34591F800C000F145
:105670003C0757F82C703F6965F31C07E04600F1C2
:105680003C0C5CF828C0CCF81070012E0BD191F8BE
:10569000008000F13C0757F82870D1F818C000E0EE
:1056A0000AE0C7F814C044F0044491F800C000F1C7
:1056B0003C0757F82C703C60BDE8F08170B54D7820
:1056C000012D09D10E7800F10C0555F826200E7831
:1056D000012505FA06F409E00E7800F13C0555F8BD
:1056E00026200D781035012606FA05F4136803F418
:1056F00000455DB98E788D6845EA8645CE8845EAD5
:10570000865545F0805545F4004313604568ED69C2
:1057100025434668F56170BD30B54B78012B12D139
:105720000C7800F10C0353F824301B6823F4004478
:105730000D7800F10C0353F825301C600C78012320
:1057400003FA04F212E00C7800F13C0353F8243021
:105750001B6823F400440D7800F13C0353F8253016
:105760001C600B781033012404FA03F24368DB69F0
:1057700093434468E36130BD2DE9F84705460C4684
:105780009246607801285FD1217805F10C0050F82D
:1057900021000668E06928B94FF00008012748EAAF
:1057A000C74909E0D4F81C80E069401EA16808449C
:1057B000B0FBF1F748EAC749217805F10C0050F831
:1057C0002100006969F31C000A4605F10C0151F83B
:1057D00022100861BAF1010F07D1227805F10C00FF
:1057E00050F82200A16941610CE0A078012809D09D
:1057F000E06938B16868406B227801219140084324
:1058000069684863A078012809D168688068C0F396
:10581000002010B946F0005601E046F0805646F0F0
:105820000446217805F10C0050F821000660A078AC
:1058300001284FD1CDF800A0A08B83B22278284652
:10584000616A01F0D5F945E0217805F13C0050F896
:1058500021000668E06928B9D4F80880012748EAE1
:10586000C7490DE0A068401EE1690844A168B0FB8B
:10587000F1F7A06800FB07F848EAC749C4F81C80A4
:10588000217805F13C0050F82100006969F31C0003
:105890000A4605F13C0151F822100861BAF1010FE6
:1058A00006D1227805F13C0050F82200A16941613F
:1058B000A078012806D1607910B146F0005601E0C9
:1058C00046F0805646F00446217805F13C0050F839
:1058D00021000660BDE8F8872DE9F04106460D4637
:1058E00017464FF000086878012834D1297806F16E
:1058F0000C0050F821000468F7B1102F04D0202FBD
:1059000009D0302F1BD109E02946304600F034FE83
:105910004FF0010814E044F0006411E004F40010BA
:1059200038B10020687129463046FFF763F84FF020
:1059300001082348044303E024F4004400E000BFCE
:1059400000BFB8F1010F39D0297806F10C0050F8EA
:105950002100046032E0297806F13C0050F8210073
:105960000468EFB1B7F5805F06D0B7F5005F06D0E9
:10597000B7F5405F17D105E044F4001414E044F09B
:10598000006411E004F4001038B100206871294669
:105990003046FFF72FF84FF001080948044303E0B1
:1059A00024F4004400E000BF00BFB8F1010F05D0AF
:1059B000297806F13C0050F821000460BDE8F08130
:1059C0000080008438B504460D46E81100909DF82B
:1059D000000030B105F07F0104F1080001F074F817
:1059E00003E004F1080000F0AFFC38BD70B50446D8
:1059F0000D46E888012803D02046FFF7EBF818E0B1
:105A0000E020005D022802D003280DD105E001222C
:105A100008492046FFF7CCF80AE0012204F1DC0136
:105A20002046FFF7C5F803E02046FFF7D3F800BF94
:105A300000BF70BDA480FF1FF8B504460D460020CE
:105A400000900026002768880012082858D2DFE856
:105A500000F057040B1457574D52D4F8C404016892
:105A600068468847064650E0D4F8BC044169684659
:105A7000884706460220707047E0A87806282ED294
:105A8000DFE800F0030A11181F26D4F8C4044168A7
:105A900068468847064627E0D4F8C404816868460B
:105AA0008847064620E0D4F8C404C16868468847A1
:105AB000064619E0D4F8C4040169684688470646DA
:105AC00012E0D4F8C40441696846884706460BE0F2
:105AD000D4F8C404816968468847064604E0204635
