:020000040000FA
:10000000088CFF1F95020000C5020000C702000017
:10001000C9020000CB020000CD0200000000000079
:10002000000000000000000000000000CF020000FF
:10003000D102000000000000D3020000D502000041
:10004000D7020000D7020000D7020000D70200004C
:10005000D7020000D7020000D7020000D70200003C
:10006000D7020000D7020000D7020000D70200002C
:10007000D7020000D7020000D7020000D70200001C
:10028000DFF80CD000F032F80048004711030000FE
:10029000088CFF1F10484FF0770101600F484FF0A6
:1002A000770101600E484FF4885101600A484FF011
:1002B0007601016009484FF07601016009488047E6
:1002C00009480047FEE7FEE7FEE7FEE7FEE7FEE738
:1002D000FEE7FEE7FEE7FEE7040805400C080540E0
:1002E000000805408907000081020000064C074D08
:1002F00006E0E06840F0010394E8070098471034F6
:10030000AC42F6D3FFF7C0FF080800002808000041
:1003100010B500F0D3F900F050FA002010BD00BF76
:10032000FEE7000008B50D49096AC1F302630C49F4
:100330000968D94042F210731944491EB1FBF3F227
:1003400006E0009200BF00994B1E00930029FAD1ED
:10035000011EA0F10100F4D108BD000000400540DD
:100360000080FF1F0146002009B9C01E09E00022DD
:100370000A804A80CA800A820A814A818A81CA81A7
:100380008A80704700B585B06846FFF7EBFF002014
:10039000ADF800000220ADF802006A4608210320F3
:1003A00000F03EF86A461021032000F039F86A4652
:1003B0002021032000F034F86A464021032000F099
:1003C0002FF805B000BD000000F0040131B100BFFE
:1003D0004AF20151024A118000BF00BF704700007D
:1003E000FC3B054000F0040131B100BF4FF4254152
:1003F000024A118000BF00BF70470000FC3B05406F
:10040000BFFFDFFFFFFEFFFFFFFFFFFFFFFFFFFF5D
:10041000FFFFFFFFFFFFFFFFFFFFFFFFFFFFFFFFEC
:100420002DE9F05F05460F4614464FF0000B14B956
:100430006FF0020BD5E000BF6B48008800F00100B0
:1004400000B103E0FF2169A0FFF769FF00BF00BF13
:100450004DB1012D07D0022D05D0032D03D0042D61
:1004600001D0052D00D104E04FF480715FA0FFF7AB
:1004700056FF00BF00BF17B1B8B200B104E040F2B0
:1004800001115AA0FFF74BFF00BF00BF208810B139
:100490002088012800D104E04FF4817153A0FFF7B8
:1004A0003EFF00BF00BF608810B16088022800D105
:1004B00004E040F203114DA0FFF731FF00BF00BF81
:1004C000A08810B1A088042800D104E04FF4827104
:1004D00046A0FFF724FF00BF00BFE08828B1E088F6
:1004E000102802D0E088202800D104E040F2051155
:1004F0003EA0FFF714FF00BF00BF208918B120897C
:10050000B0F5804F00D104E04FF4837137A0FFF7BE
:1005100006FF00BF00BF608910B16089402800D18C
:1005200004E040F2071131A0FFF7F9FE00BF00BF61
:10053000A08918B1A089B0F5007F00D104E04FF484
:1005400084712AA0FFF7EBFE00BF00BFE08918B15D
:10055000E089B0F5805F00D104E040F2091123A0EA
:10056000FFF7DDFE00BF00BF208A18B1208AB0F57A
:10057000004F00D104E04FF485711CA0FFF7CFFEBF
:1005800000BF00262BE00120B040384028B320886F
:1005900061880843A1880843E188084361890843CA
:1005A000A1890843E1890843218940EA010A45F20B
:1005B0007728208A40EA0A0A48F400480A48001DC1
:1005C00000EB851000EB8609B9F8000020EA08006E
:1005D0000AEA08010843A9F80000701CC6B2102EF0
:1005E000D1D35846BDE8F09FFC3B05402E2E2F2E60
:1005F0002E2F2E2E2F2E2E2F2E2E2F2E2E2F64729C
:1006000069766572732F686333325F6C6C5F6472F6
:10061000697665722F7372632F686333325F6C6C17
:100620005F6770696F2E630070B504460D4600BFAA
:100630004CB1012C07D0022C05D0032C03D0042C84
:1006400001D0052C00D104E04FF418710BA0FFF786
:1006500066FE00BF00BF15B1A8B200B104E040F2D1
:10066000612106A0FFF75BFE00BF1348102101FBCC
:10067000040630882843308070BD00002E2E2F2EB7
:100680002E2F2E2E2F2E2E2F2E2E2F2E2E2F64720B
:1006900069766572732F686333325F6C6C5F647266
:1006A000697665722F7372632F686333325F6C6C87
:1006B0005F6770696F2E63000C38054070B52B4D75
:1006C0002D6805F001051DB1294D2A4E356002E067
:1006D000294D284E3560294D2D7805F00700062854
:1006E00040D2DFE800F003080C11151A214D2D68E7
:1006F000234E356037E0234D214E356033E04FF413
:1007000000451F4E35602EE01E4D1D4E35602AE01F
:100710004FF400451A4E356025E0184DDA352D6846
:10072000C5F30822154D263DD5F800512B0F134D6A
:10073000DA352D6805F01F04104D263DD5F800511F
:1007400005F080050DB90F4901E00A4D2968651CC7
:10075000B1FBF5F5561C75435E1CB5FBF6F5084E6E
:10076000356000E000BF00BF70BD0000840601409E
:100770000024F4000480FF1F002D310126400540B5
:100780000080FF1F00127A0000B5FFF797FF0020DE
:100790000149086000BD000008ED00E002E008C863
:1007A000121F08C1002AFAD170477047002001E0EB
:1007B00001C1121F002AFBD170470420FFF704FE7D
:1007C000FFF7E0FD0420FFF70DFE00BF0821032026
:1007D000FFF72AFF6420FFF7A5FD10210320FFF794
:1007E00023FF6420FFF79EFD20210320FFF71CFF5D
:1007F0006420FFF797FD40210320FFF715FF6420D9
:10080000FFF790FDE2E70000280800000080FF1FCE
:10081000080000009C070000300800000880FF1F4F
:10082000000C0000AC070000000000000000000009
:040000050000028174
:00000001FF
