:020000040000FA
:100000001090FF1F95020000C5020000C70200000B
:10001000C9020000CB020000CD0200000000000079
:10002000000000000000000000000000CF020000FF
:10003000D102000000000000D3020000D502000041
:10004000613000007130000081300000913000000C
:10005000A1300000B1300000C1300000D1300000FC
:10006000E1300000F13000000131000011310000EA
:1000700021310000313100004131000051310000D8
:1000800061310000713100008131000091310000C8
:10009000A1310000B1310000C1310000D1310000B8
:1000A000E1310000F13100000132000011320000A6
:1000B0002132000031320000413200005132000094
:1000C0006132000071320000813200009132000084
:1000D000A1320000B1320000C1320000D132000074
:1000E000E1320000F1320000013300001133000062
:1000F0002133000031330000413300005133000050
:10010000613300007133000081330000913300003F
:10011000A1330000B1330000C1330000D13300002F
:10012000E1330000F133000001340000113400001D
:10013000213400003134000041340000513400000B
:1001400061340000713400008134000091340000FB
:10015000A1340000B1340000C1340000D1340000EB
:10016000E1340000F13400000135000011350000D9
:1001700021350000313500004135000051350000C7
:1001800061350000713500008135000091350000B7
:10019000A1350000B1350000C1350000D1350000A7
:1001A000E1350000F1350000013600001136000095
:1001B0002136000031360000413600005136000083
:1001C0006136000071360000813600009136000073
:1001D000A1360000B1360000C1360000D136000063
:1001E000E1360000F1360000013700001137000051
:1001F000213700003137000041370000513700003F
:10020000613700007137000081370000913700002E
:10021000A1370000B1370000C1370000D13700001E
:10022000E1370000F137000001380000113800000C
:1002300021380000313800004138000051380000FA
:10024000D7020000D7020000D7020000D70200004A
:10025000D7020000D7020000D7020000D70200003A
:10026000D7020000D7020000D7020000D70200002A
:10027000D7020000D7020000D7020000D70200001A
:10028000DFF80CD000F0B4FB00480047350A00004E
:100290001090FF1F10484FF0770101600F484FF09A
:1002A000770101600E484FF4885101600A484FF011
:1002B0007601016009484FF07601016009488047E6
:1002C00009480047FEE7FEE7FEE7FEE7FEE7FEE738
:1002D000FEE7FEE7FEE7FEE7040805400C080540E0
:1002E00000080540A143000081020000D2B201E0F5
:1002F00000F8012B491EFBD270470022F6E710B52B
:1003000013460A4604461946FFF7F0FF204610BD83
:10031000F0B480EA0102D40F4200B2EB410F02D2E6
:100320000246084611464A0042D0C30DDDB2C1F371
:10033000C752AD1A202D35DAC1F3160141F400027F
:1003400004B15242C5F1200602FA06F12A411044D6
:10035000B3EBD05F23D0C4B1012DA0EBC35009DCB7
:10036000F0BC4FF0004202EAC352DBB200F50000DD
:1003700000F0B2BA400000F1807000EBC350A0F171
:10038000807040EAD170490009E0490841EAC07133
:10039000A0EBC35000F50000400800EBC350F0BCD8
:1003A00000F091BA6142012202EB4101001BF6E725
:1003B000F0BC704781F00041AAE780F00040A7E759
:1003C00096230022114600F087BA0EB5C10F80EACD
:1003D000E0700844CA07002140F233438DE80E0064
:1003E0000A460B4600F0B5FA03B000BD002801DB59
:1003F000C0F10040002901DBC1F10041814270479A
:10040000BFFFDFFFFFFEFFFFFFFFFFFFFFFFFFFF5D
:10041000FFFFFFFFFFFFFFFFFFFFFFFFFFFFFFFFEC
:1004200080EA010210B502F00043400022D04A00E9
:100430001FD0010E01EB1261C0F35600C2F3560249
:1004400040F4000042F40002A0FB022000047F39C7
:10045000140400D0401C50EA124001D44000491E50
:10046000C2B20C0604EBD010401C4008802A02D017
:1004700003E0002010BD20F00100002900DA002078
:10048000184310BD30B480EA010202F0004530F09C
:10049000004221F0004013D090B1C30DD40DC2F33F
:1004A0001601C0F31600E41A41F4000140F4000202
:1004B0007D34914201D3641C00E04900002C02DA33
:1004C00030BC002070474FF400000023914201D35C
:1004D000891A034340084FEA4101F7D151B19142D3
:1004E00002D14FF0004105E002D24FF0010101E0DE
:1004F0006FF0010103EBC450284430BC00F0E3B9B5
:100500002DE9FE4F804681EA0300C00F0C460090A3
:1005100021F0004123F00045B8EB0200A94105D2CB
:100520004046214690461C460B46024623F00040BA
:10053000104347D0270DC7F30A00C3F30A510290B6
:10054000401A019040286BDAC3F3130040F4801B7B
:100550000098924620B10023D2EB030A63EB0B0B09
:1005600001985946C0F14002504600F08BF906460A
:100570000D4650465946019A00F093F910EB0800D9
:100580006141002487EA115284EAE7731A4340D09C
:10059000009A62B3019A012A4FEA075215DC001B48
:1005A00061EB02014FF0004202EA0752CDE900423E
:1005B000001C41F5801132462B4600F0CAF903B009
:1005C000BDE8F08F40462146F9E7001B61EB0201D0
:1005D000001C41F5801300185B412018A2F500179C
:1005E00047EB030140EAD570B6196D4111E06D0883
:1005F0004FEA360645EAC0754FEA0752001B61EB29
:100600000201001C41F5801149084FEA3000001931
:10061000514132462B4603B0BDE8F04F00F08AB995
:100620000098012240000023D0EB020263EBE0734C
:10063000009821464FEAE074B8EB000061EB04013A
:10064000E9E783F000435BE781F0004158E72DE9DB
:10065000FE4F81EA030404F0004421F000410094BD
:100660004FF0000B23F0004350EA01045ED052EA41
:1006700003045BD0C3F30A54C1F30A552C44A4F21B
:10068000F3340194A0FB0254C1F3130141F480112F
:10069000C3F3130343F4801301FB024400FB034E36
:1006A000840A970A44EA815447EA8357A4FB0768FF
:1006B00002958D0A05FB07854FEA932C04FB0C5429
:1006C0002705029D4FEA065847EA1637B5EB08059D
:1006D0006EEB070C870E920E47EA811742EA8312EF
:1006E000A7FB0201B6EB0B0164EB00042B0D43EA00
:1006F0000C335E1844EB1C50DA465146E7FB02010E
:10070000C5F313044FEA0B3343EA14534FEA0432A0
:10071000019C43EA0603A4F10C040294009CCDE979
:1007200000B400F016F903B0BDE8F08F00200146D8
:10073000F9E72DE9F04D81EA030404F0004B21F0C4
:10074000004514464FF0000A23F0004150EA05022C
:1007500020D054EA01021DD0C5F30A570246C5F362
:100760001303C1F31300C1F30A5640F4801543F498
:100770008013A7EB0608101BD64608F2FD3873EB72
:10078000050002D308F1010801E092185B41B8F1BD
:10079000000F03DA00200146BDE8F08D00204FF481
:1007A0008011064684460EE0171B73EB050705D340
:1007B000121B63EB050306434CEA010C49084FEAA0
:1007C000300092185B4150EA0107EDD152EA030074
:1007D00012D082EA040083EA0501084305D0101B09
:1007E000AB4106D20122002306E000224FF0004375
:1007F00002E06FF0010253101AEB06004CEB0851B7
:1008000010EB0A0041EB0B01BDE8F04D00F092B88F
:1008100020F00040C10DC0F3160040F400007F2915
:1008200001DA00207047962903DCC1F19601C84027
:10083000704796398840704701F0004330B421F08A
:10084000004150EA010206D00A0DA2F56072C1F320
:100850001301002A02DC30BC00207047440F44EA38
:10086000C104C100E01830BC00EBC25000F02BB84E
:10087000002801DBC0F10040002901DBC1F100418B
:1008800088427047202A04DB203A00FA02F1002057
:1008900070479140C2F1200320FA03F319439040BE
:1008A0007047202A06DBCB17203A41FA02F043EAD0
:1008B000E07306E041FA02F3D040C2F12002914019
:1008C0000843194670470029A8BF7047401C4900DB
:1008D00008BF20F00100704710B4B0FA80FC00FAA5
:1008E0000CF050EA010404BF10BC704749B1CCF1D0
:1008F000200421FA04F411FA0CF118BF012121435C
:100900000843A3EB0C01CB1D4FEA00614FEA102016
:1009100042BF002010BC704700EBC35010440029B8
:10092000A4BF10BC7047401C490008BF20F0010064
:1009300010BC704710B5141E73F1000408DA401C97
:1009400041F1000192185B411A4301D120F00100EE
:1009500010BD2DE9F04D92469B4611B1B1FA81F2DE
:1009600002E0B0FA80F220329046FFF78BFF044697
:100970000F4640EA0A0041EA0B0153465A46084333
:1009800013D0114653EA010019D0C8F14002504675
:1009900000F040F805460E46504659464246FFF7DD
:1009A00071FF084305D0012004E020463946BDE828
:1009B000F08D0020054346EAE0762C4337430A9841
:1009C0006305E40AA0EB08000022FD0A44EA47544C
:1009D0000A3002D500200146E9E7010510196941F6
:1009E000DDE9084500196941BDE8F04DA2E70000C6
:1009F000064C074D06E0E06840F0010394E807006C
:100A000098471034AC42F6D3FFF73EFCF4440000A4
:100A100014450000202A04DB203A21FA02F00021CC
:100A2000704721FA02F3D040C2F1200291400843FE
:100A30001946704710B503F04DFC03F0CBFC0020C5
:100A400010BD38B50020009003F0DAF802226946A4
:100A5000A82000F0B5F804460CB1012038BD4FF4D1
:100A6000967000F0A3FE08208DF8000000208DF89D
:100A7000010002226946E12000F0A2F804460CB110
:100A80000120EBE74FF4967000F090FE0020E5E7C0
:100A900013B50C464FF4802322466946382001F0F6
:100AA00051FF00201CBD00002DE9FE4F4FF0000A51
:100AB00000200290022202A9AC2000F081F88246B8
:100AC000BAF1000F03D04FF07E50BDE8FE8F062133
:100AD0006846FFF7DDFF8246BAF1000F02D04FF003
:100AE0007E50F2E79DF8011009039DF8022041EACB
:100AF00002119DF8032002F0F00241EA0200FFF724
:100B000064FC80460022074BFFF7A1FD0646002249
:100B1000054BFFF70EFE0446FFF78EFE8346584650
:100B2000D3E7000000005940000030412DE9F04FAC
:100B300085B04FF0000A00200490022204A9AC20E6
:100B400000F03EF88246BAF1000F04D04FF07E501C
:100B500005B0BDE8F08F062102A8FFF799FF824695
:100B6000BAF1000F02D04FF07E50F1E79DF80B1064
:100B70000907090B9DF80C2041EA02219DF80D2080
:100B800041EA0200FFF721FC06460022094BFFF76D
:100B90005EFD04460022084BFFF7CBFD8046002295
:100BA000064BFFF74EFDCDE90001FFF745FE8346FA
:100BB0005846CDE700006940000030410000494040
:100BC000F8B504460D46164600944FF480230122E2
:100BD0006946382001F0F6FE4FF48023324629465C
:100BE000382001F0EFFEF8BD1FB502A800F0CCFDE3
:100BF000684600F061FC2B492B4800F086FC002081
:100C00008DF80A0030208DF8090000208DF80800CA
:100C100005208DF80C0002A800F00CFD00200190CA
:100C2000019820F01F0001903121019861F31020FC
:100C30000190019820F0704000F1805001900198DF
:100C400020F0706000F180700190019820F4700035
:100C500000F58010019000208DF80000019820F030
:100C600080000190684600F0CDFA00BF202000F01F
:100C7000CFF90128FAD100221146042003F03AF8F6
:100C8000012211460B2003F035F8502000F0CEFD74
:100C90004FF4404001F03EF902F0D0FF052000F093
:100CA0003EFC1FBD102211007777770710B58AB080
:100CB00005A801F07DF9002415E01A4A02EB840230
:100CC0005188184A12F8240005AA00F061FF154A5D
:100CD00002EB84025188134A12F82400082201F022
:100CE000A7F8601CC4B2032CE7D30121C80700F0A9
:100CF000AFFE012000F0C4F9684602F0E3FE0020D8
:100D000000904FF0106001904FF480100290C010DE
:100D100003904FF4E0400490684602F0D3FD0AB01F
:100D200010BD00006444000010B500F0A9F8FFF702
:100D3000BDFF002407E0074901EB0411486800F0FB
:100D4000D9FD601CC4B2042CF5D3012002F088FD4B
:100D500010BD00007044000010B50848006840F461
:100D600000600649086000BF0221012001F014F86C
:100D70000028F9D0022000F0BDFD10BD0880FF1F43
:100D800010B500BF1048006800F0070004460F4986
:100D9000486800F0CBFD012814D100BF0B4A5188F0
:100DA000107800F0F9FF38B90120A040084909681F
:100DB000084307490860F1E70449486800F09AFDD4
:100DC00000BF00BF10BD0000080C054070440000CB
:100DD0000880FF1F10B500BF1048006800F0070032
:100DE00004460F49486900F0A1FD012814D100BF55
:100DF0000B4A518A107C00F0CFFF38B91020A04078
:100E000008490968084307490860F1E70449486947
:100E100000F070FD00BF00BF10BD0000080C0540D1
:100E2000704400000880FF1F10B500BF1148006823
:100E300000F0070004461049486A00F077FD0128D9
:100E400016D100BF0C4A518C92F8200000F0A4FF8C
:100E500040B94FF48070A040084909680843074929
:100E60000860EFE70449486A00F044FD00BF00BF96
:100E700010BD0000080C0540704400000880FF1FF2
:100E800030B58BB001A801F093F84FF48050ADF865
:100E900012004020ADF80E0000240CE0374A02EBAF
:100EA00004125188354A02EB0412107801AA00F0AE
:100EB0006FFE601CC4B2042CF0D308A800F0BEFD85
:100EC00000200A90002408E02C4901EB0411486836
:100ED00008A900F049FD601CC4B2042CF4D300241E
:100EE00047E0264800EB04100089ADF818002348BD
:100EF00000EB04104089ADF81A00204800EB041004
:100F0000C068079006A802F051F8BDF91A00002841
:100F100007DB00F01F0201219140194A430942F802
:100F2000231000BFBDF91A000F21002804DB0A07B7
:100F3000130E144A135406E00A07150E124A00F065
:100F40000F031B1FD55400BFBDF91A0000280DDB8D
:100F500000BF00BF00F01F02012191404209920032
:100F600002F1E022C2F8001100BF00BF00BF601C08
:100F7000C4B2042CB5D30BB030BD000070440000E7
:100F800080E200E000E400E018ED00E010B586B07B
:100F900001A801F00DF80220ADF8060000240BE0D6
:100FA000074A02EB84025188054A12F8240001AA7C
:100FB00000F0EEFD601CC4B2042CF1D306B010BDED
:100FC0005444000070B5054600240FE045FA04F0D3
:100FD00000F0010040B1074A02EB84025188054A43
:100FE00012F8240000F0F4FF601CC4B2042CEDD30E
:100FF00070BD00005444000008B50021009102E0DB
:101000000099491C009100998142F9D308BD000064
:1010100010B5044600BF24B144F06900692800D12E
:1010200004E040F2BB5106A000F0BDFB00BF134836
:101030000078204008B1012010BD0020FCE700002E
:101040002E2E2F2E2E2F2E2E2F2E2E2F2E2E2F2EBB
:101050002E2F647269766572732F686333325F6C0A
:101060006C5F6472697665722F7372632F68633385
:10107000325F6C6C5F636C6B2E6300003C4005401C
:1010800070B50446002500BF0CB1012C00D104E06E
:1010900040F2023114A000F086FB00BF00BF2148DF
:1010A000008800F0010000B104E040F203310EA01E
:1010B00000F079FB00BF6CB91B48007800F0070016
:1010C000022802D16FF005050BE0012015492931F6
:1010D000087006E000201349293108704815FFF711
:1010E0008BFF284670BD00002E2E2F2E2E2F2E2E69
:1010F0002F2E2E2F2E2E2F2E2E2F64726976657294
:10110000732F686333325F6C6C5F647269766572EB
:101110002F7372632F686333325F6C6C5F636C6B29
:101120002E630000FE4305402640054070B504468E
:10113000002500BF0CB1012C00D104E040F20E519B
:101140001FA000F030FB00BF00BF2C48008800F05B
:10115000010000B104E040F20F5119A000F023FBA0
:1011600000BF64B92648007800F00700052801D1C7
:10117000C54322E001202249091D08701DE02048D6
:10118000DA300068C0F3C01030B94FF48051082045
:1011900000F0CDF9054605E04FF48051012000F044
:1011A000C6F905464DB900201549091D08704FF4D0
:1011B0008051202000F0BBF90546284670BD000094
:1011C0002E2E2F2E2E2F2E2E2F2E2E2F2E2E2F2E3A
:1011D0002E2F647269766572732F686333325F6C89
:1011E0006C5F6472697665722F7372632F68633304
:1011F000325F6C6C5F636C6B2E630000FE430540D6
:10120000264005402DE9F041044614B96FF002066E
:101210001FE100BF2079C0F3C01018B12079C0F3DE
:10122000C01000B104E040F2DF418BA000F0BBFA37
:1012300000BF00BF207900F01F00401C182805D80F
:10124000207900F01F00401C00B104E04FF49C61C5
:1012500081A000F0A8FA00BF00BF6068C0F30820BA
:10126000401CB0F5F07F06D86068C0F30820401C31
:10127000142800D304E040F2E14177A000F093FA93
:1012800000BF00BF0121606801EB1070102805D875
:10129000606801EB1070022800D304E040F2E241E4
:1012A0006DA000F080FA00BF2079C0F3C01008B92B
:1012B000784901E078480168207900F01F00401C5F
:1012C000B1FBF0F76068C0F30820401C00FB07F595
:1012D00000BF7248874203D87148874200D304E0B8
:1012E0004FF49D615CA000F05EFA00BF00BF6D4846
:1012F000854203D84010854200D304E040F2E94122
:1013000055A000F050FA00BF00BF0121606801EB5A
:101310001070B5FBF0F06449884209D8012160687B
:1013200001EB1070B5FBF0F06049884200D304E097
:1013300040F2EA4148A000F036FA00BF00BF606802
:10134000C0F30360401C102806D86068C0F3036037
:10135000401C022800D304E040F2EB413EA000F024
:1013600022FA00BF00BF6068C0F30350401C102881
:1013700006D86068C0F30350401C022800D304E084
:1013800040F2EC4134A000F00EFA00BF00BF6068EC
:10139000C0F30350401CB5FBF0F04349884209D824
:1013A0006068C0F30350401CB5FBF0F0091188429F
:1013B00000D304E040F2ED4127A000F0F4F900BFB3
:1013C00000BF6068C0F30360401CB5FBF0F0364915
:1013D000884209D86068C0F30360401CB5FBF0F098
:1013E0000911884200D304E040F2EE411AA000F057
:1013F000DAF900BF00BF2078012801D0207800B9B9
:1014000004E040F2EF4114A000F0CDF900BF00BFAE
:101410002748008800F0010000B104E04FF49E610D
:101420000DA000F0C0F900BF2079C1092148006873
:1014300061F3C7101F49086060680860207820B910
:101440000120FFF773FE064603E00020FFF76EFE63
:1014500006463046BDE8F0812E2E2F2E2E2F2E2E42
:101460002F2E2E2F2E2E2F2E2E2F64726976657220
:10147000732F686333325F6C6C5F64726976657278
:101480002F7372632F686333325F6C6C5F636C6BB6
:101490002E63000000127A000480FF1F40787D0157
:1014A00040420F0000389C1C001C4E0EC0E1E400BE
:1014B000FE430540004105400146002009B9C01E19
:1014C00022E000224A604A6822F080024A604A68AC
:1014D00022F01F024A6013234A6863F310224A6015
:1014E0004A6822F0704202F180524A604A6822F053
:1014F000706202F180724A604A6822F4700202F55A
:1015000080124A6001220A70704770B504460D4689
:101510002946204602F06AFC02F0DCFE70BD10B5E0
:101520000446204602F026FE02F0D4FE10BDF8B5B7
:1015300005460C46002000906FF0070609E028469B
:10154000FFF766FD012801D1002605E00098401C48
:1015500000900098A042F2D900BF3046F8BD0000CC
:1015600070B50446002500BF0CB1012C00D104E089
:1015700040F2CB311EA000F016F900BF00BF2B488F
:10158000008800F0010000B104E04FF4737118A06E
:1015900000F009F900BFFCB92548007800F0070009
:1015A000032802D16FF0050520E02148DA300068F9
:1015B000C0F3C01058B91E48001D007810B96FF074
:1015C000050513E001201A490C3108700EE00120D6
:1015D00017490C31087009E0002015490C310870DA
:1015E0004FF480510820FFF7A2FF0546284670BD42
:1015F0002E2E2F2E2E2F2E2E2F2E2E2F2E2E2F2E06
:101600002E2F647269766572732F686333325F6C54
:101610006C5F6472697665722F7372632F686333CF
:10162000325F6C6C5F636C6B2E630000FE430540A1
:101630002640054070B5044614B96FF002057FE0FE
:1016400000BF2078012801D0207800B904E040F2E2
:10165000A9313CA000F0A7F800BF00BF607840B1FE
:101660006078102805D06078202802D06078302873
:1016700000D104E040F2AA3132A000F094F800BF9B
:1016800000BFA07810B1A078402800D104E040F25B
:10169000AB312CA000F087F800BF00BFE0788028B5
:1016A00001D0E07800B904E04FF46B7125A000F0A0
:1016B0007AF800BF00BF2079012817D020790228CE
:1016C00014D02079032811D0207904280ED0207955
:1016D00005280BD02079062808D02079072805D0C6
:1016E0002079082802D02079092800D104E040F2AE
:1016F000AD3114A000F057F800BF00BF20480088AB
:1017000000F0010000B104E040F2AE310DA000F0A5
:101710004AF800BF20791B490870E07861780843D7
:10172000A1780843164912310870207820B90120A9
:10173000FFF716FF054603E00020FFF711FF0546FF
:10174000284670BD2E2E2F2E2E2F2E2E2F2E2E2FD2
:101750002E2E2F2E2E2F647269766572732F68637A
:1017600033325F6C6C5F6472697665722F7372637B
:101770002F686333325F6C6C5F636C6B2E630000A9
:10178000FE430540A24005400146002009B9C01EA5
:1017900008E001220A7000228A704A708022CA7012
:1017A00005220A71704700BFFEE7000008B50D4929
:1017B000096AC1F302630C490968D94042F2107307
:1017C0001944491EB1FBF3F206E0009200BF0099F4
:1017D0004B1E00930029FAD1011EA0F10100F4D1A3
:1017E00008BD0000004005400080FF1F08B50C49FF
:1017F000096AC1F302630B490968D9400A4B1944CD
:10180000491EB1FBF3F206E0009200BF00994B1EA7
:1018100000930029FAD1011EA0F10100F4D108BD06
:10182000004005400080FF1F8096980070B5044678
:10183000002500BF1D480068012800D104E040F2E7
:1018400007111BA0FFF7AFFF00BF00BFF02C00D8AF
:1018500004E04FF4847116A0FFF7A5FF00BF134802
:101860000830006820F0F00004F0F00108430F4950
:101870000831086010E06D1C1C48006AC0F302616A
:101880001B480068C84044F62061B0FBF1F0A84254
:1018900002D26FF0070070BD04480830006800F005
:1018A000F000A042E7D10020F5E70000000401406D
:1018B0002E2E2F2E2E2F2E2E2F2E2E2F2E2E2F2E43
:1018C0002E2F647269766572732F686333325F6C92
:1018D0006C5F6472697665722F7372632F6863330D
:1018E000325F6C6C5F65666D2E63000000400540E2
:1018F0000080FF1F10B5044600BF3CB14FF6FF70DB
:1019000020434FF6FF71884200D104E040F20321EA
:101910000448FFF748FF00BF0348806D2043024999
:10192000886510BDB04400000010054010B50446A5
:1019300000BF3CB14FF6FF7020434FF6FF71884265
:1019400000D104E04FF404710548FFF72CFF00BFFD
:101950000448406D204008B1012010BD0020FCE784
:10196000B0440000001005402DE9F04706460C4643
:101970004FF0000914B96FF0020958E000BF3EB102
:101980004FF6FF7030434FF6FF71884200D104E0FC
:1019900040F2D3112748FFF706FF00BF00BF2068C1
:1019A00010B12068802800D104E04FF4EA7121488A
:1019B000FFF7F9FE00BF00BF606840B16068102803
:1019C00005D06068202802D06068302800D104E08B
:1019D00040F2D5111748FFF7E6FE00BF00BFA06830
:1019E000032807D0A068012804D0A06810B1A0681F
:1019F000022800D104E04FF4EB710E48FFF7D3FE4C
:101A000000BF002511E00120A840304058B1D4E9C2
:101A100000010843A16840EA01070748042101FBCF
:101A20000508C8F80070681CC5B2102DEBD34846F5
:101A3000BDE8F087B04400001010054001460020CA
:101A400009B9C01E03E000220A604A608A6070473C
:101A500070B504460D4600BF2CB117482043164907
:101A6000884200D103E0712114A0FFF79CFE00BF63
:101A700000BF0DB1012D00D103E072210FA0FFF7CF
:101A800092FE00BF00BF1C48006900F0010000B1D9
:101A900003E0732109A0FFF786FE00BF012D05D1E9
:101AA00015480068A0431449086004E01248006823
:101AB00020431149086070BD11C5F38F2E2E2F2EC3
:101AC0002E2F2E2E2F2E2E2F2E2E2F2E2E2F6472B7
:101AD00069766572732F686333325F6C6C5F647212
:101AE000697665722F7372632F686333325F6C6C33
:101AF0005F6663672E6300000080044070B5044693
:101B00000D4600BF2CB1114820431049884200D136
:101B100003E084210EA0FFF746FE00BF00BF0DB119
:101B2000012D00D103E0852109A0FFF73CFE00BF95
:101B3000012D05D115484068A0431449486004E0D0
:101B40001248406820431149486070BD79FD0F0F6D
:101B50002E2E2F2E2E2F2E2E2F2E2E2F2E2E2F2EA0
:101B60002E2F647269766572732F686333325F6CEF
:101B70006C5F6472697665722F7372632F6863336A
:101B8000325F6C6C5F6663672E6300000080044008
:101B90002DE9F05F05460F4614464FF0000B14B9CF
:101BA0006FF0020BD5E000BF6B48008800F0010029
:101BB00000B103E0FF2169A0FFF7F5FD00BF00BF02
:101BC0004DB1012D07D0022D05D0032D03D0042DDA
:101BD00001D0052D00D104E04FF480715FA0FFF724
:101BE000E2FD00BF00BF17B1B8B200B104E040F29F
:101BF00001115AA0FFF7D7FD00BF00BF208810B128
:101C00002088012800D104E04FF4817153A0FFF730
:101C1000CAFD00BF00BF608810B16088022800D1F3
:101C200004E040F203114DA0FFF7BDFD00BF00BF6F
:101C3000A08810B1A088042800D104E04FF482717C
:101C400046A0FFF7B0FD00BF00BFE08828B1E088E4
:101C5000102802D0E088202800D104E040F20511CD
:101C60003EA0FFF7A0FD00BF00BF208918B120896A
:101C7000B0F5804F00D104E04FF4837137A0FFF737
:101C800092FD00BF00BF608910B16089402800D17B
:101C900004E040F2071131A0FFF785FD00BF00BF4F
:101CA000A08918B1A089B0F5007F00D104E04FF4FD
:101CB00084712AA0FFF777FD00BF00BFE08918B14B
:101CC000E089B0F5805F00D104E040F2091123A063
:101CD000FFF769FD00BF00BF208A18B1208AB0F568
:101CE000004F00D104E04FF485711CA0FFF75BFDAD
:101CF00000BF00262BE00120B040384028B32088E8
:101D000061880843A1880843E18808436189084342
:101D1000A1890843E1890843218940EA010A45F283
:101D20007728208A40EA0A0A48F400480A48001D39
:101D300000EB851000EB8609B9F8000020EA0800E6
:101D40000AEA08010843A9F80000701CC6B2102E68
:101D5000D1D35846BDE8F09FFC3B05402E2E2F2ED8
:101D60002E2F2E2E2F2E2E2F2E2E2F2E2E2F647214
:101D700069766572732F686333325F6C6C5F64726F
:101D8000697665722F7372632F686333325F6C6C90
:101D90005F6770696F2E630070B504460D4600BF23
:101DA0004CB1012C07D0022C05D0032C03D0042CFD
:101DB00001D0052C00D104E040F2F1110CA0FFF796
:101DC000F2FC00BF00BF15B1A8B200B104E04FF4AF
:101DD000F97107A0FFF7E7FC00BF144901EB0410FD
:101DE000B0F80008284008B1012070BD0020FCE7D1
:101DF0002E2E2F2E2E2F2E2E2F2E2E2F2E2E2F2EFE
:101E00002E2F647269766572732F686333325F6C4C
:101E10006C5F6472697665722F7372632F686333C7
:101E2000325F6C6C5F6770696F2E63000030054035
:101E30002DE9F04104460F46164600BF4CB1012C77
:101E400007D0022C05D0032C03D0042C01D0052C84
:101E500000D104E040F277111EA0FFF7A4FC00BF00
:101E600000BF17B1B8B200B104E04FF4BC7119A0C3
:101E7000FFF799FC00BF00BF0F2E03D9202E02D31D
:101E80003B2E00D804E040F2791112A0FFF78BFC42
:101E900000BF00BF1E48008800F0010000B104E050
:101EA0004FF4BD710BA0FFF77EFC00BF00250DE0D5
:101EB0000120A840384038B11548801D00EB84103F
:101EC00000EB8508A8F80060681CC5B2102DEFD3A0
:101ED000BDE8F0812E2E2F2E2E2F2E2E2F2E2E2FC0
:101EE0002E2E2F2E2E2F647269766572732F6863E3
:101EF00033325F6C6C5F6472697665722F737263E4
:101F00002F686333325F6C6C5F6770696F2E63009C
:101F1000FC3B054010B5044600BF44B1B4F5804F0A
:101F200005D0B4F5004F02D0B4F5404F00D104E025
:101F300040F2CD110EA0FFF736FC00BF00BF1B48DA
:101F4000008800F0010000B104E04FF4E77108A040
:101F5000FFF729FC00BF1548001F0088C0F30D00E3
:101F600004F4404108431149091F088010BD0000D6
:101F70002E2E2F2E2E2F2E2E2F2E2E2F2E2E2F2E7C
:101F80002E2F647269766572732F686333325F6CCB
:101F90006C5F6472697665722F7372632F68633346
:101FA000325F6C6C5F6770696F2E6300FC3B0540AD
:101FB0000146002009B9C01E09E000220A804A80BB
:101FC000CA800A820A814A818A81CA818A807047CE
:101FD00070B504460D4600BF4CB1012C07D0022C51
:101FE00005D0032C03D0042C01D0052C00D104E033
:101FF0004FF418710BA0FFF7D6FB00BF00BF15B15F
:10200000A8B200B104E040F2612106A0FFF7CBFBCB
:1020100000BF1348102101FB04063088284330809C
:1020200070BD00002E2E2F2E2E2F2E2E2F2E2E2F57
:102030002E2E2F2E2E2F647269766572732F686391
:1020400033325F6C6C5F6472697665722F73726392
:102050002F686333325F6C6C5F6770696F2E63004B
:102060000C38054070B504460D4600BF1148844247
:1020700005D01148844202D01048844200D104E0C7
:102080004FF431710EA0FFF78EFB00BF00BF15B1FA
:10209000B5F5806F00D104E040F2C52108A0FFF73C
:1020A00082FB00BF206820F4806005F48061084353
:1020B000206070BD00E0044000E4044000E80440FB
:1020C0002E2E2F2E2E2F2E2E2F2E2E2F2E2E2F2E2B
:1020D0002E2F647269766572732F686333325F6C7A
:1020E0006C5F6472697665722F7372632F686333F5
:1020F000325F6C6C5F6932632E6300002DE9F04F34
:102100008DB005460C4616464FF0000A00200A9096
:10211000022009900020059004B116B96FF0020A60
:10212000E3E000BF7648854205D07648854202D07C
:102130007548854200D104E04FF4847173A0FFF725
:1021400032FB00BF00BF606820B17F4960688842F1
:1021500000D804E040F209116CA0FFF724FB00BF97
:1021600000BF2068072800D804E04FF4857167A0FD
:10217000FFF719FB00BF7548006AC0F302317448CD
:10218000006820FA01F82178012000FA01F7A06820
:102190000C9060680B90286B00F0100020B1286B49
:1021A00000F00300401C0A90206808B90320099041
:1021B000002F7CD03846FEF703F904900B98FEF709
:1021C000FFF803904046FEF7FBF802900399FEF7F4
:1021D00059F983460499FEF755F981460C98FEF7A4
:1021E000EFF804900A98FEF7EBF84FF08041019069
:1021F000FEF716F902900998FEF7E2F84FF08041D9
:102200000190FEF70DF983460299FEF781F80390DD
:102210000499FEF77DF8079048460799FEF7CAF83B
:1022200006904846FEF7F4FA0390FEF7C9F84946CF
:102230000490FEF7C2F883464FF07C51FEF718FB7E
:102240000CD84846FEF7E4FA0490FEF7B9F8834646
:102250004FF07E51FEF75CF8814606E04846FEF7F7
:10226000D7FA8346FEF7ACF8814648460799FEF751
:10227000BDF802D86FF0020A37E036490698FEF73B
:10228000F7FA02D26FF0020A2FE04846FEF7C0FAD2
:10229000B8FBF0F0B0FBF7F008900898FEF790F864
:1022A00004900898FEF78CF803900B9800E01AE071
:1022B000FEF786F802900399FEF77CF883460499AE
:1022C000FEF7E0F805900698FEF7A2FA400821888C
:1022D00040EA014B0698FEF79BFAA0EB50004BEA50
:1022E0000020E86201E06FF0020A26B1BAF1000FA7
:1022F00001D10598306050460DB0BDE8F08F000068
:1023000000E0044000E4044000E804402E2E2F2E9C
:102310002E2F2E2E2F2E2E2F2E2E2F2E2E2F64725E
:1023200069766572732F686333325F6C6C5F6472B9
:10233000697665722F7372632F686333325F6C6CDA
:102340005F6932632E630000801A0600004005407A
:102350000080FF1F0000784270B504460D4600BFA4
:102360001348844205D01348844202D01248844264
:1023700000D104E04FF4EC7110A0FFF714FA00BF95
:1023800000BF0DB1012D00D104E040F2D9110BA026
:10239000FFF709FA00BF012D04D1E06840F4806026
:1023A000E06003E0E06820F48060E06070BD000061
:1023B00000E0044000E4044000E804402E2E2F2EEC
:1023C0002E2F2E2E2F2E2E2F2E2E2F2E2E2F6472AE
:1023D00069766572732F686333325F6C6C5F647209
:1023E000697665722F7372632F686333325F6C6C2A
:1023F0005F6932632E63000070B504460D4600BF6E
:102400000F48844205D00F48844202D00E488442CF
:1024100000D104E040F271210CA0FFF7C4F900BF25
:1024200000BF2DB1184828431749884200D104E065
:1024300040F2722105A0FFF7B6F900BF256270BD1A
:1024400000E0044000E4044000E804402E2E2F2E5B
:102450002E2F2E2E2F2E2E2F2E2E2F2E2E2F64721D
:1024600069766572732F686333325F6C6C5F647278
:10247000697665722F7372632F686333325F6C6C99
:102480005F6932632E630000DF52F00070B50446CE
:102490000D4600BF0F48844205D00F48844202D049
:1024A0000E48844200D104E040F2B5110CA0FFF7C1
:1024B0007AF900BF00BF0DB1012D00D104E04FF447
:1024C000DB7107A0FFF76FF900BF206865F300001C
:1024D000206070BD00E0044000E4044000E80440D7
:1024E0002E2E2F2E2E2F2E2E2F2E2E2F2E2E2F2E07
:1024F0002E2F647269766572732F686333325F6C56
:102500006C5F6472697665722F7372632F686333D0
:10251000325F6C6C5F6932632E63000010B5044655
:1025200000BF0C48844205D00B48844202D00B48BF
:10253000844200D104E04FF4A77109A0FFF733F9FA
:1025400000BF206820F001002060206840F40040B7
:10255000206010BD00E0044000E4044000E80440B6
:102560002E2E2F2E2E2F2E2E2F2E2E2F2E2E2F2E86
:102570002E2F647269766572732F686333325F6CD5
:102580006C5F6472697665722F7372632F68633350
:10259000325F6C6C5F6932632E63000010B50446D5
:1025A00000BF0A48844205D00948844202D0094845
:1025B000844200D103E0BF2107A0FFF7F4F800BF79
:1025C000206840F48070206010BD000000E00440EE
:1025D00000E4044000E804402E2E2F2E2E2F2E2E35
:1025E0002F2E2E2F2E2E2F2E2E2F6472697665728F
:1025F000732F686333325F6C6C5F647269766572E7
:102600002F7372632F686333325F6C6C5F69326360
:102610002E63000010B5044600BF0A48844205D06E
:102620000948844202D00948844200D103E0D921FC
:1026300007A0FFF7B8F800BF206840F400702060E2
:1026400010BD000000E0044000E4044000E8044045
:102650002E2E2F2E2E2F2E2E2F2E2E2F2E2E2F2E95
:102660002E2F647269766572732F686333325F6CE4
:102670006C5F6472697665722F7372632F6863335F
:10268000325F6C6C5F6932632E63000070B5044684
:102690000D4600BF1248844205D01248844202D041
:1026A0001148844200D104E040F253210FA0FFF70B
:1026B0007AF800BF00BF2DB11B4828431A49884251
:1026C00000D104E04FF4157108A0FFF76CF800BFCB
:1026D000E069284008B1012070BD0020FCE700003F
:1026E00000E0044000E4044000E804402E2E2F2EB9
:1026F0002E2F2E2E2F2E2E2F2E2E2F2E2E2F64727B
:1027000069766572732F686333325F6C6C5F6472D5
:10271000697665722F7372632F686333325F6C6CF6
:102720005F6932632E630000DF56F7002DE9F04148
:1027300004460D46174615B96FF0020647E000BF84
:102740002448844205D02448844202D0234884424D
:1027500000D104E04FF4BB7121A0FFF724F800BFC3
:1027600000BF686820B12D496868884200D804E03D
:1027700040F277111AA0FFF716F800BF00BF2868D3
:10278000072800D804E04FF4BC7115A0FFF70BF840
:1027900000BF206820F001002060206840F4004065
:1027A0002060206840F0010020603A46294620461B
:1027B000FFF7A4FC0646206820F040002060206857
:1027C00020F400402060206820F0010020603046A6
:1027D000BDE8F08100E0044000E4044000E804406B
:1027E0002E2E2F2E2E2F2E2E2F2E2E2F2E2E2F2E04
:1027F0002E2F647269766572732F686333325F6C53
:102800006C5F6472697665722F7372632F686333CD
:10281000325F6C6C5F6932632E630000801A0600C1
:102820002DE9F04706460F46154699464FF0000839
:1028300000BF3248864205D03148864202D0314836
:10284000864200D104E04FF488612FA0FEF7ABFF71
:1028500000BF002F4CD0B06800F0800A00243FE099
:102860004B4601224021304600F0F6FA8046BAF18C
:10287000000F0AD1022D15D3A81EA04212D14FF489
:1028800080613046FFF7EEFB0CE0681EA04204D0EA
:1028900000213046FFF7E6FB04E04FF4806130464C
:1028A000FFF7E0FBB8F1000F18D1681EA04206D177
:1028B00010213046FFF7A0FD3046FFF7ABFE304653
:1028C00000F0B4F83855681EA04208D14B460122EA
:1028D0001021304600F0C0FA804600E002E0641C9F
:1028E000AC42BDD300BF00213046FFF7BBFB01E087
:1028F0006FF002084046BDE8F087000000E00440A9
:1029000000E4044000E804402E2E2F2E2E2F2E2E01
:102910002F2E2E2F2E2E2F2E2E2F6472697665725B
:10292000732F686333325F6C6C5F647269766572B3
:102930002F7372632F686333325F6C6C5F6932632D
:102940002E6300002DE9F0410546884616461F46D5
:1029500001211B48FFF79AFD0121194800F0A0F85A
:102960000021174800F09CF83946154800F0E0F8BF
:102970000446C4B9012E03D1B1021148FFF772FB1E
:102980003B46012229460E4800F080F9044634B93E
:102990003B46324641460A48FFF742FF04460021C3
:1029A0000748FFF75FFB1CB13946054800F010F9F6
:1029B00000210348FFF76AFD2046BDE8F0810000D2
:1029C00000E804402DE9F04105460F4690461E46BA
:1029D00001211548FFF75AFD0121134800F060F866
:1029E0000021114800F05CF831460F4800F0A0F8D3
:1029F000044674B93346002229460B4800F046F9D4
:102A0000044634B9334642463946074800F0BAF91D
:102A100004463146044800F0DBF800210248FFF785
:102A200035FD2046BDE8F08100E8044010B50446BD
:102A300000BF0948844205D00848844202D00848B3
:102A4000844200D104E040F2B52106A0FEF7ABFEBF
:102A500000BF94F8280010BD00E0044000E40440EA
:102A600000E804402E2E2F2E2E2F2E2E2F2E2E2F0E
:102A70002E2E2F2E2E2F647269766572732F686347
:102A800033325F6C6C5F6472697665722F73726348
:102A90002F686333325F6C6C5F6932632E630000B2
:102AA00070B504460D4600BF0F48844205D00F485C
:102AB000844202D00E48844200D104E040F28121D9
:102AC0000CA0FEF770FE00BF00BF0DB1012D00D1BC
:102AD00004E040F2822107A0FEF765FE00BF2068F7
:102AE00065F3CF30206070BD00E0044000E4044096
:102AF00000E804402E2E2F2E2E2F2E2E2F2E2E2F7E
:102B00002E2E2F2E2E2F647269766572732F6863B6
:102B100033325F6C6C5F6472697665722F737263B7
:102B20002F686333325F6C6C5F6932632E63000021
:102B300070B504460E4600BF1248844205D01248C4
:102B4000844202D01148844200D104E040F2313185
:102B50000FA0FEF728FE00BF334600224FF40031DD
:102B6000204600F079F905464DB92046FFF716FDDD
:102B7000334601221549204600F06EF905462846E5
:102B800070BD000000E0044000E4044000E80440A0
:102B90002E2E2F2E2E2F2E2E2F2E2E2F2E2E2F2E50
:102BA0002E2F647269766572732F686333325F6C9F
:102BB0006C5F6472697665722F7372632F6863331A
:102BC000325F6C6C5F6932632E63000001000200AB
:102BD00070B504460D4600BF1448844205D0144821
:102BE000844202D01348844200D104E040F27B4189
:102BF00011A0FEF7D8FD00BF04E010212046FFF72A
:102C0000FBFB6D1E10212046FFF740FD012801D17E
:102C1000002DF2D12046FFF7FDFC2B4601221021AA
:102C2000204600F019F90646304670BD00E0044029
:102C300000E4044000E804402E2E2F2E2E2F2E2ECE
:102C40002F2E2E2F2E2E2F2E2E2F64726976657228
:102C5000732F686333325F6C6C5F64726976657280
:102C60002F7372632F686333325F6C6C5F693263FA
:102C70002E6300000146002009B9C01E05E04CF299
:102C800050324A6000228A600A6070472DE9F041A4
:102C900005460F461446984600BF2848854205D091
:102CA0002748854202D02748854200D104E040F2FF
:102CB0006A3125A0FEF777FD00BF00BF0CB1012CE3
:102CC00000D104E040F26B311FA0FEF76CFD00BFA5
:102CD00000BF7F2F00D804E04FF45B711AA0FEF70D
:102CE00062FD00BF434601228021284600F0B4F86F
:102CF0000646FEB9780644EA1061284600F01AF943
:102D00003CB9434601220821284600F0A5F80646B2
:102D100007E0434600224FF48021284600F09CF84B
:102D200006463EB94FF480512846FFF7AFFC012814
:102D300000D1861E3046BDE8F081000000E004406E
:102D400000E4044000E804402E2E2F2E2E2F2E2EBD
:102D50002F2E2E2F2E2E2F2E2E2F64726976657217
:102D6000732F686333325F6C6C5F6472697665726F
:102D70002F7372632F686333325F6C6C5F693263E9
:102D80002E6300002DE9F84304460D461746984689
:102D900000260020009000BF1D48844205D01D4839
:102DA000844202D01C48844200D104E040F2DE316B
:102DB0001AA0FEF7F8FC00BF2DB31EE04346012227
:102DC0008021204600F048F80646B6B90098295CF4
:102DD000204600F0AFF8434601220821204600F0CB
:102DE0003BF806464FF480512046FFF74FFC012880
:102DF00000D107E00098401C00900098B84201D034
:102E0000002EDBD001E06FF002063046BDE8F8830B
:102E100000E0044000E4044000E804402E2E2F2E81
:102E20002E2F2E2E2F2E2E2F2E2E2F2E2E2F647243
:102E300069766572732F686333325F6C6C5F64729E
:102E4000697665722F7372632F686333325F6C6CBF
:102E50005F6932632E6300002DE9F04704460D469A
:102E600016461F466FF0070900BF1F48844205D071
:102E70001E48844202D01E48844200D103E0A321B0
:102E80001CA0FEF790FC00BF00BF2DB128482843CE
:102E90002749884200D103E0A42116A0FEF783FC55
:102EA00000BF00BF0EB1012E00D103E0A52111A08B
:102EB000FEF779FC00BF00BFE06900EA0508012EBB
:102EC00001D1454503D026B9B8F1000F01D14FF02B
:102ED0000009B9F1000F00D007B901E07F1EEBE750
:102EE00000BF4846BDE8F08700E0044000E404402D
:102EF00000E804402E2E2F2E2E2F2E2E2F2E2E2F7A
:102F00002E2E2F2E2E2F647269766572732F6863B2
:102F100033325F6C6C5F6472697665722F737263B3
:102F20002F686333325F6C6C5F6932632E6300001D
:102F3000DF56F70070B504460D4600BF09488442CD
:102F400005D00948844202D00848844200D104E0F8
:102F500040F2A72106A0FEF726FC00BF84F824500B
:102F600070BD000000E0044000E4044000E80440BC
:102F70002E2E2F2E2E2F2E2E2F2E2E2F2E2E2F2E6C
:102F80002E2F647269766572732F686333325F6CBB
:102F90006C5F6472697665722F7372632F68633336
:102FA000325F6C6C5F6932632E63000070B504465B
:102FB00000260CB9F61E4BE000BF2088B0F5007F5C
:102FC00000DA03E0C3212348FEF7EDFB00BF2088B1
:102FD000400900EB4000202101EB4000B4F9021051
:102FE00088420AD82088400900EB4000252101EBE7
:102FF0004000B4F90210884206D2B4F90200202839
:1030000002D36FF0020623E060881349042212FB0A
:1030100000152868C0F3080040F2FF11884208D16B
:1030200020882860B4F902100C4A606842F8210038
:103030000EE020882968C1F30801884206D1B4F95E
:103040000210064A606842F8210001E06FF00106B4
:10305000304670BDB04400005C1005400C82FF1F7C
:1030600010B502490868804710BD00000C82FF1FA0
:1030700010B502494868804710BD00000C82FF1F50
:1030800010B502498868804710BD00000C82FF1F00
:1030900010B50249C868804710BD00000C82FF1FB0
:1030A00010B502490869804710BD00000C82FF1F5F
:1030B00010B502494869804710BD00000C82FF1F0F
:1030C00010B502498869804710BD00000C82FF1FBF
:1030D00010B50249C869804710BD00000C82FF1F6F
:1030E00010B50249086A804710BD00000C82FF1F1E
:1030F00010B50249486A804710BD00000C82FF1FCE
:1031000010B50249886A804710BD00000C82FF1F7D
:1031100010B50249C86A804710BD00000C82FF1F2D
:1031200010B50249086B804710BD00000C82FF1FDC
:1031300010B50249486B804710BD00000C82FF1F8C
:1031400010B50249886B804710BD00000C82FF1F3C
:1031500010B50249C86B804710BD00000C82FF1FEC
:1031600010B50249086C804710BD00000C82FF1F9B
:1031700010B50249486C804710BD00000C82FF1F4B
:1031800010B50249886C804710BD00000C82FF1FFB
:1031900010B50249C86C804710BD00000C82FF1FAB
:1031A00010B50249086D804710BD00000C82FF1F5A
:1031B00010B50249486D804710BD00000C82FF1F0A
:1031C00010B50249886D804710BD00000C82FF1FBA
:1031D00010B50249C86D804710BD00000C82FF1F6A
:1031E00010B50249086E804710BD00000C82FF1F19
:1031F00010B50249486E804710BD00000C82FF1FC9
:1032000010B50249886E804710BD00000C82FF1F78
:1032100010B50249C86E804710BD00000C82FF1F28
:1032200010B50249086F804710BD00000C82FF1FD7
:1032300010B50249486F804710BD00000C82FF1F87
:1032400010B50249886F804710BD00000C82FF1F37
:1032500010B50249C86F804710BD00000C82FF1FE7
:1032600010B50249D1F88000804710BD0C82FF1FC5
:1032700010B50249D1F88400804710BD0C82FF1FB1
:1032800010B50249D1F88800804710BD0C82FF1F9D
:1032900010B50249D1F88C00804710BD0C82FF1F89
:1032A00010B50249D1F89000804710BD0C82FF1F75
:1032B00010B50249D1F89400804710BD0C82FF1F61
:1032C00010B50249D1F89800804710BD0C82FF1F4D
:1032D00010B50249D1F89C00804710BD0C82FF1F39
:1032E00010B50249D1F8A000804710BD0C82FF1F25
:1032F00010B50249D1F8A400804710BD0C82FF1F11
:1033000010B50249D1F8A800804710BD0C82FF1FFC
:1033100010B50249D1F8AC00804710BD0C82FF1FE8
:1033200010B50249D1F8B000804710BD0C82FF1FD4
:1033300010B50249D1F8B400804710BD0C82FF1FC0
:1033400010B50249D1F8B800804710BD0C82FF1FAC
:1033500010B50249D1F8BC00804710BD0C82FF1F98
:1033600010B50249D1F8C000804710BD0C82FF1F84
:1033700010B50249D1F8C400804710BD0C82FF1F70
:1033800010B50249D1F8C800804710BD0C82FF1F5C
:1033900010B50249D1F8CC00804710BD0C82FF1F48
:1033A00010B50249D1F8D000804710BD0C82FF1F34
:1033B00010B50249D1F8D400804710BD0C82FF1F20
:1033C00010B50249D1F8D800804710BD0C82FF1F0C
:1033D00010B50249D1F8DC00804710BD0C82FF1FF8
:1033E00010B50249D1F8E000804710BD0C82FF1FE4
:1033F00010B50249D1F8E400804710BD0C82FF1FD0
:1034000010B50249D1F8E800804710BD0C82FF1FBB
:1034100010B50249D1F8EC00804710BD0C82FF1FA7
:1034200010B50249D1F8F000804710BD0C82FF1F93
:1034300010B50249D1F8F400804710BD0C82FF1F7F
:1034400010B50249D1F8F800804710BD0C82FF1F6B
:1034500010B50249D1F8FC00804710BD0C82FF1F57
:1034600010B50249D1F80001804710BD0C82FF1F42
:1034700010B50249D1F80401804710BD0C82FF1F2E
:1034800010B50249D1F80801804710BD0C82FF1F1A
:1034900010B50249D1F80C01804710BD0C82FF1F06
:1034A00010B50249D1F81001804710BD0C82FF1FF2
:1034B00010B50249D1F81401804710BD0C82FF1FDE
:1034C00010B50249D1F81801804710BD0C82FF1FCA
:1034D00010B50249D1F81C01804710BD0C82FF1FB6
:1034E00010B50249D1F82001804710BD0C82FF1FA2
:1034F00010B50249D1F82401804710BD0C82FF1F8E
:1035000010B50249D1F82801804710BD0C82FF1F79
:1035100010B50249D1F82C01804710BD0C82FF1F65
:1035200010B50249D1F83001804710BD0C82FF1F51
:1035300010B50249D1F83401804710BD0C82FF1F3D
:1035400010B50249D1F83801804710BD0C82FF1F29
:1035500010B50249D1F83C01804710BD0C82FF1F15
:1035600010B50249D1F84001804710BD0C82FF1F01
:1035700010B50249D1F84401804710BD0C82FF1FED
:1035800010B50249D1F84801804710BD0C82FF1FD9
:1035900010B50249D1F84C01804710BD0C82FF1FC5
:1035A00010B50249D1F85001804710BD0C82FF1FB1
:1035B00010B50249D1F85401804710BD0C82FF1F9D
:1035C00010B50249D1F85801804710BD0C82FF1F89
:1035D00010B50249D1F85C01804710BD0C82FF1F75
:1035E00010B50249D1F86001804710BD0C82FF1F61
:1035F00010B50249D1F86401804710BD0C82FF1F4D
:1036000010B50249D1F86801804710BD0C82FF1F38
:1036100010B50249D1F86C01804710BD0C82FF1F24
:1036200010B50249D1F87001804710BD0C82FF1F10
:1036300010B50249D1F87401804710BD0C82FF1FFC
:1036400010B50249D1F87801804710BD0C82FF1FE8
:1036500010B50249D1F87C01804710BD0C82FF1FD4
:1036600010B50249D1F88001804710BD0C82FF1FC0
:1036700010B50249D1F88401804710BD0C82FF1FAC
:1036800010B50249D1F88801804710BD0C82FF1F98
:1036900010B50249D1F88C01804710BD0C82FF1F84
:1036A00010B50249D1F89001804710BD0C82FF1F70
:1036B00010B50249D1F89401804710BD0C82FF1F5C
:1036C00010B50249D1F89801804710BD0C82FF1F48
:1036D00010B50249D1F89C01804710BD0C82FF1F34
:1036E00010B50249D1F8A001804710BD0C82FF1F20
:1036F00010B50249D1F8A401804710BD0C82FF1F0C
:1037000010B50249D1F8A801804710BD0C82FF1FF7
:1037100010B50249D1F8AC01804710BD0C82FF1FE3
:1037200010B50249D1F8B001804710BD0C82FF1FCF
:1037300010B50249D1F8B401804710BD0C82FF1FBB
:1037400010B50249D1F8B801804710BD0C82FF1FA7
:1037500010B50249D1F8BC01804710BD0C82FF1F93
:1037600010B50249D1F8C001804710BD0C82FF1F7F
:1037700010B50249D1F8C401804710BD0C82FF1F6B
:1037800010B50249D1F8C801804710BD0C82FF1F57
:1037900010B50249D1F8CC01804710BD0C82FF1F43
:1037A00010B50249D1F8D001804710BD0C82FF1F2F
:1037B00010B50249D1F8D401804710BD0C82FF1F1B
:1037C00010B50249D1F8D801804710BD0C82FF1F07
:1037D00010B50249D1F8DC01804710BD0C82FF1FF3
:1037E00010B50249D1F8E001804710BD0C82FF1FDF
:1037F00010B50249D1F8E401804710BD0C82FF1FCB
:1038000010B50249D1F8E801804710BD0C82FF1FB6
:1038100010B50249D1F8EC01804710BD0C82FF1FA2
:1038200010B50249D1F8F001804710BD0C82FF1F8E
:1038300010B50249D1F8F401804710BD0C82FF1F7A
:1038400010B50249D1F8F801804710BD0C82FF1F66
:1038500010B50249D1F8FC01804710BD0C82FF1F52
:1038600010B5044600BF0CB1012C00D103E0962135
:1038700003A0FDF798FF00BF1148046010BD0000D1
:103880002E2E2F2E2E2F2E2E2F2E2E2F2E2E2F2E53
:103890002E2F647269766572732F686333325F6CA2
:1038A0006C5F6472697665722F7372632F6863331D
:1038B000325F6C6C5F6B65797363616E2E630000C1
:1038C000040C054070B5044600250CB9ED1ED5E08A
:1038D00000BF2068D8B12068B0F1005F17D0206821
:1038E000B0F1804F13D02068B0F1C04F0FD02068E6
:1038F000B0F1004F0BD02068B0F1204F07D0206806
:10390000B0F1404F03D02068B0F1604F00D103E028
:10391000C5215BA0FDF747FF00BF00BF6068B0F1A5
:10392000007F57D06068B0F1407F53D06068B0F13D
:10393000806F4FD06068B0F1A06F4BD06068B0F17D
:10394000C06F47D06068B0F1E06F43D06068B0F1FD
:10395000006F3FD06068B0F1106F3BD06068B0F18D
:10396000206F37D06068B0F1306F33D06068B0F14D
:10397000406F2FD06068B0F1506F2BD06068B0F10D
:10398000606F27D06068B0F1706F23D06068B0F1CD
:10399000805F1FD06068B0F1885F1BD06068B0F1B5
:1039A000905F17D06068B0F1985F13D06068B0F195
:1039B000A05F0FD06068B0F1A85F0BD06068B0F175
:1039C000B05F07D06068B0F1B85F03D06068B0F155
:1039D000C05F00D103E0C62129A0FDF7E4FE00BFCF
:1039E00000BFA06838B1A068B0F5801F03D0A06800
:1039F000B0F5001F00D103E0C72121A0FDF7D3FEE1
:103A000000BF00BFE068B0F5803F17D0E068B0F5B8
:103A1000003F13D0E068B0F5403F0FD0E068B0F54C
:103A2000802F0BD0E068B0F5A02F07D0E068B0F58C
:103A3000C02F03D0E068B0F5E02F00D103E0C8212B
:103A40000FA0FDF7B0FE00BF00BF206930B14FF6F8
:103A5000FF7120690843884200D103E0C92108A012
:103A6000FDF7A1FE00BFD4E900010843A1680843A7
:103A7000E16808432169084311490860284670BD80
:103A80002E2E2F2E2E2F2E2E2F2E2E2F2E2E2F2E51
:103A90002E2F647269766572732F686333325F6CA0
:103AA0006C5F6472697665722F7372632F6863331B
:103AB000325F6C6C5F6B65797363616E2E630000BF
:103AC000000C05400146002009B9C01E0BE0002291
:103AD0000A604FF000724A6000228A604FF4803220
:103AE000CA6001220A61704710B5044604F0010063
:103AF00048B100BF40F223101A49086043F2102079
:103B0000086000BF00BF04F0020028B100BF1648E3
:103B10001649086100BF00BF04F0040030B100BFC7
:103B20004AF201501249088000BF00BF04F01000A3
:103B300018B14AF2085000F0D1F804F0400018B172
:103B40004AF2035000F0CAF804F0800040B100BF10
:103B500077200849086007490831086000BF00BFA6
:103B600010BD0000000401400100A5A50080044034
:103B7000FC3B05400408054010B5044604F0010074
:103B800028B100BF00201949086000BF00BF04F041
:103B9000020028B100BF16481649086100BF00BFE7
:103BA00004F0040030B100BF4FF4254012490880F2
:103BB00000BF00BF04F0100018B14AF2085000F036
:103BC0007FF804F0400018B14AF2035000F078F892
:103BD00004F0800040B100BF762008490860074922
:103BE0000831086000BF00BF10BD000000040140A4
:103BF0000000A5A500800440FC3B054004080540EA
:103C00001FB50C48FEF78AFC01A8FFF733F8012026
:103C1000019009480290032003906A4601A90548D3
:103C2000FEF784FD044601210248FEF795FB20467D
:103C300004B010BD00E80440801A060010B500BFB3
:103C40000F48008800F00200022800D104E040F292
:103C50003F410CA0FDF7A7FD00BF0948001D0078FB
:103C600000F0C00040F00F000549091D0870102049
:103C70000349113108701E20FDF7B8FD002010BD6A
:103C8000FE4305402E2E2F2E2E2F2E2E2F2E2E2F82
:103C90002E2E2F2E2E2F647269766572732F686315
:103CA00033325F6C6C5F6472697665722F73726316
:103CB0002F686333325F6C6C5F7077632E63000034
:103CC00004490988814341F42541034AA2F8FE13BF
:103CD00070470000FE430540004005400349098845
:103CE0000143034AA2F8FE1370470000FE4305405B
:103CF000004005402DE9F04704460F4690464FF03E
:103D0000000900BF24B144F00F000F2800D103E0E8
:103D1000AA2126A0FDF747FD00BF00BF072F00D84E
:103D200003E0AB2121A0FDF73EFD00BF00BFB8F1CD
:103D3000070F00D803E0AC211CA0FDF734FD00BF45
:103D400000BF29480068772800D103E0AD2117A003
:103D5000FDF729FD00BF24E004F00100E0B14FEAC7
:103D6000C960050E281DC6B207FA05F008FA06F16B
:103D700008430721A9400722B24011430840072108
:103D8000A9400722B2401143174A121F12688A4302
:103D900010431549091F0860640809F1010000F08B
:103DA000FF09002CD8D1BDE8F08700002E2E2F2E61
:103DB0002E2F2E2E2F2E2E2F2E2E2F2E2E2F6472A4
:103DC00069766572732F686333325F6C6C5F6472FF
:103DD000697665722F7372632F686333325F6C6C20
:103DE0005F7372616D2E6300040805402DE9FF4189
:103DF00005460C460026CA4800680390C84840683B
:103E00000290C74880680190C548C068009000BF14
:103E100004F0E060E8B104F0E060B0F1807F18D019
:103E200004F0E060B0F1007F13D004F0E060B0F186
:103E3000407F0ED004F0E060B0F1806F09D004F054
:103E4000E060B0F1A06F04D004F0E060B0F1C06FAA
:103E500000D104E040F2C621B2A0FDF7A4FC00BFEF
:103E600000BF04F07000B8B104F07000102813D047
:103E700004F0700020280FD004F0700030280BD020
:103E800004F07000402807D004F07000502803D0E0
:103E900004F07000602800D104E040F2C721A1A026
:103EA000FDF781FC00BF00BF04F4E020E8B104F49A
:103EB000E020B0F5803F18D004F4E020B0F5003FDA
:103EC00013D004F4E020B0F5403F0ED004F4E0201D
:103ED000B0F5802F09D004F4E020B0F5A02F04D075
:103EE00004F4E020B0F5C02F00D104E04FF43271AB
:103EF0008CA0FDF758FC00BF00BF04F4E000E8B15F
:103F000004F4E000B0F5801F18D004F4E000B0F530
:103F1000001F13D004F4E000B0F5401F0ED004F4ED
:103F2000E000B0F5800F09D004F4E000B0F5A00F78
:103F300004D004F4E000B0F5C00F00D104E040F27A
:103F4000CA2178A0FDF72FFC00BF00BF04F00700D6
:103F5000B8B104F00700012813D004F007000228CC
:103F60000FD004F0070003280BD004F0070004284A
:103F700007D004F00700052803D004F00700062846
:103F800000D104E040F2CB2166A0FDF70CFC00BF9D
:103F900000BF04F4E060E8B104F4E060B0F5807FB5
:103FA00018D004F4E060B0F5007F13D004F4E060B2
:103FB000B0F5407F0ED004F4E060B0F5806F09D01A
:103FC00004F4E060B0F5A06F04D004F4E060B0F554
:103FD000C06F00D104E04FF4337152A0FDF7E3FB52
:103FE00000BF00BF04F4E040E8B104F4E040B0F5E5
:103FF000805F18D004F4E040B0F5005F13D004F403
:10400000E040B0F5405F0ED004F4E040B0F5804FE2
:1040100009D004F4E040B0F5A04F04D004F4E0402F
:10402000B0F5C04F00D104E040F2CD213DA0FDF736
:10403000BAFB00BF00BF4A48284000B104E040F28C
:10404000CF2138A0FDF7AFFB00BF00BF4548008877
:1040500000F0010000B104E04FF4347131A0FDF72D
:10406000A2FB00BF4048007800F00700052823D1DC
:10407000012600BF2A48006900F0010000B104E0F9
:1040800040F2D72127A0FDF78EFB00BF3748244917
:104090000860C01248608860C86033482638006AEB
:1040A000C0F3026132480068C8404CF25031B0FBA6
:1040B000F1F73846FCF7A0FF2B482638006AA843E2
:1040C00004EA050108432849263908620846006ABF
:1040D000C0F3026126480068C8404CF25031B0FB82
:1040E000F1F73846FCF788FF012E17D10C490398E9
:1040F000086002984860019888600098C8601A4873
:104100002638006AC0F3026119480068C8404CF2C2
:104110005031B0FBF1F73846FCF76EFFBDE8FF8188
:10412000008004402E2E2F2E2E2F2E2E2F2E2E2F9F
:104130002E2E2F2E2E2F647269766572732F686370
:1041400033325F6C6C5F6472697665722F73726371
:104150002F686333325F6C6C5F636C6B2E6300009F
:1041600077777707FE430540264005400EFAFFFFAC
:104170000080FF1F7FB50446002542480068039079
:104180004048406802903F48806801903D48C068C0
:10419000009000BF4CB1012C07D0022C05D0032C9D
:1041A00003D0042C01D0052C00D104E040F25721AB
:1041B00035A0FDF7F8FA00BF00BF4248008800F0C4
:1041C000010000B104E04FF416712FA0FDF7EBFAE7
:1041D00000BF3D48007800F00700052801D0052CFD
:1041E00023D1012500BF2748006900F0010000B17C
:1041F00004E04FF4187124A0FDF7D5FA00BF33484E
:1042000020490860C01248608860C8602E4826387F
:10421000006AC0F302612E480068C8404CF2503179
:10422000B0FBF1F63046FCF7E7FE2748047026485D
:104230002638006AC0F3026125480068C8404CF285
:104240005031B0FBF1F63046FCF7D6FE012D17D108
:104250000C490398086002984860019888600098AB
:10426000C86019482638006AC0F30261184800681F
:10427000C8404CF25031B0FBF1F63046FCF7BCFEC2
:104280007FBD0000008004402E2E2F2E2E2F2E2EBC
:104290002F2E2E2F2E2E2F2E2E2F647269766572C2
:1042A000732F686333325F6C6C5F6472697665721A
:1042B0002F7372632F686333325F6C6C5F636C6B58
:1042C0002E630000FE430540264005400EFAFFFF26
:1042D0000080FF1F70B52B4D2D6805F001051DB145
:1042E000294D2A4E356002E0294D284E3560294D72
:1042F0002D7805F00700062840D2DFE800F003081B
:104300000C11151A214D2D68234E356037E0234DD1
:10431000214E356033E04FF400451F4E35602EE0EE
:104320001E4D1D4E35602AE04FF400451A4E356093
:1043300025E0184DDA352D68C5F30822154D263DC8
:10434000D5F800512B0F134DDA352D6805F01F04F9
:10435000104D263DD5F8005105F080050DB90F49E7
:1043600001E00A4D2968651CB1FBF5F5561C754343
:104370005E1CB5FBF6F5084E356000E000BF00BFDF
:1043800070BD0000840601400024F4000480FF1F7B
:10439000002D3101264005400080FF1F00127A00E9
:1043A00000B5FFF797FF00200149086000BD00003D
:1043B00008ED00E002E008C8121F08C1002AFAD187
:1043C00070477047002001E001C1121F002AFBD195
:1043D00070470000C720FFF787FBFCF705FCFCF7E0
:1043E000D5FDFCF7A1FCFCF72CFB002403E0601CCE
:1043F00016490855641CFF2CF9D94FF480711448F4
:10440000FBF77BFF31224FF400410420FDF710FD44
:10441000302220210120FDF70BFD01214020FDF776
:104420006DFBFFF7EDFB38B18320FFF7A5FB012003
:10443000FCF7C8FD00BFFEE78320FFF79DFB03E00C
:10444000FCF774FBFCF730FBFAE700000C80FF1F61
:104450000C81FF1F03000800030010000300200070
:104460000300400000001000000020000000400099
:1044700003000010001000000C001D00810D000062
:1044800003000020002000000D001E00D50D0000DC
:1044900003000040004000000E001F00290E000035
:1044A000010002000200000001001900590D000087
:1044B0002E2E2F2E2E2F2E2E2F2E2E2F2E2E2F2E17
:1044C0002E2F647269766572732F686333325F6C66
:1044D0006C5F6472697665722F7372632F686333E1
:1044E000325F6C6C5F696E74657272757074732E76
:1044F00063000000144500000080FF1F0C00000056
:10450000B4430000204500000C80FF1F0410000091
:10451000C443000000000000000000000000000094
:040000050000028174
:00000001FF
