:020000040000FA
:10000000108EFF1F95020000C5020000C70200000D
:10001000C9020000CB020000CD0200000000000079
:10002000000000000000000000000000CF020000FF
:10003000D102000000000000D3020000D502000041
:10004000F1030000810F0000910F0000A10F0000DC
:10005000B10F0000C10F0000D10F0000E10F000040
:10006000F10F00000110000011100000211000002D
:10007000311000004110000051100000611000001C
:10008000711000008110000091100000A11000000C
:10009000B1100000C1100000D1100000E1100000FC
:1000A000F1100000011100001111000021110000E9
:1000B00031110000411100005111000061110000D8
:1000C000711100008111000091110000A1110000C8
:1000D000B1110000C1110000D1110000E1110000B8
:1000E000F1110000011200001112000021120000A5
:1000F0003112000041120000511200006112000094
:10010000711200008112000091120000A112000083
:10011000B1120000C1120000D1120000E112000073
:10012000F112000001130000111300002113000060
:10013000311300004113000051130000611300004F
:10014000711300008113000091130000A11300003F
:10015000B1130000C1130000D1130000E11300002F
:10016000F11300000114000011140000211400001C
:10017000311400004114000051140000611400000B
:10018000711400008114000091140000A1140000FB
:10019000B1140000C1140000D1140000E1140000EB
:1001A000F1140000011500001115000021150000D8
:1001B00031150000411500005115000061150000C7
:1001C000711500008115000091150000A1150000B7
:1001D000B1150000C1150000D1150000E1150000A7
:1001E000F115000001160000111600002116000094
:1001F0003116000041160000511600006116000083
:10020000711600008116000091160000A116000072
:10021000B1160000C1160000D1160000E116000062
:10022000F11600000117000011170000211700004F
:10023000311700004117000051170000611700003E
:10024000D7020000D7020000D7020000D70200004A
:10025000D7020000D7020000D7020000D70200003A
:10026000D7020000D7020000D7020000D70200002A
:10027000D7020000D7020000D7020000D70200001A
:10028000DFF80CD000F032F80048004711030000FE
:10029000108EFF1F10484FF0770101600F484FF09C
:1002A000770101600E484FF4885101600A484FF011
:1002B0007601016009484FF07601016009488047E6
:1002C00009480047FEE7FEE7FEE7FEE7FEE7FEE738
:1002D000FEE7FEE7FEE7FEE7040805400C080540E0
:1002E00000080540AD1C000081020000064C074DCF
:1002F00006E0E06840F0010394E8070098471034F6
:10030000AC42F6D3FFF7C0FFC01F0000E01F0000A3
:1003100010B501F065FC01F0CBFD002010BD000020
:1003200010B58AB005A800F077FD002415E01A4A40
:1003300002EB84025188184A12F8240005AA00F042
:100340005FFB154A02EB84025188134A12F824001D
:10035000082200F0A5FC601CC4B2032CE7D30121E5
:10036000C80700F0F7FA012000F0D0F9684601F064
:1003700031FB002000904FF0106001904FF480108E
:100380000290C01003904FF4E0400490684601F0E2
:1003900021FA0AB010BD0000301F00000146002005
:1003A000054A12680A402AB10120034A12688A43AA
:1003B000014B1A60704700000880FF1F10B500F065
:1003C000C3F8FFF7ADFF002407E0074901EB041174
:1003D000486800F011FA601CC4B2042CF5D3012067
:1003E00001F0C6F910BD00003C1F000000BFFEE791
:1003F00010B502490868804710BD00000C80FF1F3F
:10040000BFFFDFFFFFFEFFFFFFFFFFFFFFFFFFFF5D
:10041000FFFFFFFFFFFFFFFFFFFFFFFFFFFFFFFFEC
:1004200010B50848006840F400600649086000BF45
:100430000221012000F0E8FB0028F9D0022000F0A2
:10044000DBF910BD0880FF1F10B500BF1048006821
:1004500000F0070004460F49486800F0E9F9012858
:1004600014D100BF0B4A5188107800F0CDFB38B989
:100470000120A04008490968084307490860F1E7DE
:100480000449486800F0B8F900BF00BF10BD000083
:10049000080C05403C1F00000880FF1F10B500BF7E
:1004A0001048006800F0070004460F49486900F052
:1004B000BFF9012814D100BF0B4A518A107C00F00B
:1004C000A3FB38B91020A040084909680843074930
:1004D0000860F1E70449486900F08EF900BF00BFE9
:1004E00010BD0000080C05403C1F00000880FF1FE5
:1004F00010B500BF1148006800F00700044610491D
:10050000486A00F095F9012816D100BF0C4A518CB9
:1005100092F8200000F078FB40B94FF48070A040C2
:1005200008490968084307490860EFE70449486A31
:1005300000F062F900BF00BF10BD0000080C0540CC
:100540003C1F00000880FF1F30B58BB001A800F0F1
:1005500063FC4FF48050ADF812004020ADF80E005F
:1005600000240CE0374A02EB04125188354A02EBB2
:100570000412107801AA00F043FA601CC4B2042CE3
:10058000F0D308A800F0DCF900200A90002408E06D
:100590002C4901EB0411486808A900F067F9601CB8
:1005A000C4B2042CF4D3002447E0264800EB041026
:1005B0000089ADF81800234800EB04104089ADF81D
:1005C0001A00204800EB0410C068079006A800F04D
:1005D0007DFCBDF91A00002807DB00F01F02012195
:1005E0009140194A430942F8231000BFBDF91A008F
:1005F0000F21002804DB0A07130E144A135406E0E7
:100600000A07150E124A00F00F031B1FD55400BF36
:10061000BDF91A0000280DDB00BF00BF00F01F026B
:10062000012191404209920002F1E022C2F800113A
:1006300000BF00BF00BF601CC4B2042CB5D30BB018
:1006400030BD00003C1F000080E200E000E400E05C
:1006500018ED00E010B586B001A800F0DDFB022027
:10066000ADF8060000240BE0074A02EB8402518833
:10067000054A12F8240001AA00F0C2F9601CC4B2B5
:10068000042CF1D306B010BD201F000070B5054644
:1006900000240FE045FA04F000F0010040B1074AE1
:1006A00002EB84025188054A12F8240000F06AFB2C
:1006B000601CC4B2042CEDD370BD0000201F0000EC
:1006C00070B5054600240FE045FA04F000F0010083
:1006D00040B1074A02EB84025188054A12F824000F
:1006E00000F0AAFB601CC4B2042CEDD370BD000066
:1006F000201F000008B50021009102E00099491C6C
:10070000009100998142F9D308BD000070B50446FC
:10071000002500BF0CB1012C00D104E040F20231F1
:1007200014A0FFF763FE00BF00BF2148008800F05F
:10073000010000B104E040F203310EA0FFF756FEC5
:1007400000BF6CB91B48007800F00700022802D1F6
:100750006FF005050BE0012015492931087006E00E
:1007600000201349293108704815FFF7C3FF2846B8
:1007700070BD00002E2E2F2E2E2F2E2E2F2E2E2F20
:100780002E2E2F2E2E2F647269766572732F68635A
:1007900033325F6C6C5F6472697665722F7372635B
:1007A0002F686333325F6C6C5F636C6B2E63000089
:1007B000FE4305402640054008B50D49096AC1F3CE
:1007C00002630C490968D94042F210731944491E6A
:1007D000B1FBF3F206E0009200BF00994B1E0093BC
:1007E0000029FAD1011EA0F10100F4D108BD0000DA
:1007F000004005400080FF1F10B5044600BF3CB11B
:100800004FF6FF7020434FF6FF71884200D104E09D
:1008100040F203210448FFF7E9FD00BF0348806D63
:1008200020430249886510BD7C1F00000010054070
:1008300010B5044600BF3CB14FF6FF7020434FF6A1
:10084000FF71884200D104E04FF404710548FFF7BE
:10085000CDFD00BF0448406D204008B1012010BD0F
:100860000020FCE77C1F0000001005402DE9F04748
:1008700006460C464FF0000914B96FF0020958E023
:1008800000BF3EB14FF6FF7030434FF6FF71884214
:1008900000D104E040F2D3112748FFF7A7FD00BFC5
:1008A00000BF206810B12068802800D104E04FF418
:1008B000EA712148FFF79AFD00BF00BF606840B1B0
:1008C0006068102805D06068202802D06068302851
:1008D00000D104E040F2D5111748FFF787FD00BFB3
:1008E00000BFA068032807D0A068012804D0A06832
:1008F00010B1A068022800D104E04FF4EB710E485B
:10090000FFF774FD00BF002511E00120A840304032
:1009100058B1D4E900010843A16840EA010707483B
:10092000042101FB0508C8F80070681CC5B2102D31
:10093000EBD34846BDE8F0877C1F0000101005404F
:100940000146002009B9C01E03E000220A604A6087
:100950008A60704770B504460D4600BF2CB1174839
:1009600020431649884200D103E0712114A0FFF70B
:100970003DFD00BF00BF0DB1012D00D103E072218C
:100980000FA0FFF733FD00BF00BF1C48006900F057
:10099000010000B103E0732109A0FFF727FD00BFAC
:1009A000012D05D115480068A0431449086004E0F2
:1009B0001248006820431149086070BD11C5F38FCB
:1009C0002E2E2F2E2E2F2E2E2F2E2E2F2E2E2F2E42
:1009D0002E2F647269766572732F686333325F6C91
:1009E0006C5F6472697665722F7372632F6863330C
:1009F000325F6C6C5F6663672E63000000800440AA
:100A00002DE9F05F05460F4614464FF0000B14B970
:100A10006FF0020BD5E000BF6B48008800F00100CA
:100A200000B103E0FF2169A0FFF7E0FC00BF00BFB9
:100A30004DB1012D07D0022D05D0032D03D0042D7B
:100A400001D0052D00D104E04FF480715FA0FFF7C5
:100A5000CDFC00BF00BF17B1B8B200B104E040F256
:100A600001115AA0FFF7C2FC00BF00BF208810B1DF
:100A70002088012800D104E04FF4817153A0FFF7D2
:100A8000B5FC00BF00BF608810B16088022800D1AB
:100A900004E040F203114DA0FFF7A8FC00BF00BF27
:100AA000A08810B1A088042800D104E04FF482711E
:100AB00046A0FFF79BFC00BF00BFE08828B1E0889C
:100AC000102802D0E088202800D104E040F205116F
:100AD0003EA0FFF78BFC00BF00BF208918B1208922
:100AE000B0F5804F00D104E04FF4837137A0FFF7D9
:100AF0007DFC00BF00BF608910B16089402800D133
:100B000004E040F2071131A0FFF770FC00BF00BF06
:100B1000A08918B1A089B0F5007F00D104E04FF49E
:100B200084712AA0FFF762FC00BF00BFE08918B102
:100B3000E089B0F5805F00D104E040F2091123A004
:100B4000FFF754FC00BF00BF208A18B1208AB0F51F
:100B5000004F00D104E04FF485711CA0FFF746FC64
:100B600000BF00262BE00120B040384028B3208889
:100B700061880843A1880843E188084361890843E4
:100B8000A1890843E1890843218940EA010A45F225
:100B90007728208A40EA0A0A48F400480A48001DDB
:100BA00000EB851000EB8609B9F8000020EA080088
:100BB0000AEA08010843A9F80000701CC6B2102E0A
:100BC000D1D35846BDE8F09FFC3B05402E2E2F2E7A
:100BD0002E2F2E2E2F2E2E2F2E2E2F2E2E2F6472B6
:100BE00069766572732F686333325F6C6C5F647211
:100BF000697665722F7372632F686333325F6C6C32
:100C00005F6770696F2E630070B504460D4600BFC4
:100C10004CB1012C07D0022C05D0032C03D0042C9E
:100C200001D0052C00D104E040F2F1110CA0FFF737
:100C3000DDFB00BF00BF15B1A8B200B104E04FF466
:100C4000F97107A0FFF7D2FB00BF144901EB0410B4
:100C5000B0F80008284008B1012070BD0020FCE772
:100C60002E2E2F2E2E2F2E2E2F2E2E2F2E2E2F2E9F
:100C70002E2F647269766572732F686333325F6CEE
:100C80006C5F6472697665722F7372632F68633369
:100C9000325F6C6C5F6770696F2E630000300540D7
:100CA0002DE9F04104460F46164600BF4CB1012C19
:100CB00007D0022C05D0032C03D0042C01D0052C26
:100CC00000D104E040F277111EA0FFF78FFB00BFB8
:100CD00000BF17B1B8B200B104E04FF4BC7119A065
:100CE000FFF784FB00BF00BF0F2E03D9202E02D3D5
:100CF0003B2E00D804E040F2791112A0FFF776FBFA
:100D000000BF00BF1E48008800F0010000B104E0F1
:100D10004FF4BD710BA0FFF769FB00BF00250DE08C
:100D20000120A840384038B11548801D00EB8410E0
:100D300000EB8508A8F80060681CC5B2102DEFD341
:100D4000BDE8F0812E2E2F2E2E2F2E2E2F2E2E2F61
:100D50002E2E2F2E2E2F647269766572732F686384
:100D600033325F6C6C5F6472697665722F73726385
:100D70002F686333325F6C6C5F6770696F2E63003E
:100D8000FC3B054070B504460D4600BF4CB1012C3C
:100D900007D0022C05D0032C03D0042C01D0052C45
:100DA00000D104E040F22B210BA0FFF71FFB00BF96
:100DB00000BF15B1A8B200B104E04FF40B7106A05A
:100DC000FFF714FB00BF1348102101FB0406308815
:100DD0002843308070BD00002E2E2F2E2E2F2E2E59
:100DE0002F2E2E2F2E2E2F2E2E2F647269766572A7
:100DF000732F686333325F6C6C5F647269766572FF
:100E00002F7372632F686333325F6C6C5F67706936
:100E10006F2E6300083805400146002009B9C01E46
:100E200009E000220A804A80CA800A820A814A8137
:100E30008A81CA818A80704770B504460D4600BF1A
:100E40004CB1012C07D0022C05D0032C03D0042C6C
:100E500001D0052C00D104E04FF418710BA0FFF76E
:100E6000C5FA00BF00BF15B1A8B200B104E040F25E
:100E7000612106A0FFF7BAFA00BF1348102101FB59
:100E8000040630882843308070BD00002E2E2F2E9F
:100E90002E2F2E2E2F2E2E2F2E2E2F2E2E2F6472F3
:100EA00069766572732F686333325F6C6C5F64724E
:100EB000697665722F7372632F686333325F6C6C6F
:100EC0005F6770696F2E63000C38054070B504468B
:100ED00000260CB9F61E4BE000BF2088B0F5007F5D
:100EE00000DA03E0C3212348FFF780FA00BF20881F
:100EF000400900EB4000202101EB4000B4F9021052
:100F000088420AD82088400900EB4000252101EBE7
:100F10004000B4F90210884206D2B4F90200202839
:100F200002D36FF0020623E060881349042212FB0B
:100F300000152868C0F3080040F2FF11884208D16C
:100F400020882860B4F902100C4A606842F8210039
:100F50000EE020882968C1F30801884206D1B4F95F
:100F60000210064A606842F8210001E06FF00106B5
:100F7000304670BD7C1F00005C1005400C80FF1FD8
:100F800010B502494868804710BD00000C80FF1F63
:100F900010B502498868804710BD00000C80FF1F13
:100FA00010B50249C868804710BD00000C80FF1FC3
:100FB00010B502490869804710BD00000C80FF1F72
:100FC00010B502494869804710BD00000C80FF1F22
:100FD00010B502498869804710BD00000C80FF1FD2
:100FE00010B50249C869804710BD00000C80FF1F82
:100FF00010B50249086A804710BD00000C80FF1F31
:1010000010B50249486A804710BD00000C80FF1FE0
:1010100010B50249886A804710BD00000C80FF1F90
:1010200010B50249C86A804710BD00000C80FF1F40
:1010300010B50249086B804710BD00000C80FF1FEF
:1010400010B50249486B804710BD00000C80FF1F9F
:1010500010B50249886B804710BD00000C80FF1F4F
:1010600010B50249C86B804710BD00000C80FF1FFF
:1010700010B50249086C804710BD00000C80FF1FAE
:1010800010B50249486C804710BD00000C80FF1F5E
:1010900010B50249886C804710BD00000C80FF1F0E
:1010A00010B50249C86C804710BD00000C80FF1FBE
:1010B00010B50249086D804710BD00000C80FF1F6D
:1010C00010B50249486D804710BD00000C80FF1F1D
:1010D00010B50249886D804710BD00000C80FF1FCD
:1010E00010B50249C86D804710BD00000C80FF1F7D
:1010F00010B50249086E804710BD00000C80FF1F2C
:1011000010B50249486E804710BD00000C80FF1FDB
:1011100010B50249886E804710BD00000C80FF1F8B
:1011200010B50249C86E804710BD00000C80FF1F3B
:1011300010B50249086F804710BD00000C80FF1FEA
:1011400010B50249486F804710BD00000C80FF1F9A
:1011500010B50249886F804710BD00000C80FF1F4A
:1011600010B50249C86F804710BD00000C80FF1FFA
:1011700010B50249D1F88000804710BD0C80FF1FD8
:1011800010B50249D1F88400804710BD0C80FF1FC4
:1011900010B50249D1F88800804710BD0C80FF1FB0
:1011A00010B50249D1F88C00804710BD0C80FF1F9C
:1011B00010B50249D1F89000804710BD0C80FF1F88
:1011C00010B50249D1F89400804710BD0C80FF1F74
:1011D00010B50249D1F89800804710BD0C80FF1F60
:1011E00010B50249D1F89C00804710BD0C80FF1F4C
:1011F00010B50249D1F8A000804710BD0C80FF1F38
:1012000010B50249D1F8A400804710BD0C80FF1F23
:1012100010B50249D1F8A800804710BD0C80FF1F0F
:1012200010B50249D1F8AC00804710BD0C80FF1FFB
:1012300010B50249D1F8B000804710BD0C80FF1FE7
:1012400010B50249D1F8B400804710BD0C80FF1FD3
:1012500010B50249D1F8B800804710BD0C80FF1FBF
:1012600010B50249D1F8BC00804710BD0C80FF1FAB
:1012700010B50249D1F8C000804710BD0C80FF1F97
:1012800010B50249D1F8C400804710BD0C80FF1F83
:1012900010B50249D1F8C800804710BD0C80FF1F6F
:1012A00010B50249D1F8CC00804710BD0C80FF1F5B
:1012B00010B50249D1F8D000804710BD0C80FF1F47
:1012C00010B50249D1F8D400804710BD0C80FF1F33
:1012D00010B50249D1F8D800804710BD0C80FF1F1F
:1012E00010B50249D1F8DC00804710BD0C80FF1F0B
:1012F00010B50249D1F8E000804710BD0C80FF1FF7
:1013000010B50249D1F8E400804710BD0C80FF1FE2
:1013100010B50249D1F8E800804710BD0C80FF1FCE
:1013200010B50249D1F8EC00804710BD0C80FF1FBA
:1013300010B50249D1F8F000804710BD0C80FF1FA6
:1013400010B50249D1F8F400804710BD0C80FF1F92
:1013500010B50249D1F8F800804710BD0C80FF1F7E
:1013600010B50249D1F8FC00804710BD0C80FF1F6A
:1013700010B50249D1F80001804710BD0C80FF1F55
:1013800010B50249D1F80401804710BD0C80FF1F41
:1013900010B50249D1F80801804710BD0C80FF1F2D
:1013A00010B50249D1F80C01804710BD0C80FF1F19
:1013B00010B50249D1F81001804710BD0C80FF1F05
:1013C00010B50249D1F81401804710BD0C80FF1FF1
:1013D00010B50249D1F81801804710BD0C80FF1FDD
:1013E00010B50249D1F81C01804710BD0C80FF1FC9
:1013F00010B50249D1F82001804710BD0C80FF1FB5
:1014000010B50249D1F82401804710BD0C80FF1FA0
:1014100010B50249D1F82801804710BD0C80FF1F8C
:1014200010B50249D1F82C01804710BD0C80FF1F78
:1014300010B50249D1F83001804710BD0C80FF1F64
:1014400010B50249D1F83401804710BD0C80FF1F50
:1014500010B50249D1F83801804710BD0C80FF1F3C
:1014600010B50249D1F83C01804710BD0C80FF1F28
:1014700010B50249D1F84001804710BD0C80FF1F14
:1014800010B50249D1F84401804710BD0C80FF1F00
:1014900010B50249D1F84801804710BD0C80FF1FEC
:1014A00010B50249D1F84C01804710BD0C80FF1FD8
:1014B00010B50249D1F85001804710BD0C80FF1FC4
:1014C00010B50249D1F85401804710BD0C80FF1FB0
:1014D00010B50249D1F85801804710BD0C80FF1F9C
:1014E00010B50249D1F85C01804710BD0C80FF1F88
:1014F00010B50249D1F86001804710BD0C80FF1F74
:1015000010B50249D1F86401804710BD0C80FF1F5F
:1015100010B50249D1F86801804710BD0C80FF1F4B
:1015200010B50249D1F86C01804710BD0C80FF1F37
:1015300010B50249D1F87001804710BD0C80FF1F23
:1015400010B50249D1F87401804710BD0C80FF1F0F
:1015500010B50249D1F87801804710BD0C80FF1FFB
:1015600010B50249D1F87C01804710BD0C80FF1FE7
:1015700010B50249D1F88001804710BD0C80FF1FD3
:1015800010B50249D1F88401804710BD0C80FF1FBF
:1015900010B50249D1F88801804710BD0C80FF1FAB
:1015A00010B50249D1F88C01804710BD0C80FF1F97
:1015B00010B50249D1F89001804710BD0C80FF1F83
:1015C00010B50249D1F89401804710BD0C80FF1F6F
:1015D00010B50249D1F89801804710BD0C80FF1F5B
:1015E00010B50249D1F89C01804710BD0C80FF1F47
:1015F00010B50249D1F8A001804710BD0C80FF1F33
:1016000010B50249D1F8A401804710BD0C80FF1F1E
:1016100010B50249D1F8A801804710BD0C80FF1F0A
:1016200010B50249D1F8AC01804710BD0C80FF1FF6
:1016300010B50249D1F8B001804710BD0C80FF1FE2
:1016400010B50249D1F8B401804710BD0C80FF1FCE
:1016500010B50249D1F8B801804710BD0C80FF1FBA
:1016600010B50249D1F8BC01804710BD0C80FF1FA6
:1016700010B50249D1F8C001804710BD0C80FF1F92
:1016800010B50249D1F8C401804710BD0C80FF1F7E
:1016900010B50249D1F8C801804710BD0C80FF1F6A
:1016A00010B50249D1F8CC01804710BD0C80FF1F56
:1016B00010B50249D1F8D001804710BD0C80FF1F42
:1016C00010B50249D1F8D401804710BD0C80FF1F2E
:1016D00010B50249D1F8D801804710BD0C80FF1F1A
:1016E00010B50249D1F8DC01804710BD0C80FF1F06
:1016F00010B50249D1F8E001804710BD0C80FF1FF2
:1017000010B50249D1F8E401804710BD0C80FF1FDD
:1017100010B50249D1F8E801804710BD0C80FF1FC9
:1017200010B50249D1F8EC01804710BD0C80FF1FB5
:1017300010B50249D1F8F001804710BD0C80FF1FA1
:1017400010B50249D1F8F401804710BD0C80FF1F8D
:1017500010B50249D1F8F801804710BD0C80FF1F79
:1017600010B50249D1F8FC01804710BD0C80FF1F65
:1017700010B5044600BF0CB1012C00D103E0962146
:1017800003A0FEF733FE00BF1148046010BD000047
:101790002E2E2F2E2E2F2E2E2F2E2E2F2E2E2F2E64
:1017A0002E2F647269766572732F686333325F6CB3
:1017B0006C5F6472697665722F7372632F6863332E
:1017C000325F6C6C5F6B65797363616E2E630000D2
:1017D000040C054070B5044600250CB9ED1ED5E09B
:1017E00000BF2068D8B12068B0F1005F17D0206832
:1017F000B0F1804F13D02068B0F1C04F0FD02068F7
:10180000B0F1004F0BD02068B0F1204F07D0206816
:10181000B0F1404F03D02068B0F1604F00D103E039
:10182000C5215BA0FEF7E2FD00BF00BF6068B0F11C
:10183000007F57D06068B0F1407F53D06068B0F14E
:10184000806F4FD06068B0F1A06F4BD06068B0F18E
:10185000C06F47D06068B0F1E06F43D06068B0F10E
:10186000006F3FD06068B0F1106F3BD06068B0F19E
:10187000206F37D06068B0F1306F33D06068B0F15E
:10188000406F2FD06068B0F1506F2BD06068B0F11E
:10189000606F27D06068B0F1706F23D06068B0F1DE
:1018A000805F1FD06068B0F1885F1BD06068B0F1C6
:1018B000905F17D06068B0F1985F13D06068B0F1A6
:1018C000A05F0FD06068B0F1A85F0BD06068B0F186
:1018D000B05F07D06068B0F1B85F03D06068B0F166
:1018E000C05F00D103E0C62129A0FEF77FFD00BF45
:1018F00000BFA06838B1A068B0F5801F03D0A06811
:10190000B0F5001F00D103E0C72121A0FEF76EFD56
:1019100000BF00BFE068B0F5803F17D0E068B0F5C9
:10192000003F13D0E068B0F5403F0FD0E068B0F55D
:10193000802F0BD0E068B0F5A02F07D0E068B0F59D
:10194000C02F03D0E068B0F5E02F00D103E0C8213C
:101950000FA0FEF74BFD00BF00BF206930B14FF66E
:10196000FF7120690843884200D103E0C92108A023
:10197000FEF73CFD00BFD4E900010843A16808431D
:10198000E16808432169084311490860284670BD91
:101990002E2E2F2E2E2F2E2E2F2E2E2F2E2E2F2E62
:1019A0002E2F647269766572732F686333325F6CB1
:1019B0006C5F6472697665722F7372632F6863332C
:1019C000325F6C6C5F6B65797363616E2E630000D0
:1019D000000C05400146002009B9C01E0BE00022A2
:1019E0000A604FF000724A6000228A604FF4803231
:1019F000CA6001220A61704710B5044604F0010074
:101A000048B100BF40F223101A49086043F2102089
:101A1000086000BF00BF04F0020028B100BF1648F4
:101A20001649086100BF00BF04F0040030B100BFD8
:101A30004AF201501249088000BF00BF04F01000B4
:101A400018B14AF2085000F071F804F0400018B1E3
:101A50004AF2035000F06AF804F0800040B100BF81
:101A600077200849086007490831086000BF00BFB7
:101A700010BD0000000401400100A5A50080044045
:101A8000FC3B05400408054010B5044604F0010085
:101A900028B100BF00201949086000BF00BF04F052
:101AA000020028B100BF16481649086100BF00BFF8
:101AB00004F0040030B100BF4FF425401249088003
:101AC00000BF00BF04F0100018B14AF2085000F047
:101AD0001FF804F0400018B14AF2035000F018F863
:101AE00004F0800040B100BF762008490860074933
:101AF0000831086000BF00BF10BD000000040140B5
:101B00000000A5A500800440FC3B054004080540FA
:101B100004490988814341F42541034AA2F8FE1390
:101B200070470000FE430540004005400349098816
:101B30000143034AA2F8FE1370470000FE4305402C
:101B4000004005400748008840F400400549C0397E
:101B5000A1F8C00000BF00BF00BF00BF00BF00BFB2
:101B600070470000C040054070B5044600BF3CB15E
:101B700047F6FF70204347F6FF71884200D103E02B
:101B8000622107A0FEF732FC00BF14480088204005
:101B900008B1012000E000200546284670BD000085
:101BA0002E2E2F2E2E2F2E2E2F2E2E2F2E2E2F2E50
:101BB0002E2F647269766572732F686333325F6C9F
:101BC0006C5F6472697665722F7372632F6863331A
:101BD000325F6C6C5F726D752E630000C040054013
:101BE00070B52B4D2D6805F001051DB1294D2A4E0C
:101BF000356002E0294D284E3560294D2D7805F0DD
:101C00000700062840D2DFE800F003080C11151A7F
:101C1000214D2D68234E356037E0234D214E356030
:101C200033E04FF400451F4E35602EE01E4D1D4E33
:101C300035602AE04FF400451A4E356025E0184D16
:101C4000DA352D68C5F30822154D263DD5F800512B
:101C50002B0F134DDA352D6805F01F04104D263D6E
:101C6000D5F8005105F080050DB90F4901E00A4D86
:101C70002968651CB1FBF5F5561C75435E1CB5FB68
:101C8000F6F5084E356000E000BF00BF70BD0000F3
:101C9000840601400024F4000480FF1F002D310160
:101CA000264005400080FF1F00127A0000B5FFF7B4
:101CB00097FF00200149086000BD000008ED00E02A
:101CC00000B585B002200090902001904FF4807004
:101CD000029000020390C0030490684600F00CF8E4
:101CE00005B000BD40F223100249886043F2102085
:101CF000886070470090044070B5044600250CB918
:101D0000ED1EA0E000BF206840B12068012805D08A
:101D10002068022802D02068032800D103E09C211B
:101D20004AA0FEF763FB00BF00BF6068202814D004
:101D30006068602811D0606870280ED060688028C4
:101D40000BD06068902808D06068A02805D0606833
:101D5000B02802D06068D02800D103E09D213BA0CC
:101D6000FEF744FB00BF00BFA068B0F5706F37D02E
:101D7000A068B0F5807F33D0A068B0F5007F2FD089
:101D8000A068B0F5407F2BD0A068B0F5806F27D059
:101D9000A068B0F5A06F23D0A068B0F5C06F1FD0C9
:101DA000A068B0F5E06F1BD0A068B0F5006F17D049
:101DB000A068B0F5106F13D0A068B0F5206F0FD0F9
:101DC000A068B0F5306F0BD0A068B0F5406F07D0B9
:101DD000A068B0F5506F03D0A068B0F5606F00D177
:101DE00003E09E2119A0FEF701FB00BF00BFE068E1
:101DF00018B1E068B0F5803F00D103E09F2113A047
:101E0000FEF7F4FA00BF00BF206918B12069B0F1F5
:101E1000004F00D103E0A0210CA0FEF7E7FA00BFBD
:101E2000D4E900010843A1680843E1680843216937
:101E300008431549084015490968134AD24311401F
:101E4000084312490860284670BD00002E2E2F2E30
:101E50002E2F2E2E2F2E2E2F2E2E2F2E2E2F647223
:101E600069766572732F686333325F6C6C5F64727E
:101E7000697665722F7372632F686333325F6C6C9F
:101E80005F7764742E630000F30F018000900440BC
:101E900002E008C8121F08C1002AFAD17047704733
:101EA000002001E001C1121F002AFBD17047000091
:101EB0000025C720FFF7A0FDFEF7CCFBFEF77EFA5A
:101EC0002020FFF751FE012802D12025FEF7DEFB7E
:101ED000FFF738FEFFF7F4FEFFF704FF0A20FEF7D6
:101EE0006BFC4FF480548320FFF7CEFD00BF4FF40E
:101EF0000060FEF753FA012800D1440300BF0748F1
:101F0000406880B2A042F2DA0A20FEF755FC002DAC
:101F1000EDD10820FEF7D4FBE9E700000090044073
:101F2000030008000300100003002000030040002D
:101F3000000010000000200000004000030000101E
:101F4000001000000C001D004904000003000020E8
:101F5000002000000D001E009D0400000300004052
:101F6000004000000E001F00F1040000010002000C
:101F70000200000001001900210400002E2E2F2E67
:101F80002E2F2E2E2F2E2E2F2E2E2F2E2E2F6472F2
:101F900069766572732F686333325F6C6C5F64724D
:101FA000697665722F7372632F686333325F6C6C6E
:101FB0005F696E74657272757074732E63000000D1
:101FC000E01F00000080FF1F0C000000901E0000BA
:101FD000EC1F00000C80FF1F040E0000A01E00007C
:0C1FE000000000000000000000000000F5
:040000050000028174
:00000001FF
