:020000040000FA
:10000000108FFF1F95020000C5020000C70200000C
:10001000C9020000CB020000CD0200000000000079
:10002000000000000000000000000000CF020000FF
:10003000D102000000000000D3020000D502000041
:1000400099190000A9190000B9190000C919000088
:10005000D9190000E9190000F9190000091A000077
:10006000191A0000291A0000391A0000491A000064
:10007000591A0000691A0000791A0000891A000054
:10008000991A0000A91A0000B91A0000C91A000044
:10009000D91A0000E91A0000F91A0000091B000033
:1000A000191B0000291B0000391B0000491B000020
:1000B000591B0000691B0000791B0000891B000010
:1000C000991B0000A91B0000B91B0000C91B000000
:1000D000D91B0000E91B0000F91B0000091C0000EF
:1000E000191C0000291C0000391C0000491C0000DC
:1000F000591C0000691C0000791C0000891C0000CC
:10010000991C0000A91C0000B91C0000C91C0000BB
:10011000D91C0000E91C0000F91C0000091D0000AA
:10012000191D0000291D0000391D0000491D000097
:10013000591D0000691D0000791D0000891D000087
:10014000991D0000A91D0000B91D0000C91D000077
:10015000D91D0000E91D0000F91D0000091E000066
:10016000191E0000291E0000391E0000491E000053
:10017000591E0000691E0000791E0000891E000043
:10018000991E0000A91E0000B91E0000C91E000033
:10019000D91E0000E91E0000F91E0000091F000022
:1001A000191F0000291F0000391F0000491F00000F
:1001B000591F0000691F0000791F0000891F0000FF
:1001C000991F0000A91F0000B91F0000C91F0000EF
:1001D000D91F0000E91F0000F91F000009200000DE
:1001E00019200000292000003920000049200000CB
:1001F00059200000692000007920000089200000BB
:1002000099200000A9200000B9200000C9200000AA
:10021000D9200000E9200000F92000000921000099
:100220001921000029210000392100004921000086
:100230005921000069210000792100008921000076
:10024000D7020000D7020000D7020000D70200004A
:10025000D7020000D7020000D7020000D70200003A
:10026000D7020000D7020000D7020000D70200002A
:10027000D7020000D7020000D7020000D70200001A
:10028000DFF80CD000F052F800480047510300009E
:10029000108FFF1F10484FF0770101600F484FF09B
:1002A000770101600E484FF4885101600A484FF011
:1002B0007601016009484FF07601016009488047E6
:1002C00009480047FEE7FEE7FEE7FEE7FEE7FEE738
:1002D000FEE7FEE7FEE7FEE7040805400C080540E0
:1002E000000805409D32000081020000D2B201E00A
:1002F00000F8012B491EFBD270470022F6E710B52B
:1003000013460A4604461946FFF7F0FF204610BD83
:1003100030B504460020034600E05B1C934203D244
:10032000E05CCD5C401BF8D030BD0000064C074DB2
:1003300006E0E06840F0010394E8070098471034B5
:10034000AC42F6D3FFF7A0FFD4330000F433000033
:1003500010B502F03DFF02F0BBFF002010BD000011
:1003600010B58AB005A801F0ADFA002415E01A4ACC
:1003700002EB84025188184A12F8240005AA00F002
:10038000FDFF154A02EB84025188134A12F824003B
:10039000082201F08DF9601CC4B2032CE7D30121BF
:1003A000C80700F04BFF012000F062FA684602F037
:1003B00025F8002000904FF0106001904FF480105D
:1003C0000290C01003904FF4E0400490684601F0A2
:1003D00015FF0AB010BD00004433000001460020A4
:1003E000054A12680A402AB10120034A12688A436A
:1003F000014B1A60704700008880FF1F00BFFEE7B6
:10040000BFFFDFFFFFFEFFFFFFFFFFFFFFFFFFFF5D
:10041000FFFFFFFFFFFFFFFFFFFFFFFFFFFFFFFFEC
:100420001FB502A800F0A8FD684600F03DFC2B496E
:100430002B4800F062FC00208DF80A0030208DF877
:10044000090000208DF8080005208DF80C0002A896
:1004500000F0E8FC00200190019820F01F000190BE
:100460003121019861F310200190019820F0704033
:1004700000F180500190019820F0706000F18070D0
:100480000190019820F4700000F580100190002088
:100490008DF80000019820F080000190684600F07F
:1004A000A9FA00BF202000F0ABF90128FAD1002200
:1004B0001146042002F09CFB012211460B2002F0A1
:1004C00097FB502000F0A8FD4FF4404001F0ACF93C
:1004D00002F032F8052000F01AFC1FBD10221100B6
:1004E0007777770710B500F0A9F8FFF739FF0024F8
:1004F00007E0074901EB0411486800F0F1FD601CBA
:10050000C4B2042CF5D3012001F046FE10BD00005A
:100510005033000010B50848006840F400600649F8
:10052000086000BF0221012001F02CF80028F9D05A
:10053000022000F0D5FD10BD8880FF1F10B500BF60
:100540001048006800F0070004460F49486800F0B2
:10055000E3FD012814D100BF0B4A5188107801F047
:1005600011F838B90120A040084909680843074933
:100570000860F1E70449486800F0B2FD00BF00BF21
:1005800010BD0000080C0540503300008880FF1F9C
:1005900010B500BF1048006800F0070004460F497E
:1005A000486900F0B9FD012814D100BF0B4A518AF7
:1005B000107C00F0E7FF38B91020A0400849096816
:1005C000084307490860F1E70449486900F088FDDD
:1005D00000BF00BF10BD0000080C054050330000F4
:1005E0008880FF1F10B500BF1148006800F00700A9
:1005F00004461049486A00F08FFD012816D100BF5B
:100600000C4A518C92F8200000F0BCFF40B94FF426
:100610008070A04008490968084307490860EFE76F
:100620000449486A00F05CFD00BF00BF10BD000037
:10063000080C0540503300008880FF1F30B58BB098
:1006400001A801F03FF94FF48050ADF812004020AE
:10065000ADF80E0000240CE0374A02EB041251887A
:10066000354A02EB0412107801AA00F087FE601CE4
:10067000C4B2042CF0D308A800F0D6FD00200A90E4
:10068000002408E02C4901EB0411486808A900F097
:1006900061FD601CC4B2042CF4D3002447E026485A
:1006A00000EB04100089ADF81800234800EB04109B
:1006B0004089ADF81A00204800EB0410C06807908C
:1006C00006A801F00FF9BDF91A00002807DB00F0B9
:1006D0001F0201219140194A430942F8231000BF2B
:1006E000BDF91A000F21002804DB0A07130E144A73
:1006F000135406E00A07150E124A00F00F031B1FE1
:10070000D55400BFBDF91A0000280DDB00BF00BFA3
:1007100000F01F02012191404209920002F1E02203
:10072000C2F8001100BF00BF00BF601CC4B2042C9F
:10073000B5D30BB030BD00005033000080E200E0C4
:1007400000E400E018ED00E010B586B001A801F06B
:10075000B9F80220ADF8060000240BE0074A02EBCE
:1007600084025188054A12F8240001AA00F006FE0E
:10077000601CC4B2042CF1D306B010BD34330000A9
:1007800070B5054600240FE045FA04F000F00100C2
:1007900040B1074A02EB84025188054A12F824004E
:1007A00000F03CFF601CC4B2042CEDD370BD00000F
:1007B0003433000070B5054600240FE045FA04F01C
:1007C00000F0010040B1074A02EB84025188054A5B
:1007D00012F8240000F0DEFF601CC4B2042CEDD33C
:1007E00070BD00003433000008B50021009102E024
:1007F0000099491C009100998142F9D308BD00007D
:1008000010B5044600BF24B144F06900692800D146
:1008100004E040F2BB5106A0FFF7F0FD00BF134813
:100820000078204008B1012010BD0020FCE7000046
:100830002E2E2F2E2E2F2E2E2F2E2E2F2E2E2F2ED3
:100840002E2F647269766572732F686333325F6C22
:100850006C5F6472697665722F7372632F6863339D
:10086000325F6C6C5F636C6B2E6300003C40054034
:1008700070B50446002500BF0CB1012C00D104E086
:1008800040F2023114A0FFF7B9FD00BF00BF2148BC
:10089000008800F0010000B104E040F203310EA036
:1008A000FFF7ACFD00BF6CB91B48007800F00700F3
:1008B000022802D16FF005050BE00120154929310E
:1008C000087006E000201349293108704815FFF729
:1008D0008BFF284670BD00002E2E2F2E2E2F2E2E81
:1008E0002F2E2E2F2E2E2F2E2E2F647269766572AC
:1008F000732F686333325F6C6C5F64726976657204
:100900002F7372632F686333325F6C6C5F636C6B41
:100910002E630000FE4305402640054070B50446A6
:10092000002500BF0CB1012C00D104E040F20E51B3
:100930001FA0FFF763FD00BF00BF2C48008800F038
:10094000010000B104E040F20F5119A0FFF756FD7D
:1009500000BF64B92648007800F00700052801D1DF
:10096000C54322E001202249091D08701DE02048EE
:10097000DA300068C0F3C01030B94FF4805108205D
:1009800000F0CDF9054605E04FF48051012000F05C
:10099000C6F905464DB900201549091D08704FF4E8
:1009A0008051202000F0BBF90546284670BD0000AC
:1009B0002E2E2F2E2E2F2E2E2F2E2E2F2E2E2F2E52
:1009C0002E2F647269766572732F686333325F6CA1
:1009D0006C5F6472697665722F7372632F6863331C
:1009E000325F6C6C5F636C6B2E630000FE430540EE
:1009F000264005402DE9F041044614B96FF0020687
:100A00001FE100BF2079C0F3C01018B12079C0F3F6
:100A1000C01000B104E040F2DF418BA0FFF7EEFC14
:100A200000BF00BF207900F01F00401C182805D827
:100A3000207900F01F00401C00B104E04FF49C61DD
:100A400081A0FFF7DBFC00BF00BF6068C0F3082097
:100A5000401CB0F5F07F06D86068C0F30820401C49
:100A6000142800D304E040F2E14177A0FFF7C6FC70
:100A700000BF00BF0121606801EB1070102805D88D
:100A8000606801EB1070022800D304E040F2E241FC
:100A90006DA0FFF7B3FC00BF2079C0F3C01008B908
:100AA000784901E078480168207900F01F00401C77
:100AB000B1FBF0F76068C0F30820401C00FB07F5AD
:100AC00000BF7248874203D87148874200D304E0D0
:100AD0004FF49D615CA0FFF791FC00BF00BF6D4823
:100AE000854203D84010854200D304E040F2E9413A
:100AF00055A0FFF783FC00BF00BF0121606801EB38
:100B00001070B5FBF0F06449884209D80121606893
:100B100001EB1070B5FBF0F06049884200D304E0AF
:100B200040F2EA4148A0FFF769FC00BF00BF6068DF
:100B3000C0F30360401C102806D86068C0F303604F
:100B4000401C022800D304E040F2EB413EA0FFF736
:100B500055FC00BF00BF6068C0F30350401C102864
:100B600006D86068C0F30350401C022800D304E09C
:100B700040F2EC4134A0FFF741FC00BF00BF6068C9
:100B8000C0F30350401CB5FBF0F04349884209D83C
:100B90006068C0F30350401CB5FBF0F009118842B7
:100BA00000D304E040F2ED4127A0FFF727FC00BF8F
:100BB00000BF6068C0F30360401CB5FBF0F036492D
:100BC000884209D86068C0F30360401CB5FBF0F0B0
:100BD0000911884200D304E040F2EE411AA0FFF769
:100BE0000DFC00BF00BF2078012801D0207800B99B
:100BF00004E040F2EF4114A0FFF700FC00BF00BF8B
:100C00002748008800F0010000B104E04FF49E6125
:100C10000DA0FFF7F3FB00BF2079C1092148006850
:100C200061F3C7101F49086060680860207820B928
:100C30000120FFF773FE064603E00020FFF76EFE7B
:100C400006463046BDE8F0812E2E2F2E2E2F2E2E5A
:100C50002F2E2E2F2E2E2F2E2E2F64726976657238
:100C6000732F686333325F6C6C5F64726976657290
:100C70002F7372632F686333325F6C6C5F636C6BCE
:100C80002E63000000127A000480FF1F40787D016F
:100C900040420F0000389C1C001C4E0EC0E1E400D6
:100CA000FE430540004105400146002009B9C01E31
:100CB00022E000224A604A6822F080024A604A68C4
:100CC00022F01F024A6013234A6863F310224A602D
:100CD0004A6822F0704202F180524A604A6822F06B
:100CE000706202F180724A604A6822F4700202F572
:100CF00080124A6001220A70704770B504460D46A2
:100D00002946204601F0F0FF02F062FA70BD10B5EE
:100D10000446204602F0ACF902F05AFA10BDF8B5CC
:100D200005460C46002000906FF0070609E02846B3
:100D3000FFF766FD012801D1002605E00098401C60
:100D400000900098A042F2D900BF3046F8BD0000E4
:100D500070B50446002500BF0CB1012C00D104E0A1
:100D600040F2CB311EA0FFF749FB00BF00BF2B486C
:100D7000008800F0010000B104E04FF4737118A086
:100D8000FFF73CFB00BFFCB92548007800F00700E6
:100D9000032802D16FF0050520E02148DA30006811
:100DA000C0F3C01058B91E48001D007810B96FF08C
:100DB000050513E001201A490C3108700EE00120EE
:100DC00017490C31087009E0002015490C310870F2
:100DD0004FF480510820FFF7A2FF0546284670BD5A
:100DE0002E2E2F2E2E2F2E2E2F2E2E2F2E2E2F2E1E
:100DF0002E2F647269766572732F686333325F6C6D
:100E00006C5F6472697665722F7372632F686333E7
:100E1000325F6C6C5F636C6B2E630000FE430540B9
:100E20002640054070B5044614B96FF002057FE016
:100E300000BF2078012801D0207800B904E040F2FA
:100E4000A9313CA0FFF7DAFA00BF00BF607840B1DB
:100E50006078102805D06078202802D0607830288B
:100E600000D104E040F2AA3132A0FFF7C7FA00BF78
:100E700000BFA07810B1A078402800D104E040F273
:100E8000AB312CA0FFF7BAFA00BF00BFE078802892
:100E900001D0E07800B904E04FF46B7125A0FFF7B2
:100EA000ADFA00BF00BF2079012817D020790228B1
:100EB00014D02079032811D0207904280ED020796D
:100EC00005280BD02079062808D02079072805D0DE
:100ED0002079082802D02079092800D104E040F2C6
:100EE000AD3114A0FFF78AFA00BF00BF2048008888
:100EF00000F0010000B104E040F2AE310DA0FFF7B8
:100F00007DFA00BF20791B490870E07861780843BA
:100F1000A1780843164912310870207820B90120C1
:100F2000FFF716FF054603E00020FFF711FF054617
:100F3000284670BD2E2E2F2E2E2F2E2E2F2E2E2FEA
:100F40002E2E2F2E2E2F647269766572732F686392
:100F500033325F6C6C5F6472697665722F73726393
:100F60002F686333325F6C6C5F636C6B2E630000C1
:100F7000FE430540A24005400146002009B9C01EBD
:100F800008E001220A7000228A704A708022CA702A
:100F900005220A717047000008B50D49096AC1F3BE
:100FA00002630C490968D94042F210731944491E82
:100FB000B1FBF3F206E0009200BF00994B1E0093D4
:100FC0000029FAD1011EA0F10100F4D108BD0000F2
:100FD000004005400080FF1F08B50C49096AC1F3B5
:100FE00002630B490968D9400A4B1944491EB1FBF9
:100FF000F3F206E0009200BF00994B1E0093002917
:10100000FAD1011EA0F10100F4D108BD0040054055
:101010000080FF1F8096980070B50446002500BF31
:101020001D480068012800D104E040F207111BA010
:10103000FFF7E4F900BF00BFF02C00D804E04FF444
:10104000847116A0FFF7DAF900BF13480830006872
:1010500020F0F00004F0F00108430F490831086067
:1010600010E06D1C1C48006AC0F302611B48006858
:10107000C84044F62061B0FBF1F0A84202D26FF004
:10108000070070BD04480830006800F0F000A0427E
:10109000E7D10020F5E70000000401402E2E2F2E9E
:1010A0002E2F2E2E2F2E2E2F2E2E2F2E2E2F6472E1
:1010B00069766572732F686333325F6C6C5F64723C
:1010C000697665722F7372632F686333325F6C6C5D
:1010D0005F65666D2E630000004005400080FF1FC5
:1010E00010B5044600BF3CB14FF6FF7020434FF6E9
:1010F000FF71884200D104E040F203210448FFF769
:101100007DF900BF0348806D20430249886510BD0A
:10111000903300000010054010B5044600BF3CB1FC
:101120004FF6FF7020434FF6FF71884200D104E074
:101130004FF404710548FFF761F900BF0448406DA2
:10114000204008B1012010BD0020FCE790330000D2
:10115000001005402DE9F04706460C464FF0000907
:1011600014B96FF0020958E000BF3EB14FF6FF70AE
:1011700030434FF6FF71884200D104E040F2D311B2
:101180002748FFF73BF900BF00BF206810B1206877
:10119000802800D104E04FF4EA712148FFF72EF9CE
:1011A00000BF00BF606840B16068102805D060686B
:1011B000202802D06068302800D104E040F2D51128
:1011C0001748FFF71BF900BF00BFA068032807D02E
:1011D000A068012804D0A06810B1A068022800D13E
:1011E00004E04FF4EB710E48FFF708F900BF00254B
:1011F00011E00120A840304058B1D4E90001084373
:10120000A16840EA01070748042101FB0508C8F866
:101210000070681CC5B2102DEBD34846BDE8F087BE
:1012200090330000101005400146002009B9C01E8F
:1012300003E000220A604A608A60704770B5044685
:101240000D4600BF2CB1174820431649884200D1F3
:1012500003E0712114A0FFF7D1F800BF00BF0DB16A
:10126000012D00D103E072210FA0FFF7C7F800BFE6
:1012700000BF1C48006900F0010000B103E07321C9
:1012800009A0FFF7BBF800BF012D05D11548006884
:10129000A0431449086004E0124800682043114943
:1012A000086070BD11C5F38F2E2E2F2E2E2F2E2EDF
:1012B0002F2E2E2F2E2E2F2E2E2F647269766572D2
:1012C000732F686333325F6C6C5F6472697665722A
:1012D0002F7372632F686333325F6C6C5F66636772
:1012E0002E6300000080044070B504460D4600BF28
:1012F0002CB1114820431049884200D103E08421D9
:101300000EA0FFF77BF800BF00BF0DB1012D00D18B
:1013100003E0852109A0FFF771F800BF012D05D179
:1013200015484068A0431449486004E012484068EA
:1013300020431149486070BD79FD0F0F2E2E2F2ECE
:101340002E2F2E2E2F2E2E2F2E2E2F2E2E2F64723E
:1013500069766572732F686333325F6C6C5F647299
:10136000697665722F7372632F686333325F6C6CBA
:101370005F6663672E630000008004402DE9F05F24
:1013800005460F4614464FF0000B14B96FF0020BE0
:10139000D5E000BF6B48008800F0010000B103E019
:1013A000FF2169A0FFF72AF800BF00BF4DB1012D52
:1013B00007D0022D05D0032D03D0042D01D0052D1B
:1013C00000D104E04FF480715FA0FFF717F800BF71
:1013D00000BF17B1B8B200B104E040F201115AA049
:1013E000FFF70CF800BF00BF208810B1208801284B
:1013F00000D104E04FF4817153A0FEF7FFFF00BF5E
:1014000000BF608810B16088022800D104E040F27B
:1014100003114DA0FEF7F2FF00BF00BFA08810B17E
:10142000A088042800D104E04FF4827146A0FEF7A2
:10143000E5FF00BF00BFE08828B1E088102802D097
:10144000E088202800D104E040F205113EA0FEF71C
:10145000D5FF00BF00BF208918B12089B0F5804FAB
:1014600000D104E04FF4837137A0FEF7C7FF00BF3F
:1014700000BF608910B16089402800D104E040F2CB
:10148000071131A0FEF7BAFF00BF00BFA08918B155
:10149000A089B0F5007F00D104E04FF484712AA048
:1014A000FEF7ACFF00BF00BFE08918B1E089B0F5DE
:1014B000805F00D104E040F2091123A0FEF79EFFF7
:1014C00000BF00BF208A18B1208AB0F5004F00D1BC
:1014D00004E04FF485711CA0FEF790FF00BF0026CA
:1014E0002BE00120B040384028B3208861880843B1
:1014F000A1880843E188084361890843A18908431A
:10150000E1890843218940EA010A45F27728208AC7
:1015100040EA0A0A48F400480A48001D00EB85101A
:1015200000EB8609B9F8000020EA08000AEA080181
:101530000843A9F80000701CC6B2102ED1D358463B
:10154000BDE8F09FFC3B05402E2E2F2E2E2F2E2E79
:101550002F2E2E2F2E2E2F2E2E2F6472697665722F
:10156000732F686333325F6C6C5F64726976657287
:101570002F7372632F686333325F6C6C5F677069BF
:101580006F2E630070B504460D4600BF4CB1012CB0
:1015900007D0022C05D0032C03D0042C01D0052C3D
:1015A00000D104E040F2F1110CA0FEF727FF00BFCC
:1015B00000BF15B1A8B200B104E04FF4F97107A063
:1015C000FEF71CFF00BF144901EB0410B0F800083F
:1015D000284008B1012070BD0020FCE72E2E2F2EE0
:1015E0002E2F2E2E2F2E2E2F2E2E2F2E2E2F64729C
:1015F00069766572732F686333325F6C6C5F6472F7
:10160000697665722F7372632F686333325F6C6C17
:101610005F6770696F2E63000030054070B5044647
:101620000D4600BF4CB1012C07D0022C05D0032C75
:1016300003D0042C01D0052C00D104E040F23D2160
:101640000BA0FEF7DBFE00BF00BF15B1A8B200B1D2
:1016500004E040F23E2106A0FEF7D0FE00BF134892
:10166000102101FB040630882843308070BD000043
:101670002E2E2F2E2E2F2E2E2F2E2E2F2E2E2F2E85
:101680002E2F647269766572732F686333325F6CD4
:101690006C5F6472697665722F7372632F6863334F
:1016A000325F6C6C5F6770696F2E63000A380540AB
:1016B0002DE9F04104460F46164600BF4CB1012CFF
:1016C00007D0022C05D0032C03D0042C01D0052C0C
:1016D00000D104E040F277111EA0FEF78FFE00BF9C
:1016E00000BF17B1B8B200B104E04FF4BC7119A04B
:1016F000FEF784FE00BF00BF0F2E03D9202E02D3B9
:101700003B2E00D804E040F2791112A0FEF776FEDD
:1017100000BF00BF1E48008800F0010000B104E0D7
:101720004FF4BD710BA0FEF769FE00BF00250DE070
:101730000120A840384038B11548801D00EB8410C6
:1017400000EB8508A8F80060681CC5B2102DEFD327
:10175000BDE8F0812E2E2F2E2E2F2E2E2F2E2E2F47
:101760002E2E2F2E2E2F647269766572732F68636A
:1017700033325F6C6C5F6472697665722F7372636B
:101780002F686333325F6C6C5F6770696F2E630024
:10179000FC3B054070B504460D4600BF4CB1012C22
:1017A00007D0022C05D0032C03D0042C01D0052C2B
:1017B00000D104E040F22B210BA0FEF71FFE00BF7A
:1017C00000BF15B1A8B200B104E04FF40B7106A040
:1017D000FEF714FE00BF1348102101FB04063088F9
:1017E0002843308070BD00002E2E2F2E2E2F2E2E3F
:1017F0002F2E2E2F2E2E2F2E2E2F6472697665728D
:10180000732F686333325F6C6C5F647269766572E4
:101810002F7372632F686333325F6C6C5F6770691C
:101820006F2E63000838054010B5044600BF44B170
:10183000B4F5804F05D0B4F5004F02D0B4F5404F59
:1018400000D104E040F2CD110EA0FEF7D7FD00BF9D
:1018500000BF1B48008800F0010000B104E04FF415
:10186000E77108A0FEF7CAFD00BF1548001F0088F9
:10187000C0F30D0004F4404108431149091F0880DA
:1018800010BD00002E2E2F2E2E2F2E2E2F2E2E2F5F
:101890002E2E2F2E2E2F647269766572732F686339
:1018A00033325F6C6C5F6472697665722F7372633A
:1018B0002F686333325F6C6C5F6770696F2E6300F3
:1018C000FC3B05400146002009B9C01E09E000228A
:1018D0000A804A80CA800A820A814A818A81CA8132
:1018E0008A80704770B5044600260CB9F61E4BE09E
:1018F00000BF2088B0F5007F00DA03E0C321234851
:10190000FEF77CFD00BF2088400900EB400020214D
:1019100001EB4000B4F9021088420AD8208840093F
:1019200000EB4000252101EB4000B4F90210884291
:1019300006D2B4F90200202802D36FF0020623E099
:1019400060881349042212FB00152868C0F30800C0
:1019500040F2FF11884208D120882860B4F90210B3
:101960000C4A606842F821000EE020882968C1F323
:101970000801884206D1B4F90210064A606842F8AC
:10198000210001E06FF00106304670BD9033000089
:101990005C1005400C81FF1F10B5024908688047A4
:1019A00010BD00000C81FF1F10B502494868804738
:1019B00010BD00000C81FF1F10B5024988688047E8
:1019C00010BD00000C81FF1F10B50249C868804798
:1019D00010BD00000C81FF1F10B502490869804747
:1019E00010BD00000C81FF1F10B5024948698047F7
:1019F00010BD00000C81FF1F10B5024988698047A7
:101A000010BD00000C81FF1F10B50249C869804756
:101A100010BD00000C81FF1F10B50249086A804705
:101A200010BD00000C81FF1F10B50249486A8047B5
:101A300010BD00000C81FF1F10B50249886A804765
:101A400010BD00000C81FF1F10B50249C86A804715
:101A500010BD00000C81FF1F10B50249086B8047C4
:101A600010BD00000C81FF1F10B50249486B804774
:101A700010BD00000C81FF1F10B50249886B804724
:101A800010BD00000C81FF1F10B50249C86B8047D4
:101A900010BD00000C81FF1F10B50249086C804783
:101AA00010BD00000C81FF1F10B50249486C804733
:101AB00010BD00000C81FF1F10B50249886C8047E3
:101AC00010BD00000C81FF1F10B50249C86C804793
:101AD00010BD00000C81FF1F10B50249086D804742
:101AE00010BD00000C81FF1F10B50249486D8047F2
:101AF00010BD00000C81FF1F10B50249886D8047A2
:101B000010BD00000C81FF1F10B50249C86D804751
:101B100010BD00000C81FF1F10B50249086E804700
:101B200010BD00000C81FF1F10B50249486E8047B0
:101B300010BD00000C81FF1F10B50249886E804760
:101B400010BD00000C81FF1F10B50249C86E804710
:101B500010BD00000C81FF1F10B50249086F8047BF
:101B600010BD00000C81FF1F10B50249486F80476F
:101B700010BD00000C81FF1F10B50249886F80471F
:101B800010BD00000C81FF1F10B50249C86F8047CF
:101B900010BD00000C81FF1F10B50249D1F8800074
:101BA000804710BD0C81FF1F10B50249D1F8840099
:101BB000804710BD0C81FF1F10B50249D1F8880085
:101BC000804710BD0C81FF1F10B50249D1F88C0071
:101BD000804710BD0C81FF1F10B50249D1F890005D
:101BE000804710BD0C81FF1F10B50249D1F8940049
:101BF000804710BD0C81FF1F10B50249D1F8980035
:101C0000804710BD0C81FF1F10B50249D1F89C0020
:101C1000804710BD0C81FF1F10B50249D1F8A0000C
:101C2000804710BD0C81FF1F10B50249D1F8A400F8
:101C3000804710BD0C81FF1F10B50249D1F8A800E4
:101C4000804710BD0C81FF1F10B50249D1F8AC00D0
:101C5000804710BD0C81FF1F10B50249D1F8B000BC
:101C6000804710BD0C81FF1F10B50249D1F8B400A8
:101C7000804710BD0C81FF1F10B50249D1F8B80094
:101C8000804710BD0C81FF1F10B50249D1F8BC0080
:101C9000804710BD0C81FF1F10B50249D1F8C0006C
:101CA000804710BD0C81FF1F10B50249D1F8C40058
:101CB000804710BD0C81FF1F10B50249D1F8C80044
:101CC000804710BD0C81FF1F10B50249D1F8CC0030
:101CD000804710BD0C81FF1F10B50249D1F8D0001C
:101CE000804710BD0C81FF1F10B50249D1F8D40008
:101CF000804710BD0C81FF1F10B50249D1F8D800F4
:101D0000804710BD0C81FF1F10B50249D1F8DC00DF
:101D1000804710BD0C81FF1F10B50249D1F8E000CB
:101D2000804710BD0C81FF1F10B50249D1F8E400B7
:101D3000804710BD0C81FF1F10B50249D1F8E800A3
:101D4000804710BD0C81FF1F10B50249D1F8EC008F
:101D5000804710BD0C81FF1F10B50249D1F8F0007B
:101D6000804710BD0C81FF1F10B50249D1F8F40067
:101D7000804710BD0C81FF1F10B50249D1F8F80053
:101D8000804710BD0C81FF1F10B50249D1F8FC003F
:101D9000804710BD0C81FF1F10B50249D1F800012A
:101DA000804710BD0C81FF1F10B50249D1F8040116
:101DB000804710BD0C81FF1F10B50249D1F8080102
:101DC000804710BD0C81FF1F10B50249D1F80C01EE
:101DD000804710BD0C81FF1F10B50249D1F81001DA
:101DE000804710BD0C81FF1F10B50249D1F81401C6
:101DF000804710BD0C81FF1F10B50249D1F81801B2
:101E0000804710BD0C81FF1F10B50249D1F81C019D
:101E1000804710BD0C81FF1F10B50249D1F8200189
:101E2000804710BD0C81FF1F10B50249D1F8240175
:101E3000804710BD0C81FF1F10B50249D1F8280161
:101E4000804710BD0C81FF1F10B50249D1F82C014D
:101E5000804710BD0C81FF1F10B50249D1F8300139
:101E6000804710BD0C81FF1F10B50249D1F8340125
:101E7000804710BD0C81FF1F10B50249D1F8380111
:101E8000804710BD0C81FF1F10B50249D1F83C01FD
:101E9000804710BD0C81FF1F10B50249D1F84001E9
:101EA000804710BD0C81FF1F10B50249D1F84401D5
:101EB000804710BD0C81FF1F10B50249D1F84801C1
:101EC000804710BD0C81FF1F10B50249D1F84C01AD
:101ED000804710BD0C81FF1F10B50249D1F8500199
:101EE000804710BD0C81FF1F10B50249D1F8540185
:101EF000804710BD0C81FF1F10B50249D1F8580171
:101F0000804710BD0C81FF1F10B50249D1F85C015C
:101F1000804710BD0C81FF1F10B50249D1F8600148
:101F2000804710BD0C81FF1F10B50249D1F8640134
:101F3000804710BD0C81FF1F10B50249D1F8680120
:101F4000804710BD0C81FF1F10B50249D1F86C010C
:101F5000804710BD0C81FF1F10B50249D1F87001F8
:101F6000804710BD0C81FF1F10B50249D1F87401E4
:101F7000804710BD0C81FF1F10B50249D1F87801D0
:101F8000804710BD0C81FF1F10B50249D1F87C01BC
:101F9000804710BD0C81FF1F10B50249D1F88001A8
:101FA000804710BD0C81FF1F10B50249D1F8840194
:101FB000804710BD0C81FF1F10B50249D1F8880180
:101FC000804710BD0C81FF1F10B50249D1F88C016C
:101FD000804710BD0C81FF1F10B50249D1F8900158
:101FE000804710BD0C81FF1F10B50249D1F8940144
:101FF000804710BD0C81FF1F10B50249D1F8980130
:10200000804710BD0C81FF1F10B50249D1F89C011B
:10201000804710BD0C81FF1F10B50249D1F8A00107
:10202000804710BD0C81FF1F10B50249D1F8A401F3
:10203000804710BD0C81FF1F10B50249D1F8A801DF
:10204000804710BD0C81FF1F10B50249D1F8AC01CB
:10205000804710BD0C81FF1F10B50249D1F8B001B7
:10206000804710BD0C81FF1F10B50249D1F8B401A3
:10207000804710BD0C81FF1F10B50249D1F8B8018F
:10208000804710BD0C81FF1F10B50249D1F8BC017B
:10209000804710BD0C81FF1F10B50249D1F8C00167
:1020A000804710BD0C81FF1F10B50249D1F8C40153
:1020B000804710BD0C81FF1F10B50249D1F8C8013F
:1020C000804710BD0C81FF1F10B50249D1F8CC012B
:1020D000804710BD0C81FF1F10B50249D1F8D00117
:1020E000804710BD0C81FF1F10B50249D1F8D40103
:1020F000804710BD0C81FF1F10B50249D1F8D801EF
:10210000804710BD0C81FF1F10B50249D1F8DC01DA
:10211000804710BD0C81FF1F10B50249D1F8E001C6
:10212000804710BD0C81FF1F10B50249D1F8E401B2
:10213000804710BD0C81FF1F10B50249D1F8E8019E
:10214000804710BD0C81FF1F10B50249D1F8EC018A
:10215000804710BD0C81FF1F10B50249D1F8F00176
:10216000804710BD0C81FF1F10B50249D1F8F40162
:10217000804710BD0C81FF1F10B50249D1F8F8014E
:10218000804710BD0C81FF1F10B50249D1F8FC013A
:10219000804710BD0C81FF1F10B5044600BF0CB175
:1021A000012C00D103E0962103A0FEF727F900BF20
:1021B0001148046010BD00002E2E2F2E2E2F2E2E23
:1021C0002F2E2E2F2E2E2F2E2E2F647269766572B3
:1021D000732F686333325F6C6C5F6472697665720B
:1021E0002F7372632F686333325F6C6C5F6B65793A
:1021F0007363616E2E630000040C054070B50446E5
:1022000000250CB9ED1ED5E000BF2068D8B12068CC
:10221000B0F1005F17D02068B0F1804F13D0206874
:10222000B0F1C04F0FD02068B0F1004F0BD0206844
:10223000B0F1204F07D02068B0F1404F03D02068A4
:10224000B0F1604F00D103E0C5215BA0FEF7D6F8E6
:1022500000BF00BF6068B0F1007F57D06068B0F188
:10226000407F53D06068B0F1806F4FD06068B0F1AC
:10227000A06F4BD06068B0F1C06F47D06068B0F11C
:10228000E06F43D06068B0F1006F3FD06068B0F19C
:10229000106F3BD06068B0F1206F37D06068B0F14C
:1022A000306F33D06068B0F1406F2FD06068B0F10C
:1022B000506F2BD06068B0F1606F27D06068B0F1CC
:1022C000706F23D06068B0F1805F1FD06068B0F19C
:1022D000885F1BD06068B0F1905F17D06068B0F184
:1022E000985F13D06068B0F1A05F0FD06068B0F164
:1022F000A85F0BD06068B0F1B05F07D06068B0F144
:10230000B85F03D06068B0F1C05F00D103E0C621C0
:1023100029A0FEF773F800BF00BFA06838B1A0681D
:10232000B0F5801F03D0A068B0F5001F00D103E016
:10233000C72121A0FEF762F800BF00BFE068B0F53A
:10234000803F17D0E068B0F5003F13D0E068B0F5EB
:10235000403F0FD0E068B0F5802F0BD0E068B0F5BB
:10236000A02F07D0E068B0F5C02F03D0E068B0F52B
:10237000E02F00D103E0C8210FA0FEF73FF800BF17
:1023800000BF206930B14FF6FF71206908438842D1
:1023900000D103E0C92108A0FEF730F800BFD4E95E
:1023A00000010843A1680843E16808432169084324
:1023B00011490860284670BD2E2E2F2E2E2F2E2E4E
:1023C0002F2E2E2F2E2E2F2E2E2F647269766572B1
:1023D000732F686333325F6C6C5F64726976657209
:1023E0002F7372632F686333325F6C6C5F6B657938
:1023F0007363616E2E630000000C054001460020EF
:1024000009B9C01E0BE000220A604FF000724A605A
:1024100000228A604FF48032CA6001220A6170474C
:1024200010B5044604F0010048B100BF40F223108B
:102430001A49086043F21020086000BF00BF04F092
:10244000020028B100BF16481649086100BF00BF4E
:1024500004F0040030B100BF4AF201501249088074
:1024600000BF00BF04F0100018B14AF2085000F09D
:10247000B3F804F0400018B14AF2035000F0ACF891
:1024800004F0800040B100BF772008490860074988
:102490000831086000BF00BF10BD0000000401400B
:1024A0000100A5A500800440FC3B05400408054050
:1024B00010B5044604F0010028B100BF00201949FE
:1024C000086000BF00BF04F0020028B100BF16483A
:1024D0001649086100BF00BF04F0040030B100BF1E
:1024E0004FF425401249088000BF00BF04F01000DF
:1024F00018B14AF2085000F061F804F0400018B139
:102500004AF2035000F05AF804F0800040B100BFD6
:1025100076200849086007490831086000BF00BFFD
:1025200010BD0000000401400000A5A5008004408B
:10253000FC3B05400408054010B500BF0F4800886B
:1025400000F00200022800D104E040F23F410CA05C
:10255000FDF754FF00BF0948001D007800F0C000DF
:1025600040F00F000549091D087010200349113182
:1025700008701E20FEF730FD002010BDFE43054010
:102580002E2E2F2E2E2F2E2E2F2E2E2F2E2E2F2E66
:102590002E2F647269766572732F686333325F6CB5
:1025A0006C5F6472697665722F7372632F68633330
:1025B000325F6C6C5F7077632E630000044909889A
:1025C000814341F42541034AA2F8FE1370470000FD
:1025D000FE43054000400540034909880143034A82
:1025E000A2F8FE1370470000FE430540004005407E
:1025F00070B504460D4600BF1448844208D0144804
:10260000844205D01348844202D01348844200D14A
:1026100004E040F20F2111A0FDF7F0FE00BF00BF63
:102620000DB1012D00D104E04FF404710BA0FDF7B2
:10263000E5FE00BF012D04D1606840F040006060FD
:1026400003E0606820F04000606070BD00C00140A1
:1026500000C4014000000240000402402E2E2F2E34
:102660002E2F2E2E2F2E2E2F2E2E2F2E2E2F64720B
:1026700069766572732F686333325F6C6C5F647266
:10268000697665722F7372632F686333325F6C6C87
:102690005F7370692E63000000B58BB02A22802121
:1026A0000020FFF705F82B224FF480710020FEF781
:1026B000FFFF282201210846FEF7FAFF29222021E8
:1026C0000220FEF7F5FF01210804FEF70DFE684623
:1026D00000F00CFA002000900190082002900020E9
:1026E000049001200590142006904FF4806007901C
:1026F000002008900A906946044800F05BF8012128
:102700000248FFF775FF0BB000BD000000C001409C
:1027100070B504460D46002600BF1348844208D019
:102720001248844205D01248844202D011488442A3
:1027300000D104E040F23E210FA0FDF75FFE00BF94
:1027400000BF25B145F0BF00BF2800D104E040F232
:102750003F2109A0FDF752FE00BF6069284000B18B
:102760000126304670BD000000C0014000C4014099
:1027700000000240000402402E2E2F2E2E2F2E2E5F
:102780002F2E2E2F2E2E2F2E2E2F647269766572ED
:10279000732F686333325F6C6C5F64726976657245
:1027A0002F7372632F686333325F6C6C5F73706971
:1027B0002E63000070B505460C466FF0020600BFA0
:1027C0009848854208D09848854205D09748854268
:1027D00002D09748854200D104E04FF4D17195A012
:1027E000FDF70CFE00BF002C72D000BF206810B1B6
:1027F0002068012800D104E040F2A5118DA0FDF76A
:10280000FDFD00BF00BF606810B16068022800D104
:1028100004E04FF4D37187A0FDF7F0FD00BF00BFC7
:10282000A06810B1A068082800D104E040F2A71108
:1028300080A0FDF7E3FD00BF00BFE06818B1E068CD
:10284000B0F5805F00D104E04FF4D47179A0FDF7BA
:10285000D5FD00BF00BF206938B12069B0F5004F39
:1028600003D02069B0F5404F00D104E040F2A91137
:1028700070A0FDF7C3FD00BF00BF606940B1606993
:10288000012805D06069022802D06069032800D1C0
:1028900004E04FF4D57167A0FDF7B0FD00BF00BFA5
:1028A000A069A0B1A069042811D0A06908280ED0A1
:1028B000A0690C280BD0A069102808D0A0691428A2
:1028C00005D0A069182802D0A0691C2801D105E014
:1028D000A5E040F2AB1157A0FDF790FD00BF00BF8F
:1028E000E069D8B3E069B0F5807F37D0E069B0F532
:1028F000007F33D0E069B0F5407F2FD0E069B0F5BC
:10290000806F2BD0E069B0F5A06F27D0E069B0F5FB
:10291000C06F23D0E069B0F5E06F1FD0E069B0F57B
:10292000006F1BD0E069B0F5106F17D0E069B0F50B
:10293000206F13D0E069B0F5306F0FD0E069B0F5CB
:10294000406F0BD0E069B0F5506F07D0E069B0F58B
:10295000606F03D0E069B0F5706F00D104E04FF410
:10296000D67134A0FDF74AFD00BF00BF206A18B140
:10297000206AB0F5805F00D104E040F2AD112DA0D7
:10298000FDF73CFD00BF00BF606A10B1606A80289F
:1029900000D104E04FF4D77126A0FDF72FFD00BF52
:1029A00000BFA06A40B1A06A012805D0A06A022831
:1029B00002D0A06A032800D104E040F2AF111DA0AC
:1029C000FDF71CFD00BFA068082803D1E068B0F542
:1029D000805F24D02068012806D1A06820B96069F2
:1029E000E8B1606902281AD0D4E900010843A1685F
:1029F0000843616A0843E168084321690843686045
:102A000094F82810E86861F30100E860D4E9050152
:102A10000843E1690843216A0843A861002630465B
:102A200070BD000000C0014000C401400000024031
:102A3000000402402E2E2F2E2E2F2E2E2F2E2E2F24
:102A40002E2E2F2E2E2F647269766572732F686377
:102A500033325F6C6C5F6472697665722F73726378
:102A60002F686333325F6C6C5F7370692E63000094
:102A700010B5044600BF0A48844208D00948844281
:102A800005D00948844202D00848844200D104E0BD
:102A900040F22E2106A0FDF7B1FC00BF206810BD5A
:102AA00000C0014000C40140000002400004024098
:102AB0002E2E2F2E2E2F2E2E2F2E2E2F2E2E2F2E31
:102AC0002E2F647269766572732F686333325F6C80
:102AD0006C5F6472697665722F7372632F686333FB
:102AE000325F6C6C5F7370692E63000001466FF09B
:102AF000020089B100220A604A6008228A6000222E
:102B0000CA600A614A6108228A61D201CA61002250
:102B10000A624A628A6200207047000010B5802174
:102B20001048FDF7EAFB002418E000BF20210E4802
:102B3000FFF7EEFD0028F9D00C48015D0A4800F0CF
:102B400017F800BF80210848FFF7E2FD0028F9D000
:102B50000548FFF78DFF03490855641C802CE4D31A
:102B600010BD00008C80FF1F00C001400880FF1FC7
:102B700070B504460D4600BF0A48844208D00A4892
:102B8000844205D00948844202D00948844200D1D9
:102B900004E040F2222107A0FDF730FC00BF2560D1
:102BA00070BD000000C0014000C4014000000240B0
:102BB000000402402E2E2F2E2E2F2E2E2F2E2E2FA3
:102BC0002E2E2F2E2E2F647269766572732F6863F6
:102BD00033325F6C6C5F6472697665722F737263F7
:102BE0002F686333325F6C6C5F7370692E63000013
:102BF0002DE9F04704460F4690464FF0000900BF0C
:102C000024B144F00F000F2800D103E0AA2126A030
:102C1000FDF7F4FB00BF00BF072F00D803E0AB2196
:102C200021A0FDF7EBFB00BF00BFB8F1070F00D8F4
:102C300003E0AC211CA0FDF7E1FB00BF00BF294869
:102C40000068772800D103E0AD2117A0FDF7D6FB7F
:102C500000BF24E004F00100E0B14FEAC960050EB6
:102C6000281DC6B207FA05F008FA06F10843072145
:102C7000A9400722B240114308400721A94007227A
:102C8000B2401143174A121F12688A431043154974
:102C9000091F0860640809F1010000F0FF09002C19
:102CA000D8D1BDE8F08700002E2E2F2E2E2F2E2EED
:102CB0002F2E2E2F2E2E2F2E2E2F647269766572B8
:102CC000732F686333325F6C6C5F64726976657210
:102CD0002F7372632F686333325F6C6C5F73726142
:102CE0006D2E6300040805402DE9FF4105460C46A2
:102CF0000026CA4800680390C84840680290C74848
:102D000080680190C548C068009000BF04F0E06092
:102D1000E8B104F0E060B0F1807F18D004F0E0602A
:102D2000B0F1007F13D004F0E060B0F1407F0ED02E
:102D300004F0E060B0F1806F09D004F0E060B0F121
:102D4000A06F04D004F0E060B0F1C06F00D104E0E7
:102D500040F2C621B2A0FDF751FB00BF00BF04F056
:102D60007000B8B104F07000102813D004F07000A7
:102D700020280FD004F0700030280BD004F0700031
:102D8000402807D004F07000502803D004F07000F1
:102D9000602800D104E040F2C721A1A0FDF72EFB7E
:102DA00000BF00BF04F4E020E8B104F4E020B0F577
:102DB000803F18D004F4E020B0F5003F13D004F4B5
:102DC000E020B0F5403F0ED004F4E020B0F5802FB5
:102DD00009D004F4E020B0F5A02F04D004F4E020E2
:102DE000B0F5C02F00D104E04FF432718CA0FDF794
:102DF00005FB00BF00BF04F4E000E8B104F4E0000C
:102E0000B0F5801F18D004F4E000B0F5001F13D017
:102E100004F4E000B0F5401F0ED004F4E000B0F57B
:102E2000800F09D004F4E000B0F5A00F04D004F442
:102E3000E000B0F5C00F00D104E040F2CA2178A054
:102E4000FDF7DCFA00BF00BF04F00700B8B104F0E2
:102E50000700012813D004F0070002280FD004F067
:102E6000070003280BD004F00700042807D004F063
:102E70000700052803D004F00700062800D104E06D
:102E800040F2CB2166A0FDF7B9FA00BF00BF04F401
:102E9000E060E8B104F4E060B0F5807F18D004F49D
:102EA000E060B0F5007F13D004F4E060B0F5407F3F
:102EB0000ED004F4E060B0F5806F09D004F4E06057
:102EC000B0F5A06F04D004F4E060B0F5C06F00D19D
:102ED00004E04FF4337152A0FDF790FA00BF00BF39
:102EE00004F4E040E8B104F4E040B0F5805F18D0AD
:102EF00004F4E040B0F5005F13D004F4E040B0F516
:102F0000405F0ED004F4E040B0F5804F09D004F4E7
:102F1000E040B0F5A04F04D004F4E040B0F5C04F5D
:102F200000D104E040F2CD213DA0FDF767FA00BFDB
:102F300000BF4A48284000B104E040F2CF2138A049
:102F4000FDF75CFA00BF00BF4548008800F00100B3
:102F500000B104E04FF4347131A0FDF74FFA00BF27
:102F60004048007800F00700052823D1012600BF63
:102F70002A48006900F0010000B104E040F2D721C6
:102F800027A0FDF73BFA00BF374824490860C0126C
:102F900048608860C86033482638006AC0F3026120
:102FA00032480068C8404CF25031B0FBF1F7384667
:102FB000FDF71AFC2B482638006AA84304EA0501ED
:102FC00008432849263908620846006AC0F30261AE
:102FD00026480068C8404CF25031B0FBF1F7384643
:102FE000FDF702FC012E17D10C49039808600298E6
:102FF0004860019888600098C8601A482638006ABE
:10300000C0F3026119480068C8404CF25031B0FB6F
:10301000F1F73846FDF7E8FBBDE8FF81008004408A
:103020002E2E2F2E2E2F2E2E2F2E2E2F2E2E2F2EBB
:103030002E2F647269766572732F686333325F6C0A
:103040006C5F6472697665722F7372632F68633385
:10305000325F6C6C5F636C6B2E6300007777770771
:10306000FE430540264005400EFAFFFF0080FF1F8B
:103070007FB50446002542480068039040484068F8
:1030800002903F48806801903D48C068009000BFB2
:103090004CB1012C07D0022C05D0032C03D0042CFA
:1030A00001D0052C00D104E040F2572135A0FDF7F6
:1030B000A5F900BF00BF4248008800F0010000B140
:1030C00004E04FF416712FA0FDF798F900BF3D48BA
:1030D000007800F00700052801D0052C23D1012538
:1030E00000BF2748006900F0010000B104E04FF480
:1030F000187124A0FDF782F900BF33482049086009
:10310000C01248608860C8602E482638006AC0F344
:1031100002612E480068C8404CF25031B0FBF1F615
:103120003046FDF761FB2748047026482638006AC0
:10313000C0F3026125480068C8404CF25031B0FB32
:10314000F1F63046FDF750FB012D17D10C490398DD
:10315000086002984860019888600098C860194823
:103160002638006AC0F3026118480068C8404CF273
:103170005031B0FBF1F63046FDF736FB7FBD000065
:10318000008004402E2E2F2E2E2F2E2E2F2E2E2F4F
:103190002E2E2F2E2E2F647269766572732F686320
:1031A00033325F6C6C5F6472697665722F73726321
:1031B0002F686333325F6C6C5F636C6B2E6300004F
:1031C000FE430540264005400EFAFFFF0080FF1F2A
:1031D00070B52B4D2D6805F001051DB1294D2A4E06
:1031E000356002E0294D284E3560294D2D7805F0D7
:1031F0000700062840D2DFE800F003080C11151A7A
:10320000214D2D68234E356037E0234D214E35602A
:1032100033E04FF400451F4E35602EE01E4D1D4E2D
:1032200035602AE04FF400451A4E356025E0184D10
:10323000DA352D68C5F30822154D263DD5F8005125
:103240002B0F134DDA352D6805F01F04104D263D68
:10325000D5F8005105F080050DB90F4901E00A4D80
:103260002968651CB1FBF5F5561C75435E1CB5FB62
:10327000F6F5084E356000E000BF00BF70BD0000ED
:10328000840601400024F4000480FF1F002D31015A
:10329000264005400080FF1F00127A0000B5FFF7AE
:1032A00097FF00200149086000BD000008ED00E024
:1032B00002E008C8121F08C1002AFAD170477047FF
:1032C000002001E001C1121F002AFBD1704700005D
:1032D000C720FFF7A5F8FDF7A3F8FDF735FAFDF7CE
:1032E00001F9FFF7D9F98320FFF7E2F800BF00BF2B
:1032F0000220FDF773F80028FAD0FFF70FFC8022B8
:103300000A490B48FDF704F830B90820FDF752FAD6
:103310000120FDF735FA05E00120FDF74BFA082002
:10332000FDF72EFA0A20FDF737FEE0E78C80FF1F3D
:103330000880FF1F030008000300100003002000A6
:1033400003004000000010000000200000004000CA
:1033500003000010001000000C001D003D050000DF
:1033600003000020002000000D001E009105000059
:1033700003000040004000000E001F00E5050000B3
:103380000100020002000000010019001505000004
:103390002E2E2F2E2E2F2E2E2F2E2E2F2E2E2F2E48
:1033A0002E2F647269766572732F686333325F6C97
:1033B0006C5F6472697665722F7372632F68633312
:1033C000325F6C6C5F696E74657272757074732EA7
:1033D00063000000F43300000080FF1F8C00000039
:1033E000B0320000803400008C80FF1F840E00008B
:1033F000C0320000000000000000000053504920CF
:103400004D61737465722F536C61766520657861C8
:103410006D706C653A20436F6D6D756E6963617494
:10342000696F6E206265747765656E2074776F20B2
:10343000626F6172647321000000000000000000F0
:10344000000000000000000000000000000000007C
:10345000000000000000000000000000000000006C
:10346000000000000000000000000000000000005C
:10347000000000000000000000000000000000004C
:040000050000028174
:00000001FF
